:100000000C949A060C94C2060C94C2060C94C20678
:100010000C94C2060C94C2060C94C2060C94C20640
:100020000C94C2060C94C2060C941B240C94E62477
:100030000C94C2060C94C2060C94C2060C94C20620
:100040000C94C2060C94C2060C94C2060C94C20610
:100050000C94C2060C94C2060C94C2060C9484093B
:100060000C94C2060C94C2060C94C2060C94C206F0
:100070000C94C2060C94C2060C94C2060C94C206E0
:100080000C94C2060C94C2060C94C2060C94C206D0
:100090000C94C4170C94C2060C94C2060C94C206AD
:1000A0000C94C2060C94C2060C94C206AD08B008AB
:1000B0009F08A308A908D108D108D108B408B80836
:1000C000BC08C208C608D108CC0800000000250002
:1000D00028002B002E00310000000000000000006E
:1000E0002A2B280000000000000000000000000093
:1000F00000000000000000002C9EB4A0A1A2A434C7
:10010000A6A7A5AE362D3738271E1F20212223246F
:100110002526B333B62EB7B89F8485868788898A0B
:100120008B8C8D8E8F909192939495969798999AA7
:100130009B9C9D2F3130A3AD350405060708090AA5
:100140000B0C0D0E0F101112131415161718191A87
:100150001B1C1DAFB1B0B500000000000000000086
:1001600080E0F0FCFFFFFFFFFFFFFFFFFFFF070343
:1001700007FFFFFFFFFFFFFFFFFFFFFFFFFFFFFF87
:10018000FF070307FFFFFFFFFFFFFFFFFFFFFCF875
:10019000E0800000000000000000000000000000FF
:1001A000000000000000000000000000000000004F
:1001B000000000000000000000000000000000003F
:1001C000000000000000000000000000000000002F
:1001D000000000000000000000000000000000F827
:1001E000FFFFFFFFFF0F0FFFFF010001FFFF0000F8
:1001F00000FFFF010001FFFF0F0FFFFF010001FFE4
:10020000FF000000FFFF010001FFFF1F1FFFFFFFB6
:10021000FFFFF800000000000080E0380878F000E0
:100220000000C0F818F88000C07018F8F80000004E
:10023000000000080888D8380000C0F0180808F846
:10024000F000001010F8F800000070D88888C87816
:100250000000000000000000000000000000003F5F
:10026000FFFFFFFFFFFCFCFFFF800080FFFF00009F
:1002700000FFFF800080FFFFF0F0FFFF800080FFA5
:10028000FF000000FFFF800080FFFFF8F8FFFFFF86
:10029000FFFF1F00000000000C07030202030F0C09
:1002A00000080F01000007060300000F0100000016
:1002B00000080C0E0D0808080000070F08080807C2
:1002C00003000000000F030000070F0808080F07D5
:1002D000000000000000000000000000000000001E
:1002E00001070F3FFFFFFFFFFFFFFFFFFFFFE0C022
:1002F000E0FFFFFFFFFFFFFFFFFFFFFFFFFFFFFF2D
:10030000FFE0C0E0FFFFFFFFFFFFFFFFFFFF3F1F1A
:1003100007000000000000000000000000000000D6
:1003200000000000000000000000000000000000CD
:1003300000000000000000000000000000000000BD
:1003400000000000000000000000000000000000AD
:100350000000000000000000000005072061000010
:1003600000000000005F00000007000700147F1479
:100370007F14242A7F2A12231308646236495522E7
:10038000500005030000001C2241000041221C0017
:10039000082A1C2A0808083E0808005030000008F7
:1003A00008080808006060000020100804023E51A0
:1003B00049453E00427F4000426151494621414546
:1003C0004B311814127F1027454545393C4A49499D
:1003D0003001710905033649494936064949291E44
:1003E0000036360000005636000000081422411482
:1003F0001414141441221408000201510906324950
:1004000079413E7E1111117E7F494949363E414175
:1004100041227F4141221C7F494949417F0909010D
:10042000013E414151327F0808087F00417F410071
:100430002040413F017F081422417F404040407FDF
:100440000204027F7F0408107F3E4141413E7F0944
:100450000909063E4151215E7F091929464649494D
:10046000493101017F01013F4040403F1F204020B2
:100470001F7F2018207F631408146303047804038B
:10048000615149454300007F414102040810204169
:10049000417F00000402010204404040404000014E
:1004A00002040020545454787F484444383844446B
:1004B0004420384444487F3854545418087E090175
:1004C00002081454543C7F0804047800447D400022
:1004D0002040443D00007F10284400417F40007CC4
:1004E000041804787C0804047838444444387C14A4
:1004F000141408081414187C7C0804040848545484
:100500005420043F4440203C4040207C1C2040209C
:100510001C3C4030403C44281028440C5050503C77
:100520004464544C44000836410000007F00000041
:100530004136080008082A1C08081C2A080800067A
:100540000909060000050720600000000000000007
:100550005F00000007000700147F147F14242A7F27
:100560002A122313086462364956205000080703F4
:1005700000001C2241000041221C002A1C7F1C2A72
:1005800008083E08080080703000080808080800C5
:100590000060600020100804023E5149453E0042C0
:1005A0007F400072494949462141494D3318141290
:1005B0007F1027454545393C4A49493141211109B8
:1005C000073649494936464949291E0000140000AA
:1005D00000403400000008142241141414141400C4
:1005E0004122140802015909063E415D594E7C1210
:1005F00011127C7F494949363E414141227F4141A8
:10060000413E7F494949417F090909013E41415124
:10061000737F0808087F00417F41002040413F016F
:100620007F081422417F404040407F021C027F7FB0
:100630000408107F3E4141413E7F090909063E41C1
:1006400051215E7F09192946264949493203017F14
:1006500001033F4040403F1F2040201F3F403840A3
:100660003F631408146303047804036159494D433C
:10067000007F4141410204081020004141417F04B4
:10068000020102044040404040000307080020549B
:100690005478407F284444383844444428384444FB
:1006A000287F385454541800087E090218A4A49CCA
:1006B000787F0804047800447D40002040403D00DD
:1006C0007F1028440000417F40007C047804787C3F
:1006D000080404783844444438FC182424181824A6
:1006E0002418FC7C08040408485454542404043F8F
:1006F00044243C4040207C1C2040201C3C40304096
:100700003C44281028444C9090907C4464544C44C1
:100710000008364100000077000000413608000262
:10072000010204023C2623263C7C3C3E5E2B3D3FDE
:100730002F5B5D3B2C2A225C0000030C0F30333C06
:100740003FC0C3CCCFF0F3FCFF080B000202020154
:100750000009040000010202000005240010010548
:100760002401010104240206052406000107058175
:100770000310004009040100020A000000070502FE
:100780000240000007058302400000040309041230
:10079000010002EF0201404F1B049200010102031D
:1007A00001537061726B46756E00537061726B46D7
:1007B000756E2050726F204D6963726F00AED580E8
:1007C000A81FD300408D142002A1C8DA02817FD96E
:1007D000F1DB40A4A6AF00000000230026002900A2
:1007E0002C002F000000000200090F00000304018C
:1007F000000C0000000000000000000000000000ED
:100800000000000005072061000000000000005FFC
:1008100000000007000700147F147F14242A7F2A99
:100820001223130864623649552250000503000064
:10083000001C2241000041221C00082A1C2A080832
:10084000083E08080050300000080808080800604A
:1008500060000020100804023E5149453E00427FDE
:10086000400042615149462141454B311814127FE5
:100870001027454545393C4A49493001710905036E
:100880003649494936064949291E003636000000D6
:100890005636000000081422411414141414412286
:1008A0001408000201510906324979413E7E1111B6
:1008B000117E7F494949363E414141227F414122D3
:1008C0001C7F494949417F090901013E414151329B
:1008D0007F0808087F00417F41002040413F017FA1
:1008E000081422417F404040407F0204027F7F0481
:1008F00008107F3E4141413E7F090909063E4151B2
:10090000215E7F09192946464949493101017F0184
:10091000013F4040403F1F2040201F7F2018207F84
:1009200063140814630304780403615149454300C8
:10093000007F4141020408102041417F0000040271
:100940000102044040404040000102040020545491
:1009500054787F4844443838444444203844444818
:100960007F3854545418087E090102081454543C2A
:100970007F0804047800447D40002040443D00008E
:100980007F10284400417F40007C041804787C08D4
:1009900004047838444444387C14141408081414AB
:1009A000187C7C080404084854545420043F4440F4
:1009B000203C4040207C1C2040201C3C4030403CDF
:1009C00044281028440C5050503C4464544C44007B
:1009D0000836410000007F0000004136080008088A
:1009E0002A1C08081C2A08080006090906BD071960
:1009F000802000070605040100080A0B0C0D09FF02
:100A0000FFBFFFFFFFFBFFFFFFBFFFFF7FFBFFFFFE
:100A1000F7BBFFFF7FBBFFFFF7BBFFFE7FBBFFEF17
:100A2000D7BBFDFE7DBBDFEFD7BB7DFE7DBBD3EF2C
:100A3000D7BB3D7E7CBBD3E7C7B3397E7C3B93E716
:100A4000C793397C3C3993C78393397C383183C74A
:100A50008311187C38118187830118783810018739
:100A60008301103830000183030010181000018149
:100A7000010010101000000101000010000000FF34
:100A8000FFBFFFFFFFFBFFFFF7BFFFFFFFFBFFFF06
:100A900007E1FD7D0DADEDCD1DFBF3E61F1BC1FD97
:100AA000FD01FBFE7D3B83FDFD0D31CEE5F33BD922
:100AB000CDAD2D6C48A303F9FD9DC1E670399DEDC8
:100AC000C503F9FC1C0193C78303F1FC3C0103C17E
:100AD000FDFD047000F9FD1DFDF1803818E0FD3DBD
:100AE0008101C0F07818098D0D0C0CF8F8F0018127
:100AF000010010101000000101000000000000FFC4
:100B0000FFBFFFFFFFFBFFFFFFBFFFFF7FFBBF013B
:100B10007C7F67602F6B37B39C9FE7F06280BF3F9D
:100B2000706B2D6E35B89FCFD0BA409F3F30626F4B
:100B3000672B350E1C603F3F83B1071F7C7103A7F5
:100B4000C09F3F3B60292327B19E1F673801787FF4
:100B50001F0018607F3F818480073F7C7C7F078077
:100B6000800E3F3F3060212323301C1F0F01008186
:100B7000010010101000000101000010000000FF33
:100B8000FFBFFFFFFFFBFFFFF7BFFFFFFFFBFFFF05
:100B9000F7BFFFFF7FBBFFEFF7BBFFFE7FBBFFEFA2
:100BA000D7BBFFFE7DBBDFEFD7BB3DFE7DBBD3EFE9
:100BB000D7BB3D7E7DBBD3E7C7B3397E7C3B93E794
:100BC000C793397C3C3993C78393397C383183C7C9
:100BD0008311187C381181878301187838100183BC
:100BE00083011038300001830300101810000181C8
:100BF00001001010100000010100000000000000C2
:100C0000000000000000002A2B2800000000000067
:100C10000000000000000000000000000000002CA8
:100C20009E9FA0A1A2A32DA5A6AF2F363837A4273B
:100C30001E1F20212223242526B7B664A7E4AD1F5A
:100C40008485868788898A8B8C8D8E8F90919293EC
:100C50009495969798999A9B9C9D253526B1B8B006
:100C60000405060708090A0B0C0D0E0F10111213CC
:100C70001415161718191A1B1C1D24B5273100004E
:100C8000000000240027002A002D00300004080284
:100C90000110408040102040804080080204018004
:100CA0004020100201108010204040200404040461
:100CB0000403040502020202040302020202060601
:100CC000060606060404020202040405010902A144
:100CD000010901A100850105091901290315002554
:100CE00001950375018102950175058103050109CF
:100CF00030093109381581257F750895038106C0B3
:100D0000C005010906A1018502050719E029E715BB
:100D100000250175019508810295017508810395EB
:100D2000067508150025650507190029658100C0AD
:100D3000992FAC2C11241FBECFEFDAE0DEBFCDBF60
:100D400014E0A0E0B1E0ECE7FAE602C005900D92F5
:100D5000A83EB107D9F728E0A8EEB4E001C01D9283
:100D6000AD3EB207E1F716E0C9E9D6E004C021972D
:100D7000FE010E94EF32C839D107C9F70E94F52C55
:100D80000C9431350C9400003FB7F89480910A051B
:100D900090910B05A0910C05B0910D0526B5A89B6F
:100DA00005C02F3F19F00196A11DB11D3FBFBA2FFD
:100DB000A92F982F8827820F911DA11DB11DBC015D
:100DC000CD0143E0660F771F881F991F4A95D1F721
:100DD000089580E0089580E00895DB01ED91FC9195
:100DE00011970280F381E02DBC01CD010994089593
:100DF000DB01ED91FC9111970084F185E02DBC01A0
:100E0000CD0109940F931F93CF93DF93EC0100E082
:100E100010E08E8590E0081719079CF4C801880F30
:100E2000991FEA85FB85E80FF91F80819181DC011C
:100E3000ED91FC910680F781E02D09950F5F1F4F22
:100E4000E8CFE885F9851582188A1F868E85882364
:100E500031F0EA85FB850190F081E02D02C0E0E0F1
:100E6000F0E0F987E88781E08583DF91CF911F91DA
:100E70000F910895FC018785808B9685992331F128
:100E8000882311F0815004C0662301F18FEF890F90
:100E9000878722859385A22FB92FA80FB11DA80F90
:100EA000B11D0D90BC91A02DB187A08781E0159652
:100EB0008C938089E22FF92FE80FF11DE80FF11DC7
:100EC0000190F081E02D158281E0089580E0089581
:100ED000CF93DF93FC018785808B26852223B1F198
:100EE000482F50E030E02150310942175307B1F04C
:100EF0008F5F878722859385A22FB92FA80FB11DF9
:100F0000A80FB11D0D90BC91A02DB187A08781E0E5
:100F100015968C938089E22FF92F0EC06623B1F0CD
:100F20001786A285B385CD91DC911197D187C087B3
:100F300081E08D838089FD01E80FF11DE80FF11D2F
:100F40000190F081E02D158281E001C080E0DF9109
:100F5000CF910895DC011696ED91FC91179730978B
:100F600009F0099580E090E008950E94AA0780E0CA
:100F700090E00895CF93DF93EC010E94AA07CE0181
:100F8000DF91CF910895DC01FB0112968C911297AD
:100F900090E02481358182179307D1F4918180817B
:100FA000813A31F481E0913091F0933089F411C0AD
:100FB000813271F49B3021F482811F968C9305C09D
:100FC0009A3031F4828150968C9381E0089508958F
:100FD00080E00895DC01FB0188E4808389E481835B
:100FE00084E482831D969C911D979F709F5B9383E1
:100FF0001D968D919C911E9724E0969587952A9534
:10100000E1F78F708F5B848385E00895FC01828116
:101010008F5BFB01808381E00895EF92FF920F9335
:101020001F93CF93DF93FB012081213851F523815A
:10103000223239F5DC0112962C9130E04481558141
:1010400042175307F1F4EC010B851C85E12CF12CC0
:101050000115110591F0F801448155816281738178
:1010600080E80E948D248F3FFFEF9F0769F0E80E14
:10107000F91ED8010D911C91EBCF81E08F87C7013C
:1010800005C080E090E002C08FEF9FEFDF91CF912D
:101090001F910F91FF90EF900895CF93DF93CDB7FD
:1010A000DEB769970FB6F894DEBF0FBECDBFFC0167
:1010B000DB018C918F5F8C93BE016F5F7F4F89E165
:1010C000DB011D928A95E9F729E0298384E08A8370
:1010D00091E09D8383E08E832A8721E22B879C8782
:1010E0009D879F8722E2288B27E02B8B25E02C8B86
:1010F0008E8B20E430E0388F2F8B998F82818B8309
:1011000095858685998B8A8B838180688D8B49E153
:1011100050E080E00E948D2469960FB6F894DEBFFF
:101120000FBECDBFDF91CF91089590E0FC013197C4
:10113000EF30F105B0F5EA5AFF4F0C94EF32809191
:1011400080008F7703C0809180008F7D8093800026
:10115000089580918000877FF9CF84B58F7702C092
:1011600084B58F7D84BD0895809190008F7707C0EE
:10117000809190008F7D03C080919000877F809345
:10118000900008958091C0008F7703C08091C000C7
:101190008F7D8093C00008958091C200877F8093E7
:1011A000C20008951F93CF93DF93282F30E0F901F9
:1011B000EC51F84F8491F901E357F34FD491F901C1
:1011C000E455F34FC491CC23C9F0162F81110E942E
:1011D0009508EC2FF0E0EE0FFF1FE653FF4FA591AF
:1011E000B4918FB7F894111105C09C91ED2FE09543
:1011F000E92302C0EC91ED2BEC938FBFDF91CF91EF
:101200001F910895CF93DF9390E0FC01E357F34FD4
:101210002491FC01E455F34F8491882361F190E01F
:10122000880F991FFC01E158F34FC591D491FC013F
:10123000E653FF4FA591B491611109C09FB7F8948F
:101240008881209582238883EC912E230BC0623005
:1012500061F49FB7F8943881822F80958323888327
:10126000EC912E2B2C939FBF06C08FB7F894E8818A
:101270002E2B28838FBFDF91CF9108958F929F925D
:10128000AF92BF92CF92DF92EF92FF926B017C01FF
:101290000E94C4064B015C01C114D104E104F104B5
:1012A000F1F00E94C406DC01CB0188199909AA0952
:1012B000BB09883E9340A105B10570F321E0C21A35
:1012C000D108E108F10888EE880E83E0981EA11C81
:1012D000B11CC114D104E104F10419F7DDCFFF9072
:1012E000EF90DF90CF90BF90AF909F908F90089538
:1012F0002FB7F89460910605709107058091080555
:10130000909109052FBF08951F920F920FB60F926B
:1013100011242F933F938F939F93AF93BF9380910B
:10132000060590910705A0910805B0910905309137
:10133000050526E0230F2D3720F40296A11DB11DCF
:1013400005C029E8230F0396A11DB11D20930505B3
:101350008093060590930705A0930805B0930905AF
:1013600080910A0590910B05A0910C05B0910D0597
:101370000196A11DB11D80930A0590930B05A093C2
:101380000C05B0930D05BF91AF919F918F913F9147
:101390002F910F900FBE0F901F9018950F931F93D2
:1013A000CF93DF93EC018B018E8590E00196BC0119
:1013B000660F771F8A859B850E942234FC019B87DC
:1013C0008A87892B89F08E85E80FF11DE80FF11DC2
:1013D00011830083811105C01987088781E0F80116
:1013E00085838E858F5F8E87DF91CF911F910F91BF
:1013F0000895AF92BF92CF92DF92EF92FF920F9338
:101400001F93CF93DF931F92CDB7DEB77C01698323
:101410006A01590141E050E0BE016F5F7F4FFC015E
:1014200083810E9427278C0197FD0BC0F7018381E0
:10143000A501B60180640E94272797FD02C0800F96
:10144000911F0F90DF91CF911F910F91FF90EF901F
:10145000DF90CF90BF90AF9008958091FD048111EF
:101460006BC081E08093F0048093F10426EF34E0B8
:101470003093F3042093F2041092F5041092F404D4
:101480002FE231E03093ED042093EC041092F80445
:101490001092F7041092FA041092F9048093FB045E
:1014A0008093FC0481EC8093F6040E948828FC0160
:1014B00021818091F00490E0820F911D089724F023
:1014C00081E08093FD0438C0A281B381109729F494
:1014D0008CEE94E0938382830EC018968D919C913C
:1014E0001997009711F0DC01F8CF8CEE94E0199673
:1014F0009C938E93189780818093EE0481818093D2
:10150000EF0490818091F104890F808380E09091B5
:10151000F0048917A8F6A091F204B091F304A80F83
:10152000B11D9C91A181B0E0A45FBE4F9C939181BD
:101530009F5F91838F5FEBCF8CEE94E00895809155
:1015400083058823A9F14091080150910901609118
:101550000A0170910B0123EA35E08091A307909175
:10156000A4070E94381F811102C080E008954091B5
:10157000E8045091E9046091EA047091EB0441158C
:1015800051056105710591F023EA35E08091A307CB
:101590009091A4070E94381F882339F31092E80421
:1015A0001092E9041092EA041092EB041092830561
:1015B00081E008958F929F92AF92BF92EF92FF9237
:1015C0000F931F93CF934B015C01C42F80910801AF
:1015D00090910901A0910A01B0910B01881599051C
:1015E000AA05BB0501F10E949F0A811102C080E09B
:1015F00020C083EAE82E85E0F82E00E012E020E02B
:1016000030E0B501A4018091A3079091A4070E9446
:10161000A41E882361F38092080190920901A09290
:101620000A01B0920B0180918305C82BC0938305FA
:1016300081E0CF911F910F91FF90EF90BF90AF90FD
:101640009F908F9008954F925F926F927F928F92AA
:101650009F92AF92BF92CF92DF92EF92FF920F9341
:101660001F93CF93DF93EC016A017B0128013901BD
:10167000423051056105710510F480E073C0898521
:101680009A85AB85BC850196A11DB11D8417950770
:10169000A607B70790F38B889C88AD88BE888F8992
:1016A000803129F4BB27AF2D9E2D8D2D09C0DB0184
:1016B000CA0147E0B695A795979587954A95D1F7C2
:1016C000880E991EAA1EBB1E8091080190910901E7
:1016D000A0910A01B0910B0188169906AA06BB06D3
:1016E00079F48F898031A1F4DD24EE24FF24C60132
:1016F000880F991FFC01ED55FA4F5182408219C0A5
:1017000040E0C501B4010E94DA0A8111EACFB5CFE9
:10171000E894C7F8DD24EE24FF24C601880F991F42
:10172000880F991FFC01ED55FA4F40825182628269
:101730007382809183058160809383058A898230DA
:1017400080F08D819E81AF81B885880E991EAA1E7A
:10175000BB1E8092E8049092E904A092EA04B09241
:10176000EB0481E0DF91CF911F910F91FF90EF90FB
:10177000DF90CF90BF90AF909F908F907F906F90B1
:101780005F904F9008958F929F92AF92BF92CF92A9
:10179000DF92EF92FF920F931F93CF93DF93FC01A1
:1017A00081859285A385B4850196A11DB11D8417FD
:1017B0009507A607B70710F480E05CC08389948979
:1017C000A589B689C789C03129F4852E962EA72E02
:1017D000BB2409C04A015B01C7E0B694A794979463
:1017E0008794CA95D1F7E9016A017B018F01BC0199
:1017F000CD01680D791D8A1D9B1D80900801909078
:101800000901A0900A01B0900B01681579058A05BD
:101810009B0599F4F80187898031A9F4B701A601E5
:10182000552766277727440F551FFA01ED55FA4FC4
:1018300080819181A0E0B0E018C040E00E94DA0A07
:101840008111E8CFB9CFB701A6014F775527662799
:101850007727440F551F440F551FFA01ED55FA4FD6
:1018600080819181A281B381BF7088839983AA838B
:10187000BB8381E0DF91CF911F910F91FF90EF909B
:10188000DF90CF90BF90AF909F908F9008954F9230
:101890005F926F927F92AF92BF92CF92DF92EF9260
:1018A000FF920F931F93CF93DF9300D000D0CDB75B
:1018B000DEB78C0149835A836B837C835901C12C29
:1018C000D12C7601412C82E0582E612C712C49815B
:1018D0005A816B817C819E012F5F3F4FC8010E941E
:1018E000C30B882351F1D301C201F801058404C060
:1018F000880F991FAA1FBB1F0A94D2F7C80ED91EC2
:10190000EA1EFB1E49815A816B817C818789803167
:1019100029F088EF9FEFAFEFBFE004C088EF9FEFA3
:10192000A0E0B0E0481759076A077B0780F2F5018D
:10193000C082D182E282F38281E00F900F900F90FB
:101940000F90DF91CF911F910F91FF90EF90DF905B
:10195000CF90BF90AF907F906F905F904F90089521
:10196000CF93DF93EC018D818823A1F18C8187FFD8
:101970002DC06E857F858889998941E00E94DA0AA9
:10198000882341F1EA8980E2E89FF0011124DF0118
:10199000AD55BA4F1097F1F08D81823050F44B89DC
:1019A0005C896D897E895C964D935D936D937C9384
:1019B0005F978F89988DA98DBA8DED55FA4F938FCA
:1019C000828FB58BA48B8C818F778C83DF91CF91A5
:1019D0000C949F0A80E0DF91CF9108958F929F929F
:1019E000AF92BF92CF92DF92EF92FF920F931F932D
:1019F000CF93DF93EC018D81811102C080E077C02D
:101A00000B891C892D893E8904171507260737077E
:101A1000A8F36A017B01823029F4CA86DB86EC8652
:101A2000FD860DC0C114D104E104F10451F41E82FD
:101A30001F82188619861A861B861C861D8681E0E1
:101A400056C08A849B84AC84BD84EB8DFC8D258537
:101A500030E0275F3F4FB501A401415051096109B2
:101A60007109022E04C076956795579547950A949B
:101A7000D2F7D701C6010197A109B10904C0B695F3
:101A8000A795979587952A95D2F784179507A60766
:101A9000B70720F089288A288B2849F44F89588D68
:101AA000698D7A8D4E835F836887798704C0841B34
:101AB000950BA60BB70B4C015D018E010A5F1F4F02
:101AC00081149104A104B10409F4A7CF4E815F8170
:101AD0006885798598018B8D9C8D0E94C30B91E060
:101AE000891A9108A108B1088111EACF87CFDF9147
:101AF000CF911F910F91FF90EF90DF90CF90BF900B
:101B0000AF909F908F900895CF93DF93EC010E9448
:101B1000B00C882311F01D8281E0DF91CF910895F0
:101B20003F924F925F926F927F928F929F92AF926D
:101B3000BF92CF92DF92EF92FF920F931F93CF93BA
:101B4000DF93CDB7DEB72C970FB6F894DEBF0FBE8C
:101B5000CDBF5C01DC015B968D909C905C971696E6
:101B6000CD90DD90ED90FC901997C114D104E10463
:101B7000F10439F0BFEFCB1ADB0AEB0AFB0A312C78
:101B800007C0F401C080D180E280F3803324339415
:101B9000F40181859285A385B4859C01AD012F5FF9
:101BA0003F4F4F4F5F4F29873A874B875C8726010E
:101BB00037011D821E821F821886F401818592855D
:101BC000A385B4852D813E814F815885281739071B
:101BD0004A075B0708F063C089859A85AB85BC8599
:101BE0008C159D05AE05BF0550F482E0C82ED12CA2
:101BF000E12CF12C92E0492E512C612C712C9E018C
:101C00002F5F3F4FB701A601C4010E94C30B882379
:101C100009F445C089819A81AB81BC81892B8A2BCB
:101C20008B2B41F0260137019FEF491A590A690AA7
:101C3000790A05C0C414D504E604F70491F02D8197
:101C40003E814F8158852F5F3F4F4F4F5F4F2D8310
:101C50003E834F8358873FEFC31AD30AE30AF30A40
:101C6000ACCF0FEF1FEF2FEF3FE0B301A201C40194
:101C70000E94230B882399F0D50116964D915D9112
:101C80006D917C911997411551056105710549F0D8
:101C900093018201C4010E94230B811102C080E0E4
:101CA0002AC0D50116964D925D926D927C9219973D
:101CB000332051F0D301C2010196A11DB11DF401E1
:101CC00080839183A283B383F5018789908DA18D51
:101CD000B28D892B8A2B8B2B69F4D50157964D92A7
:101CE0005D926D927C925A9714968C9114978068AD
:101CF00014968C9381E02C960FB6F894DEBF0FBE3D
:101D0000CDBFDF91CF911F910F91FF90EF90DF90AA
:101D1000CF90BF90AF909F908F907F906F905F908B
:101D20004F903F9008952F923F924F925F926F9203
:101D30007F928F929F92AF92BF92CF92DF92EF925B
:101D4000FF920F931F93CF93DF9300D000D0CDB7B6
:101D5000DEB78C015B011A01DC0115968C91159799
:101D60008130C9F414968C9181FF15C082FF1BC08D
:101D7000F801438954896589768982859385A4858C
:101D8000B58584179507A607B70769F0C8010E94B3
:101D9000EE0C811108C081E090E0F801938382830A
:101DA00080E090E039C1610183C0D8015B968D91DC
:101DB0009C915C97FC01248121502A013B0139E070
:101DC00076946794579447943A95D1F7722E74207D
:101DD0007A01F1E0FF22772009F476C080E092E0FA
:101DE0008E199F0946018C159D0508F44C01D801F8
:101DF0005B962D913C915C9716968D919D910D90DF
:101E0000BC91A02D0297A109B109F901058404C074
:101E1000880F991FAA1FBB1F0A94D2F746855785C2
:101E200060897189840F951FA61FB71F9C01AD01A2
:101E3000270D311D411D511D29013A01811432E048
:101E4000930609F088C08091080190910901A09142
:101E50000A01B0910B0184159505A605B70559F443
:101E60008FEF9FEFDC018093080190930901A0930D
:101E70000A01B0930B019501B301A2018091A30760
:101E80009091A4070E94381F882309F484CF9EEF05
:101E9000B91AC818D908F80182859385A485B58533
:101EA000880D991DA11DB11D82879387A487B587D1
:101EB000D8011A964D915D916D917C911D97C11439
:101EC000D10409F072CF87C0E114F10409F086CF84
:101ED00016964D915D916D917C9119974115510523
:101EE0006105710559F457968D919D910D90BC91A6
:101EF000A02D0097A105B10541F521C09E012F5FDE
:101F00003F4F0E94C30B882309F44BCF89819A81EC
:101F1000AB81BC81F801238D348DF90127892031F3
:101F200029F048EF5FEF6FEF7FE004C048EF5FEF0D
:101F300060E070E084179507A607B70730F0C80186
:101F40000E94900D81114ACF26CFF8018683978396
:101F5000A087B18743CFE114F10429F5D8011A967F
:101F60004D915D916D917C911D9753968D919D91B1
:101F70000D90BC91A02D481759076A077B0798F070
:101F80000E949F0A882309F406CF409208015092CC
:101F9000090160920A0170920B01809183058160B2
:101FA0008093830508C041E0C301B2010E94DA0AB0
:101FB000882309F4F0CED501F701ED55FA4FCF0192
:101FC000880D991DE817F90719F02D912193FACF83
:101FD000A80CB91C5ECF53968D919D910D90BC912C
:101FE000A02D84179507A607B70740F4F801438B87
:101FF000548B658B768B848180688483D80114969A
:102000008C9183FD02C0C10107C0C8010E94B00CC1
:10201000882309F4C0CEF7CF0F900F900F900F9048
:10202000DF91CF911F910F91FF90EF90DF90CF90B4
:10203000BF90AF909F908F907F906F905F904F90E8
:102040003F902F900895CF93DF931F92CDB7DEB7C7
:10205000698341E050E0BE016F5F7F4F0E94930EA5
:102060000F90DF91CF910895FC016093BC008091A7
:10207000BC0087FFFCCF9091B900987F90830895B2
:10208000CF92DF92EF92FF920F931F93CF93DF9344
:10209000EC01C62ED42E8F85882351F0411108C043
:1020A00084E98093BC008091BC0084FDFCCF1F8636
:1020B000EF848E01035F1F4FE11014C0FE8464EAB9
:1020C000C8010E9434108D85883011F1803101F1F2
:1020D000DD2011F080E4E82EE092BB0064E8C80146
:1020E0000E943410C092BB0064E8C8010E94341002
:1020F00082E0D81204C08F858F5F8F8711C084E97A
:102100008093BC008091BC0084FDFCCF1F8608C07A
:10211000FF0CF092BB0064E8C8010E943410D8CFD5
:10212000DF91CF911F910F91FF90EF90DF90CF90B3
:102130000895089580E090E00895AF92BF92CF9205
:10214000DF92EF92FF920F931F93CF93DF93CDB760
:10215000DEB760970FB6F894DEBF0FBECDBF5C014F
:102160008B016B018FEFC81AD80A26E030E04BEDE7
:1021700051E0B601C5010E94C219882391F1209156
:10218000000130910101C901330FAA0BBB0B609113
:102190000201709103016B01770FEE08FF08C8166A
:1021A000D906EA06FB06DCF49C01AD012C193D09B9
:1021B0004E095F0969F02D873E874F87588B0E9433
:1021C000A3312D853E854F8558890E94553203C025
:1021D00060E070E0CB01C60ED71EE81EF91E760146
:1021E00044C00A5F1F4F7601B501CE0101960E94DF
:1021F00006240C151D0510F47801860160E874E0D2
:10220000CE0107960E9406248D819E81E816F9066C
:10221000C0F48017910708F48C01E981FA81E00F7E
:10222000F11FD080108269817A816E0D7F1DCE01F1
:1022300007960E94451D89819A81FC01E00FF11FDC
:10224000D0820F8118850115110521F0C8010E9467
:10225000CF3103C060E070E0CB017B01C8010E9478
:102260008A3389819A810E948A33C70160960FB6AA
:10227000F894DEBF0FBECDBFDF91CF911F910F91BC
:10228000FF90EF90DF90CF90BF90AF900895CF92E6
:10229000DF92EF92FF920F931F93CF93DF9300D0C3
:1022A00000D0CDB7DEB78091100590911105E09177
:1022B000A208F091A30800E010E00817190734F411
:1022C0002191203229F00F5F1F4FF7CF0FEF1FEF43
:1022D00062EE71E085EA97E00E94D7276091A2083C
:1022E0007091A30885EA97E00E94C52780E498E0F2
:1022F0000E94511668EE71E080E498E00E94C527C4
:1023000080E498E00E94C1276091A2087091A30820
:1023100080E498E00E94D7276FE772E08091A208DE
:102320009091A3080E94F6319093870580938605CB
:102330000F3F8FEF180719F40E942A1A45C06EEF5D
:1023400071E0C8010E94821B811169C06BE072E0DC
:10235000C8010E94821B811162C062E672E0C8015E
:102360000E94821B811167C069E172E0C8010E946E
:10237000821B811160C08091A2089091A308053052
:10238000110509F064C025E030E04DE652E060E060
:1023900070E00E94C219882309F4E4C06FE772E07C
:1023A00080E090E00E94F631909387058093860547
:1023B0000E94B13190930F0580930E05BC01990FD7
:1023C000880B990B0E943E0910929A0810929B0864
:1023D00010929C0810929D0810929E0810929F08DF
:1023E0001092980868E978E084E998E00E94F21871
:1023F0006091060170910701072E000C880B990B64
:102400000E943E090F900F900F900F90DF91CF9197
:102410001F910F91FF90EF90DF90CF900895B8013A
:102420008091A2089091A3080E949D1090930701AB
:1024300080930601C9CFB8018091A2089091A308AA
:102440000E949D109093050180930401BDCF06303A
:10245000110509F087C026E030E04CE252E060E070
:1024600070E00E94C219882309F47CC087E0C82E5E
:10247000D12C0AE918E00A5FEE24E394F12C809154
:10248000100590911105C816D9060CF09DCF20912A
:102490008405309185058091A2089091A308FC01E4
:1024A000EC0DFD1D1081232B09F444C0812F0E94E7
:1024B000932A6091040170910501072E000C880B8E
:1024C000990B0E943E09183818F0E8E7E10F20C088
:1024D000E12FF0E017FF0FC0E058F109C70101C07C
:1024E000880FEA95EAF78095909198088923809360
:1024F0009808E0E00DC0E150F44FE491EE2371F153
:10250000E7FF06C0809198088D7F80939808EF7749
:10251000AAE9B8E0EE2321F08C918E1301C01C9241
:1025200011960A13F7CF68E978E084E998E00E94F1
:10253000F21814C0612F84E998E00E94421960915A
:10254000040170910501072E000C880B990B0E9465
:102550003E09612F84E998E00E94FF188FEFC81AA6
:10256000D80A8DCF63E372E0C8010E94821B8823E2
:1025700079F1409110055091110598012F5F3F4F5F
:102580008091A2089091A308241735074CF4FC0110
:10259000E20FF31F6081603241F02F5F3F4FF4CFB5
:1025A000EE24EA94FF24FA9401C07901B8010E9454
:1025B0009D10182FB7018091A2089091A3080E9446
:1025C0009D109091500899831A838B831C8214C0AC
:1025D00069E372E0C8010E94821B8823C1F0B80140
:1025E0008091A2089091A3080E949D10909150089C
:1025F00099831A821B828C830E942D0A24E030E08A
:10260000AE014F5F5F4F61E00E94F909DDCE60E4EB
:1026100072E0C8010E94821B882361F0B80180919A
:10262000A2089091A3080E949D10909303018093AB
:102630000201CACE6AE472E0C8010E94821B8823AC
:1026400061F0B8018091A2089091A3080E949D10AA
:102650009093010180930001B7CE64E572E0C80158
:102660000E94821B8111B0CE68E572E0C8010E9411
:10267000821B8111A9CE8091860590918705892BB7
:1026800009F4A2CE0E942A1A6FE572E080E090E081
:102690000E94F6319093870580938605ECCF2F92A8
:1026A0003F924F925F926F927F928F929F92AF92E2
:1026B000BF92CF92DF92EF92FF920F931F93CF932F
:1026C000DF93CDB7DEB7C857D1090FB6F894DEBF98
:1026D0000FBECDBF60E874E0CE018D589F4F0E94C1
:1026E000062489E00E949C28892B11F461E301C033
:1026F00060E3CE018D589F4F0E94EA1C8AE00E9441
:102700009C28892B11F461E301C060E3CE018D5850
:102710009F4F0E94EA1C8DE00E949C28892B11F497
:1027200061E301C060E3CE018D589F4F0E94EA1C17
:1027300085E00E949C28892B11F461E301C060E3CD
:10274000CE018D589F4F0E94EA1CE9960EAD1FAD39
:10275000E9970C5F1F4FB801CE018D589F4F0E9423
:10276000DF23882391F0E5962EAD3FADE597E996FE
:102770008EAD9FADE99763E772E0820F931F0E94D1
:102780001B35E9961FAF0EAFE99780E498E00E94F1
:10279000C12760E087E00E94D20861E086E00E94E5
:1027A000D20868E772E080E498E00E94D727CE0163
:1027B0008D589F4F0E949E1C80E090E00E943F3207
:1027C00090E090938505809384050E94C528E59646
:1027D000CEACDFACE5975E018EE1A80EB11C61E2E4
:1027E00078E0C5010E94A31F1C821B828BE591E04B
:1027F0009A8389831E8236018E010F5F1F4F250148
:1028000018016FE270E0C3010E940735009709F4D8
:1028100041C0F30120812F3221F4FFEF6F1A7F0AAC
:10282000F0CF86198D3008F08CE0E82EF12CA7014E
:10283000B301CE01885A9F4F0E942235E8E5F0E0AF
:10284000EC0FFD1FEE0DFF1D1082C8010E94840DCC
:10285000F8018581882351F01EAE1DAE8BE591E015
:102860009CAF8BAF21961FAE21971CC0AE01485A7A
:102870005F4FB201C8010E94B71B882369F36E0C39
:102880007F1CC2010E94840D942D852D2801092FE3
:10289000182FB7CF43018C189D08B201CE01CB96FB
:1028A0000E94A31FC80CD91CF6018081811109C0A8
:1028B000BE01655C7F4FC1010E94A31F41E852E049
:1028C0003FC019A218A28BE591E09F8F8E8F1BA2AB
:1028D00021968FAD2197811116C06C961FAE1EAE4A
:1028E0006C9788EE93E0A0E0B0E0A0968CAF9DAF2F
:1028F000AEAFBFAFA097E3961FAE1EAEE397A5960F
:102900001FAEA59723C08250A601823040F461E239
:1029100078E0C5010E94B71B81110DC0DECFBE015A
:10292000655C7F4FC5010E94B71B8823B1F2CE01C1
:10293000CB960E94840DB501C1010E94A31FA60180
:10294000B101CE01885A9F4F0E94F41F6C968EAD44
:102950009FAD6C979093A7088093A608A0968CAD26
:102960009DADAEADBFADA0978093A8089093A90888
:10297000A093AA08B093AB08A4968CAD9DADAEAD64
:10298000BFADA4978093AC089093AD08A093AE0818
:10299000B093AF088DE0E8E5F0E0EC0FFD1F3C964A
:1029A000A0EBB8E001900D928A95E1F7E3968EAD29
:1029B0009FADE3979093BE088093BD0884EA98E0AA
:1029C0000E94661D2091100530911105892B09F494
:1029D0009AC00091A2081091A308020F131F84EA65
:1029E00098E00E943321F801808380911005909136
:1029F0001105E091A208F091A308E80FF91F2081CA
:102A00002D3031F02A3071F0803891055CF475C0BA
:102A100084EA98E00E943D210A9721F484EA98E034
:102A20000E943321E091BD08F091BE08309729F053
:102A300082849384A484B58404C088248A94982CC6
:102A4000540100E010E084EA98E00E94661D892BA2
:102A500091F0E090A008F090A108E00EF11E84EA49
:102A600098E00E943321F70180830F5F1F4F0C30E5
:102A7000110549F703C007301105B4F00091A00813
:102A80001091A10826E030E048E552E060E070E0F7
:102A9000C8010E94C219882339F066E070E0C801BD
:102AA0000E949D108C0102C000E010E0E12CF12C8E
:102AB000E016F10634F40E944711FFEFEF1AFF0A07
:102AC000F7CF8091BD089091BE08009721F0B50125
:102AD000A4010E94EE0CE091A208F091A30880915D
:102AE000100590911105E80FF91F10820E944711FF
:102AF000109211051092100561CF01969093110567
:102B0000809310055BCF1216130674F48091A2080F
:102B10009091A308FC01E20FF31F10820E9447115D
:102B200010921105109210058091BD089091BE0879
:102B3000009761F00E94840D8091BD089091BE08BD
:102B40000E948A331092BE081092BD0861E087E0AF
:102B50000E94D20860E086E00E94D208E5968EAD21
:102B60009FADE5970E948A33C858DF4F0FB6F8949F
:102B7000DEBF0FBECDBFDF91CF911F910F91FF90B0
:102B8000EF90DF90CF90BF90AF909F908F907F900D
:102B90006F905F904F903F902F900895DC01ED91E2
:102BA000FC910084F185E02D40E0099485ED80934F
:102BB000BC008091BC0084FDFCCF10925B050895A1
:102BC00040913505262F30E0240F311D213231058B
:102BD000DCF420915B052430C9F4FC0180E090E036
:102BE000861758F4309135052191DC01AD5EBA4F5E
:102BF000A30FB11D2C930196F3CF80913505680F7B
:102C00006093350580E0089581E0089582E008959D
:102C100008958FEF9FEF08958FEF9FEF08958091B4
:102C2000120590E09195819591090895CF93DF93D6
:102C300000D0CDB7DEB7CB01642F49835A830E9401
:102C4000E0154981842F5A81952F0F900F90DF91C5
:102C5000CF910895CF93DF931F92CDB7DEB76983ED
:102C600061E0CE0101960E94E01581E090E00F90B6
:102C7000DF91CF9108950895FB016281738180E413
:102C800098E00C94D727FB016281738180E498E07F
:102C90000C94D727FB016281738180E498E00C9447
:102CA000D7270F93CF93DF93EC010F8106950695FD
:102CB000069501504E81415020E060E00E94A52120
:102CC00081E09A85911101C080E08A8760E4CE019D
:102CD000DF91CF910F910C94CE1580E498E00E9483
:102CE000511663E872E080E498E00E94C5270E94D4
:102CF0004F136CED75E080E090E00C943E0980E4A9
:102D000098E00E94511688E591E00E943B2A60ED10
:102D100077E080E090E00E943E0980E498E00E9425
:102D2000511669E972E080E498E00E94C52780E4CA
:102D300098E00E94C1276CEA72E080E498E00E946B
:102D4000C5276BEB72E080E498E00E94C52760ED38
:102D500077E080E090E00E943E090C94B31CCF9392
:102D6000DF9380E498E00E945116C0E4D8E083E449
:102D700095E09C878B8760ED72E0CE010E94C527AD
:102D8000CE010E94C12766EE72E0CE010E94C527E7
:102D900088E593E09C878B8761E080E090E00E946B
:102DA000473280E090E00E943F3290E0909395059A
:102DB000809394056CED75E080E090E00E943E0900
:102DC000DF91CF910C94B31CCF93DF9380E498E014
:102DD0000E945116C0E4D8E083E495E09C878B877D
:102DE00060ED72E0CE010E94C527CE010E94C1278E
:102DF00069EF72E0CE010E94C52788E593E09C87C9
:102E00008B8760E080E090E00E94473280E090E0B5
:102E10000E943F3290E090939505809394056CED6D
:102E200075E080E090E00E943E09DF91CF910C9424
:102E3000B31CCF93DF93EB016A817B8185EA97E036
:102E40000E94C5278A819B810884D985C02D8C501A
:102E5000934009F462C080E498E00E9451166AE150
:102E600073E080E498E00E94C527809194059091DA
:102E70009505892B49F060E373E088E898E00E94AB
:102E8000451D65E473E008C06AE573E088E898E0F2
:102E90000E94451D6FE673E08EE898E00E94451D94
:102EA0008A819B818458934081F460E973E080E4D7
:102EB00098E00E94C52788E898E00E949E1C6CE973
:102EC00073E080E498E00E94C5278A819B818C5042
:102ED000934081F464E873E080E498E00E94C527A1
:102EE0008EE898E00E949E1C6CE973E080E498E014
:102EF0000E94C5278A819B818C59934009F041C06B
:102F000064E873E080E498E00E94C52788E898E0D0
:102F10000E949E1C65EA73E02EC080E498E00E9447
:102F2000511660ED72E080E498E00E94C52760E8E9
:102F300074E080E498E00E94C5278A819B818E5AC4
:102F4000934061F465EB73E080E498E00E94C5274C
:102F50006CEB73E080E498E00E94C5278A819B8136
:102F60008C5B934071F46EEA73E080E498E00E9419
:102F7000C52763EC73E080E498E0DF91CF910C9477
:102F8000C527DF91CF9108951F920F920FB60F9230
:102F900011242F933F934F935F936F937F938F935E
:102FA0009F93AF93BF93EF93FF938091B900887F76
:102FB000803609F49CC068F5883209F45BC090F44F
:102FC000803109F454C038F4882309F4F6C08830FD
:102FD00009F44DC0F6C0883109F44CC0803209F4C0
:102FE0005DC0EFC0803409F468C048F4803309F450
:102FF00055C0883309F0E5C080935A05D8C08035A4
:1030000009F44FC0883509F45DC0883409F0D9C08F
:10301000D6C0883909F4C7C0A8F4883709F467C056
:1030200038F4883609F463C0803709F460C0C9C039
:10303000883809F4B8C0803909F45FC0803809F0D5
:10304000C0C05BC0803B09F486C038F4803A09F404
:1030500066C0883A09F47FC0B4C0803C09F4A7C0B8
:10306000883C09F4A4C0883B09F48AC0AAC08091B6
:10307000800510C090917F0580917E05981770F5AE
:10308000E0917F0581E08E0F80937F05F0E0E25AAA
:10309000FA4F80818093BB0085EC86C080935A05EF
:1030A0008EC0E0917F0581E08E0F80937F05809137
:1030B000BB00F0E0E25AFA4F808390917F05809147
:1030C0007E056EC0E0917F0581E08E0F80937F05C5
:1030D0008091BB00F0E0E25AFA4F808380915D0559
:1030E00081116DC081E080935C0584EA61C083E05A
:1030F00080935B0510925905CFCF8091590580329E
:1031000008F051C0E091590581E08E0F8093590578
:103110008091BB00F0E0E75CFA4F8083BDCF85EC87
:103120008093BC0010925B0580915905803230F489
:10313000E0915905F0E0E75CFA4F10826091590583
:1031400070E0E0913705F091380589E395E0099545
:103150001092590536C084E080935B0510923605C5
:1031600010923505E0913305F09134050995809171
:103170003505811105C081E0809335051092130556
:10318000E091360581E08E0F80933605F0E0ED5E2C
:10319000FA4F80818093BB00909136058091350570
:1031A000981708F479CF85E88093BC000AC085ECB5
:1031B0008093BC0010925B0504C010925A050E94D7
:1031C000D615FF91EF91BF91AF919F918F917F9114
:1031D0006F915F914F913F912F910F900FBE0F9084
:1031E0001F901895CF93DF93EB010E942D0A28E0E2
:1031F00030E0AE0162E0DF91CF910C94F909DC017F
:10320000683810F0685825C0E62FF0E067FF12C05C
:10321000E058F10981E090E001C0880FEA95EAF7F3
:10322000809514969C911497892314968C931497E7
:1032300060E00FC0E852FF4F6491662301F167FF21
:1032400008C014968C9114978D7F14968C931497C4
:103250006F77FD01369686E0662321F09081961304
:1032600001C01082815031968111F6CFCD01BD0190
:103270006C5F7F4F0E94F21881E090E0089580E03B
:1032800090E00895DC01683810F068582DC0E62FF2
:10329000F0E067FF11C0E058F10981E090E001C063
:1032A000880FEA95EAF714969C911497892B149647
:1032B0008C93149760E018C0E852FF4F649161113D
:1032C00009C081E090E013969C938E93129780E062
:1032D00090E0089567FF08C014968C91149782605F
:1032E00014968C9314976F7716968C911697861771
:1032F00051F117968C911797861729F118968C9192
:103300001897861701F119968C9119978617D9F09D
:103310001A968C911A978617B1F01B968C911B9771
:10332000861789F0FD01369680E090E02191211109
:1033300005C0FD01E80FF91F668305C001968630C0
:103340009105A1F7BECFCD01BD016C5F7F4F0E94FB
:10335000F21881E090E00895EF92FF921F93CF93CF
:10336000DF93EC01162F0E9442197C01612FCE01E0
:103370000E94FF18C7019927DF91CF911F91FF90FD
:10338000EF900895FC01E60FF71FDA01CD01841BD1
:10339000950B8217930734F491918D919817B1F39F
:1033A00080E0089581E00895CF93DF93EC016A8B6C
:1033B0008091080190910901A0910A01B0910B013F
:1033C0008E879F87A88BB98B80E2689FF0011124BC
:1033D000ED55FA4F4489558960E070E0BA015527F0
:1033E00044274F8B588F698F7A8F828D938DA0E001
:1033F000B0E0482B592B6A2B7B2B4F8B588F698F52
:103400007A8F8385887151F4848D958DA68DB78DC3
:103410008B8B9C8BAD8BBE8B81E00EC0803111F00D
:1034200080E015C09E012D5E3F4F8B8D9C8D0E94CC
:10343000470C8823A9F384E08D8381E08C831E826E
:103440001F82188619861A861B861C861D86DF91A8
:10345000CF910895CF93DF936AEC73E085EA97E00C
:103460000E94D727609186057091870585EA97E0CD
:103470000E94C5276FEC73E085EA97E00E94D7278A
:10348000A0918605B0918705FD0101900020E9F724
:103490003197BF016A1B7B0B80E090E04AE00E94FD
:1034A000F12A6FE772E085EA97E00E94D7276091E2
:1034B00086057091870584ED93E00E9412350E9485
:1034C000342B609186057091870588ED93E00E940A
:1034D00012350E94342B85EA97E00E94C127C091E3
:1034E0008605D091870568ED73E0CE010E94123504
:1034F000892B11F460EBE2C064ED73E0CE010E9411
:103500001235892B11F463E8D9C06EED73E0CE015A
:103510000E941235892B11F461E8D0C064EE73E08B
:10352000CE010E941235892B71F068EE73E0CE0156
:103530000E941235892B39F061EF73E0CE010E94B1
:103540001235892B11F462E8B9C069EF73E0CE013E
:103550000E941235892B39F063E074E0CE010E949D
:103560001235892B11F466E8A9C06CE074E0CE0135
:103570000E941235892B39F061E174E0CE010E947E
:103580001235892B11F460E899C069E174E0CE012D
:103590000E941235892B11F461EC90C062E274E054
:1035A000CE010E941235892B11F464ED87C069E2C7
:1035B00074E0CE010E941235892B11F465ED7EC0B6
:1035C0006DE274E0CE010E941235892B39F061E37F
:1035D00074E0CE010E941235892B11F461EB6EC0AC
:1035E00068E374E0CE010E941235892B11F462ED7C
:1035F00065C06DE374E0CE010E941235892B11F491
:1036000061ED5CC064E474E0CE010E941235892B48
:1036100011F463ED53C06BE474E0CE010E941235E7
:10362000892B11F466ED4AC06CE574E0CE010E946E
:103630001235892B11F460E241C064E574E0CE01DB
:103640000E941235892B11F463EB38C068E574E0F1
:10365000CE010E941235892B11F462EB2FC068E471
:1036600074E0CE010E941235892B39F062E674E0D5
:10367000CE010E941235892B11F46AED1FC06FE450
:1036800074E0CE010E941235892B39F06AE674E0AD
:10369000CE010E941235892B11F469ED0FC064EF41
:1036A00073E0CE010E941235892B39F064E774E093
:1036B000CE010E941235892B41F468ED84E998E02F
:1036C0000E94421981E090E002C080E090E0909377
:1036D000890580938805892B91F4809184059091C8
:1036E0008505892B29F08881DF91CF910C94932A4D
:1036F000688184E998E0DF91CF910C944219DF91C1
:10370000CF910895EF92FF920F931F93CF93DF9382
:1037100000D000D000D0CDB7DEB77C018B01CE0148
:1037200001960E9406248091A2089091A3082D8101
:103730003E81E216F30641F49701A80160E070E0D3
:103740000E94C219182F01C010E089819A810E943D
:103750008A33812F26960FB6F894DEBF0FBECDBFF9
:10376000DF91CF911F910F91FF90EF900895AF924D
:10377000BF92CF92DF92EF92FF920F931F93CF935E
:10378000DF93CDB7DEB72B970FB6F894DEBF0FBE31
:10379000CDBF7C01CE0101966C01FC0190E28BE073
:1037A0008C0D91938E13FDCFDA0120E037E09D91CF
:1037B000992339F19E3219F0E9E2F7E00AC03A3074
:1037C00009F4AAC028E03AE0F2CF3196891709F44B
:1037D000A3C084918111F9CF321708F49DC08FEDF9
:1037E000890F8E3508F098C081E0820FF601E20F54
:1037F000F11D2FE9290F2A3108F490529083282FC8
:10380000D6CF8981803209F487C08B01FB01838D7B
:10381000948DF701948F838FFB0116821782108697
:1038200011861286138614861586A12CF8018285CE
:103830009385A485B58543895489658976898417DC
:103840009507A607B70708F067C025E0B695A795C6
:10385000979587952A95D1F7F82FFF70BF2EF8011D
:103860008581823008F458C0C8010E94292097FD44
:1038700053C0F80182859385A485B5854F96A11D17
:10388000B11D82879387A487B587F0E2BF9EC001F0
:103890001124BC016D557A4F61157105E9F1FB01E9
:1038A00020812223B9F1253EE1F04BE050E0C60132
:1038B0000E94F134892B09F0B9CF6B2DC7012B96EB
:1038C0000FB6F894DEBF0FBECDBFDF91CF911F9131
:1038D0000F91FF90EF90DF90CF90BF90AF900C943E
:1038E000D419A11014C0F701B28A40910801509177
:1038F000090160910A0170910B0146875787608B1F
:10390000718BFC01ED55FA4F8081882329F0AA24A0
:10391000A3948CCFAA2039F380E02B960FB6F894AD
:10392000DEBF0FBECDBFDF91CF911F910F91FF90F2
:10393000EF90DF90CF90BF90AF900895CF93DF933B
:10394000FC01448155816081718180E498E00E948E
:10395000B423EC0180E498E00E94C1278C0F9D1FE6
:10396000DF91CF910895E2E8F8E08081918193831F
:103970008283DC01ED91FC910680F781E02D0994B2
:10398000FC0180918205811103C08FEF9FEF0895A4
:103990009FB7F89482E08093E9002091F20030E034
:1039A0001216130614F421E030E02115310559F008
:1039B000289884E6809381058091F100808380912E
:1039C000F200882319F09FBFC90108958BE6809308
:1039D000E800F9CFEF92FF920F931F93CF93DF93FD
:1039E00000D0CDB7DEB78C0169831A82FC01E48078
:1039F000F580FFEFEF1AFF0AB7010E94DF2388234B
:103A000081F0F8012081318184819581BE016F5F51
:103A10007F4F820F931F0E941B35F801F582E482CD
:103A200081E00F900F90DF91CF911F910F91FF9048
:103A3000EF900895EF92FF920F931F93CF93DF9330
:103A4000EC017B018A01BA010E94DF2328813981C0
:103A500081110DC02115310519F0C9010E948A3369
:103A6000198218821D821C821B821A8206C01D8345
:103A70000C83B701C9010E941B35CE01DF91CF91A4
:103A80001F910F91FF90EF900895CF93DF93EC017A
:103A90006115710559F0FB0101900020E9F731979C
:103AA000AF01461B570B0E941A1D0CC088819981DB
:103AB000009711F00E948A33198218821D821C829D
:103AC0001B821A82CE01DF91CF910895DC015996B5
:103AD000ED91FC915A973097B9F083899489A58923
:103AE000B6894285538564857585841B950BA60B25
:103AF000B70B811520E89207A105B10538F08FEFCB
:103B00009FE7A0E0B0E0089580E090E00895CF93B3
:103B1000DF931F92CDB7DEB76983DC01ED91FC9195
:103B20000280F381E02D41E050E0BE016F5F7F4FE6
:103B300009950F90DF91CF910895FC01818D928DB1
:103B4000009711F00C94B00C0895CF93DF93EC0123
:103B5000898D9A8D009739F481E090E09B838A8368
:103B600080E090E00BC0FC01138212820E94930E51
:103B7000E98DFA8D22813381232B71F7DF91CF916B
:103B800008950F931F93CF938C01FC01648390855C
:103B9000C62FC90F6C2F6F70C8010E94CE156C2FF5
:103BA00062956F706061C801CF911F910F910C9465
:103BB000CE158FB7F89480918B058FBF089561E083
:103BC000FC0184810E94D20880918A0581111092A3
:103BD0008A0508958EBD00000DB407FEFDCF8EB599
:103BE00008958FEF0C94EA1D0F931F93CF93DF93EB
:103BF000EB010E9478098B010E94F11D8F3F49F073
:103C00000E947809601B710B6C177D07A8F380E098
:103C100001C081E0DF91CF911F910F910895CF9363
:103C2000DF93EC018E81882389F08F8198859C0138
:103C30002F5F3F4F38872F838230924018F40E94C5
:103C4000F11DF3CFCE010E94DF1D1E82DF91CF91C7
:103C500008958CBD9DBD0895CF93DF93EC018091B5
:103C60008A05811109C081E080938A058091F5075A
:103C70009091F6070E94291E60E08C81DF91CF9120
:103C80000C94D208CF92DF92FF920F931F93CF93A1
:103C9000DF9300D000D0CDB7DEB76C01F62E2983BC
:103CA0003A834B835C830E940F1EC6010E942C1E28
:103CB0006CE271E0C6010E94F41D8F2D80640E94A9
:103CC000EA1D08E110E05C814B813A812981DA012B
:103CD000C901002E04C0B695A795979587950A94BB
:103CE000D2F729833A834B835C830E94EA1D0850F4
:103CF000110929813A814B815C81083F8FEF1807B8
:103D000031F7FF2029F0E8E0FE1204C087E803C085
:103D100085E901C08FEF0E94EA1D10E00E94F11DAD
:103D2000F601828787FF04C01F3F11F01F5FF6CFA7
:103D30000F900F900F900F90DF91CF911F910F91E7
:103D4000FF90DF90CF900895AF92BF92CF92DF9215
:103D5000EF92FF920F931F93CF93DF93EC016901D2
:103D6000C801820F931F8130924008F070C08E818D
:103D7000882371F088819981AA81BB8148175907EE
:103D80006A077B0729F48F819885C816D906B0F594
:103D9000488359836A837B838B85833039F089E03C
:103DA000440F551F661F771F8A95D1F79A01AB0103
:103DB00061E1CE010E94421E882319F083E08D83C9
:103DC00046C00E9478095B010E94F11D8A878F3FDF
:103DD00049F40E9478096A197B096D327140A0F399
:103DE0008FE003C08E3F31F08DE08D83CE010E94C5
:103DF000DF1D2DC018861F8281E08E838F819885FC
:103E00008C159D0540F40E94F11D8F8198850196C7
:103E100098878F83F3CF6701E00EF11ECE14DF0485
:103E200031F00E94F11DF60181936F01F7CF8F8170
:103E30009885080F191F18870F838985882319F023
:103E40000115124048F0CE010E940F1E05C0CE01A0
:103E50000E94DF1D80E001C081E0DF91CF911F91C2
:103E60000F91FF90EF90DF90CF90BF90AF900895AB
:103E7000EF92FF920F931F93CF93DF93EC017901A1
:103E8000411551056105710511F482E13CC08B8536
:103E9000833039F089E0440F551F661F771F8A95DC
:103EA000D1F79A01AB0168E1CE010E94421E88233E
:103EB00011F084E028C08EEF0E94EA1D87018EEF8A
:103EC000F81AF80181918F010E94EA1D0E151F0555
:103ED000C1F78FEF0E94EA1D8FEF0E94EA1D0E943A
:103EE000F11D8A878F71853031F081E18D83CE019C
:103EF0000E94DF1D09C068E572E0CE010E94F41D3A
:103F0000811107C085E18D83CE010E94DF1D80E015
:103F100013C020E030E0A9016DE0CE010E94421EF6
:103F2000811104C00E94F11D882311F084E1EBCFC0
:103F3000CE010E94DF1D81E0DF91CF911F910F9193
:103F4000FF90EF900895FC01DB0112968D919C91FA
:103F50001397938382838BE591E0918380831496FA
:103F60008C911497848315968C911597858316965A
:103F70004D915D916D917C91199746835783608730
:103F800071871A964D915D916D917C911D97428735
:103F90005387648775871E964D915D916D917C91D5
:103FA000519746875787608B718B52968C915297A9
:103FB000828B53964D915D916D917C915697438B79
:103FC000548B658B768B57964D915D916D917C915D
:103FD0005A97478B508F618F728F5B968D919C9112
:103FE0005C97948F838F0895EF92FF920F931F93A6
:103FF000CF93DF93EC017B018A011B821A8288EE4A
:1040000093E0A0E0B0E08C839D83AE83BF838FEA12
:1040100091E0998388838DE190E00E94F5329A8F38
:10402000898F009779F02DE1F701DC0101900D9265
:104030002A95E1F74CE050E0B801CE010C960E94C1
:104040002235188EDF91CF911F910F91FF90EF9045
:1040500008952F923F924F925F926F927F928F922C
:104060009F92AF92BF92CF92DF92EF92FF920F9307
:104070001F93CF93DF9300D0CDB7DEB7FC018581CE
:10408000882309F4D9C0848180FFD6C021E02A8327
:10409000438954896589768982859385A485B58508
:1040A000481759076A077B0709F41A826F013A819A
:1040B000832F90E0DE0111964D013F01B6E06B0EBB
:1040C000711C892B09F47DC0D6011A964D915D9122
:1040D0006D917C911D975A01B1E0BB22F6012581BB
:1040E0001A012B0189E056944794379427948A95B6
:1040F000D1F7838D948D223061F4FC01828D938DF4
:10410000A48DB58DBC01CD01620D731D841D951D5F
:1041100045C0DC0114961C9111501221A114B10468
:10412000D1F4111118C0452B462B472B51F4F60141
:104130008789908DA18DB28D86839783A087B18763
:104140000AC0468157816085718593010E94C30B27
:10415000882309F471C0F601238D348D86819781FF
:10416000A085B1850297A109B109AC01BD01F90192
:10417000058404C0440F551F661F771F0A94D2F7A9
:1041800086859785A089B189840F951FA61FB71FC3
:10419000BC01CD01610F711D811D911DD6011496C9
:1041A0002C9126FF14C00091080110910901209163
:1041B0000A0130910B01601771078207930751F5CF
:1041C00006C0FA81FF23C1F1898190E037C040E049
:1041D0000E94DA0A882381F1F501ED55FA4FD401E6
:1041E000CF010196E817F90719F021912D93FACF25
:1041F000EFEF8E1A9E0AF60182859385A485B58518
:104200000196A11DB11D82879387A487B58780E0A1
:1042100090E057CF740101E010E09501AB01BC01C3
:104220008091A3079091A4070E94A41E882321F0E7
:10423000BFEF8B1A9B0ADFCF8FEF9FEF0F900F908E
:10424000DF91CF911F910F91FF90EF90DF90CF9072
:10425000BF90AF909F908F907F906F905F904F90A6
:104260003F902F900895FC01818D928D009711F061
:104270000C9429208FEF9FEF08950F931F93CF93F6
:10428000DF93FC01818D928D0097B9F0EF010E94C0
:1042900029208C010F3F8FEF180791F0898D9A8D9F
:1042A000FC0142855385648575854150510961093A
:1042B00071090E94EE0CC80105C080E090E002C0C8
:1042C0008FEF9FEFDF91CF911F910F910895CF93C3
:1042D000DF93EC019C818E81981758F4E881F98175
:1042E0000084F185E02D42E0CE0109958C818F5F3D
:1042F0008C83DF91CF9108950F931F93CF93DF931A
:104300001F92CDB7DEB78C01FC018681681728F4B7
:10431000C80149830E94C11D4981F80187818695A2
:1043200086958695481758F44583642F606BC801BD
:104330000F90DF91CF911F910F910C94CE150F909C
:10434000DF91CF911F910F910895CF92DF92EF925D
:10435000FF920F931F93CF93DF93EC01F62EC42EA1
:10436000D22E8F81869586958695081710F00FEFCF
:10437000080F1D2D011780F0412F6F2DCE010E94D7
:104380007C21EF2CCE1430F060E0CE010E9467213A
:10439000E394F8CF1F5FEECF4D2D6F2DCE01DF914F
:1043A000CF911F910F91FF90EF90DF90CF900C94E1
:1043B0007C212F923F924F925F926F927F928F92C9
:1043C0009F92AF92BF92CF92DF92EF92FF920F93A4
:1043D0001F93CF93DF93CDB7DEB727970FB6F8942F
:1043E000DEBF0FBECDBFDC011B960D911C911C974B
:1043F0000115110509F462C19F838E83F801B49100
:1044000031964491319654903196A491EA2EF12C34
:10441000F7E0EF0EF11C23E0F594E7942A95E1F71D
:10442000EB82F801349674913196E491671758F055
:10443000862F90E02E2F30E0F901E70FF11D8E1747
:104440009F070CF473C06D3069F4AE81BF8116967E
:104450008C91882309F467C060E08E819F810E945F
:10446000C11D61C06A3009F029C1EE81FF818185DB
:104470006581D62E8E9DD00C1124878186958695D8
:104480008695D81630F08285882319F082E08287DD
:10449000D12C4D2D60E08E819F810E947C21AE81C8
:1044A000BF811A968C911A97823008F43CC01596F9
:1044B0002C9115971B96ED91FC911C97309741F02C
:1044C0003396E49119960C91E09FE02D112401C0E0
:1044D000E0E08FEF820F0E2F10E0095F1F4F93E097
:1044E000159507959A95E1F7080FEE81FF814681B2
:1044F00041506481CF010E94A521AE81BF811996F0
:104500008C9119976D2D8E9D600D1124660F660F8D
:10451000660F17968C91861708F460E060648E81B0
:104520009F810E94CE1581E090E0CAC050E05B2BD5
:10453000C8010696671BEE81FF81F185F983423041
:10454000510588F4452B09F019825E9C90015F9C0F
:10455000300D1124629F8001639F100D1124080FFC
:10456000191F412C24C0EA2FE77021F048E0442EA7
:104570004E1A01C0412CA82FFC0140E050E07E2FD4
:104580007A1B761728F47491470F511D3196F7CF97
:10459000FC01E60FF11D54904E9D80014F9D100DC2
:1045A0005E9D100D1124020F131F080F191FAE81FD
:1045B000BF811496BC91BC83EE81FF813580652C50
:1045C000712CCC24C394D12C812C912C7FEF7C0DA9
:1045D0007A838B81781708F05FC0212CAE81BF8170
:1045E00019968C91281608F051C07A81711102C079
:1045F000222051F0AE81BF8115964C9115974F5FE7
:104600006C81CD010E947C21A12CB12CA51488F5D0
:10461000F501E80DF91DE00FF11F2491442061F030
:10462000CE14DF0449F4E22FF0E0042C02C0F5952B
:10463000E7950A94E2F72E2FEE81FF818185823083
:1046400079F4E22F2110E295EF70F0E0E75CF84F8B
:104650002491622F8E819F812D830E9467212D815D
:10466000622F8E819F810E946721FFEFAF1ABF0AE0
:10467000CDCFB12C7981B71639F060E08E819F8162
:104680000E946721B394F6CF2394A8CF860C971C81
:10469000BFEFCB1ADB0A9ACFAE81BF8117968C9100
:1046A0001797869586958695381608F03CCF15960F
:1046B0003C921597632D606BCD0133CF80E090E085
:1046C00027960FB6F894DEBF0FBECDBFDF91CF9116
:1046D0001F910F91FF90EF90DF90CF90BF90AF9020
:1046E0009F908F907F906F905F904F903F902F9012
:1046F0000895409191055091920520918F05309138
:10470000900542175307B4F49091E8009570E1F3D7
:104710009091E80092FD19C08093F100809191057D
:104720009091920501968F739927892B19F48EEF3A
:104730008093E80080919105909192050196909365
:1047400092058093910581E0089580E0089561507D
:1047500030F02091F100FC0120830196F8CF2898D9
:1047600084E6809381050895CF92DF92EF92FF92C5
:104770000F931F93CF93DF936C017A018B01C0E0FD
:10478000D0E0CE15DF0589F0D8016D918D01D601FD
:10479000ED91FC910190F081E02DC6010995892BE6
:1047A00011F47E0102C02196ECCFC701DF91CF91B9
:1047B0001F910F91FF90EF90DF90CF9008950F938E
:1047C0001F93CF93DF93EC0188819981009729F0A3
:1047D0002A813B812617370788F48B016F5F7F4F53
:1047E0000E942234009761F0998388831B830A8397
:1047F0002C813D81232B11F4FC01108281E001C04A
:1048000080E0DF91CF911F910F910895FC011182FB
:10481000108213821282158214826115710551F083
:10482000FB0101900020E9F73197AF01461B570BC0
:104830000C941A1D08951F920F920FB60F92112417
:104840008F939F938091E1009091E100937F9093EB
:10485000E10083FF0FC01092E90091E09093EB001C
:104860001092EC0092E39093ED001092820598E094
:104870009093F00082FF20C093E09093E900909124
:10488000F200992319F09AE39093E8009091930530
:10489000992339F090919305915090939305992322
:1048A00089F190918105992339F09091810591507A
:1048B00090938105992341F184FF10C08091E2001B
:1048C0008E7E81608093E2008091E1008F7E8093F4
:1048D000E10080918E058E7E806111C080FF16C040
:1048E0008091E2008E7E80618093E2008091E10001
:1048F0008E7E8093E10080918E058E7E8160809314
:104900008E0504C05D9ACDCF289AD6CF9F918F9106
:104910000F900FBE0F901F901895DF92EF92FF92AD
:104920000F931F93CF93DF93D82E8A017B01E40E60
:10493000F51EEB01CE15DF0571F0D7FE03C0FE01B9
:10494000849101C088810E94792321968111F2CF40
:104950008FEF9FEF01C0C801DF91CF911F910F91A1
:10496000FF90EF90DF9008950F931F93CF93DF9305
:104970001F92CDB7DEB782E0898342E450E069E45C
:1049800077E080E80E948D240E948828DC0112963E
:104990000D911C9113970115110569F0D801ED9146
:1049A000FC910280F381E02DBE016F5F7F4FC80153
:1049B000099597FF07C089810F90DF91CF911F91D3
:1049C0000F910895F80100851185E5CF1F920F9290
:1049D0000FB60F921124CF92DF92EF92FF920F93B6
:1049E0001F932F933F934F935F936F937F938F9377
:1049F0009F93AF93BF93EF93FF93CF93DF93CDB785
:104A0000DEB76C97DEBFCDBF1092E9008091E80061
:104A100083FFEDC168E0CE0145960E94A72382EF97
:104A20008093E8008D8987FF05C09091E80090FF92
:104A3000FCCF03C09EEF9093E800982F907609F08A
:104A4000C6C09E892F89188D91110CC0803829F419
:104A500080918D058093F10002C01092F1001092B8
:104A6000F10048C1422F50E0512B913051F4811197
:104A700041C14130510509F03DC180918D058D7FC7
:104A80000BC0933061F4811135C14130510509F0FB
:104A900031C180918D05826080938D052BC1953049
:104AA00041F48091E80080FFFCCF20682093E30070
:104AB00021C1963009F05FC0EB8CFC8C1092E900AC
:104AC0001092920510929105123091F51092900576
:104AD00010928F050E94B42499E0BE016F5F7F4F52
:104AE000DB01E92F1D92EA95E9F799831A8391E09A
:104AF0009E8390EA98879AEF99872091910530914B
:104B00009205275F3F4F3C832B838D831092E900F2
:104B10001092920510929105F0929005E0928F0507
:104B200049E050E080E00E948D240E94B424E2C05D
:104B3000F0929005E0928F050E948828DC01129681
:104B4000ED90FC901397E114F10409F4C0C0D70173
:104B5000ED91FC910480F581E02DBE016B5E7F4FED
:104B6000C7010995009719F00CF0C4C0C7C0F70140
:104B7000E084F184E8CF973009F4C0C0983021F484
:104B800081E08093F100B6C0993009F0B3C0837022
:104B900009F0B4C0EDE0F1E081E021E036E390817E
:104BA000992361F08093E9002093EB009191909319
:104BB000EC003093ED008F5F873089F78EE78093AC
:104BC000EA001092EA008F898093820593C08B8D52
:104BD0009C8D1092E900109292051092910590938D
:104BE000900580938F05898D811156C08E899D898E
:104BF000913A59F4813209F081C047E050E067E111
:104C000071E080E00E948D2475C0913209F076C079
:104C1000833289F4888D90E0982F88272F89822B02
:104C2000A0E0B0E08093130190931401A0931501CC
:104C3000B09316015FC0803269F48091E80082FF72
:104C4000FCCF67E087E191E00E94A7238BEF809380
:104C5000E80006C0823209F04DC08F8980931E01A2
:104C600080918C05882319F0EEEFFAE002C0E0E0B5
:104C7000F8E08091170190911801A0911901B0916D
:104C80001A01803B9440A105B10509F07BC08091D9
:104C90001E0180FF93C076C00E948828DC01129616
:104CA0000D911C9113970115110541F1D801ED915A
:104CB000FC910190F081E02DBE016B5E7F4FC80139
:104CC0000995811117C0F80100851185ECCF1130CD
:104CD00009F44EC0133091F48F89882309F445C03C
:104CE000823081F440E862E18AEA97E00E94B82CC1
:104CF000882321F08EEF8093E80079C081E28093D1
:104D0000EB0075C0813029F440E868E081EA97E063
:104D1000EDCF833099F70E948828DC011296ED9040
:104D2000FC9013978E010F5F1F4F6801E114F1048F
:104D300079F0D701ED91FC910680F781E02DB80163
:104D4000C7010995080F111DF701E084F184EECF2A
:104D5000D8011C92F60101900020E9F73197BF01BC
:104D60006C197D0940E0C601C1CF6BE877E002C055
:104D70006FE877E06115710509F2FB01449150E09D
:104D800080E840CF0FB6F894A895809160008861C4
:104D900080936000109260000FBEA895EE3F2AE05D
:104DA000F20739F08091FE0A9091FF0A9183808387
:104DB000A1CF1092FF0A1092FE0A9CCFEE3F8AE02C
:104DC000F80731F0808191819093FF0A8093FE0A69
:104DD00087E797E7918380839BE088E10FB6F8949B
:104DE000A895809360000FBE9093600083CF6C966F
:104DF0000FB6F894DEBF0FBECDBFDF91CF91FF910C
:104E0000EF91BF91AF919F918F917F916F915F9142
:104E10004F913F912F911F910F91FF90EF90DF9055
:104E2000CF900F900FBE0F901F9018952FB7F8944A
:104E300087708093E9009091E800892F807295FF38
:104E400004C09091F20080E4891B2FBF08957F92E7
:104E50008F929F92AF92BF92CF92DF92EF92FF928A
:104E60000F931F93CF93DF93C82E8B017A0180910C
:104E70008205811103C08FEF9FEF75C080918E0571
:104E800080FF05C08091E00082608093E000CE2D1D
:104E9000DF2DD12C8AEF882E8C2D8770B82E8C2D8B
:104EA0008072A82E8C2D8074982E9AE3792E2097EC
:104EB00009F452C08C2D0E941627282F81110AC098
:104EC0008A948820C1F261E070E080E090E00E9466
:104ED0003E09EDCF90E0C817D9070CF42C2F3FB74F
:104EE000F894B092E9008091E80085FF33C0822FEA
:104EF00090E0C81BD90BAA2029F02150A8F01092ED
:104F0000F100FBCFF801C7FE07C0215058F04491D3
:104F10004093F1003196F9CF215020F04191409318
:104F2000F100FACF080F191FDD2019F07092E80088
:104F30000AC08091E80085FD08C07092E800DD2479
:104F4000D394209739F0D12C05C0209719F49110F3
:104F50007092E8003FBFABCFD110ACCF5D9884E634
:104F600080939305C701DF91CF911F910F91FF901F
:104F7000EF90DF90CF90BF90AF909F908F907F90F9
:104F800008956EE774E00C9473280F931F93CF93EA
:104F9000DF93EC010E9473288C01CE010E94C1278F
:104FA000800F911FDF91CF911F910F9108950C9465
:104FB0007328CF93DF931F92CDB7DEB76983DC01EF
:104FC000ED91FC910280F381E02D41E050E0BE01C3
:104FD0006F5F7F4F09950F90DF91CF91089583E028
:104FE0008093E9008091F200882319F08AE380938E
:104FF000E8000895FC018485958597FD0BC09FB757
:10500000F89482E08093E9008091F2009FBF90E0E5
:10501000019608959FB7F89482E08093E90080910B
:10502000F2009FBF90E00895CF93DF93EC01809151
:105030001E01882331F083E00E94272718161906E5
:1050400034F081E090E09B838A8380E090E0DF9100
:10505000CF91089583E00E94162790E00895CF93A2
:10506000DF931F92CDB7DEB7FC018485958597FD50
:1050700005C02FEF3FEF358724870BC0CE01019687
:105080000E94C01C019719F4898190E002C08FEF43
:105090009FEF0F90DF91CF9108950F931F93CF93C0
:1050A000DF931F92CDB7DEB78C01FC018485958517
:1050B00097FF0EC0CE0101960E94C01C019719F403
:1050C000298130E002C02FEF3FEFF80135872487B8
:1050D000F801848595850F90DF91CF911F910F91F5
:1050E00008950E94EC346115710579F0FB0101907F
:1050F0000020E9F73197AF01461B570BDC01ED911A
:10510000FC910280F381E02D099480E090E0089505
:1051100080919A0581110DC082E08093960584E00C
:1051200080939705109299051092980581E08093DD
:105130009A0586E995E00895CF93DF93282F30E014
:10514000F901EC51F84F8491F901E357F34FD491F1
:10515000F901E455F34FC491CC2391F081110E94E1
:105160009508EC2FF0E0EE0FFF1FEA52F84FA591E3
:10517000B491EC91ED2381E090E021F480E002C055
:1051800080E090E0DF91CF9108958F929F92AF924F
:10519000BF92CF92DF92EF92FF92CF9310920208CC
:1051A000109200081092FD071092FC0784E0809393
:1051B000FB070E9478096B017C0161E08091FB078D
:1051C0000E94020961E08091FB070E94D208CFB7DC
:1051D000F8948091A205811127C0EDEBFCE0849149
:1051E000EEE9FCE09491E82FF0E0EE0FFF1FE158AC
:1051F000F34FA591B491EC91E92321F461E081E1B1
:105200000E94D20861E081E10E9402098CB58061B0
:105210008CBD8CB580648CBD61E08FE00E9402097A
:1052200061E080E10E9402098091A2058F5F809376
:10523000A205CFBF82E58093F50781E08093F60752
:105240008091F5079091F6070E94291ECAE08FEF22
:105250000E94EA1DC150D9F787EF97E00E942C1EEB
:1052600020E030E0A90160E087EF97E00E94421E55
:10527000C82F80930108813049F00E9478096C1989
:105280007D09613D774060F381E054C02AEA31E056
:1052900040E050E068E087EF97E00E94421E82FF06
:1052A00003C0C09302080EC0C4E00E94F11D8093A9
:1052B0000108C150D1F78A3A11F082E03BC082E088
:1052C0008093020880910208823021F0812C912C79
:1052D000540105C0812C912CA12C30E4B32E20E088
:1052E00030E0A90167E387EF97E00E94421EA50125
:1052F000940169E287EF97E00E94421E80930108C3
:10530000882349F00E9478096C197D09613D774036
:1053100030F388E00FC080910208823001F520E070
:1053200030E0A9016AE387EF97E00E94421E8823DC
:1053300041F086E08093FC0787EF97E00E94DF1D35
:105340008FC00E94F11D807C803C19F483E0809323
:1053500002080E94F11D0E94F11D0E94F11D87EFBD
:1053600097E00E94DF1D80E58093F50781E0809340
:10537000F6070E947D2B882329F080912608882338
:1053800041F06EC080E00E947D2B882309F469C043
:10539000F4CF80911A08803109F582E080932608C5
:1053A000109238081092390810923A0810923B086F
:1053B00080911B0890911C08A0E0B0E025E0880FC8
:1053C000991FAA1FBB1F2A95D1F780933408909389
:1053D0003508A0933608B09337081EC0803209F014
:1053E0003FC083E08093260840911D0850911E081D
:1053F00060911F0870912008409338085093390835
:1054000060933A0870933B0824E338E083E098E027
:105410000E94470C882321F183E098E090933D0897
:1054200080933C0881E08093250810922708109211
:1054300028081092290810922A0810922B0810921E
:105440002C0810922D0810922E0810922F081092FE
:10545000300810923108109232081092330801C0BF
:1054600080E0CF91FF90EF90DF90CF90BF90AF9012
:105470009F908F9008958F929F92AF92BF92CF92FC
:10548000DF92EF92FF920F931F93CF93DF936C0104
:10549000E12CF12C00E010E0AA24AA94BB24B394E0
:1054A000402F60E080E498E00E947C2145018E1846
:1054B0009F08C0E0D0E0FE01EE0DFF1DEC0DFD1DCC
:1054C000649180E498E00E946721C815D905F1F045
:1054D0002196C038D10579F70F5F1F4F80E8E80E9D
:1054E000F11C04301105E1F644E060E080E498E04E
:1054F000DF91CF911F910F91FF90EF90DF90CF90B0
:10550000BF90AF909F908F900C947C21DF91CF91B2
:105510001F910F91FF90EF90DF90CF90BF90AF90D1
:105520009F908F900895883810F0885829C0E82FF0
:10553000F0E087FF0FC0E058F10981E090E001C082
:10554000880FEA95EAF790919808892B809398083C
:1055500080E016C0E150F44F8491811109C081E0D0
:1055600090E0909397088093960880E090E00895EB
:1055700087FF06C0909198089260909398088F7763
:1055800090919A08981721F190919B08981701F132
:1055900090919C089817E1F090919D089817C1F0A0
:1055A00090919E089817A1F090919F08981781F00C
:1055B00020E030E0F901EC56F74F9681911102C0DE
:1055C000868306C02F5F3F4F2630310599F7C7CF3E
:1055D00068E978E084E998E00E94F21881E090E0C0
:1055E00008958F929F92AF92BF920F931F93CF9384
:1055F000DF93CDB7DEB7A1970FB6F894DEBF0FBE2D
:10560000CDBF19A2423008F44AE08E010F5D1F4F52
:10561000842E912CA12CB12CA50194010E94BE32A4
:10562000E62FB901CA0101501109EA3014F4E05D16
:1056300001C0E95CD801EC93232B242B252B61F7C7
:10564000B80185EA97E00E947328A1960FB6F894F6
:10565000DEBF0FBECDBFDF91CF911F910F91BF90E5
:10566000AF909F908F900895CF92DF92EF92FF922C
:10567000CF93DF936C01990FEE08FF08F7FE1FC070
:10568000E091A507F091A6070190F081E02D6DE271
:1056900085EA97E00995EC0166277727CB016C191D
:1056A0007D098E099F094AE00E94F12A8C0F9D1FF7
:1056B000DF91CF91FF90EF90DF90CF9008954AE077
:1056C000C701B601DF91CF91FF90EF90DF90CF90AF
:1056D0000C94F12A60918408709185086115710518
:1056E00059F08091860890918708DC01ED91FC913A
:1056F0000190F081E02D099408958F929F92AF92CE
:10570000BF92CF92DF92EF92FF92CF93DF93C82F99
:1057100087EF97E09093A4078093A307CC2369F1C8
:10572000C53010F080E00DC140E060E070E0CB01DA
:105730000E94DA0A8823B1F320E1C29FC00111243C
:105740008D569A4FFC01E254FE4F20812F7751F77E
:105750003C964081518162817381443651056105D7
:10576000710500F33497C080D180E280F380C114CA
:10577000D104E104F10421F4D5CFC12CD12C760160
:1057800040E0C701B6010E94DA0A882359F28091ED
:10579000AE059091AF058115924021F6A091B30519
:1057A000AA2309F4BFCF6091B1057091B2056115CC
:1057B000710509F4B7CF2091B005222309F4B2CFC7
:1057C000A09315082093070880E030E0E1E0F0E0C6
:1057D000C82FAF01082E02C0440F551F0A94E2F7EC
:1057E0002417350741F0982F8F5F983089F789E0AB
:1057F0008093100897CF809310082091B9053091BD
:10580000BA052115310519F040E050E008C020919B
:10581000C7053091C8054091C9055091CA0520932C
:1058200008083093090840930A0850930B08460172
:105830005701860E971EA11CB11C809216089092EB
:105840001708A0921808B0921908E091B405F091D9
:10585000B505F0931C08E0931B08B0E00E94743279
:10586000860E971EA81EB91E80921D0890921E08D3
:10587000A0921F08B092200885E0EE0FFF1F8A95C6
:10588000E1F7E150FE4FEF2FFF27E6958E0E9F1EAA
:10589000A11CB11C8092110890921208A0921308CA
:1058A000B09214082091B6053091B7052115310545
:1058B00021F0A90160E070E008C04091C30550915B
:1058C000C4056091C5057091C605D701C601881948
:1058D0009909AA09BB09840F951FA61FB71F04C009
:1058E000B695A79597958795CA95D2F780930C089A
:1058F00090930D08A0930E08B0930F08853F2FE0FA
:105900009207A105B10510F48CE018C0853F9F4FA8
:10591000A105B10510F480E111C08091CF059091EF
:10592000D005A091D105B091D20580931D08909328
:105930001E08A0931F08B093200880E280931A08E5
:1059400081E0DF91CF91FF90EF90DF90CF90BF90FB
:10595000AF909F908F9008958091880890918908CA
:105960000E948A3380918E0890918F080C948A331C
:10597000CF92DF92EF92FF920F931F93CF93DF931B
:105980001F92CDB7DEB7182F062FE42E862F880F73
:105990008E5F99830E94792383E00E947923F12E00
:1059A000C12E9981D92E8C2D8F19801798F4F6016C
:1059B000E7FE02C0849101C080810E947923182FE4
:1059C00080E00E9479238123FFEFCF1ADF0A811143
:1059D000EACF01C081E00F90DF91CF911F910F912D
:1059E000FF90EF90DF90CF900895789484B5826017
:1059F00084BD84B5816084BD85B5826085BD85B573
:105A0000816085BD80916E00816080936E001092F0
:105A1000810080918100826080938100809181006B
:105A200081608093810080918000816080938000FC
:105A300080919100826080939100809191008160BB
:105A4000809391008091900081608093900080917C
:105A5000C10084608093C1008091C1008260809306
:105A6000C1008091C10081608093C1008091C3001A
:105A700081608093C3008091C00082608093C000E9
:105A80008091C20081608093C20080917A0084601E
:105A900080937A0080917A00826080937A0080916E
:105AA0007A008E7F80937A0080917A00806880935C
:105AB0007A001092820510928D0510928E058091C9
:105AC000D70081608093D70080EA8093D80089B5A1
:105AD0008F7E89BD89B5826089BD09B400FEFDCF86
