:100000000C945A060C9482060C9482060C94820678
:100010000C9482060C9482060C9482060C94820640
:100020000C9482060C9482060C9465260C9430275E
:100030000C9482060C9482060C9482060C94820620
:100040000C9482060C9482060C9482060C94820610
:100050000C9482060C9482060C9482060C94940FE5
:100060000C9482060C9482060C9482060C948206F0
:100070000C9482060C9482060C9482060C948206E0
:100080000C9482060C9482060C9482060C948206D0
:100090000C940D1D0C9482060C9482060C9482061E
:1000A0000C9482060C9482060C948206CF1ED21EFB
:1000B000C11EC51ECB1EF31EF31EF31ED61EDA1E76
:1000C000DE1EE41EE81EF31EEE1E0000000000000F
:1000D00000002A2B280000000000000000000000A3
:1000E000000000000000000000002C9EB4A0A1A2AF
:1000F000A434A6A7A5AE362D3738271E1F202122EF
:1001000023242526B333B62EB7B89F8485868788E7
:10011000898A8B8C8D8E8F909192939495969798D7
:10012000999A9B9C9D2F3130A3AD35040506070895
:10013000090A0B0C0D0E0F101112131415161718B7
:10014000191A1B1C1DAFB1B0B50000000000000063
:10015000000080E0F0FCFFFFFFFFFFFFFFFFFFFF5D
:10016000070307FFFFFFFFFFFFFFFFFFFFFFFFFF8B
:10017000FFFFFF070307FFFFFFFFFFFFFFFFFFFF7B
:10018000FCF8E0800000000000000000000000001B
:10019000000000000000000000000000000000005F
:1001A000000000000000000000000000000000004F
:1001B000000000000000000000000000000000003F
:1001C000000000000000000000000000000000002F
:1001D00000F8FFFFFFFFFF0F0FFFFF010001FFFF10
:1001E000000000FFFF010001FFFF0F0FFFFF0100F4
:1001F00001FFFF000000FFFF010001FFFF1F1FFFC5
:10020000FFFFFFFFF800000000000080E0380878E2
:10021000F0000000C0F818F88000C07018F8F8006E
:100220000000000000080888D8380000C0F0180856
:1002300008F8F000001010F8F800000070D8888866
:10024000C87800000000000000000000000000006E
:10025000003FFFFFFFFFFFFCFCFFFF800080FFFF70
:10026000000000FFFF800080FFFFF0F0FFFF800034
:1002700080FFFF000000FFFF800080FFFFF8F8FF15
:10028000FFFFFFFF1F00000000000C070302020336
:100290000F0C00080F01000007060300000F01000B
:1002A000000000080C0E0D0808080000070F0808E1
:1002B000080703000000000F030000070F080808EC
:1002C0000F07000000000000000000000000000018
:1002D000000001070F3FFFFFFFFFFFFFFFFFFFFFD2
:1002E000E0C0E0FFFFFFFFFFFFFFFFFFFFFFFFFF9B
:1002F000FFFFFFE0C0E0FFFFFFFFFFFFFFFFFFFF8B
:100300003F1F070000000000000000000000000088
:1003100000000000000000000000000000000000DD
:1003200000000000000000000000000000000000CD
:1003300000000000000000000000000000000000BD
:100340000000000000000000000000000507206120
:10035000000000000000005F00000007000700141C
:100360007F147F14242A7F2A1223130864623649DB
:100370005522500005030000001C224100004122CC
:100380001C00082A1C2A0808083E080800503000F3
:100390000008080808080060600000201008040237
:1003A0003E5149453E00427F40004261514946214D
:1003B00041454B311814127F1027454545393C4AB9
:1003C0004949300171090503364949493606494909
:1003D000291E0036360000005636000000081422A0
:1003E0004114141414144122140800020151090686
:1003F000324979413E7E1111117E7F494949363E8D
:10040000414141227F4141221C7F494949417F09A5
:100410000901013E414151327F0808087F00417FB8
:1004200041002040413F017F081422417F4040406D
:10043000407F0204027F7F0408107F3E4141413E1D
:100440007F090909063E4151215E7F091929464667
:100450004949493101017F01013F4040403F1F2090
:1004600040201F7F2018207F631408146303047842
:100470000403615149454300007F414102040810D3
:100480002041417F000004020102044040404040FE
:10049000000102040020545454787F484444383802
:1004A00044444420384444487F3854545418087E07
:1004B000090102081454543C7F0804047800447D68
:1004C00040002040443D00007F10284400417F4010
:1004D000007C041804787C080404783844444438C8
:1004E0007C14141408081414187C7C0804040848AC
:1004F00054545420043F4440203C4040207C1C2065
:1005000040201C3C4030403C44281028440C5050B3
:10051000503C4464544C44000836410000007F00C5
:1005200000004136080008082A1C08081C2A080890
:100530000006090906000005072060000000000011
:1005400000005F00000007000700147F147F1424E0
:100550002A7F2A1223130864623649562050000865
:10056000070300001C2241000041221C002A1C7FBE
:100570001C2A08083E080800807030000808080897
:1005800008000060600020100804023E5149453E0A
:1005900000427F400072494949462141494D331884
:1005A00014127F1027454545393C4A4949314121BC
:1005B0001109073649494936464949291E000014A0
:1005C00000000040340000000814224114141414E8
:1005D00014004122140802015909063E415D594E9A
:1005E0007C1211127C7F494949363E414141227FAC
:1005F0004141413E7F494949417F090909013E4145
:100600004151737F0808087F00417F41002040412D
:100610003F017F081422417F404040407F021C027E
:100620007F7F0408107F3E4141413E7F0909090652
:100630003E4151215E7F0919294626494949320325
:10064000017F01033F4040403F1F2040201F3F40AB
:1006500038403F6314081463030478040361594964
:100660004D43007F414141020408102000414141B7
:100670007F0402010204404040404000030708009C
:1006800020545478407F284444383844444428381F
:100690004444287F385454541800087E090218A492
:1006A000A49C787F0804047800447D4000204040EA
:1006B0003D007F1028440000417F40007C04780406
:1006C000787C080404783844444438FC18242418FE
:1006D00018242418FC7C08040408485454542404A6
:1006E000043F44243C4040207C1C2040201C3C40D3
:1006F00030403C44281028444C9090907C446454F2
:100700004C440008364100000077000000413608E4
:100710000002010204023C2623263C00030C0F3099
:10072000333C3FC0C3CCCFF0F3FCFFAED580A81F55
:10073000D300408D142002A1C8DA02817FD9F1DBF9
:1007400040A4A6AF00000000250028002B002E00CA
:100750003100000000002300260029002C002F009B
:100760000000000200090F0000030401000C00005B
:100770000000000000000000000000000000000079
:1007800005072061000000000000005F0000000776
:10079000000700147F147F14242A7F2A12231308D1
:1007A000646236495522500005030000001C2241B6
:1007B000000041221C00082A1C2A0808083E0808DC
:1007C00000503000000808080808006060000020A1
:1007D000100804023E5149453E00427F40004261FC
:1007E0005149462141454B311814127F1027454588
:1007F00045393C4A4949300171090503364949499F
:1008000036064949291E00363600000056360000DB
:100810000008142241141414141441221408000274
:1008200001510906324979413E7E1111117E7F49FD
:100830004949363E414141227F4141221C7F49497D
:1008400049417F090901013E414151327F080808B1
:100850007F00417F41002040413F017F0814224139
:100860007F404040407F0204027F7F0408107F3EAB
:100870004141413E7F090909063E4151215E7F0900
:10088000192946464949493101017F01013F40404C
:10089000403F1F2040201F7F2018207F6314081432
:1008A000630304780403615149454300007F4141DB
:1008B000020408102041417F0000040201020440AC
:1008C00040404040000102040020545454787F48C6
:1008D0004444383844444420384444487F385454CD
:1008E0005418087E090102081454543C7F0804047B
:1008F0007800447D40002040443D00007F102844A3
:1009000000417F40007C041804787C080404783897
:10091000444444387C14141408081414187C7C08CB
:100920000404084854545420043F4440203C4040B0
:10093000207C1C2040201C3C4030403C4428102897
:10094000440C5050503C4464544C44000836410020
:1009500000007F0000004136080008082A1C080833
:100960001C2A08080006090906FFFFBFFFFFFFFB5E
:10097000FFFFFFBFFFFF7FFBFFFFF7BBFFFF7FBB5B
:10098000FFFFF7BBFFFE7FBBFFEFD7BBFDFE7DBBCD
:10099000DFEFD7BB7DFE7DBBD3EFD7BB3D7E7CBBFE
:1009A000D3E7C7B3397E7C3B93E7C793397C3C39A7
:1009B00093C78393397C383183C78311187C3811EE
:1009C000818783011878381001878301103830003F
:1009D00001830300101810000181010010101000A5
:1009E000000101000010000000FFFFBFFFFFFFFB40
:1009F000FFFFF7BFFFFFFFFBFFFF07E1FD7D0DAD31
:100A0000EDCD1DFBF3E61F1BC1FDFD01FBFE7D3B94
:100A100083FDFD0D31CEE5F33BD9CDAD2D6C48A363
:100A200003F9FD9DC1E670399DEDC503F9FC1C017C
:100A300093C78303F1FC3C0103C1FDFD047000F981
:100A4000FD1DFDF1803818E0FD3D8101C0F07818F2
:100A5000098D0D0C0CF8F8F0018101001010100048
:100A6000000101000000000000FFFFBFFFFFFFFBCF
:100A7000FFFFFFBFFFFF7FFBBF017C7F67602F6B26
:100A800037B39C9FE7F06280BF3F706B2D6E35B827
:100A90009FCFD0BA409F3F30626F672B350E1C60EE
:100AA0003F3F83B1071F7C7103A7C09F3F3B602975
:100AB0002327B19E1F673801787F1F0018607F3F92
:100AC000818480073F7C7C7F0780800E3F3F3060C1
:100AD000212323301C1F0F01008101001010100082
:100AE000000101000010000000FFFFBFFFFFFFFB3F
:100AF000FFFFF7BFFFFFFFFBFFFFF7BFFFFF7FBB5E
:100B0000FFEFF7BBFFFE7FBBFFEFD7BBFFFE7DBB59
:100B1000DFEFD7BB3DFE7DBBD3EFD7BB3D7E7DBBBB
:100B2000D3E7C7B3397E7C3B93E7C793397C3C3925
:100B300093C78393397C383183C78311187C38116C
:100B400081878301187838100183830110383000C1
:100B50000183030010181000018101001010100023
:100B60000001010000000000002B07198020000791
:100B70000605040100080A0B0C0D097C3C3E5E2BA7
:100B80003D3F2F5B5D3B2C2A225C000000000024CF
:100B90000027002A002D00300004080201104080C8
:100BA0004010204080408008020401804020100254
:100BB00001108010204040200404040404030405B4
:100BC00002020202040302020202060606060606EA
:100BD00004040202020404080B00020202010009DC
:100BE0000400000102020000052400100105240198
:100BF00001010424020605240600010705810310F3
:100C0000004009040100020A00000007050202403A
:100C100000000705830240000004030904120100DC
:100C200002EF0201404F1B04920001010203015335
:100C30007061726B46756E00537061726B46756EB3
:100C40002050726F204D6963726F0005010902A187
:100C5000010901A1008501050919012903150025D4
:100C6000019503750181029501750581030501094F
:100C700030093109381581257F750895038106C033
:100C8000C005010906A1018502050719E029E7153C
:100C9000002501750195088102950175088103956C
:100CA000067508150025650507190029658100C02E
:100CB0005E2D8F2A11241FBECFEFDAE0DEBFCDBF3D
:100CC00014E0A0E0B1E0E6E0F6E602C005900D9287
:100CD000A630B107D9F728E0A6E0B4E001C01D9224
:100CE000A930B207E1F716E0C9E5D6E004C02197C4
:100CF000FE010E94B430C835D107C9F70E949B2A73
:100D00000C94F6320C9400000895FC016093BC0032
:100D10008091BC0087FFFCCF9091B900987F9083B1
:100D20000895CF92DF92EF92FF920F931F93CF938C
:100D3000DF93EC01C62ED42E8F85882351F041110C
:100D400008C084E98093BC008091BC0084FDFCCF86
:100D50001F86EF848E01035F1F4FE11014C0FE84D5
:100D600064EAC8010E9485068D85883011F18031C2
:100D700001F1DD2011F080E4E82EE092BB0064E890
:100D8000C8010E948506C092BB0064E8C8010E94A9
:100D9000850682E0D81204C08F858F5F8F8711C0CF
:100DA00084E98093BC008091BC0084FDFCCF1F8649
:100DB00008C0FF0CF092BB0064E8C8010E948506E1
:100DC000D8CFDF91CF911F910F91FF90EF90DF90DF
:100DD000CF900895089580E090E00895CF93DF9339
:100DE0008CE597E00E94BC1CCCE5D7E085E395E05C
:100DF0009C878B876BED71E0CE010E948C1FCE012A
:100E00000E94881F61EF71E0CE010E948C1F8AE46E
:100E100093E09C878B8761E080E090E00E940C303B
:100E200080E090E00E94043090E09093A2048093D0
:100E3000A1046CED75E080E090E00E944920DF9114
:100E4000CF910C946A238CE597E00E94BC1C8AE445
:100E500091E00E94122360ED77E080E090E00E9434
:100E6000492061E070E080E090E00E9449206CED54
:100E700075E080E090E00E9449200C946A23FB0119
:100E8000628173818CE597E00C949E1FFB01628167
:100E900073818CE597E00C949E1FFB016281738146
:100EA0008CE597E00C949E1FCF93DF93EB016A8152
:100EB0007B8181EC96E00E948C1F8A819B81088453
:100EC000D985C02D8450924009F462C08CE597E02A
:100ED0000E94BC1C62E172E08CE597E00E948C1FCE
:100EE0008091A1049091A204892B49F068E272E0FC
:100EF00084EA97E00E942F266DE372E008C062E565
:100F000072E084EA97E00E942F2667E672E08AEAA0
:100F100097E00E942F268A819B818C57924081F412
:100F200068E872E08CE597E00E948C1F84EA97E005
:100F30000E946E2564E972E08CE597E00E948C1FA8
:100F40008A819B818450924081F46CE772E08CE549
:100F500097E00E948C1F8AEA97E00E946E2564E960
:100F600072E08CE597E00E948C1F8A819B818459F6
:100F7000924009F041C06CE772E08CE597E00E9476
:100F80008C1F84EA97E00E946E256DE972E02EC006
:100F90008CE597E00E94BC1C6BED71E08CE597E05E
:100FA0000E948C1F65E973E08CE597E00E948C1F1E
:100FB0008A819B81865A924061F46DEA72E08CE5E9
:100FC00097E00E948C1F64EB72E08CE597E00E9432
:100FD0008C1F8A819B81845B924071F466EA72E087
:100FE0008CE597E00E948C1F6BEB72E08CE597E03C
:100FF000DF91CF910C948C1FDF91CF910895CF9307
:10100000DF93EB010E943D1028E030E0AE0162E08A
:10101000DF91CF910C940910DC01683810F068580A
:1010200025C0E62FF0E067FF12C0E058F10981E02B
:1010300090E001C0880FEA95EAF7809514969C919C
:101040001497892314968C93149760E00FC0E6538D
:10105000FF4F6491662301F167FF08C014968C91DD
:1010600014978D7F14968C9314976F77FD013696A5
:1010700086E0662321F09081961301C01082815092
:1010800031968111F6CFCD01BD016C5F7F4F0E947B
:10109000FF0781E090E0089580E090E00895DC0192
:1010A000683810F068582DC0E62FF0E067FF11C0D7
:1010B000E058F10981E090E001C0880FEA95EAF775
:1010C00014969C911497892B14968C93149760E036
:1010D00018C0E653FF4F6491611109C081E090E0B0
:1010E00013969C938E93129780E090E0089567FF8B
:1010F00008C014968C911497826014968C93149760
:101100006F7716968C911697861751F117968C91DA
:101110001797861729F118968C911897861701F161
:1011200019968C9119978617D9F01A968C911A975F
:101130008617B1F01B968C911B97861789F0FD01DD
:10114000369680E090E02191211105C0FD01E80F65
:10115000F91F668305C0019686309105A1F7BECFC1
:10116000CD01BD016C5F7F4F0E94FF0781E090E0E1
:101170000895EF92FF921F93CF93DF93EC01162F08
:101180000E944F087C01612FCE010E940C08C7010C
:101190009927DF91CF911F91FF90EF900895FC0167
:1011A000E60FF71FDA01CD01841B950B8217930719
:1011B00034F491918D919817B1F380E0089581E016
:1011C0000895AF92BF92CF92DF92EF92FF920F936A
:1011D0001F93CF93DF93CDB7DEB760970FB6F89428
:1011E000DEBF0FBECDBF5C018B016B018FEFC81A54
:1011F000D80A26E030E042EC52E0B601C5010E9478
:10120000CF08882391F12091000130910101C9019B
:10121000330FAA0BBB0B60910201709103016B01AC
:10122000770FEE08FF08C816D906EA06FB06DCF4BD
:101230009C01AD012C193D094E095F0969F02D870C
:101240003E874F87588B0E94682F2D853E854F859E
:1012500058890E941A3003C060E070E0CB01C60ECE
:10126000D71EE81EF91E760144C00A5F1F4F7601A3
:10127000B501CE0101960E9450260C151D0510F4F3
:101280007801860165E973E0CE0107960E94502639
:101290008D819E81E816F906C0F48017910708F445
:1012A0008C01E981FA81E00FF11FD0801082698101
:1012B0007A816E0D7F1DCE0107960E942F268981AF
:1012C0009A81FC01E00FF11FD0820F811885011572
:1012D000110521F0C8010E94942F03C060E070E066
:1012E000CB017B01C8010E944F3189819A810E9404
:1012F0004F31C70160960FB6F894DEBF0FBECDBF69
:10130000DF91CF911F910F91FF90EF90DF90CF90E1
:10131000BF90AF900895EF92FF920F931F93CF93DA
:10132000DF9300D000D0CDB7DEB780910804909154
:101330000904E091BE07F091BF0700E010E0081734
:10134000190734F42191203229F00F5F1F4FF7CF96
:101350000FEF1FEF69EC72E081EC96E00E949E1F98
:101360006091BE077091BF0781EC96E00E948C1FD0
:101370008CE597E00E94BC1C6FEC72E08CE597E076
:101380000E948C1F8CE597E00E94881F6091BE0729
:101390007091BF078CE597E00E949E1F6CE773E099
:1013A0008091BE079091BF070E94BB2F9093BE040F
:1013B0008093BD040F3F8FEF180719F40E940C258E
:1013C00045C065EE72E0C8010E945E24811167C0CD
:1013D00062EF72E0C8010E945E24811160C069E47E
:1013E00073E0C8010E945E24811165C060E073E073
:1013F000C8010E945E2481115EC08091BE07909159
:10140000BF070530110509F062C025E030E044E572
:1014100053E060E070E00E94CF08882309F48CC09C
:101420006CE773E080E090E00E94BB2F9093BE04D5
:101430008093BD040E94762F909307048093060446
:10144000BC01990F880B990B0E9449201092B60796
:101450001092B7071092B8071092B9071092BA0706
:101460001092BB071092B40764EB77E080EB97E033
:101470000E94FF076091060170910701072E000C82
:10148000880B990B0E9449200F900F900F900F909E
:10149000DF91CF911F910F91FF90EF900895B801C8
:1014A0008091BE079091BF070E94E10890930701C9
:1014B00080930601CBCFB8018091BE079091BF0702
:1014C0000E94E1089093050180930401BFCF06308C
:1014D000110591F526E030E043E153E060E070E073
:1014E0000E94CF08882341F107E010E080910804B2
:1014F00090910904081719070CF0A8CFE091BE07D6
:10150000F091BF07E00FF11FF0806F2D80EB97E0A7
:101510000E944F086091040170910501072E000C94
:10152000880B990B0E9449206F2D80EB97E00E9459
:101530000C080F5F1F4FDACF6AE173E0C8010E9409
:101540005E24882379F140910804509109049801A0
:101550002F5F3F4F8091BE079091BF07241735073B
:101560004CF4FC01E20FF31F6081603241F02F5F09
:101570003F4FF4CFEE24EA94FF24FA9401C079019E
:10158000B8010E94E108182FB7018091BE07909121
:10159000BF070E94E10890916C0799831A838B839F
:1015A0001C8214C060E273E0C8010E945E2488239C
:1015B000C1F0B8018091BE079091BF070E94E10879
:1015C00090916C0799831A821B828C830E943D1034
:1015D00024E030E0AE014F5F5F4F61E00E940910F0
:1015E00035CF67E273E0C8010E945E24882361F072
:1015F000B8018091BE079091BF070E94E1089093C7
:1016000003018093020122CF61E373E0C8010E94CD
:101610005E24882361F0B8018091BE079091BF07D6
:101620000E94E10890930101809300010FCF6BE3CA
:1016300073E0C8010E945E24811108CF6FE373E05C
:10164000C8010E945E24811101CF8091BD04909158
:10165000BE04892B09F4FACE0E940C2566E473E0DF
:1016600080E090E00E94BB2F9093BE048093BD0465
:10167000ECCF2F923F924F925F926F927F928F9218
:101680009F92AF92BF92CF92DF92EF92FF920F9311
:101690001F93CF93DF93CDB7DEB7C857D1090FB6ED
:1016A000F894DEBF0FBECDBF8CE597E00E94BC1C56
:1016B0006AE573E08CE597E00E948C1F65E973E0B2
:1016C000CE018D589F4F0E94502689E00E94B41F82
:1016D000892B11F461E301C060E3CE018D589F4F67
:1016E0000E94D4258AE00E94B41F892B11F461E383
:1016F00001C060E3CE018D589F4F0E94D4258DE03C
:101700000E94B41F892B11F461E301C060E3CE0194
:101710008D589F4F0E94D42585E00E94B41F892BCD
:1017200011F461E301C060E3CE018D589F4F0E9428
:10173000D425E9960EAD1FADE9970C5F1F4FB80198
:10174000CE018D589F4F0E94AD25882391F0E596DC
:101750002EAD3FADE597E9968EAD9FADE99760E779
:1017600073E0820F931F0E94E032E9961FAF0EAF25
:10177000E9978CE597E00E94881F65E773E08CE5A8
:1017800097E00E949E1FCE018D589F4F0E946E25AC
:101790000E948921E596CEACDFACE5975E018EE133
:1017A000A80EB11C6DE377E0C5010E94E6181C820B
:1017B0001B828BE591E09A8389831E8236018E011C
:1017C0000F5F1F4F250118016FE270E0C3010E94F7
:1017D000CC32009709F441C0F30120812F3221F46B
:1017E000FFEF6F1A7F0AF0CF86198D3008F08CE07A
:1017F000E82EF12CA701B301CE01885A9F4F0E9419
:10180000E732E8E5F0E0EC0FFD1FEE0DFF1D108262
:10181000C8010E947217F8018581882351F01EAE1D
:101820001DAE8BE591E09CAF8BAF21961FAE21974B
:101830001CC0AE01485A5F4FB201C8010E94772315
:10184000882369F36E0C7F1CC2010E947217942DCD
:10185000852D2801092F182FB7CF43018C189D081B
:10186000B201CE01CB960E94E618C80CD91CF60135
:101870008081811109C0BE01655C7F4FC1010E945A
:10188000E6184EE753E03FC019A218A28BE591E09D
:101890009F8F8E8F1BA221968FAD2197811116C02D
:1018A0006C961FAE1EAE6C9788EE93E0A0E0B0E0A1
:1018B000A0968CAF9DAFAEAFBFAFA097E3961FAE23
:1018C0001EAEE397A5961FAEA59723C08250A60132
:1018D000823040F46DE377E0C5010E9477238111E7
:1018E0000DC0DECFBE01655C7F4FC5010E9477232E
:1018F0008823B1F2CE01CB960E947217B501C101C7
:101900000E94E618A601B101CE01885A9F4F0E949D
:1019100037196C968EAD9FAD6C979093C3078093EB
:10192000C207A0968CAD9DADAEADBFADA097809324
:10193000C4079093C507A093C607B093C707A496A2
:101940008CAD9DADAEADBFADA4978093C80790930D
:10195000C907A093CA07B093CB078DE0E8E5F0E094
:10196000EC0FFD1F3C96ACECB7E001900D928A9510
:10197000E1F7E3968EAD9FADE3979093DA078093FE
:10198000D90780EC97E00E947E17209108043091DF
:101990000904892B09F49AC00091BE071091BF0772
:1019A000020F131F80EC97E00E94761AF8018083E3
:1019B0008091080490910904E091BE07F091BF075F
:1019C000E80FF91F20812D3031F02A3071F0803876
:1019D00091055CF475C080EC97E00E94801A0A972C
:1019E00021F480EC97E00E94761AE091D907F091FB
:1019F000DA07309729F082849384A484B58404C0E4
:101A000088248A94982C540100E010E080EC97E040
:101A10000E947E17892B91F0E090BC07F090BD07E3
:101A2000E00EF11E80EC97E00E94761AF7018083A9
:101A30000F5F1F4F0C30110549F703C00730110528
:101A4000B4F00091BC071091BD0726E030E04FE3F1
:101A500053E060E070E0C8010E94CF08882339F0AD
:101A600066E070E0C8010E94E1088C0102C000E05D
:101A700010E0E12CF12CE016F10634F40E948B0901
:101A8000FFEFEF1AFF0AF7CF8091D9079091DA079D
:101A9000009721F0B501A4010E94FA13E091BE075E
:101AA000F091BF078091080490910904E80FF91F95
:101AB00010820E948B09109209041092080461CFD1
:101AC000019690930904809308045BCF12161306C5
:101AD00074F48091BE079091BF07FC01E20FF31FE1
:101AE00010820E948B0910920904109208048091C0
:101AF000D9079091DA07009761F00E9472178091E0
:101B0000D9079091DA070E944F311092DA071092AC
:101B1000D907E5968EAD9FADE5970E944F316CEDEC
:101B200075E080E090E00E944920C858DF4F0FB672
:101B3000F894DEBF0FBECDBFDF91CF911F910F9103
:101B4000FF90EF90DF90CF90BF90AF909F908F90DD
:101B50007F906F905F904F903F902F900895DC01A1
:101B6000ED91FC910084F185E02D40E0099480E046
:101B7000089580E00895DB01ED91FC9111970280BA
:101B8000F381E02DBC01CD0109940895DB01ED91B5
:101B9000FC9111970084F185E02DBC01CD010994E1
:101BA0000F931F93CF93DF93EC0100E010E08E853D
:101BB00090E0081719079CF4C801880F991FEA855F
:101BC000FB85E80FF91F80819181DC01ED91FC918B
:101BD0000680F781E02D09950F5F1F4FE8CFE8855C
:101BE000F9851582188A1F868E85882331F0EA854B
:101BF000FB850190F081E02D02C0E0E0F0E0F98784
:101C0000E88781E08583DF91CF911F910F9108953F
:101C1000FC018785808B9685992331F1882311F00B
:101C2000815004C0662301F18FEF890F87872285D9
:101C30009385A22FB92FA80FB11DA80FB11D0D902C
:101C4000BC91A02DB187A08781E015968C938089E7
:101C5000E22FF92FE80FF11DE80FF11D0190F0813F
:101C6000E02D158281E0089580E00895CF93DF9301
:101C7000FC018785808B26852223B1F1482F50E017
:101C800030E02150310942175307B1F08F5F878749
:101C900022859385A22FB92FA80FB11DA80FB11DC2
:101CA0000D90BC91A02DB187A08781E015968C93F3
:101CB0008089E22FF92F0EC06623B1F01786A28526
:101CC000B385CD91DC911197D187C08781E08D8359
:101CD0008089FD01E80FF11DE80FF11D0190F081F1
:101CE000E02D158281E001C080E0DF91CF91089561
:101CF000DC011696ED91FC911797309709F0099544
:101D000080E090E008950E94780E80E090E00895D1
:101D1000CF93DF93EC010E94780ECE01DF91CF913B
:101D20000895DC01FB0112968C91129790E02481BA
:101D3000358182179307D1F491818081813A31F402
:101D400081E0913091F0933089F411C0813271F4C7
:101D50009B3021F482811F968C9305C09A3031F418
:101D6000828150968C9381E00895089580E00895D3
:101D7000DC01FB0188E4808389E4818384E482833D
:101D80001D969C911D979F709F5B93831D968D91CF
:101D90009C911E9724E0969587952A95E1F78F7080
:101DA0008F5B848385E00895FC0182818F5BFB015A
:101DB000808381E00895EF92FF920F931F93CF935A
:101DC000DF93FB012081213851F52381223239F53F
:101DD000DC0112962C9130E0448155814217530763
:101DE000F1F4EC010B851C85E12CF12C011511059A
:101DF00091F0F801448155816281738180E80E94ED
:101E0000D7268F3FFFEF9F0769F0E80EF91ED80134
:101E10000D911C91EBCF81E08F87C70105C080E059
:101E200090E002C08FEF9FEFDF91CF911F910F9154
:101E3000FF90EF900895CF93DF93CDB7DEB769970A
:101E40000FB6F894DEBF0FBECDBFFC01DB018C9155
:101E50008F5F8C93BE016F5F7F4F89E1DB011D9225
:101E60008A95E9F729E0298384E08A8391E09D83BC
:101E700083E08E832A8721E22B879C879D879F871B
:101E800022E2288B27E02B8B25E02C8B8E8B20E405
:101E900030E0388F2F8B998F82818B839585868553
:101EA000998B8A8B838180688D8B49E150E080E03B
:101EB0000E94D72669960FB6F894DEBF0FBECDBF3D
:101EC000DF91CF9108953FB7F89480912D049091C0
:101ED0002E04A0912F04B091300426B5A89B05C014
:101EE0002F3F19F00196A11DB11D3FBFBA2FA92F99
:101EF000982F8827820F911DA11DB11DBC01CD0116
:101F000043E0660F771F881F991F4A95D1F7089500
:101F10002FB7F8946091290470912A0480912B04C2
:101F200090912C042FBF08951F920F920FB60F921D
:101F300011242F933F938F939F93AF93BF938091DF
:101F4000290490912A04A0912B04B0912C04309183
:101F5000280426E0230F2D3720F40296A11DB11D81
:101F600005C029E8230F0396A11DB11D2093280465
:101F70008093290490932A04A0932B04B0932C04FB
:101F800080912D0490912E04A0912F04B0913004E3
:101F90000196A11DB11D80932D0490932E04A09352
:101FA0002F04B0933004BF91AF919F918F913F91D7
:101FB0002F910F900FBE0F901F9018950F931F93A6
:101FC000CF93DF93EC018B018E8590E00196BC01ED
:101FD000660F771F8A859B850E94E731FC019B87EE
:101FE0008A87892B89F08E85E80FF11DE80FF11D96
:101FF00011830083811105C01987088781E0F801EA
:1020000085838E858F5F8E87DF91CF911F910F9192
:102010000895AF92BF92CF92DF92EF92FF920F930B
:102020001F93CF93DF931F92CDB7DEB77C016983F7
:102030006A01590141E050E0BE016F5F7F4FFC0132
:1020400083810E9483208C0197FD0BC0F70183815F
:10205000A501B60180640E94832097FD02C0800F15
:10206000911F0F90DF91CF911F910F91FF90EF90F3
:10207000DF90CF90BF90AF900895809120048111A0
:102080006BC081E0809313048093140429E134E051
:10209000309316042093150410921804109217041C
:1020A0002FE231E03093100420930F0410921B04B0
:1020B00010921A0410921D0410921C0480931E04A6
:1020C00080931F0481EC809319040E94A01FFC01DF
:1020D00021818091130490E0820F911D089724F0D4
:1020E00081E08093200438C0A281B381109729F445
:1020F0008FE094E0938382830EC018968D919C911B
:102100001997009711F0DC01F8CF8FE094E0199651
:102110009C938E9318978081809311048181809382
:102120001204908180911404890F808380E0909143
:1021300013048917A8F6A0911504B0911604A80FEE
:10214000B11D9C91A181B0E0A45FBE4F9C93918191
:102150009F5F91838F5FEBCF8FE094E008958FB7FF
:10216000F89480910A048FBF08950F931F93CF9323
:10217000DF93EB010E94880F8B010E9468188F3F4C
:1021800049F00E94880F601B710B6C177D07A8F344
:1021900080E001C081E0DF91CF911F910F91089500
:1021A000EF92FF920F931F93CF93DF93EC0179018E
:1021B000411551056105710511F482E13CC08B8523
:1021C000833039F089E0440F551F661F771F8A95C9
:1021D000D1F79A01AB0168E1CE010E9484188823EF
:1021E00011F084E028C08EEF0E94611887018EEF05
:1021F000F81AF80181918F010E9461180E151F05D0
:10220000C1F78FEF0E9461188FEF0E9461180E9442
:1022100068188A878F71853031F081E18D83CE0116
:102220000E94561809C068E572E0CE010E94B51000
:10223000811107C085E18D83CE010E94561880E090
:1022400013C020E030E0A9016DE0CE010E948418A7
:10225000811104C00E946818882311F084E1EBCF3B
:10226000CE010E94561881E0DF91CF911F910F910E
:10227000FF90EF9008958091B1048823A9F14091D7
:1022800008015091090160910A0170910B012FEB37
:1022900034E08091BF069091C0060E94D010811159
:1022A00002C080E0089540910B0450910C046091AD
:1022B0000D0470910E04411551056105710591F0F1
:1022C0002FEB34E08091BF069091C0060E94D010A1
:1022D000882339F310920B0410920C0410920D0411
:1022E00010920E041092B10481E00895CF93DF9311
:1022F000EC018E81882389F08F8198859C012F5F66
:102300003F4F38872F838230924018F40E9468181C
:10231000F3CFCE010E9456181E82DF91CF9108950F
:10232000AF92BF92CF92DF92EF92FF920F931F93E3
:10233000CF93DF93EC016901C801820F931F8130B5
:10234000924008F070C08E81882371F08881998155
:10235000AA81BB81481759076A077B0729F48F8137
:102360009885C816D906B0F5488359836A837B835C
:102370008B85833039F089E0440F551F661F771F26
:102380008A95D1F79A01AB0161E1CE010E948418D0
:10239000882319F083E08D8346C00E94880F5B017B
:1023A0000E9468188A878F3F49F40E94880F6A1933
:1023B0007B096D327140A0F38FE003C08E3F31F096
:1023C0008DE08D83CE010E9456182DC018861F8285
:1023D00081E08E838F8198858C159D0540F40E9445
:1023E00068188F819885019698878F83F3CF67014E
:1023F000E00EF11ECE14DF0431F00E946818F601E1
:1024000081936F01F7CF8F819885080F191F188767
:102410000F838985882319F00115124048F0CE01F9
:102420000E94761105C0CE010E94561880E001C0BE
:1024300081E0DF91CF911F910F91FF90EF90DF909E
:10244000CF90BF90AF9008958F929F92AF92BF921E
:10245000EF92FF920F931F93CF934B015C01C42F18
:102460008091080190910901A0910A01B0910B019E
:1024700088159905AA05BB0501F10E943B11811140
:1024800002C080E020C08FEBE82E84E0F82E00E050
:1024900012E020E030E0B501A4018091BF069091E8
:1024A000C0060E949011882361F3809208019092E7
:1024B0000901A0920A01B0920B018091B104C82BCE
:1024C000C093B10481E0CF911F910F91FF90EF90E5
:1024D000BF90AF909F908F9008954F925F926F92B0
:1024E0007F928F929F92AF92BF92CF92DF92EF92A4
:1024F000FF920F931F93CF93DF93EC016A017B014F
:1025000028013901423051056105710510F480E060
:1025100073C089859A85AB85BC850196A11DB11DC7
:1025200084179507A607B70790F38B889C88AD881A
:10253000BE888F89803129F4BB27AF2D9E2D8D2D2C
:1025400009C0DB01CA0147E0B695A7959795879525
:102550004A95D1F7880E991EAA1EBB1E80910801CC
:1025600090910901A0910A01B0910B01881699067A
:10257000AA06BB0679F48F898031A1F4DD24EE240C
:10258000FF24C601880F991FFC01E154FB4F5182C3
:10259000408219C040E0C501B4010E94241281119B
:1025A000EACFB5CFE894C7F8DD24EE24FF24C601B6
:1025B000880F991F880F991FFC01E154FB4F40823F
:1025C0005182628273828091B10481608093B104F0
:1025D0008A89823080F08D819E81AF81B885880E96
:1025E000991EAA1EBB1E80920B0490920C04A0920E
:1025F0000D04B0920E0481E0DF91CF911F910F91F5
:10260000FF90EF90DF90CF90BF90AF909F908F9012
:102610007F906F905F904F9008958F929F92AF92AE
:10262000BF92CF92DF92EF92FF920F931F93CF93BF
:10263000DF93FC0181859285A385B4850196A11D58
:10264000B11D84179507A607B70710F480E05CC09A
:1026500083899489A589B689C789C03129F4852ED3
:10266000962EA72EBB2409C04A015B01C7E0B69491
:10267000A79497948794CA95D1F7E9016A017B01E1
:102680008F01BC01CD01680D791D8A1D9B1D8090B5
:10269000080190900901A0900A01B0900B01681503
:1026A00079058A059B0599F4F80187898031A9F499
:1026B000B701A601552766277727440F551FFA0152
:1026C000E154FB4F80819181A0E0B0E018C040E070
:1026D0000E9424128111E8CFB9CFB701A6014F772C
:1026E000552766277727440F551F440F551FFA01BA
:1026F000E154FB4F80819181A281B381BF708883B7
:102700009983AA83BB8381E0DF91CF911F910F91C1
:10271000FF90EF90DF90CF90BF90AF909F908F9001
:1027200008954F925F926F927F92AF92BF92CF9235
:10273000DF92EF92FF920F931F93CF93DF9300D01E
:1027400000D0CDB7DEB78C0149835A836B837C837D
:102750005901C12CD12C7601412C82E0582E612CDC
:10276000712C49815A816B817C819E012F5F3F4F83
:10277000C8010E940D13882351F1D301C201F80151
:10278000058404C0880F991FAA1FBB1F0A94D2F7A3
:10279000C80ED91EEA1EFB1E49815A816B817C81BD
:1027A0008789803129F088EF9FEFAFEFBFE004C049
:1027B00088EF9FEFA0E0B0E0481759076A077B0752
:1027C00080F2F501C082D182E282F38281E00F9033
:1027D0000F900F900F90DF91CF911F910F91FF906D
:1027E000EF90DF90CF90BF90AF907F906F905F9011
:1027F0004F9008958F929F92AF92BF92CF92DF92A7
:10280000EF92FF920F931F93CF93DF93EC018D8193
:10281000811102C080E077C00B891C892D893E8917
:102820000417150726073707A8F36A017B018230D2
:1028300029F4CA86DB86EC86FD860DC0C114D1045E
:10284000E104F10451F41E821F82188619861A864B
:102850001B861C861D8681E056C08A849B84AC84BE
:10286000BD84EB8DFC8D258530E0275F3F4FB501A2
:10287000A4014150510961097109022E04C07695E5
:102880006795579547950A94D2F7D701C6010197E6
:10289000A109B10904C0B695A795979587952A9582
:1028A000D2F784179507A607B70720F089288A284A
:1028B0008B2849F44F89588D698D7A8D4E835F83BB
:1028C0006887798704C0841B950BA60BB70B4C0156
:1028D0005D018E010A5F1F4F81149104A104B104B0
:1028E00009F4A7CF4E815F816885798598018B8D2A
:1028F0009C8D0E940D1391E0891A9108A108B108DE
:102900008111EACF87CFDF91CF911F910F91FF9077
:10291000EF90DF90CF90BF90AF909F908F900895F1
:102920003F924F925F926F927F928F929F92AF925F
:10293000BF92CF92DF92EF92FF920F931F93CF93AC
:10294000DF93CDB7DEB72C970FB6F894DEBF0FBE7E
:10295000CDBF5C01DC015B968D909C905C971696D8
:10296000CD90DD90ED90FC901997C114D104E10455
:10297000F10439F0BFEFCB1ADB0AEB0AFB0A312C6A
:1029800007C0F401C080D180E280F3803324339407
:10299000F40181859285A385B4859C01AD012F5FEB
:1029A0003F4F4F4F5F4F29873A874B875C87260100
:1029B00037011D821E821F821886F401818592854F
:1029C000A385B4852D813E814F815885281739070D
:1029D0004A075B0708F063C089859A85AB85BC858B
:1029E0008C159D05AE05BF0550F482E0C82ED12C94
:1029F000E12CF12C92E0492E512C612C712C9E017E
:102A00002F5F3F4FB701A601C4010E940D13882319
:102A100009F445C089819A81AB81BC81892B8A2BBD
:102A20008B2B41F0260137019FEF491A590A690A99
:102A3000790A05C0C414D504E604F70491F02D8189
:102A40003E814F8158852F5F3F4F4F4F5F4F2D8302
:102A50003E834F8358873FEFC31AD30AE30AF30A32
:102A6000ACCF0FEF1FEF2FEF3FE0B301A201C40186
:102A70000E946D12882399F0D50116964D915D91B3
:102A80006D917C911997411551056105710549F0CA
:102A900093018201C4010E946D12811102C080E085
:102AA0002AC0D50116964D925D926D927C9219972F
:102AB000332051F0D301C2010196A11DB11DF401D3
:102AC00080839183A283B383F5018789908DA18D43
:102AD000B28D892B8A2B8B2B69F4D50157964D9299
:102AE0005D926D927C925A9714968C91149780689F
:102AF00014968C9381E02C960FB6F894DEBF0FBE2F
:102B0000CDBFDF91CF911F910F91FF90EF90DF909C
:102B1000CF90BF90AF909F908F907F906F905F907D
:102B20004F903F900895CF93DF93EC018D818823E0
:102B3000A1F18C8187FF2DC06E857F858889998959
:102B400041E00E942412882341F1EA8980E2E89F53
:102B5000F0011124DF01A154BB4F1097F1F08D81DA
:102B6000823050F44B895C896D897E895C964D93E7
:102B70005D936D937C935F978F89988DA98DBA8DA6
:102B8000E154FB4F938F828FB58BA48B8C818F7711
:102B90008C83DF91CF910C943B1180E0DF91CF913A
:102BA00008952F923F924F925F926F927F928F92F1
:102BB0009F92AF92BF92CF92DF92EF92FF920F93CC
:102BC0001F93CF93DF9300D000D0CDB7DEB78C0139
:102BD0005B011A01DC0115968C9115978130C9F4BF
:102BE00014968C9181FF15C082FF1BC0F8014389A8
:102BF00054896589768982859385A485B5858417EE
:102C00009507A607B70769F0C8010E94FA1381115A
:102C100008C081E090E0F8019383828380E090E037
:102C200039C1610183C0D8015B968D919C915C97FD
:102C3000FC01248121502A013B0139E076946794FC
:102C4000579447943A95D1F7722E74207A01F1E0A7
:102C5000FF22772009F476C080E092E08E199F0968
:102C600046018C159D0508F44C01D8015B962D9109
:102C70003C915C9716968D919D910D90BC91A02DE5
:102C80000297A109B109F901058404C0880F991FB1
:102C9000AA1FBB1F0A94D2F74685578560897189A0
:102CA000840F951FA61FB71F9C01AD01270D311D75
:102CB000411D511D29013A01811432E0930609F0AA
:102CC00088C08091080190910901A0910A01B091FA
:102CD0000B0184159505A605B70559F48FEF9FEFF5
:102CE000DC018093080190930901A0930A01B0933D
:102CF0000B019501B301A2018091BF069091C0061E
:102D00000E94D010882309F484CF9EEFB91AC81806
:102D1000D908F80182859385A485B585880D991D0C
:102D2000A11DB11D82879387A487B587D8011A9604
:102D30004D915D916D917C911D97C114D10409F065
:102D400072CF87C0E114F10409F086CF16964D9139
:102D50005D916D917C911997411551056105710542
:102D600059F457968D919D910D90BC91A02D00978F
:102D7000A105B10541F521C09E012F5F3F4F0E9483
:102D80000D13882309F44BCF89819A81AB81BC81D3
:102D9000F801238D348DF9012789203129F048EF7E
:102DA0005FEF6FEF7FE004C048EF5FEF60E070E03F
:102DB00084179507A607B70730F0C8010E94901442
:102DC00081114ACF26CFF80186839783A087B187E8
:102DD00043CFE114F10429F5D8011A964D915D9184
:102DE0006D917C911D9753968D919D910D90BC9105
:102DF000A02D481759076A077B0798F00E943B11DE
:102E0000882309F406CF409208015092090160928C
:102E10000A0170920B018091B10481608093B1042A
:102E200008C041E0C301B2010E942412882309F4C2
:102E3000F0CED501F701E154FB4FCF01880D991D6C
:102E4000E817F90719F02D912193FACFA80CB91CB6
:102E50005ECF53968D919D910D90BC91A02D8417BE
:102E60009507A607B70740F4F801438B548B658B91
:102E7000768B848180688483D80114968C9183FD3D
:102E800002C0C10107C0C8010E949315882309F43C
:102E9000C0CEF7CF0F900F900F900F90DF91CF9192
:102EA0001F910F91FF90EF90DF90CF90BF90AF9068
:102EB0009F908F907F906F905F904F903F902F905A
:102EC0000895CF93DF931F92CDB7DEB7698341E0BA
:102ED00050E0BE016F5F7F4F0E94D1150F90DF91D0
:102EE000CF910895CF93DF93EC010E94931588232F
:102EF00011F01D8281E0DF91CF910895DC01599698
:102F0000ED91FC915A973097B9F083899489A589FE
:102F1000B6894285538564857585841B950BA60B00
:102F2000B70B811520E89207A105B10538F08FEFA6
:102F30009FE7A0E0B0E0089580E090E00895CF938F
:102F4000DF931F92CDB7DEB76983DC01ED91FC9171
:102F50000280F381E02D41E050E0BE016F5F7F4FC2
:102F600009950F90DF91CF91089585ED8093BC0076
:102F70008091BC0084FDFCCF10927A0408954091AA
:102F80005404262F30E0240F311D21323105DCF4AA
:102F900020917A042430C9F4FC0180E090E0861787
:102FA00058F4309154042191DC01AE5CBB4FA30F67
:102FB000B11D2C930196F3CF80915404680F609358
:102FC000540480E0089581E0089582E00895089512
:102FD0008FEF9FEF08958FEF9FEF08958091310459
:102FE00090E09195819591090895CF93DF9300D05A
:102FF000CDB7DEB7CB01642F49835A830E94BF1738
:103000004981842F5A81952F0F900F90DF91CF9196
:103010000895CF93DF931F92CDB7DEB7698361E048
:10302000CE0101960E94BF1781E090E00F90DF91E2
:10303000CF910895FC01818D928D009711F00C9431
:1030400093150895CF93DF93EC01898D9A8D0097A6
:1030500039F481E090E09B838A8380E090E00BC0AC
:10306000FC01138212820E94D115E98DFA8D228112
:103070003381232B71F7DF91CF9108950F931F9325
:10308000CF938C01FC0164839085C62FC90F6C2FF0
:103090006F70C8010E94AF0D6C2F62956F706061F8
:1030A000C801CF911F910F910C94AF0D61E0FC010D
:1030B00084810E94DD1F8091A00481111092A004E0
:1030C00008958EBD00000DB407FEFDCF8EB50895A6
:1030D0008FEF0C9461188CBD9DBD0895CF93DF9345
:1030E000EC018091A004811109C081E08093A004CB
:1030F00080911107909112070E946B1860E08C81FB
:10310000DF91CF910C94DD1FCF92DF92FF920F934E
:103110001F93CF93DF9300D000D0CDB7DEB76C0103
:10312000F62E29833A834B835C830E947611C60175
:103130000E946E186CE271E0C6010E94B5108F2DDE
:1031400080640E94611808E110E05C814B813A8143
:103150002981DA01C901002E04C0B695A79597957B
:1031600087950A94D2F729833A834B835C830E9424
:1031700061180850110929813A814B815C81083F0F
:103180008FEF180731F7FF2029F0E8E0FE1204C0A6
:1031900087E803C085E901C08FEF0E94611810E045
:1031A0000E946818F601828787FF04C01F3F11F054
:1031B0001F5FF6CF0F900F900F900F90DF91CF9180
:1031C0001F910F91FF90DF90CF900895FC01DB01DC
:1031D00012968D919C911397938382838BE591E056
:1031E0009183808314968C911497848315968C9187
:1031F0001597858316964D915D916D917C911997E8
:1032000046835783608771871A964D915D916D91C2
:103210007C911D9742875387648775871E964D91D1
:103220005D916D917C91519746875787608B718B2B
:1032300052968C915297828B53964D915D916D91E0
:103240007C915697438B548B658B768B57964D911B
:103250005D916D917C915A97478B508F618F728FE2
:103260005B968D919C915C97948F838F0895EF92DC
:10327000FF920F931F93CF93DF93EC017B018A01A1
:103280001B821A8288EE93E0A0E0B0E08C839D83DD
:10329000AE83BF838FEA91E0998388838DE190E0CC
:1032A0000E94BA309A8F898F009779F02DE1F7014B
:1032B000DC0101900D922A95E1F74CE050E0B80155
:1032C000CE010C960E94E732188EDF91CF911F91AC
:1032D0000F91FF90EF9008952F923F924F925F923F
:1032E0006F927F928F929F92AF92BF92CF92DF9216
:1032F000EF92FF920F931F93CF93DF9300D0CDB740
:10330000DEB7FC018581882309F4D9C0848180FF60
:10331000D6C021E02A8343895489658976898285CC
:103320009385A485B585481759076A077B0709F473
:103330001A826F013A81832F90E0DE0111964D01D0
:103340003F01B6E06B0E711C892B09F47DC0D601DC
:103350001A964D915D916D917C911D975A01B1E046
:10336000BB22F60125811A012B0189E0569447946E
:10337000379427948A95D1F7838D948D223061F408
:10338000FC01828D938DA48DB58DBC01CD01620DA4
:10339000731D841D951D45C0DC0114961C911150B0
:1033A0001221A114B104D1F4111118C0452B462BE0
:1033B000472B51F4F6018789908DA18DB28D8683BC
:1033C0009783A087B1870AC0468157816085718540
:1033D00093010E940D13882309F471C0F601238D17
:1033E000348D86819781A085B1850297A109B109A5
:1033F000AC01BD01F901058404C0440F551F661FCF
:10340000771F0A94D2F786859785A089B189840FA2
:10341000951FA61FB71FBC01CD01610F711D811D36
:10342000911DD60114962C9126FF14C0009108011D
:103430001091090120910A0130910B016017710769
:103440008207930751F506C0FA81FF23C1F18981F4
:1034500090E037C040E00E942412882381F1F501FA
:10346000E154FB4FD401CF010196E817F90719F099
:1034700021912D93FACFEFEF8E1A9E0AF6018285E5
:103480009385A485B5850196A11DB11D828793877B
:10349000A487B58780E090E057CF740101E010E089
:1034A0009501AB01BC018091BF069091C0060E94BE
:1034B0009011882321F0BFEF8B1A9B0ADFCF8FEF8B
:1034C0009FEF0F900F90DF91CF911F910F91FF9081
:1034D000EF90DF90CF90BF90AF909F908F907F90B4
:1034E0006F905F904F903F902F900895FC01818DD9
:1034F000928D009711F00C946C198FEF9FEF089547
:103500000F931F93CF93DF93FC01818D928D0097D2
:10351000B9F0EF010E946C198C010F3F8FEF180773
:1035200091F0898D9A8DFC0142855385648575855E
:1035300041505109610971090E94FA13C80105C07F
:1035400080E090E002C08FEF9FEFDF91CF911F915D
:103550000F910895CF93DF93EC019C818E81981792
:1035600058F4E881F9810084F185E02D42E0CE0134
:1035700009958C818F5F8C83DF91CF9108950F9394
:103580001F93CF93DF931F92CDB7DEB78C01FC0161
:103590008681681728F4C80149830E943E18498132
:1035A000F8018781869586958695481758F4458356
:1035B000642F606BC8010F90DF91CF911F910F9125
:1035C0000C94AF0D0F90DF91CF911F910F91089543
:1035D000CF92DF92EF92FF920F931F93CF93DF93DF
:1035E000EC01F62EC42ED22E8F8186958695869577
:1035F000081710F00FEF080F1D2D011780F0412F55
:103600006F2DCE010E94BF1AEF2CCE1430F060E077
:10361000CE010E94AA1AE394F8CF1F5FEECF4D2D82
:103620006F2DCE01DF91CF911F910F91FF90EF9001
:10363000DF90CF900C94BF1A2F923F924F925F92DF
:103640006F927F928F929F92AF92BF92CF92DF92B2
:10365000EF92FF920F931F93CF93DF93CDB7DEB717
:1036600027970FB6F894DEBF0FBECDBFDC011B96C7
:103670000D911C911C970115110509F462C19F83DE
:103680008E83F801B49131964491319654903196DD
:10369000A491EA2EF12CF7E0EF0EF11C23E0F59453
:1036A000E7942A95E1F7EB82F8013496749131960C
:1036B000E491671758F0862F90E02E2F30E0F90143
:1036C000E70FF11D8E179F070CF473C06D3069F47E
:1036D000AE81BF8116968C91882309F467C060E0A3
:1036E0008E819F810E943E1861C06A3009F029C115
:1036F000EE81FF8181856581D62E8E9DD00C1124AF
:103700008781869586958695D81630F082858823A0
:1037100019F082E08287D12C4D2D60E08E819F814F
:103720000E94BF1AAE81BF811A968C911A9782307F
:1037300008F43CC015962C9115971B96ED91FC91C1
:103740001C97309741F03396E49119960C91E09FC5
:10375000E02D112401C0E0E08FEF820F0E2F10E06A
:10376000095F1F4F93E0159507959A95E1F7080FAC
:10377000EE81FF81468141506481CF010E94E81AA9
:10378000AE81BF8119968C9119976D2D8E9D600D1C
:103790001124660F660F660F17968C91861708F432
:1037A00060E060648E819F810E94AF0D81E090E0B7
:1037B000CAC050E05B2BC8010696671BEE81FF81F3
:1037C000F185F9834230510588F4452B09F01982BF
:1037D0005E9C90015F9C300D1124629F8001639F6D
:1037E000100D1124080F191F412C24C0EA2FE77077
:1037F00021F048E0442E4E1A01C0412CA82FFC01B4
:1038000040E050E07E2F7A1B761728F47491470F22
:10381000511D3196F7CFFC01E60FF11D54904E9DDE
:1038200080014F9D100D5E9D100D1124020F131F7E
:10383000080F191FAE81BF811496BC91BC83EE8125
:10384000FF813580652C712CCC24C394D12C812C24
:10385000912C7FEF7C0D7A838B81781708F05FC005
:10386000212CAE81BF8119968C91281608F051C089
:103870007A81711102C0222051F0AE81BF8115966C
:103880004C9115974F5F6C81CD010E94BF1AA12CFE
:10389000B12CA51488F5F501E80DF91DE00FF11F15
:1038A0002491442061F0CE14DF0449F4E22FF0E0CB
:1038B000042C02C0F595E7950A94E2F72E2FEE81CD
:1038C000FF818185823079F4E22F2110E295EF703B
:1038D000F0E0E55EF84F2491622F8E819F812D8369
:1038E0000E94AA1A2D81622F8E819F810E94AA1A9E
:1038F000FFEFAF1ABF0ACDCFB12C7981B71639F0DF
:1039000060E08E819F810E94AA1AB394F6CF23941F
:10391000A8CF860C971CBFEFCB1ADB0A9ACFAE81DB
:10392000BF8117968C911797869586958695381640
:1039300008F03CCF15963C921597632D606BCD0136
:1039400033CF80E090E027960FB6F894DEBF0FBE2D
:10395000CDBFDF91CF911F910F91FF90EF90DF903E
:10396000CF90BF90AF909F908F907F906F905F901F
:103970004F903F902F9008950F93CF93DF93EC01DA
:103980000F8106950695069501504E81415020E025
:1039900060E00E94E81A81E09A85911101C080E000
:1039A0008A8760E4CE01DF91CF910F910C94AF0D27
:1039B000CF93DF938CE597E00E94BC1CCCE5D7E069
:1039C00085E395E09C878B876BED71E0CE010E94CB
:1039D0008C1FCE010E94881F60E873E0CE010E9418
:1039E0008C1F8AE493E09C878B8760E080E090E006
:1039F0000E940C3080E090E00E94043090E09093B0
:103A0000A2048093A1046CED75E080E090E00E9438
:103A10004920DF91CF910C946A231F920F920FB629
:103A20000F9211242F933F934F935F936F937F9344
:103A30008F939F93AF93BF93EF93FF938091B900C0
:103A4000887F803609F49CC068F5883209F45BC031
:103A500090F4803109F454C038F4882309F4F6C096
:103A6000883009F44DC0F6C0883109F44CC080326A
:103A700009F45DC0EFC0803409F468C048F48033B5
:103A800009F455C0883309F0E5C080937904D8C0A3
:103A9000803509F44FC0883509F45DC0883409F0D9
:103AA000D9C0D6C0883909F4C7C0A8F4883709F44A
:103AB00067C038F4883609F463C0803709F460C001
:103AC000C9C0883809F4B8C0803909F45FC08038AB
:103AD00009F0C0C05BC0803B09F486C038F4803A6E
:103AE00009F466C0883A09F47FC0B4C0803C09F488
:103AF000A7C0883C09F4A4C0883B09F48AC0AAC0C6
:103B000080919F0410C090919E0480919D0498170D
:103B100070F5E0919E0481E08E0F80939E04F0E0AA
:103B2000E358FB4F80818093BB0085EC86C0809377
:103B300079048EC0E0919E0481E08E0F80939E04F4
:103B40008091BB00F0E0E358FB4F808390919E048E
:103B500080919D046EC0E0919E0481E08E0F809361
:103B60009E048091BB00F0E0E358FB4F808380917E
:103B70007C0481116DC081E080937B0484EA61C084
:103B800083E080937A0410927804CFCF80917804F8
:103B9000803208F051C0E091780481E08E0F80936C
:103BA00078048091BB00F0E0E85AFB4F8083BDCFE2
:103BB00085EC8093BC0010927A0480917804803266
:103BC00030F4E0917804F0E0E85AFB4F1082609105
:103BD000780470E0E0915604F091570488E594E091
:103BE00009951092780436C084E080937A0410928C
:103BF000550410925404E0915204F0915304099535
:103C000080915404811105C081E080935404109286
:103C10003204E091550481E08E0F80935504F0E06A
:103C2000EE5CFB4F80818093BB00909155048091A6
:103C30005404981708F479CF85E88093BC000AC033
:103C400085EC8093BC0010927A0404C01092790431
:103C50000E94B517FF91EF91BF91AF919F918F9106
:103C60007F916F915F914F913F912F910F900FBE78
:103C70000F901F9018952FB7F89487708093E900E4
:103C80009091E800892F807295FF04C09091F20016
:103C900080E4891B2FBF0895CF92DF92EF92FF92AD
:103CA0000F931F93CF93DF936C017A018B01C0E0D8
:103CB000D0E0CE15DF0589F0D8016D918D01D601D8
:103CC000ED91FC910190F081E02DC6010995892BC1
:103CD00011F47E0102C02196ECCFC701DF91CF9194
:103CE0001F910F91FF90EF90DF90CF900895CF93A9
:103CF000DF931F92CDB7DEB76983DC01ED91FC91B4
:103D00000280F381E02D41E050E0BE016F5F7F4F04
:103D100009950F90DF91CF91089583E08093E9009A
:103D20008091F200882319F08AE38093E8000895D7
:103D300083E00E943B1E90E00895FC0184859585F8
:103D400097FD0BC09FB7F89482E08093E9008091C3
:103D5000F2009FBF90E0019608959FB7F89482E02B
:103D60008093E9008091F2009FBF90E0089590E079
:103D7000FC013197EF30F105B0F5EA5AFF4F0C9492
:103D8000B430809180008F7703C0809180008F7D58
:103D900080938000089580918000877FF9CF84B55B
:103DA0008F7702C084B58F7D84BD08958091900087
:103DB0008F7707C0809190008F7D03C08091900025
:103DC000877F8093900008958091C0008F7703C013
:103DD0008091C0008F7D8093C00008958091C200C3
:103DE000877F8093C2000895CF93DF931F92CDB752
:103DF000DEB7FC018485958597FD05C02FEF3FEF69
:103E0000358724870BC0CE0101960E948325019738
:103E100019F4898190E002C08FEF9FEF0F90DF913E
:103E2000CF9108950F931F93CF93DF931F92CDB738
:103E3000DEB78C01FC018485958597FF0EC0CE010D
:103E400001960E948325019719F4298130E002C070
:103E50002FEF3FEFF80135872487F801848595859A
:103E60000F90DF91CF911F910F9108950E94B13271
:103E70004091B5045091B6042091B3043091B4043C
:103E800042175307B4F49091E8009570E1F39091D4
:103E9000E80092FD19C08093F1008091B5049091E3
:103EA000B60401968F739927892B19F48EEF8093AE
:103EB000E8008091B5049091B60401969093B60401
:103EC0008093B50481E0089580E00895615030F05A
:103ED0002091F100FC0120830196F8CF289884E618
:103EE0008093BB0408956115710579F0FB01019081
:103EF0000020E9F73197AF01461B570BDC01ED912C
:103F0000FC910280F381E02D099480E090E0089517
:103F100063E973E00C94731F0F931F93CF93DF93A8
:103F2000EC010E94731F8C01CE010E94881F800F3C
:103F3000911FDF91CF911F910F9108950C94731FE2
:103F40008091A90481110DC082E08093A50484E0D2
:103F50008093A6041092A8041092A70481E0809395
:103F6000A90485EA94E00895CF93DF93282F30E0E9
:103F7000F901E05AF84F8491F901E756F44FD491D2
:103F8000F901E854F44FC491CC2391F081110E94BF
:103F9000B71EEC2FF0E0EE0FFF1FEE5AF84FA59181
:103FA000B491EC91ED2381E090E021F480E002C037
:103FB00080E090E0DF91CF9108951F93CF93DF933E
:103FC000282F30E0F901E05AF84F8491F901E756C3
:103FD000F44FD491F901E854F44FC491CC23C9F0C3
:103FE000162F81110E94B71EEC2FF0E0EE0FFF1F7D
:103FF000EC5BF84FA591B4918FB7F894111105C0FF
:104000009C91ED2FE095E92302C0EC91ED2BEC9310
:104010008FBFDF91CF911F910895CF93DF9390E0F1
:10402000FC01E756F44F2491FC01E854F44F8491CD
:10403000882361F190E0880F991FFC01E557F44F48
:10404000C591D491FC01EC5BF84FA591B49161113D
:1040500009C09FB7F8948881209582238883EC91CA
:104060002E230BC0623061F49FB7F8943881822F01
:10407000809583238883EC912E2B2C939FBF06C0C1
:104080008FB7F894E8812E2B28838FBFDF91CF91D3
:1040900008958F929F92AF92BF92CF92DF92EF924C
:1040A000FF926B017C010E94630F4B015C01C11404
:1040B000D104E104F104F1F00E94630FDC01CB01B3
:1040C00088199909AA09BB09883E9340A105B10541
:1040D00070F321E0C21AD108E108F10888EE880ED9
:1040E00083E0981EA11CB11CC114D104E104F104A9
:1040F00019F7DDCFFF90EF90DF90CF90BF90AF909A
:104100009F908F9008957F928F929F92AF92BF92CF
:10411000CF92DF92EF92FF920F931F93CF93DF9393
:10412000C82E8B017A018091BC04811103C08FEFEE
:104130009FEF75C08091B90480FF05C08091E000B9
:1041400082608093E000CE2DDF2DD12C8AEF882E67
:104150008C2D8770B82E8C2D8072A82E8C2D80749B
:10416000982E9AE3792E209709F452C08C2D0E9444
:104170003B1E282F81110AC08A948820C1F261E079
:1041800070E080E090E00E944920EDCF90E0C817F9
:10419000D9070CF42C2F3FB7F894B092E900809126
:1041A000E80085FF33C0822F90E0C81BD90BAA20FE
:1041B00029F02150A8F01092F100FBCFF801C7FEC2
:1041C00007C0215058F044914093F1003196F9CF47
:1041D000215020F041914093F100FACF080F191FB0
:1041E000DD2019F07092E8000AC08091E80085FD9A
:1041F00008C07092E800DD24D394209739F0D12CC8
:1042000005C0209719F491107092E8003FBFABCF22
:10421000D110ACCF5D9884E68093BA04C701DF91DA
:10422000CF911F910F91FF90EF90DF90CF90BF90B3
:10423000AF909F908F907F900895CF93DF93EC0184
:1042400080911E01882331F083E00E94832018169C
:10425000190634F081E090E09B838A8380E090E04F
:10426000DF91CF910895CF93DF93EC016A8B80911A
:10427000080190910901A0910A01B0910B018E876C
:104280009F87A88BB98B80E2689FF0011124E154CD
:10429000FB4F4489558960E070E0BA0155274427F7
:1042A0004F8B588F698F7A8F828D938DA0E0B0E00D
:1042B000482B592B6A2B7B2B4F8B588F698F7A8F0A
:1042C0008385887151F4848D958DA68DB78D8B8BE8
:1042D0009C8BAD8BBE8B81E00EC0803111F080E0F5
:1042E00015C09E012D5E3F4F8B8D9C8D0E949113BA
:1042F0008823A9F384E08D8381E08C831E821F8252
:10430000188619861A861B861C861D86DF91CF911A
:1043100008958F929F92AF92BF92CF92DF92EF92C9
:10432000FF92CF9310921E0710921C07109219074C
:104330001092180784E0809317070E94880F6B0182
:104340007C0161E0809117070E940D2061E080915F
:1043500017070E94DD1FCFB7F8948091B204811136
:1043600027C0E9ECFBE08491EAEAFBE09491E82FB6
:10437000F0E0EE0FFF1FE557F44FA591B491EC91DB
:10438000E92321F461E081E10E94DD1F61E081E128
:104390000E940D208CB580618CBD8CB580648CBD75
:1043A00061E08FE00E940D2061E080E10E940D201D
:1043B0008091B2048F5F8093B204CFBF82E5809377
:1043C000110781E0809312078091110790911207E5
:1043D0000E946B18CAE08FEF0E946118C150D9F794
:1043E00083E197E00E946E1820E030E0A90160E0D0
:1043F00083E197E00E948418C82F80931D078130C5
:1044000049F00E94880F6C197D09613D774060F387
:1044100081E054C02AEA31E040E050E068E083E106
:1044200097E00E94841882FF03C0C0931E070EC04D
:10443000C4E00E94681880931D07C150D1F78A3AE2
:1044400011F082E03BC082E080931E0780911E073E
:10445000823021F0812C912C540105C0812C912CAB
:10446000A12C30E4B32E20E030E0A90167E383E122
:1044700097E00E948418A501940169E283E197E026
:104480000E94841880931D07882349F00E94880F9A
:104490006C197D09613D774030F388E00FC0809151
:1044A0001E07823001F520E030E0A9016AE383E1D4
:1044B00097E00E948418882341F086E080931807D3
:1044C00083E197E00E9456188FC00E946818807C94
:1044D000803C19F483E080931E070E9468180E94B4
:1044E00068180E94681883E197E00E94561880E5DA
:1044F0008093110781E0809312070E94602988232E
:1045000029F080914207882341F06EC080E00E942C
:104510006029882309F469C0F4CF8091360780317F
:1045200009F582E0809342071092540710925507D4
:1045300010925607109257078091370790913807CD
:10454000A0E0B0E025E0880F991FAA1FBB1F2A95A5
:10455000D1F78093500790935107A0935207B093DF
:1045600053071EC0803209F03FC083E080934207AA
:104570004091390750913A0760913B0770913C0791
:10458000409354075093550760935607709357070D
:1045900020E537E08FE197E00E949113882321F115
:1045A0008FE197E0909359078093580781E08093BB
:1045B000410710924307109244071092450710924A
:1045C0004607109247071092480710924907109229
:1045D0004A0710924B0710924C0710924D07109209
:1045E0004E0710924F0701C080E0CF91FF90EF90EF
:1045F000DF90CF90BF90AF909F908F900895609183
:10460000A0077091A1076115710559F08091A2076B
:104610009091A307DC01ED91FC910190F081E02DD8
:10462000099408958F929F92AF92BF92CF92DF929A
:10463000EF92FF920F931F93CF93DF936C01E12CC6
:10464000F12C00E010E0AA24AA94BB24B394402FDC
:1046500060E08CE597E00E94BF1A45018E189F0824
:10466000C0E0D0E0FE01EE0DFF1DEC0DFD1D6491DC
:104670008CE597E00E94AA1AC815D905F1F0219699
:10468000C038D10579F70F5F1F4F80E8E80EF11CA5
:1046900004301105E1F644E060E08CE597E0DF913D
:1046A000CF911F910F91FF90EF90DF90CF90BF902F
:1046B000AF909F908F900C94BF1ADF91CF911F9174
:1046C0000F91FF90EF90DF90CF90BF90AF909F90B1
:1046D0008F900895EEE9F7E0808191819383828342
:1046E000DC01ED91FC910680F781E02D0994AF92F9
:1046F000BF92CF92DF92EF92FF920F931F93CF93CF
:10470000DF93CDB7DEB72B970FB6F894DEBF0FBEA1
:10471000CDBF7C01CE0101966C01FC0190E28BE0E3
:104720008C0D91938E13FDCFDA0120E037E09D913F
:10473000992339F19E3219F0EBE7FBE00AC03A30D9
:1047400009F4AAC028E03AE0F2CF3196891709F4BB
:10475000A3C084918111F9CF321708F49DC08FED69
:10476000890F8E3508F098C081E0820FF601E20FC4
:10477000F11D2FE9290F2A3108F490529083282F38
:10478000D6CF8981803209F487C08B01FB01838DEC
:10479000948DF701948F838FFB0116821782108608
:1047A00011861286138614861586A12CF80182853F
:1047B0009385A485B585438954896589768984174D
:1047C0009507A607B70708F067C025E0B695A79537
:1047D000979587952A95D1F7F82FFF70BF2EF8018E
:1047E0008581823008F458C0C8010E946C1997FD79
:1047F00053C0F80182859385A485B5854F96A11D88
:10480000B11D82879387A487B587F0E2BF9EC00160
:104810001124BC0161547B4F61157105E9F1FB0165
:1048200020812223B9F1253EE1F04BE050E0C601A2
:104830000E94B632892B09F0B9CF6B2DC7012B9698
:104840000FB6F894DEBF0FBECDBFDF91CF911F91A1
:104850000F91FF90EF90DF90CF90BF90AF900C94AE
:104860003321A11014C0F701B28A40910801509180
:10487000090160910A0170910B0146875787608B8F
:10488000718BFC01E154FB4F8081882329F0AA241D
:10489000A3948CCFAA2039F380E02B960FB6F8941E
:1048A000DEBF0FBECDBFDF91CF911F910F91FF9063
:1048B000EF90DF90CF90BF90AF900895EF92FF926E
:1048C0000F931F93CF93DF9300D000D000D0CDB7CC
:1048D000DEB77C018B01CE0101960E9450268091AB
:1048E000BE079091BF072D813E81E216F30641F489
:1048F0009701A80160E070E00E94CF08182F01C066
:1049000010E089819A810E944F31812F26960FB63F
:10491000F894DEBF0FBECDBFDF91CF911F910F91F5
:10492000FF90EF9008958F929F92AF92BF920F9356
:104930001F93CF93DF93CDB7DEB7A1970FB6F8944F
:10494000DEBF0FBECDBF19A2423008F44AE08E018F
:104950000F5D1F4F842E912CA12CB12CA501940129
:104960000E948330E62FB901CA0101501109EA30D3
:1049700014F4E05D01C0E95CD801EC93232B242BF7
:10498000252B61F7B80181EC96E00E94731FA19678
:104990000FB6F894DEBF0FBECDBFDF91CF911F9150
:1049A0000F91BF90AF909F908F900895CF92DF921C
:1049B000EF92FF92CF93DF936C01990FEE08FF08FF
:1049C000F7FE1FC0E091C106F091C2060190F08190
:1049D000E02D6DE281EC96E00995EC0166277727E2
:1049E000CB016C197D098E099F094AE00E9493242E
:1049F0008C0F9D1FDF91CF91FF90EF90DF90CF90B4
:104A000008954AE0C701B601DF91CF91FF90EF9082
:104A1000DF90CF900C949324CF93DF9362EF73E0F9
:104A200081EC96E00E949E1F6091BD047091BE04CF
:104A300081EC96E00E948C1F67EF73E081EC96E0BA
:104A40000E949E1FA091BD04B091BE04FD01019083
:104A50000020E9F73197BF016A1B7B0B80E090E0F3
:104A60004AE00E9493246CE773E081EC96E00E9498
:104A70009E1F6091BD047091BE048CEF93E00E9474
:104A8000D7320E94D6246091BD047091BE0480E0AC
:104A900094E00E94D7320E94D62481EC96E00E94D6
:104AA000881FC091BD04D091BE0460E074E0CE01C7
:104AB0000E94D732892B11F460EB0AC06CEF73E0CF
:104AC000CE010E94D732892B11F463E801C06881BE
:104AD00080EB97E0DF91CF910C944F08CF93DF9359
:104AE000FC0144815581608171818CE597E00E94D1
:104AF0004C1EEC018CE597E00E94881F8C0F9D1FD7
:104B0000DF91CF910895FC018091BC04811103C015
:104B10008FEF9FEF08959FB7F89482E08093E900AC
:104B20002091F20030E01216130614F421E030E078
:104B30002115310559F0289884E68093BB048091B3
:104B4000F10080838091F200882319F09FBFC90192
:104B500008958BE68093E800F9CF0F931F93CF93CE
:104B6000DF93EC0188819981009729F02A813B81AC
:104B70002617370788F48B016F5F7F4F0E94E7315C
:104B8000009761F0998388831B830A832C813D8180
:104B9000232B11F4FC01108281E001C080E0DF9141
:104BA000CF911F910F910895EF92FF920F931F9352
:104BB000CF93DF9300D0CDB7DEB78C0169831A8223
:104BC000FC01E480F580FFEFEF1AFF0AB7010E94B5
:104BD000AD25882381F0F801208131818481958180
:104BE000BE016F5F7F4F820F931F0E94E032F8017A
:104BF000F582E48281E00F900F90DF91CF911F91B9
:104C00000F91FF90EF900895EF92FF920F931F93F3
:104C1000CF93DF93EC017B018A01BA010E94AD259D
:104C20002881398181110DC02115310519F0C90183
:104C30000E944F31198218821D821C821B821A82A7
:104C400006C01D830C83B701C9010E94E032CE016A
:104C5000DF91CF911F910F91FF90EF900895CF9327
:104C6000DF93EC016115710559F0FB010190002003
:104C7000E9F73197AF01461B570B0E9404260CC081
:104C800088819981009711F00E944F311982188212
:104C90001D821C821B821A82CE01DF91CF91089562
:104CA000FC01118210821382128215821482611516
:104CB000710551F0FB0101900020E9F73197AF0138
:104CC000461B570B0C94042608951F920F920FB6A3
:104CD0000F9211248F939F938091E1009091E100B6
:104CE000937F9093E10083FF0FC01092E90091E061
:104CF0009093EB001092EC0092E39093ED001092F1
:104D0000BC0498E09093F00082FF20C093E0909361
:104D1000E9009091F200992319F09AE39093E8004A
:104D20009091BA04992339F09091BA0491509093DC
:104D3000BA04992389F19091BB04992339F0909199
:104D4000BB0491509093BB04992341F184FF10C0A0
:104D50008091E2008E7E81608093E2008091E1008C
:104D60008F7E8093E1008091B9048E7E806111C0B6
:104D700080FF16C08091E2008E7E80618093E20009
:104D80008091E1008E7E8093E1008091B9048E7E57
:104D900081608093B90404C05D9ACDCF289AD6CFA4
:104DA0009F918F910F900FBE0F901F901895DF92DB
:104DB000EF92FF920F931F93CF93DF93D82E8A0128
:104DC0007B01E40EF51EEB01CE15DF0571F0D7FE79
:104DD00003C0FE01849101C088810E94381F219682
:104DE0008111F2CF8FEF9FEF01C0C801DF91CF910A
:104DF0001F910F91FF90EF90DF9008950F931F93F5
:104E0000CF93DF931F92CDB7DEB782E0898342E470
:104E100050E067ED7BE080E80E94D7260E94A01F4B
:104E2000DC0112960D911C9113970115110569F083
:104E3000D801ED91FC910280F381E02DBE016F5FFE
:104E40007F4FC801099597FF07C089810F90DF91B7
:104E5000CF911F910F910895F80100851185E5CF3D
:104E60001F920F920FB60F921124CF92DF92EF9202
:104E7000FF920F931F932F933F934F935F936F93E3
:104E80007F938F939F93AF93BF93EF93FF93CF93B2
:104E9000DF93CDB7DEB76C97DEBFCDBF1092E900D0
:104EA0008091E80083FFEDC168E0CE0145960E9445
:104EB000661F82EF8093E8008D8987FF05C090917F
:104EC000E80090FFFCCF03C09EEF9093E800982F7E
:104ED000907609F0C6C09E892F89188D91110CC05B
:104EE000803829F48091B8048093F10002C01092B8
:104EF000F1001092F10048C1422F50E0512B913047
:104F000051F4811141C14130510509F03DC18091F9
:104F1000B8048D7F0BC0933061F4811135C14130ED
:104F2000510509F031C18091B80482608093B804C2
:104F30002BC1953041F48091E80080FFFCCF2068C0
:104F40002093E30021C1963009F05FC0EB8CFC8C0C
:104F50001092E9001092B6041092B504123091F547
:104F60001092B4041092B3040E94FE2699E0BE0190
:104F70006F5F7F4FDB01E92F1D92EA95E9F7998377
:104F80001A8391E09E8390EA98879AEF99872091FF
:104F9000B5043091B604275F3F4F3C832B838D834C
:104FA0001092E9001092B6041092B504F092B40485
:104FB000E092B30449E050E080E00E94D7260E94CE
:104FC000FE26E2C0F092B404E092B3040E94A01F57
:104FD000DC011296ED90FC901397E114F10409F4B2
:104FE000C0C0D701ED91FC910480F581E02DBE0198
:104FF0006B5E7F4FC7010995009719F00CF0C4C094
:10500000C7C0F701E084F184E8CF973009F4C0C04D
:10501000983021F481E08093F100B6C0993009F016
:10502000B3C0837009F0B4C0EDE0F1E081E021E0AD
:1050300036E39081992361F08093E9002093EB009F
:1050400091919093EC003093ED008F5F873089F75A
:105050008EE78093EA001092EA008F898093BC0467
:1050600093C08B8D9C8D1092E9001092B604109223
:10507000B5049093B4048093B304898D811156C014
:105080008E899D89913A59F4813209F081C047E0B7
:1050900050E067E171E080E00E94D72675C0913250
:1050A00009F076C0833289F4888D90E0982F8827A4
:1050B0002F89822BA0E0B0E080931301909314011C
:1050C000A0931501B09316015FC0803269F48091FE
:1050D000E80082FFFCCF67E087E191E00E94661F55
:1050E0008BEF8093E80006C0823209F04DC08F89B3
:1050F00080931E018091B704882319F0EEEFFAE047
:1051000002C0E0E0F8E08091170190911801A091B1
:105110001901B0911A01803B9440A105B10509F035
:105120007BC080911E0180FF93C076C00E94A01FAB
:10513000DC0112960D911C9113970115110541F197
:10514000D801ED91FC910190F081E02DBE016B5EE4
:105150007F4FC8010995811117C0F801008511859D
:10516000ECCF113009F44EC0133091F48F898823AD
:1051700009F445C0823081F440E862E188E39CE0B4
:105180000E94212D882321F08EEF8093E80079C0C2
:1051900081E28093EB0075C0813029F440E868E03B
:1051A0008FE29CE0EDCF833099F70E94A01FDC01D5
:1051B0001296ED90FC9013978E010F5F1F4F6801C0
:1051C000E114F10479F0D701ED91FC910680F781AB
:1051D000E02DB801C7010995080F111DF701E08402
:1051E000F184EECFD8011C92F60101900020E9F77E
:1051F0003197BF016C197D0940E0C601C1CF69E15B
:105200007CE002C06DE17CE06115710509F2FB01F3
:10521000449150E080E840CF0FB6F894A895809173
:105220006000886180936000109260000FBEA895B6
:10523000EE3F2AE0F20739F08091FE0A9091FF0AD2
:1052400091838083A1CF1092FF0A1092FE0A9CCF17
:10525000EE3F8AE0F80731F0808191819093FF0A58
:105260008093FE0A87E797E7918380839BE088E13C
:105270000FB6F894A895809360000FBE90936000DD
:1052800083CF6C960FB6F894DEBF0FBECDBFDF9113
:10529000CF91FF91EF91BF91AF919F918F917F91AE
:1052A0006F915F914F913F912F911F910F91FF90BF
:1052B000EF90DF90CF900F900FBE0F901F9018953A
:1052C0008F929F92AF92BF92CF92DF92EF92FF9216
:1052D000CF93DF93C82F83E197E09093C00680932C
:1052E000BF06CC2369F1C53010F080E00DC140E06D
:1052F00060E070E0CB010E9424128823B1F320E12A
:10530000C29FC001112481559B4FFC01E254FE4F06
:1053100020812F7751F73C964081518162817381C2
:10532000443651056105710500F33497C080D18082
:10533000E280F380C114D104E104F10421F4D5CF5B
:10534000C12CD12C760140E0C701B6010E94241285
:10535000882359F28091CA049091CB048115924020
:1053600021F6A091CF04AA2309F4BFCF6091CD0408
:105370007091CE046115710509F4B7CF2091CC046A
:10538000222309F4B2CFA09331072093230780E0B2
:1053900030E0E1E0F0E0C82FAF01082E02C0440F7A
:1053A000551F0A94E2F72417350741F0982F8F5FB5
:1053B000983089F789E080932C0797CF80932C074A
:1053C0002091D5043091D6042115310519F040E023
:1053D00050E008C02091E3043091E4044091E504DA
:1053E0005091E60420932407309325074093260725
:1053F0005093270746015701860E971EA11CB11C2A
:105400008092320790923307A0923407B09235070A
:10541000E091D004F091D104F0933807E09337077E
:10542000B0E00E943930860E971EA81EB91E8092E9
:10543000390790923A07A0923B07B0923C0785E06B
:10544000EE0FFF1F8A95E1F7E150FE4FEF2FFF2788
:10545000E6958E0E9F1EA11CB11C80922D07909286
:105460002E07A0922F07B09230072091D2043091DE
:10547000D3042115310521F0A90160E070E008C0D6
:105480004091DF045091E0046091E1047091E204E6
:10549000D701C60188199909AA09BB09840F951F6C
:1054A000A61FB71F04C0B695A79597958795CA956F
:1054B000D2F78093280790932907A0932A07B093E7
:1054C0002B07853F2FE09207A105B10510F48CE072
:1054D00018C0853F9F4FA105B10510F480E111C0B0
:1054E0008091EB049091EC04A091ED04B091EE0456
:1054F0008093390790933A07A0933B07B0933C07FA
:1055000080E28093360781E0DF91CF91FF90EF90AA
:10551000DF90CF90BF90AF909F908F900895809133
:10552000A4079091A5070E944F318091AA079091FE
:10553000AB070C944F31789484B5826084BD84B5F8
:10554000816084BD85B5826085BD85B5816085BD7E
:1055500080916E00816080936E0010928100809136
:1055600081008260809381008091810081608093BE
:105570008100809180008160809380008091910003
:10558000826080939100809191008160809391006E
:10559000809190008160809390008091C100846030
:1055A0008093C1008091C10082608093C10080918E
:1055B000C10081608093C1008091C30081608093AD
:1055C000C3008091C00082608093C0008091C200BF
:1055D00081608093C20080917A00846080937A0019
:1055E00080917A00826080937A0080917A008E7F29
:1055F00080937A0080917A00806880937A0010927C
:10560000BC041092B8041092B9048091D700816054
:105610008093D70080EA8093D80089B58F7E89BDBA
:1056200089B5826089BD09B400FEFDCF61E070E0FC
:1056300080E090E00E9449208091D8008F7C8061BA
:105640008093D8008091E000807F8093E00080917B
:10565000E1008E7E8093E1008DE08093E200559A18
:10566000209AEEEFFFE7859194918B3F9C4D19F4C2
:1056700081E08093B70410926B078CE380936A07F4
:105680001092B90082E08093B800109260071092E7
:105690006107E9E6FBE085919491E82EEBE6FBE0FB
:1056A000F490ECE6FBE0E491E0936207EDE6FBE0CA
:1056B000E491E0936307EEE6FBE0E491E093640796
:1056C0008C01802F8E198F1548F4F80164918CE5B8
:1056D00097E00E94AF0D0F5F1F4FF3CF1092660748
:1056E0008CE597E00E94BC1C8EE797E090936807DA
:1056F0008093670789E699E00E94122368EE73E0C1
:1057000080E090E00E9449208CE597E00E94BC1C5C
:105710008CE597E00E94BC1C61E070E080E090E0C6
:105720000E9449206AEF70E080E090E00E944920EA
:1057300066E977E080919E0790919F070E94DE0FB7
:1057400000919E0710919F0765E877E0C8010E94CD
:10575000DE0F10939207009391076DE777E0809139
:105760009E0790919F070E94DE0F65E777E085E82E
:1057700097E00E94DE0F6DE677E085E897E00E94F3
:10578000DE0F80E090E00E94043090E09093A2044D
:105790008093A1040E94FF2280E090E00E940430E8
:1057A00090E09093A4048093A304892B19F066E9F8
:1057B00073E002C063EA73E081EC96E00E948C1F04
:1057C000EFE6FBE0E49180917B00E3FBFF27F0F93B
:1057D000CF2F20E0D22F95E0CC0FDD1F9A95E1F777
:1057E0008F7DC82BC0937B00E770E064E0937C0062
:1057F00080917A00806480937A0080917A0086FD9F
:10580000FCCF609178008091790070E0782B072EB2
:10581000000C880B990B611571058105910511F03C
:105820000E946D2F61E086E00E940D2061E087E01C
:105830000E940D2061E086E00E94DD1F61E087E0AC
:105840000E94DD1F64E670E080E090E00E94492045
:1058500060E086E00E94DD1F60E087E00E94DD1FBF
:1058600064E670E080E090E00E94492061E086E01C
:105870000E94DD1F61E087E00E94DD1F64E670E0AA
:1058800080E090E00E94492060E086E00E94DD1FF9
:1058900060E087E00E94DD1F64E670E080E090E059
:1058A0000E94492062E089E00E940D2062E08AE0C7
:1058B0000E940D2062E08DE00E940D2062E085E0F4
:1058C0000E940D2062E08CE00E940D2062E08BE0DF
:1058D0000E940D2062E088E00E940D200E94892134
:1058E00081111AC060EB73E081EC96E00E948C1F7E
:1058F0008CE597E00E94BC1C6BEC73E08CE597E0B4
:105900000E948C1F8CE597E00E94881F61EE73E077
:105910008CE597E00E948C1F8FEF9FEF9093CE064F
:105920008093CD0600E010E08CE00E94B41F892B2C
:1059300021F5A091A007B091A1071896CD91DC9117
:1059400019978C81882341F0E881F9810280F381E5
:10595000E02D60E0CE0108C0ED91FC91119702802E
:10596000F381E02D60E0CD0109950E94FF2262E302
:1059700070E080E090E00E94492088E00E94B41F1F
:10598000892B49F5E091A007F091A107868588232E
:10599000D1F0878522859385E22FF92FE80FF11D3D
:1059A000E80FF11D80819181009769F0DC01ED9194
:1059B000FC910084F185E02D0995009721F09093EA
:1059C000A1078093A0070E94FF2262E370E080E0BD
:1059D00090E00E9449208BE00E94B41F892B21F5A2
:1059E000A091A007B091A1071896CD91DC911997CD
:1059F0008C81882341F0E881F9810480F581E02DD4
:105A000060E0CE0108C0ED91FC9111970480F58112
:105A1000E02D60E0CD0109950E94FF2262E370E075
:105A200080E090E00E94492064E670E080E090E031
:105A30000E9449200115110509F476CF0E9400004B
:105A400073CFCF92DF92EF92FF920F931F93CF937A
:105A5000DF931F92CDB7DEB7182F062FE42E862FC7
:105A6000880F8E5F99830E94381F83E00E94381F41
:105A7000F12EC12E9981D92E8C2D8F19801798F473
:105A8000F601E7FE02C0849101C080810E94381FA8
:105A9000182F80E00E94381F8123FFEFCF1ADF0A02
:105AA0008111EACF01C081E00F90DF91CF911F916A
:105AB0000F91FF90EF90DF90CF9008950F931F9379
:105AC0001092C4061092C30648EE53E060E070E006
:105AD0004093C5065093C6066093C7067093C806E8
