:100000000C9459060C9481060C9481060C9481067C
:100010000C9481060C9481060C9481060C94810644
:100020000C9481060C9481060C9400270C94CB2729
:100030000C9481060C9481060C9481060C94810624
:100040000C9481060C9481060C9481060C94810614
:100050000C9481060C9481060C9481060C94B925AD
:100060000C9481060C9481060C9481060C948106F4
:100070000C9481060C9481060C9481060C948106E4
:100080000C9481060C9481060C9481060C948106D4
:100090000C9482220C9481060C9481060C948106A7
:1000A0000C9481060C9481060C948106032406248A
:1000B000F523F923FF232724272427240A240E24A9
:1000C000122418241C2427242224000000000000ED
:1000D00000002A2B280000000000000000000000A3
:1000E000000000000000000000002C9E9FA0A1A2C4
:1000F000A32DA5A6AF2F363837A4271E1F202122F7
:1001000023242526B7B664A7E4AD1F848586878897
:10011000898A8B8C8D8E8F909192939495969798D7
:10012000999A9B9C9D253526B1B8B0040506070811
:10013000090A0B0C0D0E0F101112131415161718B7
:10014000191A1B1C1D24B5273100000000000000F7
:10015000000080E0F0FCFFFFFFFFFFFFFFFFFFFF5D
:10016000070307FFFFFFFFFFFFFFFFFFFFFFFFFF8B
:10017000FFFFFF070307FFFFFFFFFFFFFFFFFFFF7B
:10018000FCF8E0800000000000000000000000001B
:10019000000000000000000000000000000000005F
:1001A000000000000000000000000000000000004F
:1001B000000000000000000000000000000000003F
:1001C000000000000000000000000000000000002F
:1001D00000F8FFFFFFFFFF0F0FFFFF010001FFFF10
:1001E000000000FFFF010001FFFF0F0FFFFF0100F4
:1001F00001FFFF000000FFFF010001FFFF1F1FFFC5
:10020000FFFFFFFFF800000000000080E0380878E2
:10021000F0000000C0F818F88000C07018F8F8006E
:100220000000000000080888D8380000C0F0180856
:1002300008F8F000001010F8F800000070D8888866
:10024000C87800000000000000000000000000006E
:10025000003FFFFFFFFFFFFCFCFFFF800080FFFF70
:10026000000000FFFF800080FFFFF0F0FFFF800034
:1002700080FFFF000000FFFF800080FFFFF8F8FF15
:10028000FFFFFFFF1F00000000000C070302020336
:100290000F0C00080F01000007060300000F01000B
:1002A000000000080C0E0D0808080000070F0808E1
:1002B000080703000000000F030000070F080808EC
:1002C0000F07000000000000000000000000000018
:1002D000000001070F3FFFFFFFFFFFFFFFFFFFFFD2
:1002E000E0C0E0FFFFFFFFFFFFFFFFFFFFFFFFFF9B
:1002F000FFFFFFE0C0E0FFFFFFFFFFFFFFFFFFFF8B
:100300003F1F070000000000000000000000000088
:1003100000000000000000000000000000000000DD
:1003200000000000000000000000000000000000CD
:1003300000000000000000000000000000000000BD
:10034000000000000000000000007C3C3E5E2B3DF1
:100350003F2F5B5D3B2C2A225C00000005072061DB
:10036000000000000000005F00000007000700140C
:100370007F147F14242A7F2A1223130864623649CB
:100380005522500005030000001C224100004122BC
:100390001C00082A1C2A0808083E080800503000E3
:1003A0000008080808080060600000201008040227
:1003B0003E5149453E00427F40004261514946213D
:1003C00041454B311814127F1027454545393C4AA9
:1003D00049493001710905033649494936064949F9
:1003E000291E003636000000563600000008142290
:1003F0004114141414144122140800020151090676
:10040000324979413E7E1111117E7F494949363E7C
:10041000414141227F4141221C7F494949417F0995
:100420000901013E414151327F0808087F00417FA8
:1004300041002040413F017F081422417F4040405D
:10044000407F0204027F7F0408107F3E4141413E0D
:100450007F090909063E4151215E7F091929464657
:100460004949493101017F01013F4040403F1F2080
:1004700040201F7F2018207F631408146303047832
:100480000403615149454300007F414102040810C3
:100490002041417F000004020102044040404040EE
:1004A000000102040020545454787F4844443838F2
:1004B00044444420384444487F3854545418087EF7
:1004C000090102081454543C7F0804047800447D58
:1004D00040002040443D00007F10284400417F4000
:1004E000007C041804787C080404783844444438B8
:1004F0007C14141408081414187C7C08040408489C
:1005000054545420043F4440203C4040207C1C2054
:1005100040201C3C4030403C44281028440C5050A3
:10052000503C4464544C44000836410000007F00B5
:1005300000004136080008082A1C08081C2A080880
:100540000006090906000005072060000000000001
:1005500000005F00000007000700147F147F1424D0
:100560002A7F2A1223130864623649562050000855
:10057000070300001C2241000041221C002A1C7FAE
:100580001C2A08083E080800807030000808080887
:1005900008000060600020100804023E5149453EFA
:1005A00000427F400072494949462141494D331874
:1005B00014127F1027454545393C4A4949314121AC
:1005C0001109073649494936464949291E00001490
:1005D00000000040340000000814224114141414D8
:1005E00014004122140802015909063E415D594E8A
:1005F0007C1211127C7F494949363E414141227F9C
:100600004141413E7F494949417F090909013E4134
:100610004151737F0808087F00417F41002040411D
:100620003F017F081422417F404040407F021C026E
:100630007F7F0408107F3E4141413E7F0909090642
:100640003E4151215E7F0919294626494949320315
:10065000017F01033F4040403F1F2040201F3F409B
:1006600038403F6314081463030478040361594954
:100670004D43007F414141020408102000414141A7
:100680007F0402010204404040404000030708008C
:1006900020545478407F284444383844444428380F
:1006A0004444287F385454541800087E090218A482
:1006B000A49C787F0804047800447D4000204040DA
:1006C0003D007F1028440000417F40007C047804F6
:1006D000787C080404783844444438FC18242418EE
:1006E00018242418FC7C0804040848545454240496
:1006F000043F44243C4040207C1C2040201C3C40C3
:1007000030403C44281028444C9090907C446454E1
:100710004C440008364100000077000000413608D4
:100720000002010204023C2623263C00030C0F3089
:10073000333C3FC0C3CCCFF0F3FCFFAED580A81F45
:10074000D300408D142002A1C8DA02817FD9F1DBE9
:1007500040A4A6AF00000000240027002A002D00BE
:10076000300000000000250028002B002E00310082
:10077000000000002300260029002C002F000404A4
:10078000040404030405020202020403020202023A
:100790000606060606060404020202040404080211
:1007A00001104080401020408040800802040180F9
:1007B0004020100201108010204040200000000264
:1007C00000090F0000030401000C000000000000FD
:1007D000000000000000000000000000050720618C
:1007E000000000000000005F000000070007001488
:1007F0007F147F14242A7F2A122313086462364947
:100800005522500005030000001C22410000412237
:100810001C00082A1C2A0808083E0808005030005E
:1008200000080808080800606000002010080402A2
:100830003E5149453E00427F4000426151494621B8
:1008400041454B311814127F1027454545393C4A24
:100850004949300171090503364949493606494974
:10086000291E00363600000056360000000814220B
:1008700041141414141441221408000201510906F1
:10088000324979413E7E1111117E7F494949363EF8
:10089000414141227F4141221C7F494949417F0911
:1008A0000901013E414151327F0808087F00417F24
:1008B00041002040413F017F081422417F404040D9
:1008C000407F0204027F7F0408107F3E4141413E89
:1008D0007F090909063E4151215E7F0919294646D3
:1008E0004949493101017F01013F4040403F1F20FC
:1008F00040201F7F2018207F6314081463030478AE
:100900000403615149454300007F4141020408103E
:100910002041417F00000402010204404040404069
:10092000000102040020545454787F48444438386D
:1009300044444420384444487F3854545418087E72
:10094000090102081454543C7F0804047800447DD3
:1009500040002040443D00007F10284400417F407B
:10096000007C041804787C08040478384444443833
:100970007C14141408081414187C7C080404084817
:1009800054545420043F4440203C4040207C1C20D0
:1009900040201C3C4030403C44281028440C50501F
:1009A000503C4464544C44000836410000007F0031
:1009B00000004136080008082A1C08081C2A0808FC
:1009C0000006090906FFFFBFFFFFFFFBFFFFFFBF98
:1009D000FFFF7FFBFFFFF7BBFFFF7FBBFFFFF7BB07
:1009E000FFFE7FBBFFEFD7BBFDFE7DBBDFEFD7BBBD
:1009F0007DFE7DBBD3EFD7BB3D7E7CBBD3E7C7B3CA
:100A0000397E7C3B93E7C793397C3C3993C783930A
:100A1000397C383183C78311187C38118187830171
:100A200018783810018783011038300001830300E3
:100A300010181000018101001010100000010100C9
:100A40000010000000FFFFBFFFFFFFFBFFFFF7BF2D
:100A5000FFFFFFFBFFFF07E1FD7D0DADEDCD1DFBB2
:100A6000F3E61F1BC1FDFD01FBFE7D3B83FDFD0D7C
:100A700031CEE5F33BD9CDAD2D6C48A303F9FD9DF7
:100A8000C1E670399DEDC503F9FC1C0193C78303D2
:100A9000F1FC3C0103C1FDFD047000F9FD1DFDF1F9
:100AA000803818E0FD3D8101C0F07818098D0D0CEB
:100AB0000CF8F8F001810100101010000001010095
:100AC0000000000000FFFFBFFFFFFFFBFFFFFFBFB5
:100AD000FFFF7FFBBF017C7F67602F6B37B39C9F5D
:100AE000E7F06280BF3F706B2D6E35B89FCFD0BAF4
:100AF000409F3F30626F672B350E1C603F3F83B1D4
:100B0000071F7C7103A7C09F3F3B60292327B19E2D
:100B10001F673801787F1F0018607F3F818480073E
:100B20003F7C7C7F0780800E3F3F30602123233055
:100B30001C1F0F01008101001010100000010100B6
:100B40000010000000FFFFBFFFFFFFFBFFFFF7BF2C
:100B5000FFFFFFFBFFFFF7BFFFFF7FBBFFEFF7BB11
:100B6000FFFE7FBBFFEFD7BBFFFE7DBBDFEFD7BB39
:100B70003DFE7DBBD3EFD7BB3D7E7DBBD3E7C7B387
:100B8000397E7C3B93E7C793397C3C3993C7839389
:100B9000397C383183C78311187C381181878301F0
:100BA0001878381001838301103830000183030066
:100BB0001018100001810100101010000001010048
:100BC00000000000003B0719802000070605040113
:100BD00000080A0B0C0D09080B00020202010009B3
:100BE0000400000102020000052400100105240198
:100BF00001010424020605240600010705810310F3
:100C0000004009040100020A00000007050202403A
:100C100000000705830240000004030904120100DC
:100C200002EF0201404F1B04920001010203015335
:100C30007061726B46756E00537061726B46756EB3
:100C40002050726F204D6963726F0005010902A187
:100C5000010901A1008501050919012903150025D4
:100C6000019503750181029501750581030501094F
:100C700030093109381581257F750895038106C033
:100C8000C005010906A1018502050719E029E7153C
:100C9000002501750195088102950175088103956C
:100CA000067508150025650507190029658100C02E
:100CB000402E11241FBECFEFDAE0DEBFCDBF15E01E
:100CC000A0E0B1E0EAE9F7E602C005900D92A0319C
:100CD000B107D9F729E0A0E1B5E001C01D92A1302C
:100CE000B207E1F716E0C9E5D6E004C02197FE019E
:100CF0000E949D31C835D107C9F70E94B82B0C94CA
:100D0000CB330C94000008952091B6083091B708B9
:100D10008617970744F4F901E80FF91F4081403224
:100D200021F00196F5CF8FEF9FEF0895FC016093BE
:100D3000BC008091BC0087FFFCCF9091B900987FE8
:100D400090830895CF92DF92EF92FF920F931F93BB
:100D5000CF93DF93EC01C62ED42E8F85882351F0DC
:100D6000411108C084E98093BC008091BC0084FDDF
:100D7000FCCF1F86EF848E01035F1F4FE11014C06C
:100D8000FE8464EAC8010E9496068D85883011F1C0
:100D9000803101F1DD2011F080E4E82EE092BB000B
:100DA00064E8C8010E949606C092BB0064E8C801CE
:100DB0000E94960682E0D81204C08F858F5F8F87CD
:100DC00011C084E98093BC008091BC0084FDFCCFFD
:100DD0001F8608C0FF0CF092BB0064E8C8010E94A7
:100DE0009606D8CFDF91CF911F910F91FF90EF9092
:100DF000DF90CF900895089580E090E00895CF931C
:100E0000DF9380E698E00E943F22C0E6D8E085E4C8
:100E100095E09C878B876CED71E0CE010E94BF2A24
:100E2000CE010E94BB2A62EF71E0CE010E94BF2A70
:100E30008AE593E09C878B876CED75E080E090E01D
:100E40000E947325DF91CF910C94592BCF93DF93A0
:100E5000EB016A817B8185EC97E00E94BF2A8A8141
:100E60009B810884D985C02D8550924009F44DC0DE
:100E700080E698E00E943F2262E172E080E698E01E
:100E80000E94BF2A8A819B818852924091F463E339
:100E900072E080E698E00E94BF2A65E072E080E69A
:100EA00098E00E94BF2A6EE372E080E698E00E941C
:100EB000BF2A8A819B818550924091F468E272E05A
:100EC00080E698E00E94BF2A66E472E080E698E03F
:100ED0000E94BF2A6EE372E080E698E00E94BF2A7B
:100EE0008A819B818E53924009F043C068E272E090
:100EF00080E698E00E94BF2A65E072E080E698E014
:100F00000E94BF2A63E572E02EC080E698E00E944E
:100F10003F226CED71E080E698E00E94BF2A6FE00E
:100F200075E080E698E00E94BF2A8A819B818B55FC
:100F3000924061F461E672E080E698E00E94BF2A88
:100F400067E672E080E698E00E94BF2A8A819B8172
:100F50008756924071F46BE572E080E698E00E945B
:100F6000BF2A6DE672E080E698E0DF91CF910C94A5
:100F7000BF2ADF91CF91089580E698E00E943F223A
:100F80008AE491E00E94012B60ED77E080E090E040
:100F90000E94732561E070E080E090E00E9473257C
:100FA0006CED75E080E090E00E9473250C94592B65
:100FB000FB016281738180E698E00C94A62AFB0114
:100FC0006281738180E698E00C94A62AFB0162811D
:100FD000738180E698E00C94A62ACF93DF93EB010F
:100FE0000E94C01528E030E0AE0162E0DF91CF91B1
:100FF0000C948C15DC01683810F0685825C0E62F79
:10100000F0E067FF12C0E058F10981E090E001C014
:10101000880FEA95EAF7809514969C911497892396
:1010200014968C93149760E00FC0E653FF4F6491C1
:10103000662301F167FF08C014968C9114978D7F89
:1010400014968C9314976F77FD01369686E066238D
:1010500021F09081961301C0108281503196811148
:10106000F6CFCD01BD016C5F7F4F0E94ED0781E09F
:1010700090E0089580E090E00895DC01683810F079
:1010800068582DC0E62FF0E067FF11C0E058F10965
:1010900081E090E001C0880FEA95EAF714969C91F0
:1010A0001497892B14968C93149760E018C0E6531C
:1010B000FF4F6491611109C081E090E013969C9309
:1010C0008E93129780E090E0089567FF08C0149611
:1010D0008C911497826014968C9314976F77169660
:1010E0008C911697861751F117968C911797861742
:1010F00029F118968C911897861701F119968C9101
:1011000019978617D9F01A968C911A978617B1F00D
:101110001B968C911B97861789F0FD01369680E00F
:1011200090E02191211105C0FD01E80FF91F6683B0
:1011300005C0019686309105A1F7BECFCD01BD0156
:101140006C5F7F4F0E94ED0781E090E00895EF9281
:10115000FF921F93CF93DF93EC01162F0E943D085F
:101160007C01612FCE010E94FA07C7019927DF9108
:10117000CF911F91FF90EF900895FC01E60FF71FAC
:10118000DA01CD01841B950B8217930734F49191FA
:101190008D919817B1F380E0089581E00895AF92A2
:1011A000BF92CF92DF92EF92FF920F931F93CF9354
:1011B000DF93CDB7DEB760970FB6F894DEBF0FBEF2
:1011C000CDBF5C018B016B018FEFC81AD80A26E0F6
:1011D00030E043E752E0B601C5010E94BD08882314
:1011E00091F12091000130910101C901330FAA0B47
:1011F000BB0BC0900201D09003010D2C000CEE0837
:10120000FF08C816D906EA06FB060CF078C09C0158
:10121000AD012C193D094E095F0969F02D873E8704
:101220004F87588B0E9467302D853E854F855889A2
:101230000E94033103C060E070E0CB01C60ED71EF0
:10124000E81EF91E5CC00A5F1F4F7601B501CE0192
:1012500001960E94EB260C151D0510F478018601FD
:101260006FE075E0CE0107960E94EB268D819E818E
:10127000E816F90680F58017910708F48C01E981DA
:10128000FA81E00FF11FD080108269817A816E0DA2
:101290007F1D6115710569F0FB0101900020E9F7E0
:1012A0003197AF01461B570BCE0107960E94C0260F
:1012B0000CC08F819885009711F00E9438321886F3
:1012C0001F821C861B861A86198689819A81FC01D9
:1012D000E00FF11FD0820F8118850115110521F053
:1012E000C8010E94933003C060E070E0CB016B0145
:1012F000C8010E94383289819A810E943832C60121
:1013000060960FB6F894DEBF0FBECDBFDF91CF91D0
:101310001F910F91FF90EF90DF90CF90BF90AF9013
:101320000895CF93C82F682F88EA98E00E943D085F
:101330006091040170910501072E000C880B990B38
:101340000E9473256C2F88EA98E0CF910C94FA07DD
:10135000EF92FF920F931F93CF93DF9300D000D0B3
:1013600000D0CDB7DEB7609113057091140580E011
:1013700090E00E9484068C016091B6087091B708D5
:10138000CE0101960E94EB266AE772E085EC97E0B9
:101390000E94A62ABE016F5F7F4F85EC97E00E94F6
:1013A000D12A60E872E08091B6089091B7080E9457
:1013B000BA3060E872E080E090E00E94BA307C01D0
:1013C000BC0185EC97E00E94BF2AC7010E947530DE
:1013D000909311058093100580E698E00E943F22CB
:1013E0000F3F8FEF180739F4809113059091140582
:1013F0000E94080F4EC062E872E0C8010E94662B8E
:10140000811176C06FE872E0C8010E94662B8111DD
:101410006FC066EF72E0C8010E94662B811127C180
:101420006DE972E0C8010E94662B811120C1809194
:10143000B6089091B7080530110509F065C025E0A0
:1014400030E041E053E060E070E00E94BD08882396
:1014500009F483C060EB72E085EC97E00E94A62A55
:1014600085EC97E00E94BB2A61E073E080E698E09B
:101470000E94BF2AB70180E698E00E94BF2A6091CF
:10148000100570911105072E000C880B990B0E9416
:1014900073251092AE081092AF081092B008109207
:1014A000B1081092B2081092B3081092AC086CEA1E
:1014B00078E088EA98E00E94ED076091060170915B
:1014C0000701072E000C880B990B0E947325898158
:1014D0009A810E94383226960FB6F894DEBF0FBE6E
:1014E000CDBFDF91CF911F910F91FF90EF900895A5
:1014F000B8018091B6089091B7080E94CF089093E8
:10150000070180930601C5CF0630110531F526E0AD
:1015100030E04FEB52E060E070E00E94BD088823AD
:10152000E1F06FEB72E080E698E00E94BF2A07E0EE
:1015300010E08091130590911405081719070CF01D
:10154000A8CFE091B608F091B708E00FF11F8081B5
:101550000E9491090F5F1F4FECCF66EC72E0C8014B
:101560000E94662B8823E1F06091130570911405A9
:10157000C80101960E9484067C01B8018091B608DA
:101580009091B7080E94CF08182FB7018091B60834
:101590009091B7080E94CF0840E0682F812F11C0BA
:1015A0006CEC72E0C8010E94662B882369F0B801D8
:1015B0008091B6089091B7080E94CF08482F60E04C
:1015C00080E00E949B2B65CF63ED72E0C8010E9412
:1015D000662B882361F0B8018091B6089091B70816
:1015E0000E94CF08909303018093020152CF6DEDCA
:1015F00072E0C8010E94662B882361F0B8018091D7
:10160000B6089091B7080E94CF089093010180938B
:1016100000013FCF67EE72E0C8010E94662B811186
:1016200038CF6BEE72E0C8010E94662B811131CF7A
:10163000C8010E94080F17FD2CCFE0901305F09011
:1016400014050E151F050CF024CFB701C801019633
:101650000E9484068C010F3F8FEF180709F4870161
:1016600062EF72E080E698E00E94BF2AE4CFB80102
:101670008091B6089091B7080E94CF089093050119
:101680008093040106CF8F929F92AF92BF92CF9228
:10169000DF92EF92FF920F931F93CF93DF93CDB71B
:1016A000DEB7C857D1090FB6F894DEBF0FBECDBF65
:1016B00080E698E00E943F2267E073E080E698E0D1
:1016C0000E94BF2A6FE075E0CE018D589F4F0E94A7
:1016D000EB2689E00E94DE24892B11F461E301C02E
:1016E00060E3CE018D589F4F0E9490268AE00E94B1
:1016F000DE24892B11F461E301C060E3CE018D5833
:101700009F4F0E9490268DE00E94DE24892B11F4C9
:1017100061E301C060E3CE018D589F4F0E94902687
:1017200085E00E94DE24892B11F461E301C060E3AF
:10173000CE018D589F4F0E949026E9960EAD1FADA9
:10174000E9970C5F1F4FB801CE018D589F4F0E9443
:101750006926882391F0E5962EAD3FADE597E99691
:101760008EAD9FADE9976AE273E0820F931F0E94EE
:10177000B533E9961FAF0EAFE99780E698E00E9477
:10178000BB2A6DE173E080E698E00E94A62ABE01C4
:101790006D587F4F80E698E00E94D12A109222086F
:1017A0001092200810921D0810921C0884E080936B
:1017B0001B080E94AD256B017C0161E080911B0834
:1017C0000E94372561E080911B080E9407251FB702
:1017D000F89480911205811127C0EFE8F7E0849119
:1017E000EEEAF7E09491E82FF0E0EE0FFF1FEC5ADD
:1017F000F84FA591B491EC91E92321F461E081E1E6
:101800000E94072561E081E10E9437258CB5806147
:101810008CBD8CB580648CBD61E08FE00E94372563
:1018200061E080E10E943725809112058F5F8093EF
:1018300012051FBF82E58093150881E0809316088A
:1018400080911508909116080E94EE1D1AE08FEF06
:101850000E94CA1D1150D9F787E198E00E94F11D3E
:1018600020E030E0A90160E087E198E00E94071ED7
:10187000182F80932108813049F00E94AD256C1902
:101880007D09613D774060F381E054C02AEA31E090
:1018900040E050E068E087E198E00E94071E82FF88
:1018A00003C0109322080EC014E00E94D11D809343
:1018B00021081150D1F78A3A11F082E03BC082E052
:1018C0008093220880912208823021F0812C912C73
:1018D000540105C0812C912CA12C30E4B32E20E0C2
:1018E00030E0A90167E387E198E00E94071EA501A7
:1018F000940169E287E198E00E94071E8093210825
:10190000882349F00E94AD256C197D09613D77401F
:1019100030F388E00FC080912208823001F520E08A
:1019200030E0A9016AE387E198E00E94071E88235E
:1019300041F086E080931C0887E198E00E94BF1D7B
:101940008DC00E94D11D807C803C19F483E080937F
:1019500022080E94D11D0E94D11D0E94D11D87E145
:1019600098E00E94BF1D80E58093150881E0809378
:1019700016080E947A12882329F08091460888234D
:1019800041F06CC080E00E947A12882309F466C09E
:10199000F4CF80913A08803109F582E080934608BF
:1019A000109258081092590810925A0810925B0829
:1019B00080913B0890913C08A0E0B0E025E0880FC2
:1019C000991FAA1FBB1F2A95D1F7809354089093A3
:1019D0005508A0935608B09357081DC08032F1F502
:1019E00083E08093460840913D0850913E08609105
:1019F0003F087091400840935808509359086093ED
:101A00005A0870935B0824E538E083E298E00E946E
:101A1000FA18882319F183E298E090935D08809387
:101A20005C0881E0809345081092470810924808AE
:101A30001092490810924A0810924B0810924C08D4
:101A400010924D0810924E0810924F0810925008B4
:101A500010925108109252081092530861E478E0F5
:101A6000CE0101960E94691EBE016F5F7F4FCE01BD
:101A7000CB960E94691E19A218A28CE591E09F8F57
:101A80008E8F1BA221968FAD2197811116C06C9667
:101A90001FAE1EAE6C9788EE93E0A0E0B0E0A0967B
:101AA0008CAF9DAFAEAFBFAFA097E3961FAE1EAE9B
:101AB000E397A5961FAEA5972CC0825046E253E04F
:101AC000823048F461E478E0CE014E960E94931192
:101AD00081110EC0DCCFBE01655C7F4FCE014E96FA
:101AE0000E949311882399F2CE01CB960E943A1B53
:101AF000BE01625E7F4FCE0101960E94691E46E2E2
:101B000053E0BE016F5F7F4FCE01885A9F4F0E9406
:101B1000BA1E6C968EAD9FAD6C979093BB08809368
:101B2000BA08A0968CAD9DADAEADBFADA097809329
:101B3000BC089093BD08A093BE08B093BF08A496BC
:101B40008CAD9DADAEADBFADA4978093C008909312
:101B5000C108A093C208B093C3088DE0E8E5F0E0A7
:101B6000EC0FFD1F3C96A4ECB8E001900D928A9515
:101B7000E1F7E3968EAD9FADE3979093D208809303
:101B8000D10880E698E00E943F2288EB98E00E940E
:101B9000E71C0091130510911405892B09F497C0D7
:101BA000E090B608F090B708E00EF11E88EB98E0E0
:101BB0000E94F91FF7018083E091B608F091B70801
:101BC000E00FF11F80818D3031F08A3071F00038E4
:101BD00011055CF475C088EB98E00E9403200A9719
:101BE00021F488EB98E00E94F91FE091D108F09170
:101BF000D208309729F082849384A484B58404C0E9
:101C000088248A94982C540100E010E088EB98E036
:101C10000E94E71C892B91F0E090B408F090B50881
:101C2000E00EF11E88EB98E00E94F91FF701808317
:101C30000F5F1F4F0C30110549F703C00730110526
:101C4000B4F00091B4081091B50826E030E04BEEF6
:101C500052E060E070E0C8010E94BD08882339F0BE
:101C600066E070E0C8010E94CF088C0102C000E06D
:101C700010E0E12CF12CE016F10634F40E94A809E2
:101C8000FFEFEF1AFF0AF7CF8091D1089091D208A9
:101C9000009721F0B501A4010E946319E091B608F4
:101CA000F091B7088091130590911405E80FF91F82
:101CB00011820E94A809109214051092130565CF95
:101CC0000F5F1F4F10931405009313055ECF10167E
:101CD000110674F48091B6089091B708FC01E00FEA
:101CE000F11F11820E94A809109214051092130589
:101CF0008091D1089091D208009761F00E943A1B20
:101D00008091D1089091D2080E9438321092D20866
:101D10001092D108E5968EAD9FADE5970E943832BE
:101D20006CED75E080E090E00E947325C858DF4FAD
:101D30000FB6F894DEBF0FBECDBFDF91CF911F91DC
:101D40000F91FF90EF90DF90CF90BF90AF909F905A
:101D50008F900895DC01ED91FC910084F185E02DD8
:101D600040E00994CF93DF93EC016A8B80910801E6
:101D700090910901A0910A01B0910B018E879F8774
:101D8000A88BB98B80E2689FF0011124E65EFA4FC0
:101D90004489558960E070E0BA01552744274F8B8C
:101DA000588F698F7A8F828D938DA0E0B0E0482B99
:101DB000592B6A2B7B2B4F8B588F698F7A8F83859A
:101DC000887151F4848D958DA68DB78D8B8B9C8BEE
:101DD000AD8BBE8B81E00EC0803111F080E015C06C
:101DE0009E012D5E3F4F8B8D9C8D0E94FA1888239B
:101DF000A9F384E08D8381E08C831E821F82188684
:101E000019861A861B861C861D86DF91CF91089540
:101E1000CF93DF938230910534F4E091B608F091CE
:101E2000B708608108C0EC0166E374E00E94662B8D
:101E3000882339F060EB88EA98E0DF91CF910C9429
:101E40003D086FE273E0CE010E94662B811107C04E
:101E500063E373E0CE010E94662B882311F063E8F0
:101E6000EACF6FEB74E0CE010E94662B882311F05D
:101E700061E8E1CF6BE373E0CE010E94662B811134
:101E80000EC06FE373E0CE010E94662B811107C084
:101E900068E473E0CE010E94662B882311F062E8AB
:101EA000CACF65EC74E0CE010E94662B811107C099
:101EB00060E573E0CE010E94662B882311F066E88E
:101EC000BACF6FEC74E0CE010E94662B811107C07F
:101ED00069E573E0CE010E94662B882311F060E86B
:101EE000AACF64ED74E0CE010E94662B882311F026
:101EF00061ECA1CF61E673E0CE010E94662B8823DE
:101F000011F064ED98CF68E673E0CE010E94662B75
:101F1000882311F065ED8FCF6CE673E0CE010E944F
:101F2000662B811107C060E773E0CE010E94662B2B
:101F3000882311F061EB7FCF6DED74E0CE010E943C
:101F4000662B882311F062ED76CF67E773E0CE0150
:101F50000E94662B882311F061ED6DCF6EE773E070
:101F6000CE010E94662B882311F063ED64CF65E8F3
:101F700073E0CE010E94662B882311F066ED5BCFE3
:101F800066E973E0CE010E94662B882311F060E2BF
:101F900052CF6EE873E0CE010E94662B882311F0C9
:101FA00063EB49CF62E973E0CE010E94662B882380
:101FB00011F062EB40CF62E873E0CE010E94662B25
:101FC000811107C06CE973E0CE010E94662B882363
:101FD00011F06AED30CF69E873E0CE010E94662B04
:101FE000811107C064EA73E0CE010E94662B88234A
:101FF00011F069ED20CF6BE473E0CE010E94662BF7
:10200000811107C06EEA73E0CE010E94662B88231F
:1020100011F068ED10CF63E573E0CE010E94662BEE
:10202000811107C068EB73E0CE010E94662B882304
:1020300011F067ED00CF62EE74E0CE010E94662BD6
:10204000882311F06EECF7CE63EC73E0CE010E94B2
:10205000662B882311F062ECEECE66EC73E0CE01C5
:102060000E94662B882311F063ECE5CE69EC73E0E7
:10207000CE010E94662B882311F064ECDCCE6CEC60
:1020800073E0CE010E94662B882311F065ECD3CE5D
:102090006FEC73E0CE010E94662B882311F066EC92
:1020A000CACE62ED73E0CE010E94662B882311F048
:1020B00067ECC1CE65ED73E0CE010E94662B8823EC
:1020C00011F068ECB8CE68ED73E0CE010E94662B8B
:1020D000882311F069ECAFCE6BED73E0CE010E9466
:1020E000662B882311F06AECA6CE6EED73E0CE016C
:1020F0000E94662B882311F06BEC9DCE62EE73E09C
:10210000CE010E94662B882311F06CEC94CE66EE13
:1021100073E0CE010E94662B882311F06DEC8BCE0C
:102120006AEE73E0CE010E94662B882311F08AEEDE
:102130007DC060EF73E0CE010E94662B882311F012
:1021400081EE74C066EF73E0CE010E94662B882397
:1021500011F082EE6BC06CEF73E0CE010E94662B33
:10216000882311F083EE62C062E074E0CE010E9429
:10217000662B882311F084EE59C068E074E0CE012C
:102180000E94662B882311F085EE50C06EE074E04B
:10219000CE010E94662B882311F086EE47C064E1D1
:1021A00074E0CE010E94662B882311F087EE3EC0BA
:1021B0006AE174E0CE010E94662B882311F088EE5C
:1021C00035C060E274E0CE010E94662B882311F0D6
:1021D00089EE2CC066E274E0CE010E94662B882353
:1021E00011F08DED23C062E374E0CE010E94662BF6
:1021F000882311F080EE1AC06CE374E0CE010E94D7
:10220000662B882311F08EED11C066E474E0CE01D8
:102210000E94662B882311F08BEE08C061E574E004
:10222000CE010E94662B882329F08FEDDF91CF919C
:102230000C9491096AE674E0CE010E94662B81112C
:102240000EC06AE574E0CE010E94662B811107C0C2
:1022500065E674E0CE010E94662B882329F081E0B8
:10226000DF91CF910C94F02F6EEE74E0CE010E94BE
:10227000662B882311F082E0F3CF60E774E0CE0193
:102280000E94662B882311F084E0EACF6DE774E0AA
:10229000CE010E94662B811107C063E874E0CE0175
:1022A0000E94662B882329F081E0DF91CF910C9466
:1022B000FE2F63E874E0CE010E94662B882311F0A4
:1022C00082E0F3CF6EE874E0CE010E94662B882393
:1022D00011F084E0EACF6BE974E0CE010E94662B36
:1022E000811119C063EA74E0CE010E94662B81114E
:1022F00012C063EA74E0CE010E94662B882311F0BD
:1023000082E00AC060EB74E0CE010E94662B882355
:1023100039F084E001C081E0DF91CF910C940B3063
:10232000DF91CF910895AF92BF92CF92DF92EF925B
:10233000FF920F931F93CF93DF93CDB7DEB72B9709
:102340000FB6F894DEBF0FBECDBF7C01CE01019663
:102350006C01FC0190E28BE08C0D91938E13FDCF0C
:10236000DA0120E037E09D91992339F19E3219F08E
:10237000EAE4F3E00AC03A3009F4AAC028E03AE0FF
:10238000F2CF3196891709F4A3C084918111F9CF56
:10239000321708F49DC08FED890F8E3508F098C074
:1023A00081E0820FF601E20FF11D2FE9290F2A319A
:1023B00008F490529083282FD6CF8981803209F477
:1023C00087C08B01FB01838D948DF701948F838FE0
:1023D000FB011682178210861186128613861486D8
:1023E0001586A12CF80182859385A485B58543893E
:1023F00054896589768984179507A607B70708F079
:1024000067C025E0B695A795979587952A95D1F74A
:10241000F82FFF70BF2EF8018581823008F458C074
:10242000C8010E94EF1E97FD53C0F8018285938575
:10243000A485B5854F96A11DB11D82879387A4877A
:10244000B587F0E2BF9EC0011124BC01665E7A4FE1
:1024500061157105E9F1FB0120812223B9F1253EC7
:10246000E1F04BE050E0C6010E949F33892B09F058
:10247000B9CF6B2DC7012B960FB6F894DEBF0FBEF8
:10248000CDBFDF91CF911F910F91FF90EF90DF9023
:10249000CF90BF90AF900C94B20EA11014C0F70172
:1024A000B28A409108015091090160910A0170912E
:1024B0000B0146875787608B718BFC01E65EFA4FF4
:1024C0008081882329F0AA24A3948CCFAA2039F3F1
:1024D00080E02B960FB6F894DEBF0FBECDBFDF9124
:1024E000CF911F910F91FF90EF90DF90CF90BF9011
:1024F000AF9008958F929F92AF92BF92CF92DF924A
:10250000EF92FF92CF93DF93C82F87E198E09093EB
:10251000180580931705CC2369F1C53010F080E0D1
:102520000DC140E060E070E0CB010E948D17882370
:10253000B1F320E1C29FC0011124865F9A4FFC01D4
:10254000E254FE4F20812F7751F73C964081518114
:1025500062817381443651056105710500F334973A
:10256000C080D180E280F380C114D104E104F10481
:1025700021F4D5CFC12CD12C760140E0C701B601A2
:102580000E948D17882359F2809125059091260588
:102590008115924021F6A0912A05AA2309F4BFCF04
:1025A00060912805709129056115710509F4B7CF6F
:1025B00020912705222309F4B2CFA0933508209358
:1025C000270880E030E0E1E0F0E0C82FAF01082EFE
:1025D00002C0440F551F0A94E2F72417350741F053
:1025E000982F8F5F983089F789E08093300897CFD4
:1025F0008093300820913005309131052115310547
:1026000019F040E050E008C020913E0530913F05B0
:1026100040914005509141052093280830932908A6
:1026200040932A0850932B0846015701860E971EA7
:10263000A11CB11C8092360890923708A0923808ED
:10264000B0923908E0912B05F0912C05F0933C08ED
:10265000E0933B08B0E00E942231860E971EA81E30
:10266000B91E80923D0890923E08A0923F08B09219
:10267000400885E0EE0FFF1F8A95E1F7E150FE4F1D
:10268000EF2FFF27E6958E0E9F1EA11CB11C809296
:10269000310890923208A0923308B0923408209109
:1026A0002D0530912E052115310521F0A90160E09D
:1026B00070E008C040913A0550913B0560913C059F
:1026C00070913D05D701C60188199909AA09BB096E
:1026D000840F951FA61FB71F04C0B695A7959795A1
:1026E0008795CA95D2F780932C0890932D08A093D4
:1026F0002E08B0932F08853F2FE09207A105B10562
:1027000010F48CE018C0853F9F4FA105B10510F46F
:1027100080E111C08091460590914705A091480540
:10272000B091490580933D0890933E08A0933F08DF
:10273000B093400880E280933A0881E0DF91CF9126
:10274000FF90EF90DF90CF90BF90AF909F908F90D1
:102750000895FC0180911605811103C08FEF9FEF52
:1027600008959FB7F89482E08093E9002091F200E9
:1027700030E01216130614F421E030E02115310583
:1027800059F0289884E6809315058091F1008083A4
:102790008091F200882319F09FBFC90108958BE64C
:1027A0008093E800F9CF0F931F93CF93DF93EC0151
:1027B00000E010E08E8590E0081719079CF4C8012E
:1027C000880F991FEA85FB85E80FF91F80819181A9
:1027D000DC01ED91FC910680F781E02D09950F5FFA
:1027E0001F4FE8CFE885F9851582188A1F868E85E8
:1027F000882331F0EA85FB850190F081E02D02C04D
:10280000E0E0F0E0F987E88781E08583DF91CF9110
:102810001F910F910895FC018785808B96859923E0
:1028200031F1882311F0815004C0662301F18FEF4C
:10283000890F878722859385A22FB92FA80FB11DF5
:10284000A80FB11D0D90BC91A02DB187A08781E08C
:1028500015968C938089E22FF92FE80FF11DE80F70
:10286000F11D0190F081E02D158281E0089580E056
:102870000895CF93DF93FC018785808B26852223E3
:10288000B1F1482F50E030E0215031094217530791
:10289000B1F08F5F878722859385A22FB92FA80F6C
:1028A000B11DA80FB11D0D90BC91A02DB187A087BF
:1028B00081E015968C938089E22FF92F0EC0662354
:1028C000B1F01786A285B385CD91DC911197D187A0
:1028D000C08781E08D838089FD01E80FF11DE80F3D
:1028E000F11D0190F081E02D158281E001C080E0B2
:1028F000DF91CF910895DC011696ED91FC91179729
:10290000309709F0099580E090E00895CF93DF9328
:10291000EC010E947B14CE01DF91CF910895DC0180
:10292000FB0112968C91129790E0248135818217D9
:102930009307D1F491818081813A31F481E0913023
:1029400091F0933089F411C0813271F49B3021F4FD
:1029500082811F968C9305C09A3031F48281509603
:102960008C9381E00895089580E00895DC01FB01D7
:1029700088E4808389E4818384E482831D969C912A
:102980001D979F709F5B93831D968D919C911E97C1
:1029900024E0969587952A95E1F78F708F5B848365
:1029A00085E00895FC0182818F5BFB01808381E0DB
:1029B0000895EF92FF920F931F93CF93DF93FB0144
:1029C0002081213851F52381223239F5DC0112961C
:1029D0002C9130E04481558142175307F1F4EC010A
:1029E0000B851C85E12CF12C0115110591F0F801E6
:1029F000448155816281738180E80E9472278F3FF4
:102A0000FFEF9F0769F0E80EF91ED8010D911C91A8
:102A1000EBCF81E08F87C70105C080E090E002C066
:102A20008FEF9FEFDF91CF911F910F91FF90EF906C
:102A30000895CF93DF93CDB7DEB769970FB6F894BB
:102A4000DEBF0FBECDBFFC01DB018C918F5F8C938D
:102A5000BE016F5F7F4F89E1DB011D928A95E9F727
:102A600029E0298384E08A8391E09D8383E08E833B
:102A70002A8721E22B879C879D879F8722E2288BCC
:102A800027E02B8B25E02C8B8E8B20E430E0388FD9
:102A90002F8B998F82818B8395858685998B8A8BE5
:102AA000838180688D8B49E150E080E00E9472272D
:102AB00069960FB6F894DEBF0FBECDBFDF91CF9100
:102AC00008950F931F93CF93DF93EC018B018E85B5
:102AD00090E00196BC01660F771F8A859B850E9456
:102AE000D032FC019B878A87892B89F08E85E80F7D
:102AF000F11DE80FF11D11830083811105C01987B5
:102B0000088781E0F80185838E858F5F8E87DF914E
:102B1000CF911F910F910895AF92BF92CF92DF9204
:102B2000EF92FF920F931F93CF93DF931F92CDB736
:102B3000DEB77C0169836A01590141E050E0BE01C2
:102B40006F5F7F4FFC0183810E940C2A8C0197FDEF
:102B50000BC0F7018381A501B60180640E940C2A95
:102B600097FD02C0800F911F0F90DF91CF911F91B1
:102B70000F91FF90EF90DF90CF90BF90AF900895AE
:102B80008091300781116BC081E08093230780938F
:102B9000240729E237E03093260720932507109277
:102BA00028071092270720E331E030932007209375
:102BB0001F0710922B0710922A0710922D071092D0
:102BC0002C0780932E0780932F0781EC8093290791
:102BD0000E94CA24FC0121818091230790E0820F8A
:102BE000911D089724F081E08093300738C0A281BE
:102BF000B381109729F48FE197E0938382830EC00D
:102C000018968D919C911997009711F0DC01F8CFDF
:102C10008FE197E019969C938E931897808180930B
:102C20002107818180932207908180912407890F59
:102C3000808380E0909123078917A8F6A09125074B
:102C4000B0912607A80FB11D9C91A181B0E0A45FAF
:102C5000BE4F9C9391819F5F91838F5FEBCF8FE1FC
:102C600097E00895AF92BF92CF92DF92EF92FF92DA
:102C70000F931F93CF93DF93EC016901C801820F7B
:102C8000931F8130924008F070C08E81882371F0CC
:102C900088819981AA81BB81481759076A077B07F8
:102CA00029F48F819885C816D906B0F548835983D1
:102CB0006A837B838B85833039F089E0440F551F0D
:102CC000661F771F8A95D1F79A01AB0161E1CE01AA
:102CD0000E94071E882319F083E08D8346C00E945E
:102CE000AD255B010E94D11D8A878F3F49F40E9468
:102CF000AD256A197B096D327140A0F38FE003C0E6
:102D00008E3F31F08DE08D83CE010E94BF1D2DC01E
:102D100018861F8281E08E838F8198858C159D0592
:102D200040F40E94D11D8F819885019698878F83EA
:102D3000F3CF6701E00EF11ECE14DF0431F00E94E4
:102D4000D11DF60181936F01F7CF8F819885080F10
:102D5000191F18870F838985882319F001151240E0
:102D600048F0CE010E94D41D05C0CE010E94BF1DB7
:102D700080E001C081E0DF91CF911F910F91FF9022
:102D8000EF90DF90CF90BF90AF9008958FB7F894F9
:102D900080911A078FBF08950F931F93CF93DF93EE
:102DA000EB010E94AD258B010E94D11D8F3F49F0A0
:102DB0000E94AD25601B710B6C177D07A8F380E0A6
:102DC00001C081E0DF91CF911F910F910895EF92A3
:102DD000FF920F931F93CF93DF93EC01790141157D
:102DE00051056105710511F482E13CC08B8583308A
:102DF00039F089E0440F551F661F771F8A95D1F778
:102E00009A01AB0168E1CE010E94071E882311F0F0
:102E100084E028C08EEF0E94CA1D87018EEFF81A49
:102E2000F80181918F010E94CA1D0E151F05C1F77F
:102E30008FEF0E94CA1D8FEF0E94CA1D0E94D11DF4
:102E40008A878F71853031F081E18D83CE010E94B8
:102E5000BF1D09C068E572E0CE010E94CC16811149
:102E600007C085E18D83CE010E94BF1D80E013C0A5
:102E700020E030E0A9016DE0CE010E94071E811123
:102E800004C00E94D11D882311F084E1EBCFCE0154
:102E90000E94BF1D81E0DF91CF911F910F91FF90A4
:102EA000EF900895809119058823A9F140910801B8
:102EB0005091090160910A0170910B012AE135E0FE
:102EC00080911705909118050E94E716811102C0A4
:102ED00080E0089540911B0750911C0760911D07E9
:102EE00070911E07411551056105710591F02AE1A8
:102EF00035E080911705909118050E94E716882308
:102F000039F310921B0710921C0710921D071092A4
:102F10001E071092190581E008958F929F92AF923B
:102F2000BF92EF92FF920F931F93CF934B015C01DF
:102F3000C42F8091080190910901A0910A01B091DC
:102F40000B0188159905AA05BB0501F10E945217CE
:102F5000811102C080E020C08AE1E82E85E0F82ED1
:102F600000E012E020E030E0B501A40180911705F7
:102F7000909118050E943216882361F3809208010F
:102F800090920901A0920A01B0920B01809119055B
:102F9000C82BC093190581E0CF911F910F91FF902D
:102FA000EF90BF90AF909F908F9008954F925F9257
:102FB0006F927F928F929F92AF92BF92CF92DF9249
:102FC000EF92FF920F931F93CF93DF93EC016A016F
:102FD0007B0128013901423051056105710510F46A
:102FE00080E073C089859A85AB85BC850196A11D5B
:102FF000B11D84179507A607B70790F38B889C88A7
:10300000AD88BE888F89803129F4BB27AF2D9E2DD6
:103010008D2D09C0DB01CA0147E0B695A7959795AC
:1030200087954A95D1F7880E991EAA1EBB1E8091DE
:10303000080190910901A0910A01B0910B01881635
:103040009906AA06BB0679F48F898031A1F4DD24A4
:10305000EE24FF24C601880F991FFC01E65EFA4F9B
:103060005182408219C040E0C501B4010E948D1711
:103070008111EACFB5CFE894C7F8DD24EE24FF2410
:10308000C601880F991F880F991FFC01E65EFA4F51
:10309000408251826282738280911905816080939F
:1030A00019058A89823080F08D819E81AF81B88533
:1030B000880E991EAA1EBB1E80921B0790921C07A9
:1030C000A0921D07B0921E0781E0DF91CF911F9162
:1030D0000F91FF90EF90DF90CF90BF90AF909F90B7
:1030E0008F907F906F905F904F9008958F929F92F6
:1030F000AF92BF92CF92DF92EF92FF920F931F9306
:10310000CF93DF93FC0181859285A385B4850196D9
:10311000A11DB11D84179507A607B70710F480E01D
:103120005CC083899489A589B689C789C03129F48F
:10313000852E962EA72EBB2409C04A015B01C7E04D
:10314000B694A79497948794CA95D1F7E9016A0138
:103150007B018F01BC01CD01680D791D8A1D9B1D6E
:103160008090080190900901A0900A01B0900B0195
:10317000681579058A059B0599F4F80187898031DE
:10318000A9F4B701A601552766277727440F551FD5
:10319000FA01E65EFA4F80819181A0E0B0E018C0AC
:1031A00040E00E948D178111E8CFB9CFB701A60189
:1031B0004F77552766277727440F551F440F551F14
:1031C000FA01E65EFA4F80819181A281B381BF70DE
:1031D00088839983AA83BB8381E0DF91CF911F917C
:1031E0000F91FF90EF90DF90CF90BF90AF909F90A6
:1031F0008F9008954F925F926F927F92AF92BF929D
:10320000CF92DF92EF92FF920F931F93CF93DF93B2
:1032100000D000D0CDB7DEB78C0149835A836B83D1
:103220007C835901C12CD12C7601412C82E0582E8F
:10323000612C712C49815A816B817C819E012F5FA9
:103240003F4FC8010E947618882351F1D301C20173
:10325000F801058404C0880F991FAA1FBB1F0A9498
:10326000D2F7C80ED91EEA1EFB1E49815A816B8116
:103270007C818789803129F088EF9FEFAFEFBFE035
:1032800004C088EF9FEFA0E0B0E0481759076A0735
:103290007B0780F2F501C082D182E282F38281E075
:1032A0000F900F900F900F90DF91CF911F910F9182
:1032B000FF90EF90DF90CF90BF90AF907F906F9096
:1032C0005F904F9008958F929F92AF92BF92CF924E
:1032D000DF92EF92FF920F931F93CF93DF93EC0156
:1032E0008D81811102C080E077C00B891C892D89F6
:1032F0003E890417150726073707A8F36A017B01E3
:10330000823029F4CA86DB86EC86FD860DC0C114A6
:10331000D104E104F10451F41E821F82188619863B
:103320001A861B861C861D8681E056C08A849B8473
:10333000AC84BD84EB8DFC8D258530E0275F3F4F4D
:10334000B501A4014150510961097109022E04C05F
:1033500076956795579547950A94D2F7D701C60198
:103360000197A109B10904C0B695A79597958795CE
:103370002A95D2F784179507A607B70720F0892862
:103380008A288B2849F44F89588D698D7A8D4E8310
:103390005F836887798704C0841B950BA60BB70BE6
:1033A0004C015D018E010A5F1F4F81149104A1043D
:1033B000B10409F4A7CF4E815F81688579859801B2
:1033C0008B8D9C8D0E94761891E0891A9108A10836
:1033D000B1088111EACF87CFDF91CF911F910F9173
:1033E000FF90EF90DF90CF90BF90AF909F908F9025
:1033F00008953F924F925F926F927F928F929F9229
:10340000AF92BF92CF92DF92EF92FF920F931F93F2
:10341000CF93DF93CDB7DEB72C970FB6F894DEBF0E
:103420000FBECDBF5C01DC015B968D909C905C97DC
:103430001696CD90DD90ED90FC901997C114D104B3
:10344000E104F10439F0BFEFCB1ADB0AEB0AFB0A07
:10345000312C07C0F401C080D180E280F380332496
:103460003394F40181859285A385B4859C01AD01D7
:103470002F5F3F4F4F4F5F4F29873A874B875C87BE
:10348000260137011D821E821F821886F401818564
:103490009285A385B4852D813E814F81588528175B
:1034A00039074A075B0708F063C089859A85AB85B1
:1034B000BC858C159D05AE05BF0550F482E0C82E75
:1034C000D12CE12CF12C92E0492E512C612C712C45
:1034D0009E012F5F3F4FB701A601C4010E947618DD
:1034E000882309F445C089819A81AB81BC81892BED
:1034F0008A2B8B2B41F0260137019FEF491A590A7D
:10350000690A790A05C0C414D504E604F70491F0E9
:103510002D813E814F8158852F5F3F4F4F4F5F4F29
:103520002D833E834F8358873FEFC31AD30AE30AA4
:10353000F30AACCF0FEF1FEF2FEF3FE0B301A20173
:10354000C4010E94D617882399F0D50116964D9193
:103550005D916D917C91199741155105610571053A
:1035600049F093018201C4010E94D617811102C063
:1035700080E02AC0D50116964D925D926D927C92A4
:103580001997332051F0D301C2010196A11DB11D3D
:10359000F40180839183A283B383F5018789908DA1
:1035A000A18DB28D892B8A2B8B2B69F4D50157966F
:1035B0004D925D926D927C925A9714968C911497CD
:1035C000806814968C9381E02C960FB6F894DEBF39
:1035D0000FBECDBFDF91CF911F910F91FF90EF9064
:1035E000DF90CF90BF90AF909F908F907F906F9023
:1035F0005F904F903F900895CF93DF93EC018D81C2
:103600008823A1F18C8187FF2DC06E857F858889F5
:10361000998941E00E948D17882341F1EA8980E26F
:10362000E89FF0011124DF01A65EBA4F1097F1F078
:103630008D81823050F44B895C896D897E895C96DE
:103640004D935D936D937C935F978F89988DA98D32
:10365000BA8DE65EFA4F938F828FB58BA48B8C81E7
:103660008F778C83DF91CF910C94521780E0DF919C
:10367000CF910895CF93DF93EC010E94FC1A882329
:1036800011F01D8281E0DF91CF9108952F923F923A
:103690004F925F926F927F928F929F92AF92BF9262
:1036A000CF92DF92EF92FF920F931F93CF93DF930E
:1036B00000D000D0CDB7DEB78C015B011A01DC0170
:1036C00015968C9115978130C9F414968C9181FFD1
:1036D00015C082FF1BC0F80143895489658976892A
:1036E00082859385A485B58584179507A607B707B6
:1036F00069F0C8010E946319811108C081E090E05F
:10370000F8019383828380E090E039C1610183C036
:10371000D8015B968D919C915C97FC01248121508E
:103720002A013B0139E076946794579447943A957F
:10373000D1F7722E74207A01F1E0FF22772009F48C
:1037400076C080E092E08E199F0946018C159D0598
:1037500008F44C01D8015B962D913C915C9716962C
:103760008D919D910D90BC91A02D0297A109B10959
:10377000F901058404C0880F991FAA1FBB1F0A9472
:10378000D2F74685578560897189840F951FA61FDA
:10379000B71F9C01AD01270D311D411D511D290190
:1037A0003A01811432E0930609F088C08091080143
:1037B00090910901A0910A01B0910B018415950522
:1037C000A605B70559F48FEF9FEFDC018093080140
:1037D00090930901A0930A01B0930B019501B301E5
:1037E000A20180911705909118050E94E716882381
:1037F00009F484CF9EEFB91AC818D908F801828558
:103800009385A485B585880D991DA11DB11D82875D
:103810009387A487B587D8011A964D915D916D91D4
:103820007C911D97C114D10409F072CF87C0E114B7
:10383000F10409F086CF16964D915D916D917C91C2
:103840001997411551056105710559F457968D91E8
:103850009D910D90BC91A02D0097A105B10541F55A
:1038600021C09E012F5F3F4F0E947618882309F4E4
:103870004BCF89819A81AB81BC81F801238D348D36
:10388000F9012789203129F048EF5FEF6FEF7FE0E2
:1038900004C048EF5FEF60E070E084179507A6076B
:1038A000B70730F0C8010E94F91981114ACF26CF1D
:1038B000F80186839783A087B18743CFE114F10491
:1038C00029F5D8011A964D915D916D917C911D97C6
:1038D00053968D919D910D90BC91A02D481759073D
:1038E0006A077B0798F00E945217882309F406CFD5
:1038F000409208015092090160920A0170920B01F6
:103900008091190581608093190508C041E0C301C9
:10391000B2010E948D17882309F4F0CED501F7017A
:10392000E65EFA4FCF01880D991DE817F90719F0E7
:103930002D912193FACFA80CB91C5ECF53968D918F
:103940009D910D90BC91A02D84179507A607B707F0
:1039500040F4F801438B548B658B768B84818068AF
:103960008483D80114968C9183FD02C0C10107C0E5
:10397000C8010E94FC1A882309F4C0CEF7CF0F902B
:103980000F900F900F90DF91CF911F910F91FF90AB
:10399000EF90DF90CF90BF90AF909F908F907F90EF
:1039A0006F905F904F903F902F900895CF93DF934B
:1039B0001F92CDB7DEB7698341E050E0BE016F5F73
:1039C0007F4F0E94461B0F90DF91CF910895DC013D
:1039D0005996ED91FC915A973097B9F08389948963
:1039E000A589B6894285538564857585841B950BA9
:1039F000A60BB70B811520E89207A105B10538F099
:103A00008FEF9FE7A0E0B0E0089580E090E0089598
:103A1000CF93DF931F92CDB7DEB76983DC01ED91C1
:103A2000FC910280F381E02D41E050E0BE016F5F28
:103A30007F4F09950F90DF91CF91089585ED809389
:103A4000BC008091BC0084FDFCCF109281070895DA
:103A500040915B07262F30E0240F311D21323105C4
:103A6000DCF4209181072430C9F4FC0180E090E06F
:103A7000861758F430915B072191DC01A75CB84FA1
:103A8000A30FB11D2C930196F3CF80915B07680FB4
:103A900060935B0780E0089581E0089582E00895D7
:103AA00008958FEF9FEF08958FEF9FEF0895809116
:103AB000380790E09195819591090895CF93DF9310
:103AC00000D0CDB7DEB7CB01642F49835A830E9463
:103AD000281D4981842F5A81952F0F900F90DF91D7
:103AE000CF910895CF93DF931F92CDB7DEB769834F
:103AF00061E0CE0101960E94281D81E090E00F90C8
:103B0000DF91CF910895FC01818D928D009711F086
:103B10000C94FC1A0895CF93DF93EC01898D9A8D54
:103B2000009739F481E090E09B838A8380E090E005
:103B30000BC0FC01138212820E94461BE98DFA8D94
:103B400022813381232B71F7DF91CF9108950F9359
:103B50001F93CF938C01FC0164839085C62FC90FFE
:103B60006C2F6F70C8010E94AA0E6C2F62956F7047
:103B70006061C801CF911F910F910C94AA0E61E072
:103B8000FC0184810E9407258091A7078111109272
:103B9000A70708958EBD00000DB407FEFDCF8EB5BA
:103BA00008958FEF0C94CA1DCF93DF93EC018E81A3
:103BB000882389F08F8198859C012F5F3F4F38873C
:103BC0002F838230924018F40E94D11DF3CFCE0192
:103BD0000E94BF1D1E82DF91CF9108958CBD9DBDB7
:103BE0000895CF93DF93EC018091A707811109C05D
:103BF00081E08093A70780911508909116080E9494
:103C0000EE1D60E08C81DF91CF910C940725CF925F
:103C1000DF92FF920F931F93CF93DF9300D000D0DA
:103C2000CDB7DEB76C01F62E29833A834B835C83D4
:103C30000E94D41DC6010E94F11D6CE271E0C60114
:103C40000E94CC168F2D80640E94CA1D08E110E0EE
:103C50005C814B813A812981DA01C901002E04C0BF
:103C6000B695A795979587950A94D2F729833A83B5
:103C70004B835C830E94CA1D0850110929813A8137
:103C80004B815C81083F8FEF180731F7FF2029F047
:103C9000E8E0FE1204C087E803C085E901C08FEFA9
:103CA0000E94CA1D10E00E94D11DF601828787FF85
:103CB00004C01F3F11F01F5FF6CF0F900F900F90C1
:103CC0000F90DF91CF911F910F91FF90DF90CF90D8
:103CD0000895FC01DB0112968D919C9113979383BB
:103CE00082838CE591E09183808314968C91149764
:103CF000848315968C911597858316964D915D91C9
:103D00006D917C91199746835783608771871A96C6
:103D10004D915D916D917C911D974287538764878A
:103D200075871E964D915D916D917C915197468757
:103D30005787608B718B52968C915297828B5396DA
:103D40004D915D916D917C915697438B548B658B12
:103D5000768B57964D915D916D917C915A97478BDB
:103D6000508F618F728F5B968D919C915C97948F31
:103D7000838F0895EF92FF920F931F93CF93DF935A
:103D8000EC017B018A011B821A8288EE93E0A0E09D
:103D9000B0E08C839D83AE83BF8380EB91E09983F9
:103DA00088838DE190E00E94A3319A8F898F0097DC
:103DB00079F02DE1F701DC0101900D922A95E1F7F0
:103DC0004CE050E0B801CE010C960E94BC33188E36
:103DD000DF91CF911F910F91FF90EF9008952F9257
:103DE0003F924F925F926F927F928F929F92AF928B
:103DF000BF92CF92DF92EF92FF920F931F93CF93D8
:103E0000DF9300D0CDB7DEB7FC018581882309F4AC
:103E1000D9C0848180FFD6C021E02A834389548998
:103E20006589768982859385A485B5854817590764
:103E30006A077B0709F41A826F013A81832F90E0A9
:103E4000DE0111964D013F01B6E06B0E711C892B0E
:103E500009F47DC0D6011A964D915D916D917C91CA
:103E60001D975A01B1E0BB22F60125811A012B01F1
:103E700089E056944794379427948A95D1F7838D97
:103E8000948D223061F4FC01828D938DA48DB58DCB
:103E9000BC01CD01620D731D841D951D45C0DC0163
:103EA00014961C9111501221A114B104D1F41111D6
:103EB00018C0452B462B472B51F4F6018789908D6E
:103EC000A18DB28D86839783A087B1870AC0468172
:103ED00057816085718593010E947618882309F4C3
:103EE00071C0F601238D348D86819781A085B185BF
:103EF0000297A109B109AC01BD01F901058404C013
:103F0000440F551F661F771F0A94D2F78685978541
:103F1000A089B189840F951FA61FB71FBC01CD01D1
:103F2000610F711D811D911DD60114962C9126FFE4
:103F300014C0009108011091090120910A013091EB
:103F40000B01601771078207930751F506C0FA81CC
:103F5000FF23C1F1898190E037C040E00E948D17B6
:103F6000882381F1F501E65EFA4FD401CF01019675
:103F7000E817F90719F021912D93FACFEFEF8E1A78
:103F80009E0AF60182859385A485B5850196A11DBB
:103F9000B11D82879387A487B58780E090E057CFD3
:103FA000740101E010E09501AB01BC01809117059F
:103FB000909118050E943216882321F0BFEF8B1ACA
:103FC0009B0ADFCF8FEF9FEF0F900F90DF91CF9184
:103FD0001F910F91FF90EF90DF90CF90BF90AF9027
:103FE0009F908F907F906F905F904F903F902F9019
:103FF0000895FC01818D928D009711F00C94EF1EB5
:104000008FEF9FEF08950F931F93CF93DF93FC01E2
:10401000818D928D0097B9F0EF010E94EF1E8C0107
:104020000F3F8FEF180791F0898D9A8DFC01428523
:1040300053856485758541505109610971090E9454
:104040006319C80105C080E090E002C08FEF9FEFC8
:10405000DF91CF911F910F910895CF93DF93EC01E2
:104060009C818E81981758F4E881F9810084F1854C
:10407000E02D42E0CE0109958C818F5F8C83DF912A
:10408000CF9108950F931F93CF93DF931F92CDB7D6
:10409000DEB78C01FC018681681728F4C8014983CA
:1040A0000E94A71D4981F80187818695869586958E
:1040B000481758F44583642F606BC8010F90DF9157
:1040C000CF911F910F910C94AA0E0F90DF91CF9179
:1040D0001F910F910895CF92DF92EF92FF920F936D
:1040E0001F93CF93DF93EC01F62EC42ED22E8F8137
:1040F000869586958695081710F00FEF080F1D2DF1
:10410000011780F0412F6F2DCE010E944220EF2C2D
:10411000CE1430F060E0CE010E942D20E394F8CF61
:104120001F5FEECF4D2D6F2DCE01DF91CF911F91EF
:104130000F91FF90EF90DF90CF900C9442202F9240
:104140003F924F925F926F927F928F929F92AF9227
:10415000BF92CF92DF92EF92FF920F931F93CF9374
:10416000DF93CDB7DEB727970FB6F894DEBF0FBE4B
:10417000CDBFDC011B960D911C911C9701151105FB
:1041800009F462C19F838E83F801B4913196449102
:10419000319654903196A491EA2EF12CF7E0EF0E6F
:1041A000F11C23E0F594E7942A95E1F7EB82F801FE
:1041B000349674913196E491671758F0862F90E009
:1041C0002E2F30E0F901E70FF11D8E179F070CF439
:1041D00073C06D3069F4AE81BF8116968C918823CF
:1041E00009F467C060E08E819F810E94A71D61C0B5
:1041F0006A3009F029C1EE81FF8181856581D62E63
:104200008E9DD00C11248781869586958695D8162B
:1042100030F08285882319F082E08287D12C4D2DE1
:1042200060E08E819F810E944220AE81BF811A96FC
:104230008C911A97823008F43CC015962C911597F2
:104240001B96ED91FC911C97309741F03396E491C9
:1042500019960C91E09FE02D112401C0E0E08FEF52
:10426000820F0E2F10E0095F1F4F93E01595079501
:104270009A95E1F7080FEE81FF81468141506481F4
:10428000CF010E946B20AE81BF8119968C91199746
:104290006D2D8E9D600D1124660F660F660F1796AB
:1042A0008C91861708F460E060648E819F810E9483
:1042B000AA0E81E090E0CAC050E05B2BC8010696D0
:1042C000671BEE81FF81F185F9834230510588F447
:1042D000452B09F019825E9C90015F9C300D1124E2
:1042E000629F8001639F100D1124080F191F412C3C
:1042F00024C0EA2FE77021F048E0442E4E1A01C096
:10430000412CA82FFC0140E050E07E2F7A1B76174D
:1043100028F47491470F511D3196F7CFFC01E60F39
:10432000F11D54904E9D80014F9D100D5E9D100D0E
:104330001124020F131F080F191FAE81BF8114969D
:10434000BC91BC83EE81FF813580652C712CCC241F
:10435000C394D12C812C912C7FEF7C0D7A838B819F
:10436000781708F05FC0212CAE81BF8119968C911F
:10437000281608F051C07A81711102C0222051F034
:10438000AE81BF8115964C9115974F5F6C81CD0121
:104390000E944220A12CB12CA51488F5F501E80D4E
:1043A000F91DE00FF11F2491442061F0CE14DF04C9
:1043B00049F4E22FF0E0042C02C0F595E7950A9449
:1043C000E2F72E2FEE81FF818185823079F4E22F92
:1043D0002110E295EF70F0E0E55DF84F2491622F37
:1043E0008E819F812D830E942D202D81622F8E81B1
:1043F0009F810E942D20FFEFAF1ABF0ACDCFB12CB5
:104400007981B71639F060E08E819F810E942D205E
:10441000B394F6CF2394A8CF860C971CBFEFCB1A8A
:10442000DB0A9ACFAE81BF8117968C91179786953C
:1044300086958695381608F03CCF15963C921597D0
:10444000632D606BCD0133CF80E090E027960FB6EF
:10445000F894DEBF0FBECDBFDF91CF911F910F91BA
:10446000FF90EF90DF90CF90BF90AF909F908F9094
:104470007F906F905F904F903F902F9008950F9393
:10448000CF93DF93EC010F810695069506950150B9
:104490004E81415020E060E00E946B2081E09A85CF
:1044A000911101C080E08A8760E4CE01DF91CF9155
:1044B0000F910C94AA0ECF93DF9380E698E00E94B0
:1044C0003F22C0E6D8E085E495E09C878B876CEDC1
:1044D00071E0CE010E94BF2ACE010E94BB2A6AEF82
:1044E00074E0CE010E94BF2A8AE593E09C878B8707
:1044F0006CED75E080E090E00E947325DF91CF9134
:104500000C94592B1F920F920FB60F9211242F93D8
:104510003F934F935F936F937F938F939F93AF934B
:10452000BF93EF93FF938091B900887F803609F4A1
:104530009CC068F5883209F45BC090F4803109F4BE
:1045400054C038F4882309F4F6C0883009F44DC00B
:10455000F6C0883109F44CC0803209F45DC0EFC068
:10456000803409F468C048F4803309F455C08833B6
:1045700009F0E5C080938007D8C0803509F44FC0AA
:10458000883509F45DC0883409F0D9C0D6C08839AF
:1045900009F4C7C0A8F4883709F467C038F488362E
:1045A00009F463C0803709F460C0C9C0883809F4D1
:1045B000B8C0803909F45FC0803809F0C0C05BC062
:1045C000803B09F486C038F4803A09F466C0883A22
:1045D00009F47FC0B4C0803C09F4A7C0883C09F44A
:1045E000A4C0883B09F48AC0AAC08091A60710C065
:1045F0009091A5078091A407981770F5E091A50701
:1046000081E08E0F8093A507F0E0EC57F84F808192
:104610008093BB0085EC86C0809380078EC0E091BC
:10462000A50781E08E0F8093A5078091BB00F0E085
:10463000EC57F84F80839091A5078091A4076EC036
:10464000E091A50781E08E0F8093A5078091BB00C4
:10465000F0E0EC57F84F80838091830781116DC0A3
:1046600081E08093820784EA61C083E080938107C0
:1046700010927F07CFCF80917F07803208F051C022
:10468000E0917F0781E08E0F80937F078091BB00D0
:10469000F0E0E15AF84F8083BDCF85EC8093BC00F9
:1046A0001092810780917F07803230F4E0917F077C
:1046B000F0E0E15AF84F108260917F0770E0E091DE
:1046C0005D07F0915E078FE597E0099510927F07EF
:1046D00036C084E08093810710925C0710925B07DC
:1046E000E0915907F0915A07099580915B07811174
:1046F00005C081E080935B0710923907E0915C0769
:1047000081E08E0F80935C07F0E0E75CF84F8081DA
:104710008093BB0090915C0780915B07981708F429
:1047200079CF85E88093BC000AC085EC8093BC00FB
:104730001092810704C0109280070E941E1DFF91F5
:10474000EF91BF91AF919F918F917F916F915F9109
:104750004F913F912F910F900FBE0F901F90189582
:10476000CF93DF931F92CDB7DEB76983DC01ED9164
:10477000FC910280F381E02D41E050E0BE016F5FCB
:104780007F4F09950F90DF91CF91089583E080933B
:10479000E9008091F200882319F08AE38093E80011
:1047A0000895FC018485958597FD0BC09FB7F8940B
:1047B00082E08093E9008091F2009FBF90E0019633
:1047C00008959FB7F89482E08093E9008091F20009
:1047D0009FBF90E0089590E0FC013197EF30F10524
:1047E000B0F5EA5AFF4F0C949D31809180008F778D
:1047F00003C0809180008F7D809380000895809118
:104800008000877FF9CF84B58F7702C084B58F7D14
:1048100084BD0895809190008F7707C080919000AB
:104820008F7D03C080919000877F809390000895D2
:104830008091C0008F7703C08091C0008F7D8093EE
:10484000C00008958091C200877F8093C2000895C0
:104850003FB7F8948091AD079091AE07A091AF0754
:10486000B091B00726B5A89B05C02F3F19F001965F
:10487000A11DB11D3FBFBA2FA92F982F8827820FE6
:10488000911DA11DB11DBC01CD0143E0660F771F35
:10489000881F991F4A95D1F7089580E0089580E018
:1048A0000895DB01ED91FC9111970280F381E02DD9
:1048B000BC01CD0109940895DB01ED91FC911197A4
:1048C0000084F185E02DBC01CD0109940E947B1488
:1048D00080E090E00895CF93DF93EC0180911E017A
:1048E000882331F083E00E940C2A1816190634F050
:1048F00081E090E09B838A8380E090E0DF91CF911C
:10490000089583E00E94FB2990E008950F931F9380
:10491000CF93DF931F92CDB7DEB78C01FC01848566
:10492000958597FF0EC0CE0101960E94A9130197AD
:1049300019F4298130E002C02FEF3FEFF8013587ED
:104940002487F801848595850F90DF91CF911F9181
:104950000F910895CF93DF931F92CDB7DEB7FC017F
:104960008485958597FD05C02FEF3FEF3587248718
:104970000BC0CE0101960E94A913019719F48981F9
:1049800090E002C08FEF9FEF0F90DF91CF910895DD
:104990000E949A338091B50781110DC082E0809307
:1049A000B10784E08093B2071092B4071092B30766
:1049B00081E08093B50781EB97E00895CF93DF9373
:1049C000282F30E0F901E454F84F8491F901E356BF
:1049D000F84FD491F901E258F84FC491CC2391F0EB
:1049E00081110E94EB23EC2FF0E0EE0FFF1FE05946
:1049F000F84FA591B491EC91ED2381E090E021F482
:104A000080E002C080E090E0DF91CF9108951F9395
:104A1000CF93DF93282F30E0F901E454F84F8491CD
:104A2000F901E356F84FD491F901E258F84FC491D7
:104A3000CC23C9F0162F81110E94EB23EC2FF0E05C
:104A4000EE0FFF1FEE59F84FA591B4918FB7F89470
:104A5000111105C09C91ED2FE095E92302C0EC9166
:104A6000ED2BEC938FBFDF91CF911F910895CF93E2
:104A7000DF9390E0FC01E356F84F2491FC01E258EB
:104A8000F84F8491882361F190E0880F991FFC0111
:104A9000EC5AF84FC591D491FC01EE59F84FA5910D
:104AA000B491611109C09FB7F89488812095822341
:104AB0008883EC912E230BC0623061F49FB7F89489
:104AC0003881822F809583238883EC912E2B2C9321
:104AD0009FBF06C08FB7F894E8812E2B28838FBF25
:104AE000DF91CF9108958F929F92AF92BF92CF9214
:104AF000DF92EF92FF926B017C010E9428244B0110
:104B00005C01C114D104E104F104F1F00E942824F5
:104B1000DC01CB0188199909AA09BB09883E934099
:104B2000A105B10570F321E0C21AD108E108F1082E
:104B300088EE880E83E0981EA11CB11CC114D1041C
:104B4000E104F10419F7DDCFFF90EF90DF90CF90F3
:104B5000BF90AF909F908F9008952FB7F894609179
:104B6000A9077091AA078091AB079091AC072FBF5E
:104B700008951F920F920FB60F9211242F933F9317
:104B80008F939F93AF93BF938091A9079091AA07AA
:104B9000A091AB07B091AC073091A80726E0230F96
:104BA0002D3720F40296A11DB11D05C029E8230F61
:104BB0000396A11DB11D2093A8078093A907909388
:104BC000AA07A093AB07B093AC078091AD07909173
:104BD000AE07A091AF07B091B0070196A11DB11D1E
:104BE0008093AD079093AE07A093AF07B093B00743
:104BF000BF91AF919F918F913F912F910F900FBED9
:104C00000F901F9018954091C2075091C3072091B3
:104C1000C0073091C10742175307B4F49091E800E0
:104C20009570E1F39091E80092FD19C08093F10036
:104C30008091C2079091C30701968F739927892BA2
:104C400019F48EEF8093E8008091C2079091C3071A
:104C500001969093C3078093C20781E0089580E096
:104C60000895615030F02091F100FC0120830196FD
:104C7000F8CF289884E6809315050895CF92DF92A7
:104C8000EF92FF920F931F93CF93DF936C017A0102
:104C90008B01C0E0D0E0CE15DF0589F0D8016D9121
:104CA0008D01D601ED91FC910190F081E02DC601BE
:104CB0000995892B11F47E0102C02196ECCFC70122
:104CC000DF91CF911F910F91FF90EF90DF90CF90E8
:104CD00008950F931F93CF93DF93EC0188819981FF
:104CE000009729F02A813B812617370788F48B012A
:104CF0006F5F7F4F0E94D032009761F09983888365
:104D00001B830A832C813D81232B11F4FC0110822B
:104D100081E001C080E0DF91CF911F910F91089554
:104D2000EF92FF920F931F93CF93DF9300D0CDB7F5
:104D3000DEB78C0169831A82FC01E480F580FFEF05
:104D4000EF1AFF0AB7010E946926882381F0F80153
:104D50002081318184819581BE016F5F7F4F820FF9
:104D6000931F0E94B533F801F582E48281E00F9031
:104D70000F90DF91CF911F910F91FF90EF900895C9
:104D8000EF92FF920F931F93CF93DF93EC017B0180
:104D90008A01BA010E9469262881398181110DC0DA
:104DA0002115310519F0C9010E9438321982188283
:104DB0001D821C821B821A8206C01D830C83B701D0
:104DC000C9010E94B533CE01DF91CF911F910F91A0
:104DD000FF90EF900895FC011182108213821282DD
:104DE000158214826115710551F0FB0101900020BC
:104DF000E9F73197AF01461B570B0C94C026089575
:104E00001F920F920FB60F9211248F939F93809150
:104E1000E1009091E100937F9093E10083FF0FC048
:104E20001092E90091E09093EB001092EC0092E375
:104E30009093ED001092160598E09093F00082FF99
:104E400020C093E09093E9009091F200992319F02B
:104E50009AE39093E8009091C407992339F09091D8
:104E6000C40791509093C407992389F19091150537
:104E7000992339F090911505915090931505992338
:104E800041F184FF10C08091E2008E7E81608093AA
:104E9000E2008091E1008F7E8093E1008091BF0766
:104EA0008E7E806111C080FF16C08091E2008E7EF0
:104EB00080618093E2008091E1008E7E8093E1002A
:104EC0008091BF078E7E81608093BF0704C05D9A8A
:104ED000CDCF289AD6CF9F918F910F900FBE0F9074
:104EE0001F901895DF92EF92FF920F931F93CF932D
:104EF000DF93D82E8A017B01E40EF51EEB01CE155F
:104F0000DF0571F0D7FE03C0FE01849101C08881E6
:104F10000E94032621968111F2CF8FEF9FEF01C0EF
:104F2000C801DF91CF911F910F91FF90EF90DF901B
:104F300008950F931F93CF93DF931F92CDB7DEB7E2
:104F400082E0898342E450E067ED7BE080E80E94E4
:104F500072270E94CA24DC0112960D911C911397AE
:104F60000115110569F0D801ED91FC910280F381E2
:104F7000E02DBE016F5F7F4FC801099597FF07C005
:104F800089810F90DF91CF911F910F910895F801C2
:104F900000851185E5CF1F920F920FB60F92112455
:104FA000CF92DF92EF92FF920F931F932F933F9335
:104FB0004F935F936F937F938F939F93AF93BF9321
:104FC000EF93FF93CF93DF93CDB7DEB76C97DEBF40
:104FD000CDBF1092E9008091E80083FFEDC168E049
:104FE000CE0145960E94312682EF8093E8008D899C
:104FF00087FF05C09091E80090FFFCCF03C09EEFB3
:105000009093E800982F907609F0C6C09E892F896A
:10501000188D91110CC0803829F48091BE078093BF
:10502000F10002C01092F1001092F10048C1422F2D
:1050300050E0512B913051F4811141C14130510563
:1050400009F03DC18091BE078D7F0BC0933061F4A4
:10505000811135C14130510509F031C18091BE0740
:1050600082608093BE072BC1953041F48091E800A7
:1050700080FFFCCF20682093E30021C1963009F027
:105080005FC0EB8CFC8C1092E9001092C307109269
:10509000C207123091F51092C1071092C0070E940A
:1050A000992799E0BE016F5F7F4FDB01E92F1D92C9
:1050B000EA95E9F799831A8391E09E8390EA9887AD
:1050C0009AEF99872091C2073091C307275F3F4F1E
:1050D0003C832B838D831092E9001092C3071092BA
:1050E000C207F092C107E092C00749E050E080E0BB
:1050F0000E9472270E949927E2C0F092C107E092B5
:10510000C0070E94CA24DC011296ED90FC90139710
:10511000E114F10409F4C0C0D701ED91FC910480C1
:10512000F581E02DBE016B5E7F4FC70109950097A9
:1051300019F00CF0C4C0C7C0F701E084F184E8CFD7
:10514000973009F4C0C0983021F481E08093F100D9
:10515000B6C0993009F0B3C0837009F0B4C0EDE077
:10516000F1E081E021E036E39081992361F08093C2
:10517000E9002093EB0091919093EC003093ED00C7
:105180008F5F873089F78EE78093EA001092EA00FC
:105190008F898093160593C08B8D9C8D1092E900AA
:1051A0001092C3071092C2079093C1078093C00763
:1051B000898D811156C08E899D89913A59F4813229
:1051C00009F081C047E050E067E171E080E00E94B3
:1051D000722775C0913209F076C0833289F4888DC8
:1051E00090E0982F88272F89822BA0E0B0E0809351
:1051F000130190931401A0931501B09316015FC0A1
:10520000803269F48091E80082FFFCCF67E087E19B
:1052100091E00E9431268BEF8093E80006C0823235
:1052200009F04DC08F8980931E018091BD078823AE
:1052300019F0EEEFFAE002C0E0E0F8E0809117012B
:1052400090911801A0911901B0911A01803B9440EE
:10525000A105B10509F07BC080911E0180FF93C0BC
:1052600076C00E94CA24DC0112960D911C911397FE
:105270000115110541F1D801ED91FC910190F081EA
:10528000E02DBE016B5E7F4FC8010995811117C0EB
:10529000F80100851185ECCF113009F44EC01330B0
:1052A00091F48F89882309F445C0823081F440E865
:1052B00062E188E39CE00E94032E882321F08EEFB8
:1052C0008093E80079C081E28093EB0075C0813063
:1052D00029F440E868E08FE29CE0EDCF833099F755
:1052E0000E94CA24DC011296ED90FC9013978E0167
:1052F0000F5F1F4F6801E114F10479F0D701ED91C0
:10530000FC910680F781E02DB801C7010995080FCF
:10531000111DF701E084F184EECFD8011C92F60153
:1053200001900020E9F73197BF016C197D0940E039
:10533000C601C1CF69E17CE002C06DE17CE061158E
:10534000710509F2FB01449150E080E840CF0FB6AF
:10535000F894A89580916000886180936000109215
:1053600060000FBEA895EE3F2AE0F20739F0809169
:10537000FE0A9091FF0A91838083A1CF1092FF0AC9
:105380001092FE0A9CCFEE3F8AE0F80731F0808150
:1053900091819093FF0A8093FE0A87E797E79183B4
:1053A00080839BE088E10FB6F894A8958093600015
:1053B0000FBE9093600083CF6C960FB6F894DEBF5B
:1053C0000FBECDBFDF91CF91FF91EF91BF91AF9114
:1053D0009F918F917F916F915F914F913F912F910D
:1053E0001F910F91FF90EF90DF90CF900F900FBE25
:1053F0000F901F9018952FB7F89487708093E9004D
:105400009091E800892F807295FF04C09091F2007E
:1054100080E4891B2FBF08957F928F929F92AF9255
:10542000BF92CF92DF92EF92FF920F931F93CF9391
:10543000DF93C82E8B017A0180911605811103C07C
:105440008FEF9FEF75C08091BF0780FF05C08091EF
:10545000E00082608093E000CE2DDF2DD12C8AEF1A
:10546000882E8C2D8770B82E8C2D8072A82E8C2DB6
:105470008074982E9AE3792E209709F452C08C2DCF
:105480000E94FB29282F81110AC08A948820C1F22A
:1054900061E070E080E090E00E947325EDCF90E045
:1054A000C817D9070CF42C2F3FB7F894B092E90035
:1054B0008091E80085FF33C0822F90E0C81BD90B94
:1054C000AA2029F02150A8F01092F100FBCFF8019A
:1054D000C7FE07C0215058F044914093F100319627
:1054E000F9CF215020F041914093F100FACF080FFD
:1054F000191FDD2019F07092E8000AC08091E800C1
:1055000085FD08C07092E800DD24D394209739F01F
:10551000D12C05C0209719F491107092E8003FBF7C
:10552000ABCFD110ACCF5D9884E68093C407C701A0
:10553000DF91CF911F910F91FF90EF90DF90CF906F
:10554000BF90AF909F908F907F90089561157105E7
:1055500079F0FB0101900020E9F73197AF01461B7C
:10556000570BDC01ED91FC910280F381E02D099451
:1055700080E090E008956DE075E00C94A62A0F930A
:105580001F93CF93DF93EC010E94A62A8C01CE01DA
:105590000E94BB2A800F911FDF91CF911F910F9125
:1055A00008950F931F93CF93DF93EC01E881F98166
:1055B000DB0114964D915C9115976D917C91028061
:1055C000F381E02D09958C01CE010E94BB2A800F4A
:1055D000911FDF91CF911F910F9108956091A408C1
:1055E0007091A5086115710559F08091A6089091F8
:1055F000A708DC01ED91FC910190F081E02D099468
:1056000008958F929F92AF92BF92CF92DF92EF92C6
:10561000FF920F931F93CF93DF936C01E12CF12C3A
:1056200000E010E0AA24AA94BB24B394402F60E0C9
:1056300080E698E00E94422045018E189F08C0E055
:10564000D0E0FE01EE0DFF1DEC0DFD1D649180E626
:1056500098E00E942D20C815D905F1F02196C03898
:10566000D10579F70F5F1F4F80E8E80EF11C043079
:105670001105E1F644E060E080E698E0DF91CF912B
:105680001F910F91FF90EF90DF90CF90BF90AF9060
:105690009F908F900C944220DF91CF911F910F919A
:1056A000FF90EF90DF90CF90BF90AF909F908F9042
:1056B0000895E2EAF8E08081918193838283DC019E
:1056C000ED91FC910680F781E02D0994EF92FF9215
:1056D0000F931F93CF93DF9300D000D000D0CDB7AE
:1056E000DEB77C018B01CE0101960E94EB268091F2
:1056F000B6089091B7082D813E81E216F30641F479
:105700009701A80160E070E00E94BD08182F01C059
:1057100010E089819A810E943832812F26960FB637
:10572000F894DEBF0FBECDBFDF91CF911F910F91D7
:10573000FF90EF900895CF93DF9300D000D0CDB7C6
:10574000DEB79091700899838A836B834C830E94A3
:10575000C01524E030E0AE014F5F5F4F61E00E9472
:105760008C150F900F900F900F90DF91CF910895AF
:10577000789484B5826084BD84B5816084BD85B52C
:10578000826085BD85B5816085BD80916E00816038
:1057900080936E00109281008091810082608093DE
:1057A00081008091810081608093810080918000E0
:1057B000816080938000809191008260809391004D
:1057C0008091910081608093910080919000816030
:1057D000809390008091C10084608093C10080918B
:1057E000C10082608093C1008091C100816080937C
:1057F000C1008091C30081608093C3008091C0008C
:1058000082608093C0008091C20081608093C2005A
:1058100080917A00846080937A0080917A0082601F
:1058200080937A0080917A008E7F80937A008091B5
:105830007A00806880937A00109216051092BE0755
:105840001092BF078091D70081608093D70080EAD3
:105850008093D80089B58F7E89BD89B5826089BD66
:1058600009B400FEFDCF61E070E080E090E00E94AE
:1058700073258091D8008F7C80618093D8008091BF
:10588000E000807F8093E0008091E1008E7E809335
:10589000E1008DE08093E200559A209AEEEFFFE759
:1058A000859194918B3F9C4D19F481E08093BD07C5
:1058B00010926F088CE380936E081092B90082E01A
:1058C0008093B8001092640810926508E5ECFBE044
:1058D00085919491E82EE7ECFBE0F490E8ECFBE096
:1058E000E491E0936608E9ECFBE0E491E09367085B
:1058F000EAECFBE0E491E09368088C01802F8E19BC
:105900008F1548F4F801649180E698E00E94AA0E91
:105910000F5F1F4FF3CF10926A0880E698E00E9455
:105920003F228AED97E090936C0880936B0885EC9A
:1059300099E00E94012B68EE73E080E090E00E9405
:10594000732580E698E00E943F2280E698E00E945E
:105950003F2261E070E080E090E00E9473256AEFF2
:1059600070E080E090E00E9473256AE978E0809121
:10597000A2089091A3080E9461150091A2081091BD
:10598000A30869E878E0C8010E94611510939608A1
:105990000093950861E878E08091A2089091A308AF
:1059A0000E94611569E778E089E898E00E94611536
:1059B00061E778E089E898E00E9461150E94EE2A8C
:1059C000EBECFBE0E49180917B00E3FBFF27F0F937
:1059D000CF2F20E0D22F95E0CC0FDD1F9A95E1F775
:1059E0008F7DC82BC0937B00E770E064E0937C0060
:1059F00080917A00806480937A0080917A0086FD9D
:105A0000FCCF609178008091790070E0782B072EB0
:105A1000000C880B990B611571058105910511F03A
:105A20000E946C3061E086E00E94372561E087E0EB
:105A30000E94372561E086E00E94072561E087E04B
:105A40000E94072564E670E080E090E00E947325E4
:105A500060E086E00E94072560E087E00E9407255D
:105A600064E670E080E090E00E94732561E086E0EB
:105A70000E94072561E087E00E94072564E670E048
:105A800080E090E00E94732560E086E00E94072598
:105A900060E087E00E94072564E670E080E090E027
:105AA0000E94732562E089E00E94372562E08AE067
:105AB0000E94372562E08DE00E94372562E085E094
:105AC0000E94372562E08CE00E94372562E08BE07F
:105AD0000E94372562E088E00E9437258FEF9FEF14
