:100000000C9471020C9499020C9499020C9499022C
:100010000C9499020C9499020C9499020C949902F4
:100020000C9499020C9499020C94891D0C94541E02
:100030000C9499020C9499020C9499020C949902D4
:100040000C9499020C9499020C9499020C949902C4
:100050000C9499020C9499020C9499020C94EB0D57
:100060000C9499020C9499020C9499020C949902A4
:100070000C9499020C9499020C9499020C94990294
:100080000C9499020C9499020C9499020C94990284
:100090000C94A3070C9499020C9499020C94990265
:1000A0000C9499020C9499020C949902950B980B5C
:1000B000870B8B0B910BB90BB90BB90B9C0BA00BDE
:1000C000A40BAA0BAE0BB90BB40B00000000000090
:1000D00000002A2B280000000000000000000000A3
:1000E000000000000000000000002C9E9FA0A1A2C4
:1000F000A32DA5A6AF2F363837A4271E1F202122F7
:1001000023242526B7B664A7E4AD1F848586878897
:10011000898A8B8C8D8E8F909192939495969798D7
:10012000999A9B9C9D253526B1B8B0040506070811
:10013000090A0B0C0D0E0F101112131415161718B7
:10014000191A1B1C1D24B5273100AED580A83FD33A
:1001500000408D142002A1C8DA12817FD9F1DB4062
:10016000A4A6AF0000050720610000000000000009
:100170005F00000007000700147F147F14242A7F0B
:100180002A122313086462364955225000050300E1
:1001900000001C2241000041221C00082A1C2A08E1
:1001A00008083E0808005030000008080808080049
:1001B0006060000020100804023E5149453E0042A4
:1001C0007F400042615149462141454B311814128C
:1001D0007F1027454545393C4A4949300171090599
:1001E000033649494936064949291E00363600007A
:1001F000005636000000081422411414141414414F
:10020000221408000201510906324979413E7E114B
:1002100011117E7F494949363E414141227F41418A
:10022000221C7F494949417F090901013E41415151
:10023000327F0808087F00417F41002040413F0194
:100240007F081422417F404040407F0204027F7FAC
:100250000408107F3E4141413E7F090909063E41A5
:1002600051215E7F09192946464949493101017FDB
:1002700001013F4040403F1F2040201F7F201820A9
:100280007F631408146303047804036151494543F0
:1002900000007F4141020408102041417F0000041A
:1002A000020102044040404040000102040020548A
:1002B0005454787F484444383844444420384444B3
:1002C000487F3854545418087E09010208145454C5
:1002D0003C7F0804047800447D40002040443D00F9
:1002E000007F10284400417F40007C041804787C83
:1002F0000804047838444444387C1414140808145E
:1003000014187C7C080404084854545420043F44C6
:1003100040203C4040207C1C2040201C3C40304081
:100320003C44281028440C5050503C4464544C44E5
:10033000000836410000007F000000413608000838
:10034000082A1C08081C2A080800060909064A0190
:1003500019804000070605040100080A0B0C0D096E
:1003600000000000240027002A002D0030000408AF
:1003700002011040804010204080408008020401AB
:10038000804020100201108010204040200404040E
:10039000040403040502020202040302020202062C
:1003A0000606060606040402020204040000000019
:1003B000250028002B002E00310000000000230043
:1003C000260029002C002F000000000200090F0069
:1003D00000030401000C0000000000000000000009
:1003E0000000000000007C3C3E5E2B3D3F2F5B5D2B
:1003F0003B2C2A225C0005010902A1010901A10090
:1004000085010509190129031500250195037501C9
:10041000810295017505810305010930093109380B
:100420001581257F750895038106C0C00501090661
:10043000A1018502050719E029E7150025017501CD
:1004400095088102950175088103950675081500C8
:1004500025650507190029658100C000030C0F30D0
:10046000333C3FC0C3CCCFF0F3FCFF080B000202CB
:10047000020100090400000102020000052400102E
:1004800001052401010104240206052406000107D8
:1004900005810310004009040100020A0000000762
:1004A0000502024000000705830240000004030922
:1004B0000412010002EF0201404F1B0692000101ED
:1004C000020301537061726B46756E005370617266
:1004D0006B46756E2050726F204D6963726F00001D
:1004E000832611241FBECFEFDAE0DEBFCDBF14E0BC
:1004F000A0E0B1E0E0EDF6E502C005900D92A43079
:10050000B107D9F727E0A4E0B4E001C01D92AA3BEF
:10051000B207E1F712E0C1E7D2E004C02197FE0183
:100520000E942D29C037D107C9F70E947B210C9466
:10053000662B0C94000085ED8093BC008091BC007C
:1005400084FDFCCF10924D04089540912704262F7E
:1005500030E0240F311D21323105DCF420914D04AF
:100560002430C9F4FC0180E090E0861758F4309103
:1005700027042191DC01AB5FBB4FA30FB11D2C936E
:100580000196F3CF80912704680F6093270480E0E1
:10059000089581E0089582E0089508958FEF9FEF18
:1005A00008958FEF9FEF08958091040490E0919556
:1005B000819591090895CF93DF9300D0CDB7DEB731
:1005C000CB01642F49835A830E94A5024981842F5D
:1005D0005A81952F0F900F90DF91CF910895CF936F
:1005E000DF931F92CDB7DEB7698361E0CE0101963C
:1005F0000E94A50281E090E00F90DF91CF910895D5
:1006000020910B0730910C078617970744F4F901E6
:10061000E80FF91F4081403221F00196F5CF8FEFAE
:100620009FEF0895FC016093BC008091BC0087FFA0
:10063000FCCF9091B900987F90830895CF92DF927C
:10064000EF92FF920F931F93CF93DF93EC01C62E8F
:10065000D42E8F85882351F0411108C084E98093FE
:10066000BC008091BC0084FDFCCF1F86EF848E010E
:10067000035F1F4FE11014C0FE8464EAC8010E94AA
:1006800012038D85883011F1803101F1DD2011F0E8
:1006900080E4E82EE092BB0064E8C8010E941203E7
:1006A000C092BB0064E8C8010E94120382E0D81225
:1006B00004C08F858F5F8F8711C084E98093BC0051
:1006C0008091BC0084FDFCCF1F8608C0FF0CF09217
:1006D000BB0064E8C8010E941203D8CFDF91CF911C
:1006E0001F910F91FF90EF90DF90CF9008950895A4
:1006F00080E090E00895CF93DF93EB010E94690EB4
:1007000028E030E0AE0162E0DF91CF910C94350E2D
:10071000DC01683810F0685825C0E62FF0E067FF6C
:1007200012C0E058F10981E090E001C0880FEA951D
:10073000EAF7809514969C911497892314968C93CC
:10074000149760E00FC0E653FF4F6491662301F1F8
:1007500067FF08C014968C9114978D7F14968C9324
:1007600014976F77FD01369686E0662321F090811D
:10077000961301C01082815031968111F6CFCD01C0
:10078000BD016C5F7F4F0E947B0381E090E0089584
:1007900080E090E00895DC01683810F068582DC0C2
:1007A000E62FF0E067FF11C0E058F10981E090E02A
:1007B00001C0880FEA95EAF714969C911497892B4B
:1007C00014968C93149760E018C0E653FF4F649121
:1007D000611109C081E090E013969C938E9312976B
:1007E00080E090E0089567FF08C014968C911497FC
:1007F000826014968C9314976F7716968C91169747
:10080000861751F117968C911797861729F118962C
:100810008C911897861701F119968C911997861764
:10082000D9F01A968C911A978617B1F01B968C9175
:100830001B97861789F0FD01369680E090E02191A4
:10084000211105C0FD01E80FF91F668305C001965F
:1008500086309105A1F7BECFCD01BD016C5F7F4F02
:100860000E947B0381E090E00895EF92FF921F9336
:10087000CF93DF93EC01162F0E94CB037C01612FF5
:10088000CE010E948803C7019927DF91CF911F9164
:10089000FF90EF900895CF93C82F682F8DEF96E0CB
:1008A0000E94CB036091040170910501072E000C9A
:1008B000880B990B0E94A50D6C2F8DEF96E0CF91C0
:1008C0000C948803CF92DF92EF92FF920F931F93C5
:1008D000CF93DF9300D000D000D0CDB7DEB78C012E
:1008E0007B016A01BA01CE0101960E94741DE0915C
:1008F0000B07F0910C07C701801B910B2D813E81E6
:100900008217930781F4E00FF11FD6019D012C1986
:100910003D09281739072CF431912D913217B1F385
:1009200002C011E001C010E089819A810E94C829AB
:10093000812F26960FB6F894DEBF0FBECDBFDF9194
:10094000CF911F910F91FF90EF90DF90CF9008957E
:100950000F931F93CF93DF939B01281B390B2230FA
:10096000310544F4C0910B07D0910C07C80FD91F73
:10097000688109C08B01EC0148EB52E00E946204DF
:10098000882349F060EB8DEF96E0DF91CF911F91C6
:100990000F910C94CB0341EB51E0B801CE010E94C2
:1009A0006204811108C045EB51E0B801CE010E94FC
:1009B0006204882311F063E8E6CF41E453E0B80114
:1009C000CE010E946204882311F061E8DCCF4DEB78
:1009D00051E0B801CE010E946204811110C041ECC7
:1009E00051E0B801CE010E946204811108C04AECB6
:1009F00051E0B801CE010E946204882311F062E840
:100A0000C2CF47E453E0B801CE010E9462048111D5
:100A100008C042ED51E0B801CE010E946204882373
:100A200011F066E8B0CF41E553E0B801CE010E9475
:100A30006204811108C04BED51E0B801CE010E9463
:100A40006204882311F060E89ECF46E553E0B801C8
:100A5000CE010E946204882311F061EC94CF43EE32
:100A600051E0B801CE010E946204882311F064EDC8
:100A70008ACF4AEE51E0B801CE010E946204882379
:100A800011F065ED80CF4EEE51E0B801CE010E942D
:100A90006204811108C042EF51E0B801CE010E940A
:100AA0006204882311F061EB6ECF4FE553E0B8018B
:100AB000CE010E946204882311F062ED64CF49EFF9
:100AC00051E0B801CE010E946204882311F061ED6B
:100AD0005ACF40E052E0B801CE010E946204882360
:100AE00011F063ED50CF47E052E0B801CE010E9413
:100AF0006204882311F066ED46CF48E152E0B80168
:100B0000CE010E946204882311F060E23CCF40E1F4
:100B100052E0B801CE010E946204882311F063EB19
:100B200032CF44E152E0B801CE010E946204882332
:100B300011F062EB28CF44E052E0B801CE010E94F0
:100B40006204811108C04EE152E0B801CE010E945A
:100B50006204882311F06AED16CF4BE052E0B80131
:100B6000CE010E946204811108C046E252E0B80141
:100B7000CE010E946204882311F069ED04CF4DEC90
:100B800051E0B801CE010E946204811108C040E327
:100B900052E0B801CE010E946204882311F068ED92
:100BA000F2CE45ED51E0B801CE010E946204811100
:100BB00008C04AE352E0B801CE010E9462048823D3
:100BC00011F067EDE0CE44E653E0B801CE010E949B
:100BD0006204882311F06EECD6CE45E452E0B801F1
:100BE000CE010E946204882311F062ECCCCE48E46E
:100BF00052E0B801CE010E946204882311F063EC38
:100C0000C2CE4BE452E0B801CE010E9462048823B8
:100C100011F064ECB8CE4EE452E0B801CE010E946F
:100C20006204882311F065ECAECE41E552E0B801D4
:100C3000CE010E946204882311F066ECA4CE44E544
:100C400052E0B801CE010E946204882311F067ECE3
:100C50009ACE47E552E0B801CE010E946204882393
:100C600011F068EC90CE4AE552E0B801CE010E9446
:100C70006204882311F069EC86CE4DE552E0B8019C
:100C8000CE010E946204882311F06AEC7CCE40E61B
:100C900052E0B801CE010E946204882311F06BEC8F
:100CA00072CE44E652E0B801CE010E94620488236D
:100CB00011F06CEC68CE48E652E0B801CE010E941B
:100CC0006204882311F06DEC5ECE4CE652E0B80170
:100CD000CE010E946204882311F08AEE8BC042E7A5
:100CE00052E0B801CE010E946204882311F081EE27
:100CF00081C048E752E0B801CE010E946204882317
:100D000011F082EE77C04EE752E0B801CE010E94AA
:100D10006204882311F083EE6DC044E852E0B8010C
:100D2000CE010E946204882311F084EE63C04AE879
:100D300052E0B801CE010E946204882311F085EED2
:100D400059C040E952E0B801CE010E9462048823F4
:100D500011F086EE4FC046E952E0B801CE010E9484
:100D60006204882311F087EE45C04CE952E0B801D7
:100D7000CE010E946204882311F088EE3BC042EA53
:100D800052E0B801CE010E946204882311F089EE7E
:100D900031C048EA52E0B801CE010E9462048823C3
:100DA00011F08DED27C044EB52E0B801CE010E9456
:100DB0006204882311F080EE1DC04EEB52E0B801B2
:100DC000CE010E946204882311F08EED13C048EC1E
:100DD00052E0B801CE010E946204882311F08BEE2C
:100DE00009C043ED52E0B801CE010E94620488239D
:100DF00039F08FEDDF91CF911F910F910C944B043F
:100E00004CEE52E0B801CE010E946204811110C084
:100E10004CED52E0B801CE010E946204811108C07D
:100E200047EE52E0B801CE010E946204882339F0F7
:100E300081E0DF91CF911F910F910C94952740E7AE
:100E400053E0B801CE010E946204882311F082E0D1
:100E5000F0CF42EF52E0B801CE010E946204882335
:100E600011F084E0E6CF4FEF52E0B801CE010E94CE
:100E70006204811108C045E053E0B801CE010E9430
:100E80006204882339F081E0DF91CF911F910F91A7
:100E90000C94A32745E053E0B801CE010E94620400
:100EA000882311F082E0F0CF40E153E0B801CE0199
:100EB0000E946204882311F084E0E6CF4DE153E004
:100EC000B801CE010E94620481111CC045E253E0CA
:100ED000B801CE010E946204811114C045E253E0C2
:100EE000B801CE010E946204882311F082E00BC099
:100EF00042E353E0B801CE010E946204882349F026
:100F000084E001C081E0DF91CF911F910F910C949B
:100F1000B027DF91CF911F910F910895CF93DF9369
:100F2000EC019C818E81981758F4E881F981008446
:100F3000F185E02D42E0CE0109958C818F5F8C8395
:100F4000DF91CF9108951F920F920FB60F92112447
:100F50002F933F934F935F936F937F938F939F93C1
:100F6000AF93BF93EF93FF938091B900887F803652
:100F700009F49CC068F5883209F45BC090F48031B4
:100F800009F454C038F4882309F4F6C0883009F411
:100F90004DC0F6C0883109F44CC0803209F45DC000
:100FA000EFC0803409F468C048F4803309F455C0B8
:100FB000883309F0E5C080934C04D8C0803509F42B
:100FC0004FC0883509F45DC0883409F0D9C0D6C057
:100FD000883909F4C7C0A8F4883709F467C038F421
:100FE000883609F463C0803709F460C0C9C0883806
:100FF00009F4B8C0803909F45FC0803809F0C0C076
:101000005BC0803B09F486C038F4803A09F466C0BE
:10101000883A09F47FC0B4C0803C09F4A7C0883C7A
:1010200009F4A4C0883B09F48AC0AAC08091720464
:1010300010C09091710480917004981770F5E09140
:10104000710481E08E0F80937104F0E0E05BFB4F50
:1010500080818093BB0085EC86C080934C048EC059
:10106000E091710481E08E0F809371048091BB0048
:10107000F0E0E05BFB4F80839091710480917004FD
:101080006EC0E091710481E08E0F809371048091B5
:10109000BB00F0E0E05BFB4F808380914F04811147
:1010A0006DC081E080934E0484EA61C083E0809348
:1010B0004D0410924B04CFCF80914B04803208F046
:1010C00051C0E0914B0481E08E0F80934B048091DE
:1010D000BB00F0E0E55DFB4F8083BDCF85EC8093E6
:1010E000BC0010924D0480914B04803230F4E091AA
:1010F0004B04F0E0E55DFB4F108260914B0470E023
:10110000E0912904F0912A048BE294E00995109271
:101110004B0436C084E080934D0410922804109252
:101120002704E0912504F091260409958091270475
:10113000811105C081E08093270410920504E0919D
:10114000280481E08E0F80932804F0E0EB5FFB4FD2
:1011500080818093BB009091280480912704981788
:1011600008F479CF85E88093BC000AC085EC8093B1
:10117000BC0010924D0404C010924C040E949B02CB
:10118000FF91EF91BF91AF919F918F917F916F915F
:101190005F914F913F912F910F900FBE0F901F9035
:1011A0001895CF92DF92EF92FF920F931F93CF93F8
:1011B000DF93CDB7DEB760970FB6F894DEBF0FBEF2
:1011C000CDBF6B012FEFC21AD20AACE7B3E021E02A
:1011D00030E04D91F901E60FF71FE80FF91F50813C
:1011E000541337C02F5F3F4F2730310591F72091BF
:1011F000000130910101C901330FAA0BBB0BC09054
:101200000201D09003010D2C000CEE08FF08C81657
:10121000D906EA06FB060CF07DC09C01AD012C1935
:101220003D094E095F0969F02D873E874F87588B2E
:101230000E9449282D853E854F8558890E94932814
:1012400003C060E070E0CB01C60ED71EE81EF91E99
:1012500061C08B010A5F1F4F7601BC01CE01019670
:101260000E94741D0C151D0508F451C062E074E065
:10127000CE0107960E94741D8D819E81E816F906A5
:1012800088F58017910708F48C01E981FA81E00F55
:10129000F11FD080108289819A81BC016E0D7F1D63
:1012A0006115710569F0FB0101900020E9F73197A4
:1012B000AF01461B570BCE0107960E9453170CC077
:1012C0008F819885009711F00E94C82918861F8287
:1012D0001C861B861A86198669817A81FB01E00FBC
:1012E000F11FD0820F8118850115110521F0C80169
:1012F0000E94572803C060E070E0CB016B01C80179
:101300000E94C82989819A810E94C82903C0780156
:101310008601ACCFC60160960FB6F894DEBF0FBE53
:10132000CDBFDF91CF911F910F91FF90EF90DF9094
:10133000CF900895EF92FF920F931F93CF93DF9377
:101340000091730410917404B80180E090E00E9451
:101350000003EC01CF3F8FEFD80731F4B80180E0F4
:1013600090E00E94A8043AC043E853E0BE0180E048
:1013700090E00E946204811155C040E953E0BE0133
:1013800080E090E00E94620481114CC044EE53E082
:10139000BE0180E090E00E946204811102C14EE92A
:1013A00053E0BE0180E090E00E9462048111F9C028
:1013B0004FEE53E0BE0180E090E00E94620488237B
:1013C000E9F1BE0180910B0790910C070E94D108B2
:1013D000BC01990F880B990B0E94A50D1092030771
:1013E0001092040710920507109206071092070743
:1013F000109208071092010761E077E08DEF96E008
:101400000E947B036091060170910701072E000C7A
:10141000880B990BDF91CF911F910F91FF90EF9067
:101420000C94A50DBE0180910B0790910C070E94B2
:10143000D1089093070180930601D0CF41EB53E090
:10144000BE0180E090E00E946204882399F021961A
:101450008091730490917404C817D9070CF0BECF23
:10146000E0910B07F0910C07EC0FFD1F80810E94AB
:101470004B04EDCF48EB53E0BE0180E090E00E94CA
:1014800062048823E1F06091730470917404CE01CA
:1014900001960E9400038C01BE0180910B07909180
:1014A0000C070E94D108C82FB80180910B079091BA
:1014B0000C070E94D10840E0682F8C2F13C04EEB20
:1014C00053E0BE0180E090E00E946204882369F04E
:1014D000BE0180910B0790910C070E94D108482F04
:1014E00060E080E00E94C61479CF45EC53E0BE0175
:1014F00080E090E00E946204882361F0BE01809148
:101500000B0790910C070E94D108909303018093E0
:10151000020164CF4FEC53E0BE0180E090E00E94F6
:101520006204882361F0BE0180910B0790910C0743
:101530000E94D10890930101809300014FCF49EDA3
:1015400053E0BE0180E090E00E946204811146CF2A
:101550004DED53E0BE0180E090E00E9462048111F5
:101560003DCFBE0180E090E00E94A804D7FD36CFB9
:101570000091730410917404C017D1070CF02ECFA2
:101580007E018FEFE81AF80AB801C7010E94000334
:10159000EC01CF3F8FEFD80709F4E801BE01C70186
:1015A000E3CFBE0180910B0790910C070E94D108F8
:1015B000909305018093040111CFDC01ED91FC9122
:1015C0000084F185E02D40E009940F931F93CF93A1
:1015D000DF931F92CDB7DEB78C01FC0186816817BF
:1015E00028F4C80149830E94671B4981F80187815B
:1015F000869586958695481758F44583642F606BC9
:10160000C8010F90DF91CF911F910F910C94DD0ACB
:101610000F90DF91CF911F910F910895CF92DF929C
:10162000EF92FF920F931F93CF93DF93EC01F62E6F
:10163000C42ED22E8F81869586958695081710F038
:101640000FEF080F1D2D011780F0412F6F2DCE01D8
:101650000E94E50AEF2CCE1430F060E0CE010E942B
:101660008E07E394F8CF1F5FEECF4D2D6F2DCE0187
:10167000DF91CF911F910F91FF90EF90DF90CF906E
:101680000C94E50ACF93DF931F92CDB7DEB7698341
:10169000DC01ED91FC910280F381E02D41E050E00E
:1016A000BE016F5F7F4F09950F90DF91CF91089535
:1016B00083E08093E9008091F200882319F08AE3A7
:1016C0008093E8000895FC018485958597FD0BC003
:1016D0009FB7F89482E08093E9008091F2009FBF69
:1016E00090E0019608959FB7F89482E08093E90016
:1016F0008091F2009FBF90E0089590E0FC01319747
:10170000EF30F105B0F5EA5AFF4F0C942D29809186
:1017100080008F7703C0809180008F7D8093800050
:10172000089580918000877FF9CF84B58F7702C0BC
:1017300084B58F7D84BD0895809190008F7707C018
:10174000809190008F7D03C080919000877F80936F
:10175000900008958091C0008F7703C08091C000F1
:101760008F7D8093C00008958091C200877F809311
:10177000C20008953FB7F89480919804909199041D
:10178000A0919A04B0919B0426B5A89B05C02F3F59
:1017900019F00196A11DB11D3FBFBA2FA92F982F97
:1017A0008827820F911DA11DB11DBC01CD0142E012
:1017B000660F771F881F991F4A95D1F70895DC019E
:1017C000FB0112968C91129790E02481358182174B
:1017D0009307D1F491818081813A31F481E0913095
:1017E00091F0933089F411C0813271F49B3021F46F
:1017F00082811F968C9305C09A3031F48281509675
:101800008C9381E00895089580E00895DC01FB0148
:1018100088E4808389E4818384E482831D969C919B
:101820001D979F709F5B93831D968D919C911E9732
:1018300024E0969587952A95E1F78F708F5B8483D6
:1018400085E00895FC0182818F5BFB01808381E04C
:101850000895CF93DF93EC0180911E01882331F02E
:1018600083E00E9484201816190634F081E090E08D
:101870009B838A8380E090E0DF91CF91089583E09D
:101880000E94492190E00895CF93DF931F92CDB736
:10189000DEB7FC018485958597FD05C02FEF3FEFEE
:1018A000358724870BC0CE0101960E94F916019757
:1018B00019F4898190E002C08FEF9FEF0F90DF91C4
:1018C000CF9108950F931F93CF93DF931F92CDB7BE
:1018D000DEB78C01FC018485958597FF0EC0CE0193
:1018E00001960E94F916019719F4298130E002C08F
:1018F0002FEF3FEFF80135872487F8018485958520
:101900000F90DF91CF911F910F9108950E942A2B84
:10191000EF92FF920F931F93CF93DF93FB012081F0
:10192000213851F52381223239F5DC0112962C91B0
:1019300030E04481558142175307F1F4EC010B85E7
:101940001C85E12CF12C0115110591F0F801448161
:1019500055816281738180E80E94FB1D8F3FFFEFFC
:101960009F0769F0E80EF91ED8010D911C91EBCF8D
:1019700081E08F87C70105C080E090E002C08FEF53
:101980009FEFDF91CF911F910F91FF90EF900895FE
:10199000CF93DF93CDB7DEB769970FB6F894DEBF6C
:1019A0000FBECDBFFC01DB018C918F5F8C93BE011C
:1019B0006F5F7F4F89E1DB011D928A95E9F729E08E
:1019C000298384E08A8391E09D8383E08E832A8744
:1019D00021E22B879C879D879F8722E2288B27E027
:1019E0002B8B25E02C8B8E8B20E430E0388F2F8BD7
:1019F000998F82818B8395858685998B8A8B83814C
:101A000080688D8B49E150E080E00E94FB1D699663
:101A10000FB6F894DEBF0FBECDBFDF91CF91089512
:101A2000CF93DF93282F30E0F901E853FC4F8491E6
:101A3000F901E259FC4FD491F901E357FC4FC491ED
:101A4000CC2391F081110E947D0BEC2FF0E0EE0F82
:101A5000FF1FE654FC4FA591B491EC91ED2381E07A
:101A600090E021F480E002C080E090E0DF91CF912F
:101A700008951F93CF93DF93282F30E0F901E853A7
:101A8000FC4F8491F901E259FC4FD491F901E357DD
:101A9000FC4FC491CC23C9F0162F81110E947D0BFD
:101AA000EC2FF0E0EE0FFF1FE455FC4FA591B49131
:101AB0008FB7F894111105C09C91ED2FE095E923A3
:101AC00002C0EC91ED2BEC938FBFDF91CF911F9172
:101AD0000895CF93DF9390E0FC01E259FC4F2491ED
:101AE000FC01E357FC4F8491882361F190E0880F5B
:101AF000991FFC01E05AFC4FC591D491FC01E455BB
:101B0000FC4FA591B491611109C09FB7F8948881E9
:101B1000209582238883EC912E230BC0623061F4E0
:101B20009FB7F8943881822F809583238883EC9126
:101B30002E2B2C939FBF06C08FB7F894E8812E2BD5
:101B400028838FBFDF91CF9108958F929F92AF929C
:101B5000BF92CF92DF92EF92FF926B017C010E94C5
:101B6000BA0B4B015C01C114D104E104F104F1F0A2
:101B70000E94BA0BDC01CB0188199909AA09BB099B
:101B8000883E9340A105B10570F321E0C21AD10847
:101B9000E108F10888EE880E83E0981EA11CB11CB4
:101BA000C114D104E104F10419F7DDCFFF90EF90E7
:101BB000DF90CF90BF90AF909F908F9008952FB7F8
:101BC000F89460919404709195048091960490919A
:101BD00097042FBF08951F920F920FB60F921124F2
:101BE0002F933F938F939F93AF93BF9380919404D0
:101BF00090919504A0919604B0919704309193042C
:101C000023E0230F2D3720F40196A11DB11D05C03F
:101C100026E8230F0296A11DB11D20939304809303
:101C2000940490939504A0939604B09397048091A4
:101C3000980490919904A0919A04B0919B04019604
:101C4000A11DB11D8093980490939904A0939A04C8
:101C5000B0939B04BF91AF919F918F913F912F9132
:101C60000F900FBE0F901F901895AF92BF92CF921A
:101C7000DF92EF92FF920F931F93CF93DF931F9208
:101C8000CDB7DEB77C0169836A01590141E050E0BC
:101C9000BE016F5F7F4FFC0183810E9484208C0115
:101CA00097FD0BC0F7018381A501B60180640E94F6
:101CB000842097FD02C0800F911F0F90DF91CF917C
:101CC0001F910F91FF90EF90DF90CF90BF90AF905A
:101CD000089580918B0481116BC081E080937E0414
:101CE00080937F0424E834E03093810420938004BF
:101CF00010928304109282042DE231E030937B0431
:101D000020937A041092860410928504109288041D
:101D1000109287048093890480938A0481EC8093D5
:101D200084040E946721FC01218180917E0490E05F
:101D3000820F911D089724F081E080938B0438C0B6
:101D4000A281B381109729F48AE794E09383828378
:101D50000EC018968D919C911997009711F0DC0197
:101D6000F8CF8AE794E019969C938E931897808118
:101D700080937C04818180937D04908180917F0495
:101D8000890F808380E090917E048917A8F6A09146
:101D90008004B0918104A80FB11D9C91A181B0E095
:101DA000A45FBE4F9C9391819F5F91838F5FEBCF28
:101DB0008AE794E008958091A0048823A9F14091D6
:101DC00008015091090160910A0170910B0121EA0B
:101DD00034E080919E0490919F040E9438198111F3
:101DE00002C080E00895409176045091770460919C
:101DF000780470917904411551056105710591F0E0
:101E000021EA34E080919E0490919F040E94381949
:101E1000882339F310927604109277041092780494
:101E2000109279041092A00481E008958F929F92FD
:101E3000AF92BF92EF92FF920F931F93CF934B01FC
:101E40005C01C42F8091080190910901A0910A01C1
:101E5000B0910B0188159905AA05BB0501F10E94F7
:101E6000DB0E811102C080E020C081EAE82E84E010
:101E7000F82E00E012E020E030E0B501A4018091EE
:101E80009E0490919F040E94A418882361F380927D
:101E9000080190920901A0920A01B0920B01809171
:101EA000A004C82BC093A00481E0CF911F910F9193
:101EB000FF90EF90BF90AF909F908F9008954F92BA
:101EC0005F926F927F928F929F92AF92BF92CF92CA
:101ED000DF92EF92FF920F931F93CF93DF93EC016A
:101EE0006A017B0128013901423051056105710504
:101EF00010F480E073C089859A85AB85BC85019616
:101F0000A11DB11D84179507A607B70790F38B880D
:101F10009C88AD88BE888F89803129F4BB27AF2D7E
:101F20009E2D8D2D09C0DB01CA0147E0B695A7950E
:101F3000979587954A95D1F7880E991EAA1EBB1EC4
:101F40008091080190910901A0910A01B0910B01C3
:101F500088169906AA06BB0679F48F898031A1F408
:101F6000DD24EE24FF24C601880F991FFC01EF55E4
:101F7000FB4F5182408219C040E0C501B4010E946C
:101F8000160F8111EACFB5CFE894C7F8DD24EE240F
:101F9000FF24C601880F991F880F991FFC01EF5578
:101FA000FB4F40825182628273828091A0048160E3
:101FB0008093A0048A89823080F08D819E81AF81D8
:101FC000B885880E991EAA1EBB1E80927604909238
:101FD0007704A0927804B092790481E0DF91CF91E8
:101FE0001F910F91FF90EF90DF90CF90BF90AF9037
:101FF0009F908F907F906F905F904F9008958F92F9
:102000009F92AF92BF92CF92DF92EF92FF920F9387
:102010001F93CF93DF93FC0181859285A385B485BF
:102020000196A11DB11D84179507A607B70710F4E7
:1020300080E05CC083899489A589B689C789C0314D
:1020400029F4852E962EA72EBB2409C04A015B01D8
:10205000C7E0B694A79497948794CA95D1F7E901FD
:102060006A017B018F01BC01CD01680D791D8A1DBC
:102070009B1D8090080190900901A0900A01B090EA
:102080000B01681579058A059B0599F4F801878984
:102090008031A9F4B701A601552766277727440F99
:1020A000551FFA01EF55FB4F80819181A0E0B0E010
:1020B00018C040E00E94160F8111E8CFB9CFB701D8
:1020C000A6014F77552766277727440F551F440FE2
:1020D000551FFA01EF55FB4F80819181A281B38199
:1020E000BF7088839983AA83BB8381E0DF91CF91FE
:1020F0001F910F91FF90EF90DF90CF90BF90AF9026
:102100009F908F9008954F925F926F927F92AF92BF
:10211000BF92CF92DF92EF92FF920F931F93CF93D4
:10212000DF9300D000D0CDB7DEB78C0149835A834E
:102130006B837C835901C12CD12C7601412C82E028
:10214000582E612C712C49815A816B817C819E01B2
:102150002F5F3F4FC8010E94FF0F882351F1D30129
:10216000C201F801058404C0880F991FAA1FBB1F74
:102170000A94D2F7C80ED91EEA1EFB1E49815A8165
:102180006B817C818789803129F088EF9FEFAFEFE9
:10219000BFE004C088EF9FEFA0E0B0E04817590708
:1021A0006A077B0780F2F501C082D182E282F38266
:1021B00081E00F900F900F900F90DF91CF911F91C2
:1021C0000F91FF90EF90DF90CF90BF90AF907F90F6
:1021D0006F905F904F900895CF93DF93EC018D81C6
:1021E0008823A1F18C8187FF2DC06E857F8588892A
:1021F000998941E00E94160F882341F1EA8980E223
:10220000E89FF0011124DF01AF55BB4F1097F1F0AB
:102210008D81823050F44B895C896D897E895C9612
:102220004D935D936D937C935F978F89988DA98D66
:10223000BA8DEF55FB4F938F828FB58BA48B8C811A
:102240008F778C83DF91CF910C94DB0E80E0DF9150
:10225000CF9108958F929F92AF92BF92CF92DF92CB
:10226000EF92FF920F931F93CF93DF93EC018D8139
:10227000811102C080E077C00B891C892D893E89BD
:102280000417150726073707A8F36A017B01823078
:1022900029F4CA86DB86EC86FD860DC0C114D10404
:1022A000E104F10451F41E821F82188619861A86F1
:1022B0001B861C861D8681E056C08A849B84AC8464
:1022C000BD84EB8DFC8D258530E0275F3F4FB50148
:1022D000A4014150510961097109022E04C076958B
:1022E0006795579547950A94D2F7D701C60101978C
:1022F000A109B10904C0B695A795979587952A9528
:10230000D2F784179507A607B70720F089288A28EF
:102310008B2849F44F89588D698D7A8D4E835F8360
:102320006887798704C0841B950BA60BB70B4C01FB
:102330005D018E010A5F1F4F81149104A104B10455
:1023400009F4A7CF4E815F816885798598018B8DCF
:102350009C8D0E94FF0F91E0891A9108A108B10895
:102360008111EACF87CFDF91CF911F910F91FF901D
:10237000EF90DF90CF90BF90AF909F908F90089597
:10238000CF93DF93EC010E94EC10882311F01D82A3
:1023900081E0DF91CF9108953F924F925F926F92CB
:1023A0007F928F929F92AF92BF92CF92DF92EF92E5
:1023B000FF920F931F93CF93DF93CDB7DEB72C9788
:1023C0000FB6F894DEBF0FBECDBF5C01DC015B969B
:1023D0008D909C905C971696CD90DD90ED90FC9042
:1023E0001997C114D104E104F10439F0BFEFCB1AFD
:1023F000DB0AEB0AFB0A312C07C0F401C080D18054
:10240000E280F38033243394F40181859285A3859F
:10241000B4859C01AD012F5F3F4F4F4F5F4F298720
:102420003A874B875C87260137011D821E821F82F7
:102430001886F40181859285A385B4852D813E811E
:102440004F815885281739074A075B0708F063C092
:1024500089859A85AB85BC858C159D05AE05BF0524
:1024600050F482E0C82ED12CE12CF12C92E0492EC0
:10247000512C612C712C9E012F5F3F4FB701A6019B
:10248000C4010E94FF0F882309F445C089819A8105
:10249000AB81BC81892B8A2B8B2B41F02601370124
:1024A0009FEF491A590A690A790A05C0C414D5046C
:1024B000E604F70491F02D813E814F8158852F5F0E
:1024C0003F4F4F4F5F4F2D833E834F8358873FEFE2
:1024D000C31AD30AE30AF30AACCF0FEF1FEF2FEFB3
:1024E0003FE0B301A201C4010E945F0F882399F06D
:1024F000D50116964D915D916D917C91199741157D
:1025000051056105710549F093018201C4010E94E2
:102510005F0F811102C080E02AC0D50116964D924E
:102520005D926D927C921997332051F0D301C201D4
:102530000196A11DB11DF40180839183A283B38311
:10254000F5018789908DA18DB28D892B8A2B8B2BDC
:1025500069F4D50157964D925D926D927C925A978F
:1025600014968C911497806814968C9381E02C9625
:102570000FB6F894DEBF0FBECDBFDF91CF911F9194
:102580000F91FF90EF90DF90CF90BF90AF909F9012
:102590008F907F906F905F904F903F9008952F9213
:1025A0003F924F925F926F927F928F929F92AF92E3
:1025B000BF92CF92DF92EF92FF920F931F93CF9330
:1025C000DF9300D000D0CDB7DEB78C015B011A01DC
:1025D000DC0115968C9115978130C9F414968C9175
:1025E00081FF15C082FF1BC0F801438954896589AA
:1025F000768982859385A485B58584179507A60776
:10260000B70769F0C8010E942A11811108C081E052
:1026100090E0F8019383828380E090E039C161010A
:1026200083C0D8015B968D919C915C97FC012481BD
:1026300021502A013B0139E07694679457944794DE
:102640003A95D1F7722E74207A01F1E0FF227720BB
:1026500009F476C080E092E08E199F0946018C153E
:102660009D0508F44C01D8015B962D913C915C9737
:1026700016968D919D910D90BC91A02D0297A10968
:10268000B109F901058404C0880F991FAA1FBB1F57
:102690000A94D2F74685578560897189840F951F02
:1026A000A61FB71F9C01AD01270D311D411D511DF6
:1026B00029013A01811432E0930609F088C0809123
:1026C000080190910901A0910A01B0910B018415B4
:1026D0009505A605B70559F48FEF9FEFDC018093B0
:1026E000080190930901A0930A01B0930B01950191
:1026F000B301A20180919E0490919F040E94381919
:10270000882309F484CF9EEFB91AC818D908F801B4
:1027100082859385A485B585880D991DA11DB11D60
:1027200082879387A487B587D8011A964D915D91CA
:102730006D917C911D97C114D10409F072CF87C0AF
:10274000E114F10409F086CF16964D915D916D91DB
:102750007C911997411551056105710559F45796FA
:102760008D919D910D90BC91A02D0097A105B10573
:1027700041F521C09E012F5F3F4F0E94FF0F88232C
:1027800009F44BCF89819A81AB81BC81F801238DFB
:10279000348DF9012789203129F048EF5FEF6FEF81
:1027A0007FE004C048EF5FEF60E070E084179507BA
:1027B000A607B70730F0C8010E94CC1181114ACF9B
:1027C00026CFF80186839783A087B18743CFE11492
:1027D000F10429F5D8011A964D915D916D917C9186
:1027E0001D9753968D919D910D90BC91A02D4817EA
:1027F00059076A077B0798F00E94DB0E882309F4CB
:1028000006CF409208015092090160920A0170922D
:102810000B018091A00481608093A00408C041E076
:10282000C301B2010E94160F882309F4F0CED5012E
:10283000F701EF55FB4FCF01880D991DE817F907F8
:1028400019F02D912193FACFA80CB91C5ECF5396A5
:102850008D919D910D90BC91A02D84179507A60791
:10286000B70740F4F801438B548B658B768B8481DA
:1028700080688483D80114968C9183FD02C0C101C5
:1028800007C0C8010E94EC10882309F4C0CEF7CF1E
:102890000F900F900F900F90DF91CF911F910F919C
:1028A000FF90EF90DF90CF90BF90AF909F908F9070
:1028B0007F906F905F904F903F902F900895CF93AF
:1028C000DF931F92CDB7DEB7698341E050E0BE01D0
:1028D0006F5F7F4F0E94CF120F90DF91CF910895CD
:1028E000CF93DF93EC016A8B8091080190910901ED
:1028F000A0910A01B0910B018E879F87A88BB98B9D
:1029000080E2689FF0011124EF55FB4F44895589FF
:1029100060E070E0BA01552744274F8B588F698FCC
:102920007A8F828D938DA0E0B0E0482B592B6A2BD3
:102930007B2B4F8B588F698F7A8F8385887151F4E9
:10294000848D958DA68DB78D8B8B9C8BAD8BBE8B1F
:1029500081E00EC0803111F080E015C09E012D5E37
:102960003F4F8B8D9C8D0E9483108823A9F384E0B8
:102970008D8381E08C831E821F82188619861A86B9
:102980001B861C861D86DF91CF910895CF93DF9320
:1029900000D000D0CDB7DEB79091A10699838A838D
:1029A0006B834C830E94690E24E030E0AE014F5FE0
:1029B0005F4F61E00E94350E0F900F900F900F90C7
:1029C000DF91CF910895AF92BF92CF92DF92EF92B5
:1029D000FF920F931F93CF93DF93CDB7DEB72B9763
:1029E0000FB6F894DEBF0FBECDBF7C01CE010196BD
:1029F0006C01FC0190E28BE08C0D91938E13FDCF66
:102A0000DA0120E037E09D91992339F19E3219F0E7
:102A1000E6EEF3E00AC03A3009F4AAC028E03AE052
:102A2000F2CF3196891709F4A3C084918111F9CFAF
:102A3000321708F49DC08FED890F8E3508F098C0CD
:102A400081E0820FF601E20FF11D2FE9290F2A31F3
:102A500008F490529083282FD6CF8981803209F4D0
:102A600087C08B01FB01838D948DF701948F838F39
:102A7000FB01168217821086118612861386148631
:102A80001586A12CF80182859385A485B585438997
:102A900054896589768984179507A607B70708F0D2
:102AA00067C025E0B695A795979587952A95D1F7A4
:102AB000F82FFF70BF2EF8018581823008F458C0CE
:102AC000C8010E94291A97FD53C0F8018285938599
:102AD000A485B5854F96A11DB11D82879387A487D4
:102AE000B587F0E2BF9EC0011124BC016F557B4F3A
:102AF00061157105E9F1FB0120812223B9F1253E21
:102B0000E1F04BE050E0C6010E942F2B892B09F029
:102B1000B9CF6B2DC7012B960FB6F894DEBF0FBE51
:102B2000CDBFDF91CF911F910F91FF90EF90DF907C
:102B3000CF90BF90AF900C947014A11014C0F70107
:102B4000B28A409108015091090160910A01709187
:102B50000B0146875787608B718BFC01EF55FB4F4C
:102B60008081882329F0AA24A3948CCFAA2039F34A
:102B700080E02B960FB6F894DEBF0FBECDBFDF917D
:102B8000CF911F910F91FF90EF90DF90CF90BF906A
:102B9000AF9008958F929F92AF92BF92CF92DF92A3
:102BA000EF92FF92CF93DF93C82F84EA96E0909341
:102BB0009F0480939E04CC2369F1C53010F080E01F
:102BC0000DC140E060E070E0CB010E94160F882349
:102BD000B1F320E1C29FC00111248F569B4FFC012D
:102BE000E254FE4F20812F7751F73C96408151816E
:102BF00062817381443651056105710500F3349794
:102C0000C080D180E280F380C114D104E104F104DA
:102C100021F4D5CFC12CD12C760140E0C701B601FB
:102C20000E94160F882359F28091AC049091AD0454
:102C30008115924021F6A091B104AA2309F4BFCFD7
:102C40006091AF047091B0046115710509F4B7CFBC
:102C50002091AE04222309F4B2CFA093C2062093A0
:102C6000B40680E030E0E1E0F0E0C82FAF01082ECC
:102C700002C0440F551F0A94E2F72417350741F0AC
:102C8000982F8F5F983089F789E08093BD0697CFA2
:102C90008093BD062091B7043091B8042115310509
:102CA00019F040E050E008C02091C5043091C604FE
:102CB0004091C7045091C8042093B5063093B606DE
:102CC0004093B7065093B80646015701860E971EEB
:102CD000A11CB11C8092C3069092C406A092C506A6
:102CE000B092C606E091B204F091B304F093C90625
:102CF000E093C806B0E00E94B228860E971EA81E78
:102D0000B91E8092CA069092CB06A092CC06B092D1
:102D1000CD0685E0EE0FFF1F8A95E1F7E150FE4FEB
:102D2000EF2FFF27E6958E0E9F1EA11CB11C8092EF
:102D3000BE069092BF06A092C006B092C106209136
:102D4000B4043091B5042115310521F0A90160E0EA
:102D500070E008C04091C1045091C2046091C30466
:102D60007091C404D701C60188199909AA09BB0941
:102D7000840F951FA61FB71F04C0B695A7959795FA
:102D80008795CA95D2F78093B9069093BA06A09317
:102D9000BB06B093BC06853F2FE09207A105B105A5
:102DA00010F48CE018C0853F9F4FA105B10510F4C9
:102DB00080E111C08091CD049091CE04A091CF0408
:102DC000B091D0048093CA069093CB06A093CC0612
:102DD000B093CD0680E28093C70681E0DF91CF916A
:102DE000FF90EF90DF90CF90BF90AF909F908F902B
:102DF0000895FC0180919D04811103C08FEF9FEF26
:102E000008959FB7F89482E08093E9002091F20042
:102E100030E01216130614F421E030E021153105DC
:102E200059F0289884E680939C048091F100808377
:102E30008091F200882319F09FBFC90108958BE6A5
:102E40008093E800F9CFEF92FF920F931F93CF93F7
:102E5000DF9300D0CDB7DEB78C0169831A82FC0105
:102E6000E480F580FFEFEF1AFF0AB7010E944D1DC5
:102E7000882381F0F8012081318184819581BE0110
:102E80006F5F7F4F820F931F0E94502BF801F582D6
:102E9000E48281E00F900F90DF91CF911F910F910D
:102EA000FF90EF900895EF92FF920F931F93CF93AF
:102EB000DF93EC017B018A01BA010E944D1D28813C
:102EC000398181110DC02115310519F0C9010E9408
:102ED000C829198218821D821C821B821A8206C090
:102EE0001D830C83B701C9010E94502BCE01DF91D5
:102EF000CF911F910F91FF90EF900895DC015996AB
:102F0000ED91FC915A973097B9F083899489A589FE
:102F1000B6894285538564857585841B950BA60B00
:102F2000B70B811520E89207A105B10538F08FEFA6
:102F30009FE7A0E0B0E0089580E090E00895CF938F
:102F4000DF931F92CDB7DEB76983DC01ED91FC9171
:102F50000280F381E02D41E050E0BE016F5F7F4FC2
:102F600009950F90DF91CF910895FC01818D928D8D
:102F7000009711F00C94EC100895CF93DF93EC01BF
:102F8000898D9A8D009739F481E090E09B838A8344
:102F900080E090E00BC0FC01138212820E94CF12ED
:102FA000E98DFA8D22813381232B71F7DF91CF9147
:102FB00008958FB7F8948091A1078FBF089561E0BD
:102FC000FC0184810E94390D8091A007811110922B
:102FD000A00708958EBD00000DB407FEFDCF8EB58D
:102FE00008958FEF0C94EA170F931F93CF93DF93FD
:102FF000EB010E94DF0D8B010E94F1178F3F49F01A
:103000000E94DF0D601B710B6C177D07A8F380E039
:1030100001C081E0DF91CF911F910F910895CF936F
:10302000DF93EC018E81882389F08F8198859C0144
:103030002F5F3F4F38872F838230924018F40E94D1
:10304000F117F3CFCE010E94DF171E82DF91CF91DF
:1030500008958CBD9DBD0895CF93DF93EC018091C1
:10306000A007811109C081E08093A0078091A2068A
:103070009091A3060E94291860E08C81DF91CF9186
:103080000C94390DCF92DF92FF920F931F93CF9341
:10309000DF9300D000D0CDB7DEB76C01F62E2983C8
:1030A0003A834B835C830E940F18C6010E942C1840
:1030B0006CE271E0C6010E94F4178F2D80640E94BB
:1030C000EA1708E110E05C814B813A812981DA013D
:1030D000C901002E04C0B695A795979587950A94C7
:1030E000D2F729833A834B835C830E94EA17085006
:1030F000110929813A814B815C81083F8FEF1807C4
:1031000031F7FF2029F0E8E0FE1204C087E803C091
:1031100085E901C08FEF0E94EA1710E00E94F117C5
:10312000F601828787FF04C01F3F11F01F5FF6CFB3
:103130000F900F900F900F90DF91CF911F910F91F3
:10314000FF90DF90CF900895AF92BF92CF92DF9221
:10315000EF92FF920F931F93CF93DF93EC016901DE
:10316000C801820F931F8130924008F070C08E8199
:10317000882371F088819981AA81BB8148175907FA
:103180006A077B0729F48F819885C816D906B0F5A0
:10319000488359836A837B838B85833039F089E048
:1031A000440F551F661F771F8A95D1F79A01AB010F
:1031B00061E1CE010E944218882319F083E08D83DB
:1031C00046C00E94DF0D5B010E94F1178A878F3F86
:1031D00049F40E94DF0D6A197B096D327140A0F33A
:1031E0008FE003C08E3F31F08DE08D83CE010E94D1
:1031F000DF172DC018861F8281E08E838F8198850E
:103200008C159D0540F40E94F1178F8198850196D9
:1032100098878F83F3CF6701E00EF11ECE14DF0491
:1032200031F00E94F117F60181936F01F7CF8F8182
:103230009885080F191F18870F838985882319F02F
:103240000115124048F0CE010E940F1805C0CE01B2
:103250000E94DF1780E001C081E0DF91CF911F91D4
:103260000F91FF90EF90DF90CF90BF90AF900895B7
:10327000EF92FF920F931F93CF93DF93EC017901AD
:10328000411551056105710511F482E13CC08B8542
:10329000833039F089E0440F551F661F771F8A95E8
:1032A000D1F79A01AB0168E1CE010E944218882350
:1032B00011F084E028C08EEF0E94EA1787018EEF9C
:1032C000F81AF80181918F010E94EA170E151F0567
:1032D000C1F78FEF0E94EA178FEF0E94EA170E9452
:1032E000F1178A878F71853031F081E18D83CE01AE
:1032F0000E94DF1709C068E572E0CE010E94F41752
:10330000811107C085E18D83CE010E94DF1780E027
:1033100013C020E030E0A9016DE0CE010E94421808
:10332000811104C00E94F117882311F084E1EBCFD2
:10333000CE010E94DF1781E0DF91CF911F910F91A5
:10334000FF90EF900895FC01DB0112968D919C9106
:103350001397938382838DE491E091838083149605
:103360008C911497848315968C9115978583169666
:103370004D915D916D917C9119974683578360873C
:1033800071871A964D915D916D917C911D97428741
:103390005387648775871E964D915D916D917C91E1
:1033A000519746875787608B718B52968C915297B5
:1033B000828B53964D915D916D917C915697438B85
:1033C000548B658B768B57964D915D916D917C9169
:1033D0005A97478B508F618F728F5B968D919C911E
:1033E0005C97948F838F0895EF92FF920F931F93B2
:1033F000CF93DF93EC017B018A011B821A8288EE56
:1034000093E0A0E0B0E08C839D83AE83BF8385E82A
:1034100091E0998388838DE190E00E9433299A8F0F
:10342000898F009779F02DE1F701DC0101900D9271
:103430002A95E1F74CE050E0B801CE010C960E94CD
:10344000572B188EDF91CF911F910F91FF90EF9026
:1034500008952F923F924F925F926F927F928F9238
:103460009F92AF92BF92CF92DF92EF92FF920F9313
:103470001F93CF93DF9300D0CDB7DEB7FC018581DA
:10348000882309F4D9C0848180FFD6C021E02A8333
:10349000438954896589768982859385A485B58514
:1034A000481759076A077B0709F41A826F013A81A6
:1034B000832F90E0DE0111964D013F01B6E06B0EC7
:1034C000711C892B09F47DC0D6011A964D915D912E
:1034D0006D917C911D975A01B1E0BB22F6012581C7
:1034E0001A012B0189E056944794379427948A95C2
:1034F000D1F7838D948D223061F4FC01828D938D00
:10350000A48DB58DBC01CD01620D731D841D951D6B
:1035100045C0DC0114961C9111501221A114B10474
:10352000D1F4111118C0452B462B472B51F4F6014D
:103530008789908DA18DB28D86839783A087B1876F
:103540000AC0468157816085718593010E94FF0FF3
:10355000882309F471C0F601238D348D868197810B
:10356000A085B1850297A109B109AC01BD01F9019E
:10357000058404C0440F551F661F771F0A94D2F7B5
:1035800086859785A089B189840F951FA61FB71FCF
:10359000BC01CD01610F711D811D911DD6011496D5
:1035A0002C9126FF14C0009108011091090120916F
:1035B0000A0130910B01601771078207930751F5DB
:1035C00006C0FA81FF23C1F1898190E037C040E055
:1035D0000E94160F882381F1F501EF55FB4FD401AE
:1035E000CF010196E817F90719F021912D93FACF31
:1035F000EFEF8E1A9E0AF60182859385A485B58524
:103600000196A11DB11D82879387A487B58780E0AD
:1036100090E057CF740101E010E09501AB01BC01CF
:1036200080919E0490919F040E94A418882321F009
:10363000BFEF8B1A9B0ADFCF8FEF9FEF0F900F909A
:10364000DF91CF911F910F91FF90EF90DF90CF907E
:10365000BF90AF909F908F907F906F905F904F90B2
:103660003F902F900895FC01818D928D009711F06D
:103670000C94291A8FEF9FEF08950F931F93CF9308
:10368000DF93FC01818D928D0097B9F0EF010E94CC
:10369000291A8C010F3F8FEF180791F0898D9A8DB1
:1036A000FC01428553856485758541505109610946
:1036B00071090E942A11C80105C080E090E002C093
:1036C0008FEF9FEFDF91CF911F910F9108950F938F
:1036D0001F93CF938C01FC0164839085C62FC90F83
:1036E0006C2F6F70C8010E94DD0A6C2F62956F709D
:1036F0006061C801CF911F910F910C94DD0A2F9248
:103700003F924F925F926F927F928F929F92AF9271
:10371000BF92CF92DF92EF92FF920F931F93CF93BE
:10372000DF93CDB7DEB727970FB6F894DEBF0FBE95
:10373000CDBFDC011B960D911C911C970115110545
:1037400009F462C19F838E83F801B491319644914C
:10375000319654903196A491EA2EF12CF7E0EF0EB9
:10376000F11C23E0F594E7942A95E1F7EB82F80148
:10377000349674913196E491671758F0862F90E053
:103780002E2F30E0F901E70FF11D8E179F070CF483
:1037900073C06D3069F4AE81BF8116968C91882319
:1037A00009F467C060E08E819F810E94671B61C041
:1037B0006A3009F029C1EE81FF8181856581D62EAD
:1037C0008E9DD00C11248781869586958695D81676
:1037D00030F08285882319F082E08287D12C4D2D2C
:1037E00060E08E819F810E94E50AAE81BF811A96BA
:1037F0008C911A97823008F43CC015962C9115973D
:103800001B96ED91FC911C97309741F03396E49113
:1038100019960C91E09FE02D112401C0E0E08FEF9C
:10382000820F0E2F10E0095F1F4F93E0159507954B
:103830009A95E1F7080FEE81FF814681415064813E
:10384000CF010E940E0BAE81BF8119968C91199702
:103850006D2D8E9D600D1124660F660F660F1796F5
:103860008C91861708F460E060648E819F810E94CD
:10387000DD0A81E090E0CAC050E05B2BC8010696EB
:10388000671BEE81FF81F185F9834230510588F491
:10389000452B09F019825E9C90015F9C300D11242C
:1038A000629F8001639F100D1124080F191F412C86
:1038B00024C0EA2FE77021F048E0442E4E1A01C0E0
:1038C000412CA82FFC0140E050E07E2F7A1B761798
:1038D00028F47491470F511D3196F7CFFC01E60F84
:1038E000F11D54904E9D80014F9D100D5E9D100D59
:1038F0001124020F131F080F191FAE81BF811496E8
:10390000BC91BC83EE81FF813580652C712CCC2469
:10391000C394D12C812C912C7FEF7C0D7A838B81E9
:10392000781708F05FC0212CAE81BF8119968C9169
:10393000281608F051C07A81711102C0222051F07E
:10394000AE81BF8115964C9115974F5F6C81CD016B
:103950000E94E50AA12CB12CA51488F5F501E80D0B
:10396000F91DE00FF11F2491442061F0CE14DF0413
:1039700049F4E22FF0E0042C02C0F595E7950A9493
:10398000E2F72E2FEE81FF818185823079F4E22FDC
:103990002110E295EF70F0E0E55AFB4F2491622F81
:1039A0008E819F812D830E948E072D81622F8E81B3
:1039B0009F810E948E07FFEFAF1ABF0ACDCFB12CB7
:1039C0007981B71639F060E08E819F810E948E0761
:1039D000B394F6CF2394A8CF860C971CBFEFCB1AD5
:1039E000DB0A9ACFAE81BF8117968C911797869587
:1039F00086958695381608F03CCF15963C9215971B
:103A0000632D606BCD0133CF80E090E027960FB639
:103A1000F894DEBF0FBECDBFDF91CF911F910F9104
:103A2000FF90EF90DF90CF90BF90AF909F908F90DE
:103A30007F906F905F904F903F902F9008954091AE
:103A4000A7075091A8072091A5073091A607421714
:103A50005307B4F49091E8009570E1F39091E80079
:103A600092FD19C08093F1008091A7079091A8075B
:103A700001968F739927892B19F48EEF8093E800B4
:103A80008091A7079091A80701969093A80780932B
:103A9000A70781E0089580E008950F931F93CF93C7
:103AA000DF93EC0188819981009729F02A813B817D
:103AB0002617370788F48B016F5F7F4F0E94602ABB
:103AC000009761F0998388831B830A832C813D8151
:103AD000232B11F4FC01108281E001C080E0DF9112
:103AE000CF911F910F910895FC01118210821382D2
:103AF0001282158214826115710551F0FB0101904B
:103B00000020E9F73197AF01461B570B0C94531770
:103B100008951F920F920FB60F9211248F939F93C7
:103B20008091E1009091E100937F9093E10083FF09
:103B30000FC01092E90091E09093EB001092EC001E
:103B400092E39093ED0010929D0498E09093F00022
:103B500082FF20C093E09093E9009091F2009923B6
:103B600019F09AE39093E8009091A907992339F00E
:103B70009091A90791509093A907992389F1909169
:103B80009C04992339F090919C04915090939C044B
:103B9000992341F184FF10C08091E2008E7E816004
:103BA0008093E2008091E1008F7E8093E10080911C
:103BB000A4078E7E806111C080FF16C08091E20054
:103BC0008E7E80618093E2008091E1008E7E809302
:103BD000E1008091A4078E7E81608093A40704C0D9
:103BE0005D9ACDCF289AD6CF9F918F910F900FBE1F
:103BF0000F901F901895DF92EF92FF920F931F93F3
:103C0000CF93DF93D82E8A017B01E40EF51EEB01E2
:103C1000CE15DF0571F0D7FE03C0FE01849101C00F
:103C200088810E941F1D21968111F2CF8FEF9FEF97
:103C300001C0C801DF91CF911F910F91FF90EF90CC
:103C4000DF9008950F931F93CF93DF931F92CDB70B
:103C5000DEB782E0898342E450E06BE674E080E8FE
:103C60000E94FB1D0E946721DC0112960D911C91A0
:103C700013970115110569F0D801ED91FC910280AF
:103C8000F381E02DBE016F5F7F4FC801099597FF5B
:103C900007C089810F90DF91CF911F910F910895F7
:103CA000F80100851185E5CF1F920F920FB60F9294
:103CB0001124CF92DF92EF92FF920F931F932F93D5
:103CC0003F934F935F936F937F938F939F93AF93A4
:103CD000BF93EF93FF93CF93DF93CDB7DEB76C978E
:103CE000DEBFCDBF1092E9008091E80083FFEDC1F7
:103CF00068E0CE0145960E945A2182EF8093E80049
:103D00008D8987FF05C09091E80090FFFCCF03C02C
:103D10009EEF9093E800982F907609F0C6C09E8998
:103D20002F89188D91110CC0803829F48091A30738
:103D30008093F10002C01092F1001092F10048C18E
:103D4000422F50E0512B913051F4811141C141304B
:103D5000510509F03DC18091A3078D7F0BC09330C1
:103D600061F4811135C14130510509F031C18091B3
:103D7000A30782608093A3072BC1953041F4809103
:103D8000E80080FFFCCF20682093E30021C196303B
:103D900009F05FC0EB8CFC8C1092E9001092A80730
:103DA0001092A707123091F51092A6071092A5075E
:103DB0000E94221E99E0BE016F5F7F4FDB01E92F59
:103DC0001D92EA95E9F799831A8391E09E8390EA20
:103DD00098879AEF99872091A7073091A807275FC6
:103DE0003F4F3C832B838D831092E9001092A807EC
:103DF0001092A707F092A607E092A50749E050E0CD
:103E000080E00E94FB1D0E94221EE2C0F092A607E5
:103E1000E092A5070E946721DC011296ED90FC90CC
:103E20001397E114F10409F4C0C0D701ED91FC919E
:103E30000480F581E02DBE016B5E7F4FC7010995BF
:103E4000009719F00CF0C4C0C7C0F701E084F184FA
:103E5000E8CF973009F4C0C0983021F481E0809316
:103E6000F100B6C0993009F0B3C0837009F0B4C056
:103E7000EDE0F1E081E021E036E39081992361F00B
:103E80008093E9002093EB0091919093EC003093A4
:103E9000ED008F5F873089F78EE78093EA001092FC
:103EA000EA008F8980939D0493C08B8D9C8D109226
:103EB000E9001092A8071092A7079093A607809395
:103EC000A507898D811156C08E899D89913A59F433
:103ED000813209F081C047E050E067E171E080E0A5
:103EE0000E94FB1D75C0913209F076C0833289F4BF
:103EF000888D90E0982F88272F89822BA0E0B0E052
:103F00008093130190931401A0931501B0931601AF
:103F10005FC0803269F48091E80082FFFCCF67E0E7
:103F200087E191E00E945A218BEF8093E80006C060
:103F3000823209F04DC08F8980931E018091A207C3
:103F4000882319F0EEEFFAE002C0E0E0F8E080919B
:103F5000170190911801A0911901B0911A01803BAD
:103F60009440A105B10509F07BC080911E0180FF3E
:103F700093C076C00E946721DC0112960D911C91BE
:103F800013970115110541F1D801ED91FC910190B4
:103F9000F081E02DBE016B5E7F4FC8010995811154
:103FA00017C0F80100851185ECCF113009F44EC01F
:103FB000133091F48F89882309F445C0823081F44D
:103FC00040E862E18CEC94E00E94BE27882321F057
:103FD0008EEF8093E80079C081E28093EB0075C09A
:103FE000813029F440E868E083EC94E0EDCF833041
:103FF00099F70E946721DC011296ED90FC901397CF
:104000008E010F5F1F4F6801E114F10479F0D701B1
:10401000ED91FC910680F781E02DB801C70109956B
:10402000080F111DF701E084F184EECFD8011C9236
:10403000F60101900020E9F73197BF016C197D0965
:1040400040E0C601C1CF6DEA74E002C061EB74E0EC
:104050006115710509F2FB01449150E080E840CF01
:104060000FB6F894A89580916000886180936000F5
:10407000109260000FBEA895EE3F2AE0F20739F0DB
:104080008091FE0A9091FF0A91838083A1CF1092C4
:10409000FF0A1092FE0A9CCFEE3F8AE0F80731F04B
:1040A000808191819093FF0A8093FE0A87E797E7CA
:1040B000918380839BE088E10FB6F894A895809364
:1040C00060000FBE9093600083CF6C960FB6F8949B
:1040D000DEBF0FBECDBFDF91CF91FF91EF91BF91BA
:1040E000AF919F918F917F916F915F914F913F9190
:1040F0002F911F910F91FF90EF90DF90CF900F9035
:104100000FBE0F901F9018957F928F929F92AF9243
:10411000BF92CF92DF92EF92FF920F931F93CF93B4
:10412000DF93C82E8B017A0180919D04811103C019
:104130008FEF9FEF75C08091A40780FF05C080912D
:10414000E00082608093E000CE2DDF2DD12C8AEF3D
:10415000882E8C2D8770B82E8C2D8072A82E8C2DD9
:104160008074982E9AE3792E209709F452C08C2DF2
:104170000E944921282F81110AC08A948820C1F207
:1041800061E070E080E090E00E94A50DEDCF90E04E
:10419000C817D9070CF42C2F3FB7F894B092E90058
:1041A0008091E80085FF33C0822F90E0C81BD90BB7
:1041B000AA2029F02150A8F01092F100FBCFF801BD
:1041C000C7FE07C0215058F044914093F10031964A
:1041D000F9CF215020F041914093F100FACF080F20
:1041E000191FDD2019F07092E8000AC08091E800E4
:1041F00085FD08C07092E800DD24D394209739F043
:10420000D12C05C0209719F491107092E8003FBF9F
:10421000ABCFD110ACCF5D9884E68093A907C701DE
:10422000DF91CF911F910F91FF90EF90DF90CF9092
:10423000BF90AF909F908F907F900895CF92DF9224
:10424000EF92FF920F931F93CF93DF936C017A014C
:104250008B01C0E0D0E0CE15DF0589F0D8016D916B
:104260008D01D601ED91FC910190F081E02DC60108
:104270000995892B11F47E0102C02196ECCFC7016C
:10428000DF91CF911F910F91FF90EF90DF90CF9032
:1042900008952FB7F89487708093E9009091E80013
:1042A000892F807295FF04C09091F20080E4891BF1
:1042B0002FBF0895615030F02091F100FC01208360
:1042C0000196F8CF289884E680939C040895809105
:1042D000AE0781110DC082E08093AA0784E080932D
:1042E000AB071092AD071092AC0781E08093AE0748
:1042F0008AEA97E00895CF93DF93CDB7DEB7C8572A
:10430000D1090FB6F894DEBF0FBECDBF789484B547
:10431000826084BD84B5816084BD85B5826085BDC1
:1043200085B5816085BD80916E00816080936E004F
:104330001092810080918100826080938100809141
:1043400081008160809381008091800081608093F2
:104350008000809191008260809391008091910013
:1043600081608093910080919000816080939000A3
:104370008091C10084608093C1008091C1008260FF
:104380008093C1008091C10081608093C1008091C1
:10439000C30081608093C3008091C00082608093DD
:1043A000C0008091C20081608093C20080917A0039
:1043B000846080937A0080917A00826080937A0092
:1043C00080917A00816080937A0080917A00806881
:1043D00080937A0010929D041092A3071092A40774
:1043E0008091D70081608093D70080EA8093D800C5
:1043F00089B5806189BD89B5826089BD09B400FE37
:10440000FDCF61E070E080E090E00E94A50D80911A
:10441000D8008F7C80618093D8008091E000807FFD
:104420008093E0008091E1008E7E8093E1008DE03A
:104430008093E200559A209AEEEFFFE785919491E0
:104440008B3F9C4D19F481E08093A2071092FC06EB
:104450008CE38093FB061092B9008CE08093B80047
:104460001092F1061092F206EEE4F3E08591949139
:10447000A82EE0E5F3E0B490E1E5F3E0E491E09309
:10448000F306E2E5F3E0E491E093F406E3E5F3E01C
:10449000E491E093F5068C01802F8A198B1548F47E
:1044A000F80164918DEE96E00E94DD0A0F5F1F4FC8
:1044B000F3CF1092F7060091F4060695069506953F
:1044C00001504091F306415020E060E08DEE96E00F
:1044D0000E940E0B81E09091F706911101C080E0DF
:1044E0008093F70660E48DEE96E00E94DD0A83E695
:1044F00091E09093F9068093F80660ED77E080E014
:1045000090E00E94A50DE4E5F3E0E49180917B004A
:10451000E3FBCC24C0F8D12C75E0CC0CDD1C7A95E3
:10452000E1F78F7DC82AC0927B00E770E064E093DA
:104530007C0080917A00806480937A0080917A0078
:1045400086FDFCCF609178008091790070E0782B37
:10455000072E000C880B990B6115710581059105DB
:1045600011F00E944E2861E086E00E94690D61E032
:1045700087E00E94690D61E086E00E94390D61E0EC
:1045800087E00E94390D6AEF70E080E090E00E94C1
:10459000A50D60E086E00E94390D60E087E00E9492
:1045A000390D6AEF70E080E090E00E94A50D61E0B7
:1045B00086E00E94390D61E087E00E94390D6AEFC4
:1045C00070E080E090E00E94A50D60E086E00E942F
:1045D000390D60E087E00E94390D6AEF70E080E0FD
:1045E00090E00E94A50D65EF73E0CE018D589F4FBE
:1045F0000E94741D62E088E00E94690D62E089E01B
:104600000E94690D62E08AE00E94690D62E08BE021
:104610000E94690D88E00E94100D892B11F461E35E
:1046200001C060E3CE018D589F4F0E94231789E09F
:104630000E94100D892B11F461E301C060E3CE01EB
:104640008D589F4F0E9423178AE00E94100D892BDE
:1046500011F461E301C060E3CE018D589F4F0E94C9
:1046600023178BE00E94100D892B11F461E301C028
:1046700060E3CE018D589F4F0E942317E9960EAD3F
:104680001FADE9970C5F1F4FB801CE018D589F4FAA
:104690000E944D1D882391F0E5962EAD3FADE59724
:1046A000E9968EAD9FADE9976CEF73E0820F931F93
:1046B0000E94502BE9961FAF0EAFE9971092AF06FC
:1046C0001092AD061092AA061092A90684E080937B
:1046D000A8060E94DF0D8B0161E08091A8060E9470
:1046E000690D61E08091A8060E94390DDFB6F8944B
:1046F00080917504811127C0EEE9F3E08491EFE722
:10470000F3E09491E82FF0E0EE0FFF1FE05AFC4F2A
:10471000A591B491EC91E92321F461E081E10E943B
:10472000390D61E081E10E94690D8CB580618CBD1D
:104730008CB580648CBD61E08FE00E94690D61E002
:1047400080E10E94690D809175048F5F80937504EC
:10475000DFBE82E58093A2061092A3068091A20696
:104760009091A3060E9429185AE0D52E8FEF0E943F
:10477000EA17DA94D110FACF84EA96E00E942C1856
:1047800020E030E0A90160E084EA96E00E9442184F
:10479000D82E8093AE0621E0821749F00E94DF0DEB
:1047A000601B710B613D774058F381E056C02AEAE7
:1047B00031E040E050E068E084EA96E00E94421870
:1047C00082FF03C0D092AF0610C044E0D42E0E94F6
:1047D000F1178093AE06DA94D110F9CF8A3A11F02E
:1047E00082E03BC082E08093AF068091AF068230CA
:1047F00021F0812C912C540105C0812C912CA12CED
:1048000030E4B32E20E030E0A90167E384EA96E0CB
:104810000E944218A501940169E284EA96E00E9490
:1048200042188093AE06882349F00E94DF0D601B7A
:10483000710B613D774030F388E00FC08091AF0687
:10484000823001F520E030E0A9016AE384EA96E0D5
:104850000E944218882341F086E08093A90684EAEA
:1048600096E00E94DF1741C20E94F117807C803CD5
:1048700019F483E08093AF060E94F1170E94F117AC
:104880000E94F11784EA96E00E94DF1780E580938A
:10489000A2061092A30681E00E94CA15882329F07F
:1048A0008091D306882341F020C280E00E94CA157F
:1048B000882309F41AC2F4CF8091C706803109F524
:1048C00082E08093D3061092E5061092E6061092DD
:1048D000E7061092E8068091C8069091C906A0E00C
:1048E000B0E025E0880F991FAA1FBB1F2A95D1F7BA
:1048F0008093E1069093E206A093E306B093E4066A
:104900001FC0803209F0F1C183E08093D30640914B
:10491000CA065091CB066091CC067091CD064093AB
:10492000E5065093E6066093E7067093E80621EEED
:1049300036E080EB96E00E948310882309F4D5C10D
:1049400080EB96E09093EA068093E90681E08093FD
:10495000D2061092D4061092D5061092D606109266
:10496000D7061092D8061092D9061092DA06109245
:10497000DB061092DC061092DD061092DE06109225
:10498000DF061092E006E596AEACBFACE5974E01AF
:10499000EEE18E0E911C6EEC76E0C4010E94A3192C
:1049A0001C821B828DE491E09A8389831E823501EB
:1049B0008E010F5F1F4F240118016FE270E0C301E9
:1049C0000E94452B009709F441C0F30120812F324A
:1049D00021F4FFEF6F1A7F0AF0CF86198D3008F0AF
:1049E0008CE0C82ED12CA601B301CE01885A9F4F6E
:1049F0000E94572BE8E5F0E0EC0FFD1FEC0DFD1DCC
:104A00001082C8010E94C011F8018581882351F0ED
:104A10001EAE1DAE8DE491E09CAF8BAF21961FAE14
:104A200021971CC0AE01485A5F4FB201C8010E94D5
:104A3000E314882369F36C0C7D1CC2010E94C01131
:104A4000942D852D2801092F182FB7CF7301EA184F
:104A5000FB08B201CE01CB960E94A319EA0CFB1C05
:104A6000F7018081811109C0BE01655C7F4FC101E2
:104A70000E94A31941E054E03FC019A218A28DE49E
:104A800091E09F8F8E8F1BA221968FAD2197811170
:104A900016C06C961FAE1EAE6C9788EE93E0A0E039
:104AA000B0E0A0968CAF9DAFAEAFBFAFA097E3963E
:104AB0001FAE1EAEE397A5961FAEA59723C08250EA
:104AC000A701823040F46EEC76E0C4010E94E3144A
:104AD00081110DC0DECFBE01655C7F4FC4010E9415
:104AE000E3148823B1F2CE01CB960E94C011B40129
:104AF000C1010E94A319A701B101CE01885A9F4F9D
:104B00000E94F4196C968EAD9FAD6C979093100730
:104B100080930F07A0968CAD9DADAEADBFADA097B5
:104B20008093110790931207A0931307B093140773
:104B3000A4968CAD9DADAEADBFADA4978093150787
:104B400090931607A0931707B09318078DE0E8E538
:104B5000F0E0EC0FFD1F3C96A9E1B7E001900D924B
:104B60008A95E1F7E396EEADFFADE397F093270763
:104B7000E0932607309709F4B8C08581882309F4AB
:104B8000B4C08DE097E00E947E17209173043091AD
:104B90007404892B09F48EC000910B0710910C0747
:104BA000020F131F8DE097E00E94331BF8018083F2
:104BB0008091730490917404E0910B07F0910C07BD
:104BC000E80FF91F20812D3031F02A3071F0803844
:104BD00091055CF469C08DE097E00E943D1B0A9747
:104BE00021F48DE097E00E94331BE0912607F091BD
:104BF0002707309729F082849384A484B58404C065
:104C000088248A94982C540100E010E08DE097E00D
:104C10000E947E17892B91F0E0900907F0900A0717
:104C2000E00EF11E8DE097E00E94331BF7018083B8
:104C30000F5F1F4F0C30110549F703C007301105F6
:104C4000ACF08091090790910A07FC01ADEDB3E04B
:104C500031912D9132130AC023E0A33EB207C1F770
:104C600066E070E00E94D1088C0102C000E010E014
:104C7000E12CF12CE016F10634F40E949A098FEF32
:104C8000E81AF80AF7CF8091260790912707009736
:104C900021F0B501A4010E942A110E949A091092E4
:104CA0007404109273046DCF0196909374048093F2
:104CB000730467CF1216130634F40E949A091092F7
:104CC000740410927304809126079091270700972F
:104CD00061F00E94C01180912607909127070E94E1
:104CE000C8291092270710922607E5968EAD9FAD32
:104CF000E5970E94C82900E010E001151105E9F3CD
:104D00000E940000FACF10922B0710922A0788EE1B
:104D100093E0A0E0B0E080932C0790932D07A09340
:104D20002E07B0932F078BE391E090932907809390
:104D300028078FEF9FEF90933507809334071092E9
:104D4000A10680917E07811113C0109279071092FD
:104D5000780786EF93E090937B0780937A0786E34A
:104D600090E090937D0780937C0781E080937E079D
:104D70000E94690EFC01A385B485109729F488E789
:104D800097E0948783870BC08D919C911197009732
:104D900011F0DC01F9CF88E797E08D939C9325858E
:104DA000368580917C0790917D07820F931F9687AF
:104DB000858780E58093A2061092A3061092A9062B
:104DC0001092AA061092AD061092AF0682E090E013
:104DD000A0E0B0E08093B0069093B106A093B20635
:104DE000B093B3061092C7061092D1061092D00667
:104DF0008DE491E09093CF068093CE061092D30677
:104E0000109289071092880788EE93E0A0E0B0E046
:104E100080938A0790938B07A0938C07B0938D079C
:104E200089E591E090938707809386071092F006BA
:104E30001092EF0681E08093F6061092F906109228
:104E4000F8062BE631E03093EE062093ED06109243
:104E500000071092FF0629E731E03093FE06209309
:104E6000FD0690919807911112C01092930710922D
:104E700092072CE234E030939507209394072FE2B9
:104E800030E03093970720939607809398070E940D
:104E9000690EFC01A385B485109729F482E997E097
:104EA000948783870BC08D919C911197009711F087
:104EB000DC01F9CF82E997E08D939C9325853685B7
:104EC0008091960790919707820F931F9687858709
:104ED0001092100710920F0788EE93E0A0E0B0E068
:104EE0008093110790931207A0931307B0931407B0
:104EF00085E891E090930E0780930D0710922707A5
:104F0000109226071092190780E890E00E9433293A
:104F100090930C0780930B078CE090E00E9433295C
:104F200090930A078093090708958093A10640E0B3
:104F300060E080E00E94C6141092A10640E060E0AC
:104F400080E00C94C6149091A106892B891739F042
:104F50008093A10640E060E080E00C94C6140895C0
:104F60009091A10680958923891739F08093A10635
:104F700040E060E080E00C94C6140895CF92DF9288
:104F8000EF92FF920F931F93CF93DF931F92CDB7B2
:104F9000DEB7182F062FE42E862F880F8E5F998399
:104FA0000E941F1D83E00E941F1DF12EC12E9981BA
:104FB000D92E8C2D8F19801798F4F601E7FE02C0C8
:104FC000849101C080810E941F1D182F80E00E94E3
:104FD0001F1D8123FFEFCF1ADF0A8111EACF01C025
:104FE00081E00F90DF91CF911F910F91FF90EF9093
:104FF000DF90CF9008958F929F92AF92BF92CF9201
:10500000DF92EF92FF92CF93DF93EC016881798179
:105010008A819B81611571058105910521F464E206
:1050200079ED8BE597E02DE133EF41E050E00E9410
:10503000932849015A019B01AC01A7EAB1E40E94FF
:10504000B2286B017C01ACEEB4EFA50194010E9483
:10505000C028DC01CB018C0D9D1DAE1DBF1DB7FF0F
:1050600003C00197A109B04888839983AA83BB83B1
:10507000BC01CD019F77DF91CF91FF90EF90DF9042
:10508000CF90BF90AF909F908F9008950E94FB2784
:1050900008958FE191E00E94FB27089560931F011E
:1050A00070932001809321019093220108951F9312
:1050B000FC0199278827BC01E89411911032E9F38B
:1050C000193010F01E30C8F31B3251F01D3249F474
:1050D000689406C00E947E28610F711D811D911D7C
:1050E000119110531A30B0F33EF49095809570955D
:1050F00061957F4F8F4F9F4F1F910895592F482FD4
:10510000372F262F660F771F881F991F660F771F6F
:10511000881F991F620F731F841F951F660F771FCB
:10512000881F991F0895052E97FB1EF400940E9476
:10513000AA2857FD07D00E94FC2807FC03D04EF494
:105140000C94AA2850954095309521953F4F4F4F8C
:105150005F4F089590958095709561957F4F8F4F23
:105160009F4F08950E941E29A59F900DB49F900DFA
:10517000A49F800D911D11240895B7FF0C94B228AF
:105180000E94B228821B930B08952F923F924F9258
:105190005F926F927F928F929F92AF92BF92CF92C7
:1051A000DF92EF92FF920F931F93CF93DF93CDB7D0
:1051B000DEB7CA1BDB0B0FB6F894DEBF0FBECDBF48
:1051C00009942A88398848885F846E847D848C8419
:1051D0009B84AA84B984C884DF80EE80FD800C8122
:1051E0001B81AA81B981CE0FD11D0FB6F894DEBF05
:1051F0000FBECDBFED010895A1E21A2EAA1BBB1B65
:10520000FD010DC0AA1FBB1FEE1FFF1FA217B30792
:10521000E407F50720F0A21BB30BE40BF50B661FA8
:10522000771F881F991F1A9469F76095709580956C
:1052300090959B01AC01BD01CF010895A29FB001E3
:10524000B39FC001A39F700D811D1124911DB29FBA
:10525000700D811D1124911D0895EE0FFF1F059003
:10526000F491E02D0994CF93DF938230910510F4EF
:1052700082E090E0E091B807F091B90720E030E0DB
:10528000C0E0D0E0309711F14081518148175907B3
:10529000C0F04817590761F482819381209719F073
:1052A0009B838A832BC09093B9078093B80726C04D
:1052B0002115310519F04217530718F49A01BE0160
:1052C000DF01EF010280F381E02DDCCF21153105F4
:1052D00009F1281B390B2430310590F412968D9179
:1052E0009C9113976115710521F0FB0193838283D3
:1052F00004C09093B9078093B807FD01329644C06B
:10530000FD01E20FF31F81939193225031092D93F8
:105310003C933AC02091B6073091B707232B41F454
:1053200020912501309126013093B7072093B607CD
:1053300020912301309124012115310541F42DB72D
:105340003EB74091270150912801241B350BE09175
:10535000B607F091B707E217F307A0F42E1B3F0B37
:105360002817390778F0AC014E5F5F4F24173507D7
:1053700048F04E0F5F1F5093B7074093B6078193D5
:10538000919302C0E0E0F0E0CF01DF91CF9108956A
:105390000F931F93CF93DF93009709F48CC0FC0108
:1053A0003297138212820091B8071091B907011544
:1053B000110581F420813181820F931F2091B6075E
:1053C0003091B7072817390779F5F093B707E093BD
:1053D000B60771C0D80140E050E0AE17BF0750F4E7
:1053E00012962D913C911397AD012115310509F1CC
:1053F000D901F3CF9D01DA0133832283608171816A
:10540000860F971F8217930769F4EC012881398171
:10541000260F371F2E5F3F4F318320838A819B8168
:1054200093838283452B29F4F093B907E093B8075F
:1054300042C01396FC93EE931297ED014991599156
:105440009E01240F351FE217F30771F480819181CB
:10545000840F951F029611969C938E93828193815F
:1054600013969C938E931297E0E0F0E0D801129689
:105470008D919C911397009719F0F8018C01F6CF4C
:105480008D919C9198012E5F3F4F820F931F209129
:10549000B6073091B7072817390769F4309729F410
:1054A0001092B9071092B80702C0138212821093AB
:1054B000B7070093B607DF91CF911F910F91089521
:1054C000A0E0B0E0E6E6FAE20C94C928EC0100970F
:1054D00021F4CB010E943329B8C0FC01E60FF71F6D
:1054E0009C0122503109E217F30708F4ACC0D9013E
:1054F0000D911C91119706171707B0F00530110593
:1055000008F49FC0C80104978617970708F499C04C
:1055100002501109061B170B019311936D937C9395
:10552000CF010E94C8298DC05B01A01AB10A4C01AD
:10553000800E911EA091B807B091B90740E050E0ED
:10554000E12CF12C109709F44AC0A815B905D1F542
:105550006D907C901197630182E0C80ED11CCA1433
:10556000DB0480F1A3014A195B096A0182E0C80EDD
:10557000D11C1296BC9012971396AC91B5E0CB1645
:10558000D10440F0B282A38351834083D9016D934B
:105590007C930AC00E5F1F4FC301800F911FF9015A
:1055A00091838083EB2DFA2FE114F10431F0D701C0
:1055B0001396FC93EE93129744C0F093B907E093CF
:1055C000B8073FC08D919C9111974817590708F46F
:1055D000AC017D0112960D90BC91A02DB3CF8091AE
:1055E000B6079091B70788159905E1F44617570754
:1055F000C8F48091230190912401009741F48DB764
:105600009EB74091270150912801841B950BE81704
:10561000F907C8F4F093B707E093B607F90171836F
:1056200060830FC0CB010E9433297C01009759F0A1
:10563000A801BE010E943C2BCE010E94C829C701CF
:1056400004C0CE0102C080E090E0CDB7DEB7EEE04E
:105650000C94E52881E090E0F8940C94662BFB0113
:10566000DC0104C08D910190801921F4415050401B
:10567000C8F7881B990B0895FB01DC0102C001905B
:105680000D9241505040D8F70895FC018191861742
:1056900021F08823D9F7992708953197CF010895EC
:1056A000FB01DC0101900D920020E1F70895FB0160
:1056B000DC014150504048F001900D920020C9F7A4
:1056C00001C01D9241505040E0F70895F894FFCF7B
:1056D00064009CFF05000500FFFFFFFF00C1808103
:1056E000000000FFFFFFFF00E100000000000001DC
:1056F0000000000000BA07800000000000DF0BC8B7
:105700000C880C060C000000000000420B290C3F26
:105710000C580B630B440C620C000000005F141E5D
:10572000217803770300000000EF02DB027803CD4D
:1057300002D402D102CE02000000007F1B1E21789D
:105740000377031E030000000035041E2178037751
:1057500003000000009F17BD177803B5177E1733AD
:105760001B3D1B00000000860C1E2178037703867A
:105770000C860C860C00000000860C1E2178037736
:10578000034755490057494E444F575300414C5425
:1057900000414C545F4C45465400414C544C4546E6
:1057A0005400414C54524947485400434F4E5452C0
:1057B0004F4C0044454C45544500454E440045532C
:1057C000430045534341504500494E534552540010
:1057D0005041474555500050414745444F574E00B2
:1057E000544142004241434B5350414345005550C0
:1057F0004152524F5700444F574E4152524F57005B
:105800004C4546544152524F570052494748544123
:1058100052524F570046310046320046330046345C
:105820000046350046360046370046380046390007
:105830004631300046313100463132004E554D5F21
:1058400030004E554D5F31004E554D5F32004E5584
:105850004D5F33004E554D5F34004E554D5F350062
:105860004E554D5F36004E554D5F37004E554D5FDE
:1058700038004E554D5F39004E554D5F41535445EC
:10588000524958004E554D5F454E544552004E55B5
:105890004D5F4D696E7573004E554D5F50455249D1
:1058A0004F44004E554D5F504C555300434C4943B7
:1058B0004B5F4C454654004D4F555345434C49436F
:1058C0004B00434C49434B5F4D4944444C450050C9
:1058D000524553530050524553535F4C4546540074
:1058E00050524553535F4D4944444C450052454C3A
:1058F000454153450052454C454153455F4C454653
:10590000540052454C454153455F4D4944444C4534
:1059100000534849465400414C545F52494748544B
:10592000004354524C00434150534C4F434B0048AA
:105930004F4D45005052494E5453435245454E0039
:10594000434C49434B5F52494748540052414E44EF
:105950004F4D0044454641554C5444454C41590037
:1059600044454641554C545F44454C4159004445DB
:105970004641554C545F434841525F44454C415960
:1059800000535452494E47004D4F55534500534321
:10599000524F4C4C0052414E444F4D4D494E0052D7
:1059A000414E444F4D4D41580052454D00524550D7
:1059B0004541540044454641554C544348415244A6
:1059C000454C415900736372697074002E74787489
:0459D000002F0000A4
:1070000055C000006EC000006CC000006AC00000E7
:1070100068C0000066C0000064C0000062C00000DC
:1070200060C000005EC00000FCC400005AC0000048
:1070300058C0000056C0000054C0000052C00000FC
:1070400050C000005DC000004CC000004AC00000FD
:1070500048C0000046C0000044C0000042C000001C
:1070600040C000003EC000003CC000003AC000002C
:1070700038C0000036C0000034C0000032C000003C
:1070800030C000002EC000002CC000002AC000004C
:1070900028C0000026C0000024C0000022C000005C
:1070A00020C000001EC000001CC0000011241FBE34
:1070B000CFEFDAE0DEBFCDBF11E0A0E0B1E0E6E463
:1070C000FFE702C005900D92A43BB107D9F711E08C
:1070D000A4EBB1E001C01D92AD3CB107E1F74FD385
:1070E00030C78ECFF89410926F001092810081E02B
:1070F00085BF15BE47985D9A289A0C9400000895A4
:107100001F920F920FB60F9211242F938F939F937C
