:100000000C949A060C94C2060C94C2060C94C20678
:100010000C94C2060C94C2060C94C2060C94C20640
:100020000C94C2060C94C2060C9409240C94D4249B
:100030000C94C2060C94C2060C94C2060C94C20620
:100040000C94C2060C94C2060C94C2060C94C20610
:100050000C94C2060C94C2060C94C2060C9484093B
:100060000C94C2060C94C2060C94C2060C94C206F0
:100070000C94C2060C94C2060C94C2060C94C206E0
:100080000C94C2060C94C2060C94C2060C94C206D0
:100090000C9476210C94C2060C94C2060C94C206F1
:1000A0000C94C2060C94C2060C94C206AD08B008AB
:1000B0009F08A308A908D108D108D108B408B80836
:1000C000BC08C208C608D108CC0800000000250002
:1000D00028002B002E0031007C3C3E5E2B3D3F2F44
:1000E0005B5D3B2C2A225C0000030C0F30333C3F4D
:1000F000C0C3CCCFF0F3FCFF000000000000000004
:100100002A2B280000000000000000000000000072
:1001100000000000000000002C9EB4A0A1A2A434A6
:10012000A6A7A5AE362D3738271E1F20212223244F
:100130002526B333B62EB7B89F8485868788898AEB
:100140008B8C8D8E8F909192939495969798999A87
:100150009B9C9D2F3130A3AD350405060708090A85
:100160000B0C0D0E0F101112131415161718191A67
:100170001B1C1DAFB1B0B500000000000000000066
:1001800080E0F0FCFFFFFFFFFFFFFFFFFFFF070323
:1001900007FFFFFFFFFFFFFFFFFFFFFFFFFFFFFF67
:1001A000FF070307FFFFFFFFFFFFFFFFFFFFFCF855
:1001B000E0800000000000000000000000000000DF
:1001C000000000000000000000000000000000002F
:1001D000000000000000000000000000000000001F
:1001E000000000000000000000000000000000000F
:1001F000000000000000000000000000000000F807
:10020000FFFFFFFFFF0F0FFFFF010001FFFF0000D7
:1002100000FFFF010001FFFF0F0FFFFF010001FFC3
:10022000FF000000FFFF010001FFFF1F1FFFFFFF96
:10023000FFFFF800000000000080E0380878F000C0
:100240000000C0F818F88000C07018F8F80000002E
:10025000000000080888D8380000C0F0180808F826
:10026000F000001010F8F800000070D88888C878F6
:100270000000000000000000000000000000003F3F
:10028000FFFFFFFFFFFCFCFFFF800080FFFF00007F
:1002900000FFFF800080FFFFF0F0FFFF800080FF85
:1002A000FF000000FFFF800080FFFFF8F8FFFFFF66
:1002B000FFFF1F00000000000C07030202030F0CE9
:1002C00000080F01000007060300000F01000000F6
:1002D00000080C0E0D0808080000070F08080807A2
:1002E00003000000000F030000070F0808080F07B5
:1002F00000000000000000000000000000000000FE
:1003000001070F3FFFFFFFFFFFFFFFFFFFFFE0C001
:10031000E0FFFFFFFFFFFFFFFFFFFFFFFFFFFFFF0C
:10032000FFE0C0E0FFFFFFFFFFFFFFFFFFFF3F1FFA
:1003300007000000000000000000000000000000B6
:1003400000000000000000000000000000000000AD
:10035000000000000000000000000000000000009D
:10036000000000000000000000000000000000008D
:1003700000000000000000000000050720610000F0
:1003800000000000005F00000007000700147F1459
:100390007F14242A7F2A12231308646236495522C7
:1003A000500005030000001C2241000041221C00F7
:1003B000082A1C2A0808083E0808005030000008D7
:1003C00008080808006060000020100804023E5180
:1003D00049453E00427F4000426151494621414526
:1003E0004B311814127F1027454545393C4A49497D
:1003F0003001710905033649494936064949291E24
:100400000036360000005636000000081422411461
:10041000141414144122140800020151090632492F
:1004200079413E7E1111117E7F494949363E414155
:1004300041227F4141221C7F494949417F090901ED
:10044000013E414151327F0808087F00417F410051
:100450002040413F017F081422417F404040407FBF
:100460000204027F7F0408107F3E4141413E7F0924
:100470000909063E4151215E7F091929464649492D
:10048000493101017F01013F4040403F1F20402092
:100490001F7F2018207F631408146303047804036B
:1004A000615149454300007F414102040810204149
:1004B000417F00000402010204404040404000012E
:1004C00002040020545454787F484444383844444B
:1004D0004420384444487F3854545418087E090155
:1004E00002081454543C7F0804047800447D400002
:1004F0002040443D00007F10284400417F40007CA4
:10050000041804787C0804047838444444387C1483
:10051000141408081414187C7C0804040848545463
:100520005420043F4440203C4040207C1C2040207C
:100530001C3C4030403C44281028440C5050503C57
:100540004464544C44000836410000007F00000021
:100550004136080008082A1C08081C2A080800065A
:1005600009090600000507206000000000000000E7
:100570005F00000007000700147F147F14242A7F07
:100580002A122313086462364956205000080703D4
:1005900000001C2241000041221C002A1C7F1C2A52
:1005A00008083E08080080703000080808080800A5
:1005B0000060600020100804023E5149453E0042A0
:1005C0007F400072494949462141494D3318141270
:1005D0007F1027454545393C4A4949314121110998
:1005E000073649494936464949291E00001400008A
:1005F00000403400000008142241141414141400A4
:100600004122140802015909063E415D594E7C12EF
:1006100011127C7F494949363E414141227F414187
:10062000413E7F494949417F090909013E41415104
:10063000737F0808087F00417F41002040413F014F
:100640007F081422417F404040407F021C027F7F90
:100650000408107F3E4141413E7F090909063E41A1
:1006600051215E7F09192946264949493203017FF4
:1006700001033F4040403F1F2040201F3F40384083
:100680003F631408146303047804036159494D431C
:10069000007F4141410204081020004141417F0494
:1006A000020102044040404040000307080020547B
:1006B0005478407F284444383844444428384444DB
:1006C000287F385454541800087E090218A4A49CAA
:1006D000787F0804047800447D40002040403D00BD
:1006E0007F1028440000417F40007C047804787C1F
:1006F000080404783844444438FC18242418182486
:100700002418FC7C08040408485454542404043F6E
:1007100044243C4040207C1C2040201C3C40304075
:100720003C44281028444C9090907C4464544C44A1
:100730000008364100000077000000413608000242
:10074000010204023C2623263C080B00020202019F
:100750000009040000010202000005240010010548
:100760002401010104240206052406000107058175
:100770000310004009040100020A000000070502FE
:100780000240000007058302400000040309041230
:10079000010002EF0201404F1B049200010102031D
:1007A00001537061726B46756E00537061726B46D7
:1007B000756E2050726F204D6963726F00AED580E8
:1007C000A81FD300408D142002A1C8DA02817FD96E
:1007D000F1DB40A4A6AF00000000230026002900A2
:1007E0002C002F000000000200090F00000304018C
:1007F000000C0000000000000000000000000000ED
:100800000000000005072061000000000000005FFC
:1008100000000007000700147F147F14242A7F2A99
:100820001223130864623649552250000503000064
:10083000001C2241000041221C00082A1C2A080832
:10084000083E08080050300000080808080800604A
:1008500060000020100804023E5149453E00427FDE
:10086000400042615149462141454B311814127FE5
:100870001027454545393C4A49493001710905036E
:100880003649494936064949291E003636000000D6
:100890005636000000081422411414141414412286
:1008A0001408000201510906324979413E7E1111B6
:1008B000117E7F494949363E414141227F414122D3
:1008C0001C7F494949417F090901013E414151329B
:1008D0007F0808087F00417F41002040413F017FA1
:1008E000081422417F404040407F0204027F7F0481
:1008F00008107F3E4141413E7F090909063E4151B2
:10090000215E7F09192946464949493101017F0184
:10091000013F4040403F1F2040201F7F2018207F84
:1009200063140814630304780403615149454300C8
:10093000007F4141020408102041417F0000040271
:100940000102044040404040000102040020545491
:1009500054787F4844443838444444203844444818
:100960007F3854545418087E090102081454543C2A
:100970007F0804047800447D40002040443D00008E
:100980007F10284400417F40007C041804787C08D4
:1009900004047838444444387C14141408081414AB
:1009A000187C7C080404084854545420043F4440F4
:1009B000203C4040207C1C2040201C3C4030403CDF
:1009C00044281028440C5050503C4464544C44007B
:1009D0000836410000007F0000004136080008088A
:1009E0002A1C08081C2A08080006090906BD071960
:1009F000802000070605040100080A0B0C0D090001
:100A000000000000000000000000000000000000E6
:100A100000000000000000000000FCFC1C1C1C1C6E
:100A20001C1C1CE0E00000009C9C0000001C1C60E2
:100A3000606080806060301C0C0000E0E0E09C9C06
:100A40009C9C9C9C9C6060600000FCFCFC00000086
:100A500000000000000000000060609C9C9C9C9CCA
:100A60009C9C9C1C1C00000000000000000000007A
:100A70000000000000000000000000000000000076
:100A80000000000000000000000000000000000066
:100A9000000000000000000000003F3F0E0E0E0EA0
:100AA0000E0E0E01010000003F3F00000030300E2E
:100AB0000E0601010E0E0C303000000F0F0F313109
:100AC000313131313130303000000F0F0F303030E4
:100AD00030303030303000000030303131313131A1
:100AE0003131310E0E000000000000000000000057
:100AF00000000000000000000000000000000000F6
:100B000000000000000000000000000000000000E5
:100B100000000000000000000000000000000000D5
:100B2000000000000000000000F0FC0C04040C00B9
:100B3000E0780C00E07C0000C0FCFCC03018ECFC4D
:100B400060300884F6FE1E000008F8F0E0380CE47F
:100B5000FCF8008000000000000000000000000021
:100B60000000000000000000000000000000000085
:100B70000000000000000000000000000000000075
:100B80000000000000000000000000000000000065
:100B90000000000000000000000000000000000055
:100BA0000000000000000000000F0C00080402011B
:100BB000010300070F0804020707070000070701E9
:100BC0000000003F7F4060180603FFFF0000381F51
:100BD0000F03010000000000000000000000000002
:100BE0000000000000000000000000000000000005
:100BF00000000000000000000000000000000000F5
:100C0000000000000000002A2B2800000000000067
:100C10000000000000000000000000000000002CA8
:100C20009E9FA0A1A2A32DA5A6AF2F363837A4273B
:100C30001E1F20212223242526B7B664A7E4AD1F5A
:100C40008485868788898A8B8C8D8E8F90919293EC
:100C50009495969798999A9B9C9D253526B1B8B006
:100C60000405060708090A0B0C0D0E0F10111213CC
:100C70001415161718191A1B1C1D24B5273100004E
:100C8000000000240027002A002D00300004080284
:100C90000110408040102040804080080204018004
:100CA0004020100201108010204040200404040461
:100CB0000403040502020202040302020202060601
:100CC000060606060404020202040405010902A144
:100CD000010901A100850105091901290315002554
:100CE00001950375018102950175058103050109CF
:100CF00030093109381581257F750895038106C0B3
:100D0000C005010906A1018502050719E029E715BB
:100D100000250175019508810295017508810395EB
:100D2000067508150025650507190029658100C0AD
:100D3000872F9A2C11241FBECFEFDAE0DEBFCDBF84
:100D400014E0A0E0B1E0E8E6FAE602C005900D92FA
:100D5000A23BB107D9F728E0A2EBB4E001C01D9295
:100D6000A73BB207E1F716E0C9E9D6E004C0219736
:100D7000FE010E94E532C839D107C9F70E94E32C71
:100D80000C9427350C9400003FB7F8948091D4045C
:100D90009091D504A091D604B091D70426B5A89B14
:100DA00005C02F3F19F00196A11DB11D3FBFBA2FFD
:100DB000A92F982F8827820F911DA11DB11DBC015D
:100DC000CD0143E0660F771F881F991F4A95D1F721
:100DD000089580E0089580E00895DB01ED91FC9195
:100DE00011970280F381E02DBC01CD010994089593
:100DF000DB01ED91FC9111970084F185E02DBC01A0
:100E0000CD0109940F931F93CF93DF93EC0100E082
:100E100010E08E8590E0081719079CF4C801880F30
:100E2000991FEA85FB85E80FF91F80819181DC011C
:100E3000ED91FC910680F781E02D09950F5F1F4F22
:100E4000E8CFE885F9851582188A1F868E85882364
:100E500031F0EA85FB850190F081E02D02C0E0E0F1
:100E6000F0E0F987E88781E08583DF91CF911F91DA
:100E70000F910895FC018785808B9685992331F128
:100E8000882311F0815004C0662301F18FEF890F90
:100E9000878722859385A22FB92FA80FB11DA80F90
:100EA000B11D0D90BC91A02DB187A08781E0159652
:100EB0008C938089E22FF92FE80FF11DE80FF11DC7
:100EC0000190F081E02D158281E0089580E0089581
:100ED000CF93DF93FC018785808B26852223B1F198
:100EE000482F50E030E02150310942175307B1F04C
:100EF0008F5F878722859385A22FB92FA80FB11DF9
:100F0000A80FB11D0D90BC91A02DB187A08781E0E5
:100F100015968C938089E22FF92F0EC06623B1F0CD
:100F20001786A285B385CD91DC911197D187C087B3
:100F300081E08D838089FD01E80FF11DE80FF11D2F
:100F40000190F081E02D158281E001C080E0DF9109
:100F5000CF910895DC011696ED91FC91179730978B
:100F600009F0099580E090E008950E94AA0780E0CA
:100F700090E00895CF93DF93EC010E94AA07CE0181
:100F8000DF91CF910895DC01FB0112968C911297AD
:100F900090E02481358182179307D1F4918180817B
:100FA000813A31F481E0913091F0933089F411C0AD
:100FB000813271F49B3021F482811F968C9305C09D
:100FC0009A3031F4828150968C9381E0089508958F
:100FD00080E00895DC01FB0188E4808389E481835B
:100FE00084E482831D969C911D979F709F5B9383E1
:100FF0001D968D919C911E9724E0969587952A9534
:10100000E1F78F708F5B848385E00895FC01828116
:101010008F5BFB01808381E00895EF92FF920F9335
:101020001F93CF93DF93FB012081213851F523815A
:10103000223239F5DC0112962C9130E04481558141
:1010400042175307F1F4EC010B851C85E12CF12CC0
:101050000115110591F0F801448155816281738178
:1010600080E80E947B248F3FFFEF9F0769F0E80E26
:10107000F91ED8010D911C91EBCF81E08F87C7013C
:1010800005C080E090E002C08FEF9FEFDF91CF912D
:101090001F910F91FF90EF900895CF93DF93CDB7FD
:1010A000DEB769970FB6F894DEBF0FBECDBFFC0167
:1010B000DB018C918F5F8C93BE016F5F7F4F89E165
:1010C000DB011D928A95E9F729E0298384E08A8370
:1010D00091E09D8383E08E832A8721E22B879C8782
:1010E0009D879F8722E2288B27E02B8B25E02C8B86
:1010F0008E8B20E430E0388F2F8B998F82818B8309
:1011000095858685998B8A8B838180688D8B49E153
:1011100050E080E00E947B2469960FB6F894DEBF11
:101120000FBECDBFDF91CF91089590E0FC013197C4
:10113000EF30F105B0F5EA5AFF4F0C94E53280919B
:1011400080008F7703C0809180008F7D8093800026
:10115000089580918000877FF9CF84B58F7702C092
:1011600084B58F7D84BD0895809190008F7707C0EE
:10117000809190008F7D03C080919000877F809345
:10118000900008958091C0008F7703C08091C000C7
:101190008F7D8093C00008958091C200877F8093E7
:1011A000C20008951F93CF93DF93282F30E0F901F9
:1011B000EC51F84F8491F901E357F34FD491F901C1
:1011C000E455F34FC491CC23C9F0162F81110E942E
:1011D0009508EC2FF0E0EE0FFF1FE653FF4FA591AF
:1011E000B4918FB7F894111105C09C91ED2FE09543
:1011F000E92302C0EC91ED2BEC938FBFDF91CF91EF
:101200001F910895CF93DF9390E0FC01E357F34FD4
:101210002491FC01E455F34F8491882361F190E01F
:10122000880F991FFC01E158F34FC591D491FC013F
:10123000E653FF4FA591B491611109C09FB7F8948F
:101240008881209582238883EC912E230BC0623005
:1012500061F49FB7F8943881822F80958323888327
:10126000EC912E2B2C939FBF06C08FB7F894E8818A
:101270002E2B28838FBFDF91CF9108958F929F925D
:10128000AF92BF92CF92DF92EF92FF926B017C01FF
:101290000E94C4064B015C01C114D104E104F104B5
:1012A000F1F00E94C406DC01CB0188199909AA0952
:1012B000BB09883E9340A105B10570F321E0C21A35
:1012C000D108E108F10888EE880E83E0981EA11C81
:1012D000B11CC114D104E104F10419F7DDCFFF9072
:1012E000EF90DF90CF90BF90AF909F908F90089538
:1012F0002FB7F8946091D0047091D1048091D204FA
:101300009091D3042FBF08951F920F920FB60F92A2
:1013100011242F933F938F939F93AF93BF9380910B
:10132000D0049091D104A091D204B091D304309113
:10133000CF0426E0230F2D3720F40296A11DB11D06
:1013400005C029E8230F0396A11DB11D2093CF04EA
:101350008093D0049093D104A093D204B093D3048B
:101360008091D4049091D504A091D604B091D70473
:101370000196A11DB11D8093D4049093D504A09330
:10138000D604B093D704BF91AF919F918F913F91B5
:101390002F910F900FBE0F901F9018950F931F93D2
:1013A000CF93DF93EC018B018E8590E00196BC0119
:1013B000660F771F8A859B850E941834FC019B87E6
:1013C0008A87892B89F08E85E80FF11DE80FF11DC2
:1013D00011830083811105C01987088781E0F80116
:1013E00085838E858F5F8E87DF91CF911F910F91BF
:1013F0000895AF92BF92CF92DF92EF92FF920F9338
:101400001F93CF93DF931F92CDB7DEB77C01698323
:101410006A01590141E050E0BE016F5F7F4FFC015E
:1014200083810E9415278C0197FD0BC0F7018381F2
:10143000A501B60180640E94152797FD02C0800FA8
:10144000911F0F90DF91CF911F910F91FF90EF901F
:10145000DF90CF90BF90AF9008958091C704811125
:101460006BC081E08093BA048093BB0420EC34E02D
:101470003093BD042093BC041092BF041092BE04AC
:101480002FE231E03093B7042093B6041092C204E7
:101490001092C1041092C4041092C3048093C50436
:1014A0008093C60481EC8093C0040E947628FC01DE
:1014B00021818091BA0490E0820F911D089724F059
:1014C00081E08093C70438C0A281B381109729F4CA
:1014D00086EB94E0938382830EC018968D919C9145
:1014E0001997009711F0DC01F8CF86EB94E019967C
:1014F0009C938E93189780818093B8048181809308
:10150000B90490818091BB04890F808380E0909121
:10151000BA048917A8F6A091BC04B091BD04A80F25
:10152000B11D9C91A181B0E0A45FBE4F9C939181BD
:101530009F5F91838F5FEBCF86EB94E0089580915E
:10154000DE048823A9F140910801509109016091BE
:101550000A0170910B012BE635E080916B079091A9
:101560006C070E945D1B811102C080E008954091CC
:10157000B2045091B3046091B4047091B504411564
:1015800051056105710591F02BE635E080916B07FF
:1015900090916C070E945D1B882339F31092B2046E
:1015A0001092B3041092B4041092B5041092DE04A9
:1015B00081E008958F929F92AF92BF92EF92FF9237
:1015C0000F931F93CF934B015C01C42F80910801AF
:1015D00090910901A0910A01B0910B01881599051C
:1015E000AA05BB0501F10E949F0A811102C080E09B
:1015F00020C08BE6E82E85E0F82E00E012E020E027
:1016000030E0B501A40180916B0790916C070E94B6
:10161000C91A882361F38092080190920901A0926F
:101620000A01B0920B018091DE04C82BC093DE0446
:1016300081E0CF911F910F91FF90EF90BF90AF90FD
:101640009F908F9008954F925F926F927F928F92AA
:101650009F92AF92BF92CF92DF92EF92FF920F9341
:101660001F93CF93DF93EC016A017B0128013901BD
:10167000423051056105710510F480E073C0898521
:101680009A85AB85BC850196A11DB11D8417950770
:10169000A607B70790F38B889C88AD88BE888F8992
:1016A000803129F4BB27AF2D9E2D8D2D09C0DB0184
:1016B000CA0147E0B695A795979587954A95D1F7C2
:1016C000880E991EAA1EBB1E8091080190910901E7
:1016D000A0910A01B0910B0188169906AA06BB06D3
:1016E00079F48F898031A1F4DD24EE24FF24C60132
:1016F000880F991FFC01E559FA4F5182408219C0A9
:1017000040E0C501B4010E94DA0A8111EACFB5CFE9
:10171000E894C7F8DD24EE24FF24C601880F991F42
:10172000880F991FFC01E559FA4F4082518262826D
:1017300073828091DE0481608093DE048A89823026
:1017400080F08D819E81AF81B885880E991EAA1E7A
:10175000BB1E8092B2049092B304A092B404B092E3
:10176000B50481E0DF91CF911F910F91FF90EF9031
:10177000DF90CF90BF90AF909F908F907F906F90B1
:101780005F904F9008958F929F92AF92BF92CF92A9
:10179000DF92EF92FF920F931F93CF93DF93FC01A1
:1017A00081859285A385B4850196A11DB11D8417FD
:1017B0009507A607B70710F480E05CC08389948979
:1017C000A589B689C789C03129F4852E962EA72E02
:1017D000BB2409C04A015B01C7E0B694A794979463
:1017E0008794CA95D1F7E9016A017B018F01BC0199
:1017F000CD01680D791D8A1D9B1D80900801909078
:101800000901A0900A01B0900B01681579058A05BD
:101810009B0599F4F80187898031A9F4B701A601E5
:10182000552766277727440F551FFA01E559FA4FC8
:1018300080819181A0E0B0E018C040E00E94DA0A07
:101840008111E8CFB9CFB701A6014F775527662799
:101850007727440F551F440F551FFA01E559FA4FDA
:1018600080819181A281B381BF7088839983AA838B
:10187000BB8381E0DF91CF911F910F91FF90EF909B
:10188000DF90CF90BF90AF909F908F9008954F9230
:101890005F926F927F92AF92BF92CF92DF92EF9260
:1018A000FF920F931F93CF93DF9300D000D0CDB75B
:1018B000DEB78C0149835A836B837C835901C12C29
:1018C000D12C7601412C82E0582E612C712C49815B
:1018D0005A816B817C819E012F5F3F4FC8010E941E
:1018E000C30B882351F1D301C201F801058404C060
:1018F000880F991FAA1FBB1F0A94D2F7C80ED91EC2
:10190000EA1EFB1E49815A816B817C818789803167
:1019100029F088EF9FEFAFEFBFE004C088EF9FEFA3
:10192000A0E0B0E0481759076A077B0780F2F5018D
:10193000C082D182E282F38281E00F900F900F90FB
:101940000F90DF91CF911F910F91FF90EF90DF905B
:10195000CF90BF90AF907F906F905F904F90089521
:10196000CF93DF93EC018D818823A1F18C8187FFD8
:101970002DC06E857F858889998941E00E94DA0AA9
:10198000882341F1EA8980E2E89FF0011124DF0118
:10199000A559BA4F1097F1F08D81823050F44B89E0
:1019A0005C896D897E895C964D935D936D937C9384
:1019B0005F978F89988DA98DBA8DE559FA4F938FCE
:1019C000828FB58BA48B8C818F778C83DF91CF91A5
:1019D0000C949F0A80E0DF91CF9108958F929F929F
:1019E000AF92BF92CF92DF92EF92FF920F931F932D
:1019F000CF93DF93EC018D81811102C080E077C02D
:101A00000B891C892D893E8904171507260737077E
:101A1000A8F36A017B01823029F4CA86DB86EC8652
:101A2000FD860DC0C114D104E104F10451F41E82FD
:101A30001F82188619861A861B861C861D8681E0E1
:101A400056C08A849B84AC84BD84EB8DFC8D258537
:101A500030E0275F3F4FB501A401415051096109B2
:101A60007109022E04C076956795579547950A949B
:101A7000D2F7D701C6010197A109B10904C0B695F3
:101A8000A795979587952A95D2F784179507A60766
:101A9000B70720F089288A288B2849F44F89588D68
:101AA000698D7A8D4E835F836887798704C0841B34
:101AB000950BA60BB70B4C015D018E010A5F1F4F02
:101AC00081149104A104B10409F4A7CF4E815F8170
:101AD0006885798598018B8D9C8D0E94C30B91E060
:101AE000891A9108A108B1088111EACF87CFDF9147
:101AF000CF911F910F91FF90EF90DF90CF90BF900B
:101B0000AF909F908F900895CF93DF93EC010E9448
:101B1000B00C882311F01D8281E0DF91CF910895F0
:101B20003F924F925F926F927F928F929F92AF926D
:101B3000BF92CF92DF92EF92FF920F931F93CF93BA
:101B4000DF93CDB7DEB72C970FB6F894DEBF0FBE8C
:101B5000CDBF5C01DC015B968D909C905C971696E6
:101B6000CD90DD90ED90FC901997C114D104E10463
:101B7000F10439F0BFEFCB1ADB0AEB0AFB0A312C78
:101B800007C0F401C080D180E280F3803324339415
:101B9000F40181859285A385B4859C01AD012F5FF9
:101BA0003F4F4F4F5F4F29873A874B875C8726010E
:101BB00037011D821E821F821886F401818592855D
:101BC000A385B4852D813E814F815885281739071B
:101BD0004A075B0708F063C089859A85AB85BC8599
:101BE0008C159D05AE05BF0550F482E0C82ED12CA2
:101BF000E12CF12C92E0492E512C612C712C9E018C
:101C00002F5F3F4FB701A601C4010E94C30B882379
:101C100009F445C089819A81AB81BC81892B8A2BCB
:101C20008B2B41F0260137019FEF491A590A690AA7
:101C3000790A05C0C414D504E604F70491F02D8197
:101C40003E814F8158852F5F3F4F4F4F5F4F2D8310
:101C50003E834F8358873FEFC31AD30AE30AF30A40
:101C6000ACCF0FEF1FEF2FEF3FE0B301A201C40194
:101C70000E94230B882399F0D50116964D915D9112
:101C80006D917C911997411551056105710549F0D8
:101C900093018201C4010E94230B811102C080E0E4
:101CA0002AC0D50116964D925D926D927C9219973D
:101CB000332051F0D301C2010196A11DB11DF401E1
:101CC00080839183A283B383F5018789908DA18D51
:101CD000B28D892B8A2B8B2B69F4D50157964D92A7
:101CE0005D926D927C925A9714968C9114978068AD
:101CF00014968C9381E02C960FB6F894DEBF0FBE3D
:101D0000CDBFDF91CF911F910F91FF90EF90DF90AA
:101D1000CF90BF90AF909F908F907F906F905F908B
:101D20004F903F9008952F923F924F925F926F9203
:101D30007F928F929F92AF92BF92CF92DF92EF925B
:101D4000FF920F931F93CF93DF9300D000D0CDB7B6
:101D5000DEB78C015B011A01DC0115968C91159799
:101D60008130C9F414968C9181FF15C082FF1BC08D
:101D7000F801438954896589768982859385A4858C
:101D8000B58584179507A607B70769F0C8010E94B3
:101D9000EE0C811108C081E090E0F801938382830A
:101DA00080E090E039C1610183C0D8015B968D91DC
:101DB0009C915C97FC01248121502A013B0139E070
:101DC00076946794579447943A95D1F7722E74207D
:101DD0007A01F1E0FF22772009F476C080E092E0FA
:101DE0008E199F0946018C159D0508F44C01D801F8
:101DF0005B962D913C915C9716968D919D910D90DF
:101E0000BC91A02D0297A109B109F901058404C074
:101E1000880F991FAA1FBB1F0A94D2F746855785C2
:101E200060897189840F951FA61FB71F9C01AD01A2
:101E3000270D311D411D511D29013A01811432E048
:101E4000930609F088C08091080190910901A09142
:101E50000A01B0910B0184159505A605B70559F443
:101E60008FEF9FEFDC018093080190930901A0930D
:101E70000A01B0930B019501B301A20180916B0798
:101E800090916C070E945D1B882309F484CF9EEF1C
:101E9000B91AC818D908F80182859385A485B58533
:101EA000880D991DA11DB11D82879387A487B587D1
:101EB000D8011A964D915D916D917C911D97C11439
:101EC000D10409F072CF87C0E114F10409F086CF84
:101ED00016964D915D916D917C9119974115510523
:101EE0006105710559F457968D919D910D90BC91A6
:101EF000A02D0097A105B10541F521C09E012F5FDE
:101F00003F4F0E94C30B882309F44BCF89819A81EC
:101F1000AB81BC81F801238D348DF90127892031F3
:101F200029F048EF5FEF6FEF7FE004C048EF5FEF0D
:101F300060E070E084179507A607B70730F0C80186
:101F40000E94900D81114ACF26CFF8018683978396
:101F5000A087B18743CFE114F10429F5D8011A967F
:101F60004D915D916D917C911D9753968D919D91B1
:101F70000D90BC91A02D481759076A077B0798F070
:101F80000E949F0A882309F406CF409208015092CC
:101F9000090160920A0170920B018091DE04816058
:101FA0008093DE0408C041E0C301B2010E94DA0A56
:101FB000882309F4F0CED501F701E559FA4FCF0196
:101FC000880D991DE817F90719F02D912193FACF83
:101FD000A80CB91C5ECF53968D919D910D90BC912C
:101FE000A02D84179507A607B70740F4F801438B87
:101FF000548B658B768B848180688483D80114969A
:102000008C9183FD02C0C10107C0C8010E94B00CC1
:10201000882309F4C0CEF7CF0F900F900F900F9048
:10202000DF91CF911F910F91FF90EF90DF90CF90B4
:10203000BF90AF909F908F907F906F905F904F90E8
:102040003F902F900895CF93DF931F92CDB7DEB7C7
:10205000698341E050E0BE016F5F7F4F0E94930EA5
:102060000F90DF91CF910895FC016093BC008091A7
:10207000BC0087FFFCCF9091B900987F90830895B2
:10208000CF92DF92EF92FF920F931F93CF93DF9344
:10209000EC01C62ED42E8F85882351F0411108C043
:1020A00084E98093BC008091BC0084FDFCCF1F8636
:1020B000EF848E01035F1F4FE11014C0FE8464EAB9
:1020C000C8010E9434108D85883011F1803101F1F2
:1020D000DD2011F080E4E82EE092BB0064E8C80146
:1020E0000E943410C092BB0064E8C8010E94341002
:1020F00082E0D81204C08F858F5F8F8711C084E97A
:102100008093BC008091BC0084FDFCCF1F8608C07A
:10211000FF0CF092BB0064E8C8010E943410D8CFD5
:10212000DF91CF911F910F91FF90EF90DF90CF90B3
:102130000895089580E090E00895CF93DF93EB0138
:102140000E942D0A28E030E0AE0162E0DF91CF91DD
:102150000C94F909FC01E60FF71FDA01CD01841B8D
:10216000950B8217930734F491918D919817B1F3E1
:1021700080E0089581E00895AF92BF92CF92DF9200
:10218000EF92FF920F931F93CF93DF93CDB7DEB7FC
:1021900060970FB6F894DEBF0FBECDBF5C018B0118
:1021A0006B018FEFC81AD80A26E030E04BED51E002
:1021B000B601C5010E94AA10882391F12091000167
:1021C00030910101C901330FAA0BBB0B60910201D1
:1021D000709103016B01770FEE08FF08C816D9064E
:1021E000EA06FB06DCF49C01AD012C193D094E0901
:1021F0005F0969F02D873E874F87588B0E94993180
:102200002D853E854F8558890E944B3203C060E082
:1022100070E0CB01C60ED71EE81EF91E760144C041
:102220000A5F1F4F7601B501CE0101960E94F4238B
:102230000C151D0510F47801860169E474E0CE01E7
:1022400007960E94F4238D819E81E816F906C0F45A
:102250008017910708F48C01E981FA81E00FF11FE2
:10226000D080108269817A816E0D7F1DCE01079624
:102270000E946A1989819A81FC01E00FF11FD082C6
:102280000F8118850115110521F0C8010E94C53183
:1022900003C060E070E0CB017B01C8010E94803385
:1022A00089819A810E948033C70160960FB6F894A5
:1022B000DEBF0FBECDBFDF91CF911F910F91FF9079
:1022C000EF90DF90CF90BF90AF900895CF92DF92C4
:1022D000EF92FF920F931F93CF93DF9300D000D024
:1022E000CDB7DEB78091DA049091DB04E0916C0801
:1022F000F0916D0800E010E00817190734F42191FF
:10230000203229F00F5F1F4FF7CF0FEF1FEF62EE64
:1023100071E08DE697E00E94C52760916C0870918E
:102320006D088DE697E00E94B32788E098E00E9450
:10233000192068EE71E088E098E00E94B32788E0F9
:1023400098E00E94AF2760916C0870916D0888E05A
:1023500098E00E94C5276FE772E080916C08909129
:102360006D080E94EC3190936B0880936A080F3FD0
:102370008FEF180719F40E944B1645C06EEF71E0FD
:10238000C8010E94A717811169C06BE072E0C80103
:102390000E94A717811162C062E672E0C8010E9424
:1023A000A717811167C069E172E0C8010E94A717F1
:1023B000811160C080916C0890916D080530110505
:1023C00009F064C025E030E04DE652E060E070E0E6
:1023D0000E94AA10882309F4E4C06FE772E080E04D
:1023E00090E00E94EC3190936B0880936A080E9401
:1023F000A7319093D9048093D804BC01990F880B1E
:10240000990B0E943E091092620810926308109284
:10241000640810926508109266081092670810927E
:10242000600860E678E08CE598E00E949D1060917D
:10243000060170910701072E000C880B990B0E9472
:102440003E090F900F900F900F90DF91CF911F9149
:102450000F91FF90EF90DF90CF900895B801809199
:102460006C0890916D080E94BC10909307018093B6
:102470000601C9CFB80180916C0890916D080E9447
:10248000BC109093050180930401BDCF0630110567
:1024900009F087C026E030E04CE252E060E070E0F6
:1024A0000E94AA10882309F47CC087E0C82ED12C92
:1024B00002E618E00A5FEE24E394F12C8091DA043E
:1024C0009091DB04C816D9060CF09DCF2091DF0453
:1024D0003091E00480916C0890916D08FC01EC0D46
:1024E000FD1D1081232B09F444C0812F0E94812AF5
:1024F0006091040170910501072E000C880B990B67
:102500000E943E09183818F0E8E7E10F20C0E12FDB
:10251000F0E017FF0FC0E058F109C70101C0880FB4
:10252000EA95EAF780959091600889238093600886
:10253000E0E00DC0E150F44FE491EE2371F1E7FFCC
:1025400006C0809160088D7F80936008EF77A2E6D7
:10255000B8E0EE2321F08C918E1301C01C921196ED
:102560000A13F7CF60E678E08CE598E00E949D10B2
:1025700014C0612F8CE598E00E94E722609104016D
:1025800070910501072E000C880B990B0E943E09E3
:10259000612F8CE598E00E94A4228FEFC81AD80A18
:1025A0008DCF63E372E0C8010E94A717882379F1F9
:1025B0004091DA045091DB0498012F5F3F4F8091E6
:1025C0006C0890916D08241735074CF4FC01E20F5C
:1025D000F31F6081603241F02F5F3F4FF4CFEE2454
:1025E000EA94FF24FA9401C07901B8010E94BC105A
:1025F000182FB70180916C0890916D080E94BC1053
:102600009091180899831A838B831C8214C069E304
:1026100072E0C8010E94A7178823C1F0B801809119
:102620006C0890916D080E94BC10909118089983D5
:102630001A821B828C830E942D0A24E030E0AE01B6
:102640004F5F5F4F61E00E94F909DDCE60E472E008
:10265000C8010E94A717882361F0B80180916C0817
:1026600090916D080E94BC10909303018093020129
:10267000CACE6AE472E0C8010E94A717882361F0FD
:10268000B80180916C0890916D080E94BC109093E5
:10269000010180930001B7CE64E572E0C8010E9499
:1026A000A7178111B0CE68E572E0C8010E94A71794
:1026B0008111A9CE80916A0890916B08892B09F449
:1026C000A2CE0E944B166FE572E080E090E00E947F
:1026D000EC3190936B0880936A08ECCF2F923F9275
:1026E0004F925F926F927F928F929F92AF92BF9222
:1026F000CF92DF92EF92FF920F931F93CF93DF93CE
:10270000CDB7DEB7C857D1090FB6F894DEBF0FBEFC
:10271000CDBF69E474E0CE018D589F4F0E94F42331
:1027200089E00E948A28892B11F461E301C060E3EB
:10273000CE018D589F4F0E940F198AE00E948A286F
:10274000892B11F461E301C060E3CE018D589F4FE6
:102750000E940F198DE00E948A28892B11F461E3F1
:1027600001C060E3CE018D589F4F0E940F1985E094
:102770000E948A28892B11F461E301C060E3CE0135
:102780008D589F4F0E940F19E9960EAD1FADE99726
:102790000C5F1F4FB801CE018D589F4F0E94CD2373
:1027A000882391F0E5962EAD3FADE597E9968EAD85
:1027B0009FADE99763E772E0820F931F0E94113586
:1027C000E9961FAF0EAFE99788E098E00E94AF2727
:1027D00060E087E00E94D20861E086E00E94D208B3
:1027E00068E772E088E098E00E94C527CE018D5826
:1027F0009F4F0E94C31880E090E00E94353290E025
:102800009093E0048093DF040E94B328E596CEAC59
:10281000DFACE5975E018EE1A80EB11C69EE77E0B2
:10282000C5010E94C81B1C821B828BE591E09A8324
:1028300089831E8236018E010F5F1F4F250118010B
:102840006FE270E0C3010E94FD34009709F441C0BB
:10285000F30120812F3221F4FFEF6F1A7F0AF0CFAE
:1028600086198D3008F08CE0E82EF12CA701B30119
:10287000CE01885A9F4F0E941835E8E5F0E0EC0F32
:10288000FD1FEE0DFF1D1082C8010E94840DF8018E
:102890008581882351F01EAE1DAE8BE591E09CAF83
:1028A0008BAF21961FAE21971CC0AE01485A5F4FD7
:1028B000B201C8010E94DC17882369F36E0C7F1CEB
:1028C000C2010E94840D942D852D2801092F182FF7
:1028D000B7CF43018C189D08B201CE01CB960E9460
:1028E000C81BC80CD91CF6018081811109C0BE012A
:1028F000655C7F4FC1010E94C81B41E852E03FC0A8
:1029000019A218A28BE591E09F8F8E8F1BA22196B2
:102910008FAD2197811116C06C961FAE1EAE6C97BD
:1029200088EE93E0A0E0B0E0A0968CAF9DAFAEAF94
:10293000BFAFA097E3961FAE1EAEE397A5961FAE5E
:10294000A59723C08250A601823040F469EE77E05B
:10295000C5010E94DC1781110DC0DECFBE01655C90
:102960007F4FC5010E94DC178823B1F2CE01CB96C0
:102970000E94840DB501C1010E94C81BA601B101CE
:10298000CE01885A9F4F0E94191C6C968EAD9FAD48
:102990006C979093710880937008A0968CAD9DAD54
:1029A000AEADBFADA0978093720890937308A093CB
:1029B0007408B0937508A4968CAD9DADAEADBFAD57
:1029C000A4978093760890937708A0937808B093A3
:1029D00079088DE0E8E5F0E0EC0FFD1F3C96AAE7F2
:1029E000B8E001900D928A95E1F7E3968EAD9FAD28
:1029F000E39790938808809387088EE698E00E947A
:102A00008B192091DA043091DB04892B09F49AC0E8
:102A100000916C0810916D08020F131F8EE698E06C
:102A20000E94581DF80180838091DA049091DB04A4
:102A3000E0916C08F0916D08E80FF91F20812D30AE
:102A400031F02A3071F0803891055CF475C08EE663
:102A500098E00E94621D0A9721F48EE698E00E9499
:102A6000581DE0918708F0918808309729F08284FA
:102A70009384A484B58404C088248A94982C540137
:102A800000E010E08EE698E00E948B19892B91F00F
:102A9000E0906808F0906908E00EF11E8EE698E07C
:102AA0000E94581DF70180830F5F1F4F0C301105E6
:102AB00049F703C007301105B4F000916808109180
:102AC000690826E030E048E552E060E070E0C801C7
:102AD0000E94AA10882339F066E070E0C8010E94C5
:102AE000BC108C0102C000E010E0E12CF12CE016DB
:102AF000F10634F40E946611FFEFEF1AFF0AF7CFD8
:102B00008091870890918808009721F0B501A40171
:102B10000E94EE0CE0916C08F0916D088091DA044F
:102B20009091DB04E80FF91F10820E946611109249
:102B3000DB041092DA0461CF01969093DB0480935A
:102B4000DA045BCF1216130674F480916C0890912E
:102B50006D08FC01E20FF31F10820E9466111092B3
:102B6000DB041092DA04809187089091880800971E
:102B700061F00E94840D80918708909188080E94DE
:102B80008033109288081092870861E087E00E94E5
:102B9000D20860E086E00E94D208E5968EAD9FAD37
:102BA000E5970E948033C858DF4F0FB6F894DEBF18
:102BB0000FBECDBFDF91CF911F910F91FF90EF908E
:102BC000DF90CF90BF90AF909F908F907F906F904D
:102BD0005F904F903F902F900895DC01ED91FC9114
:102BE0000084F185E02D40E00994CF93DF93EC0160
:102BF0006A8B8091080190910901A0910A01B0911E
:102C00000B018E879F87A88BB98B80E2689FF001AC
:102C10001124E559FA4F4489558960E070E0BA0102
:102C2000552744274F8B588F698F7A8F828D938DCC
:102C3000A0E0B0E0482B592B6A2B7B2B4F8B588F91
:102C4000698F7A8F8385887151F4848D958DA68DD7
:102C5000B78D8B8B9C8BAD8BBE8B81E00EC0803192
:102C600011F080E015C09E012D5E3F4F8B8D9C8D35
:102C70000E94470C8823A9F384E08D8381E08C8334
:102C80001E821F82188619861A861B861C861D8640
:102C9000DF91CF910895CF93DF9363E872E08DE6E3
:102CA00097E00E94C52760916A0870916B088DE6D5
:102CB00097E00E94B32768E872E08DE697E00E94F3
:102CC000C527A0916A08B0916B08FD010190002012
:102CD000E9F73197BF016A1B7B0B80E090E04AE087
:102CE0000E94DF2A6FE772E08DE697E00E94C52719
:102CF00060916A0870916B088DE892E00E94083537
:102D00000E94222B60916A0870916B0881E992E021
:102D10000E9408350E94222B8DE697E00E94AF2783
:102D2000C0916A08D0916B0861E972E0CE010E94FF
:102D30000835892B11F460EBE2C06DE872E0CE013A
:102D40000E940835892B11F463E8D9C067E972E065
:102D5000CE010E940835892B11F461E8D0C06DE9DD
:102D600072E0CE010E940835892B71F061EA72E0B1
:102D7000CE010E940835892B39F06AEA72E0CE0153
:102D80000E940835892B11F462E8B9C062EB72E049
:102D9000CE010E940835892B39F06CEB72E0CE0130
:102DA0000E940835892B11F466E8A9C065EC72E031
:102DB000CE010E940835892B39F06AEC72E0CE0111
:102DC0000E940835892B11F460E899C062ED72E029
:102DD000CE010E940835892B11F461EC90C06BED97
:102DE00072E0CE010E940835892B11F464ED87C092
:102DF00062EE72E0CE010E940835892B11F465ED78
:102E00007EC066EE72E0CE010E940835892B39F053
:102E10006AEE72E0CE010E940835892B11F461EB55
:102E20006EC061EF72E0CE010E940835892B11F46B
:102E300062ED65C066EF72E0CE010E940835892B15
:102E400011F461ED5CC06DEF72E0CE010E940835B7
:102E5000892B11F463ED53C064E073E0CE010E944E
:102E60000835892B11F466ED4AC065E173E0CE01A7
:102E70000E940835892B11F460E241C06DE073E0D7
:102E8000CE010E940835892B11F463EB38C061E153
:102E900073E0CE010E940835892B11F462EB2FC03C
:102EA00061E073E0CE010E940835892B39F06BE1B7
:102EB00073E0CE010E940835892B11F46AED1FC022
:102EC00068E073E0CE010E940835892B39F063E297
:102ED00073E0CE010E940835892B11F469ED0FC013
:102EE0006DEA72E0CE010E940835892B39F06DE25F
:102EF00073E0CE010E940835892B41F468ED8CE522
:102F000098E00E94E72281E090E002C080E090E03B
:102F10009093E2048093E104892BB1F48091DF0463
:102F20009091E004E0916A08F0916B08892B29F0F8
:102F30008081DF91CF910C94812A60818CE598E0AB
:102F4000DF91CF910C94E722DF91CF910895EF921A
:102F5000FF920F931F93CF93DF9300D000D000D048
:102F6000CDB7DEB77C018B01CE0101960E94F42320
:102F700080916C0890916D082D813E81E216F306D8
:102F800041F49701A80160E070E00E94AA10182F98
:102F900001C010E089819A810E948033812F26969A
:102FA0000FB6F894DEBF0FBECDBFDF91CF911F915A
:102FB0000F91FF90EF900895AF92BF92CF92DF9262
:102FC000EF92FF920F931F93CF93DF93CDB7DEB7AE
:102FD0002B970FB6F894DEBF0FBECDBF7C01CE019C
:102FE00001966C01FC0190E28BE08C0D91938E13A5
:102FF000FDCFDA0120E037E09D91992339F19E322F
:1030000019F0E8EDF0E00AC03A3009F4AAC028E06F
:103010003AE0F2CF3196891709F4A3C08491811167
:10302000F9CF321708F49DC08FED890F8E3508F067
:1030300098C081E0820FF601E20FF11D2FE9290F00
:103040002A3108F490529083282FD6CF898180327C
:1030500009F487C08B01FB01838D948DF701948F58
:10306000838FFB01168217821086118612861386C3
:1030700014861586A12CF80182859385A485B585D3
:10308000438954896589768984179507A607B70708
:1030900008F067C025E0B695A795979587952A957E
:1030A000D1F7F82FFF70BF2EF8018581823008F428
:1030B00058C0C8010E944E1C97FD53C0F80182857C
:1030C0009385A485B5854F96A11DB11D82879387F1
:1030D000A487B587F0E2BF9EC0011124BC016559E9
:1030E0007A4F61157105E9F1FB0120812223B9F1C5
:1030F000253EE1F04BE050E0C6010E94E734892B09
:1031000009F0B9CF6B2DC7012B960FB6F894DEBF2F
:103110000FBECDBFDF91CF911F910F91FF90EF9028
:10312000DF90CF90BF90AF900C94F515A11014C014
:10313000F701B28A409108015091090160910A019A
:1031400070910B0146875787608B718BFC01E559A5
:10315000FA4F8081882329F0AA24A3948CCFAA2037
:1031600039F380E02B960FB6F894DEBF0FBECDBFCB
:10317000DF91CF911F910F91FF90EF90DF90CF9053
:10318000BF90AF900895CF93DF93FC0144815581A8
:103190006081718188E098E00E94A223EC0188E0C0
:1031A00098E00E94AF278C0F9D1FDF91CF9108956B
:1031B000EAE4F8E08081918193838283DC01ED91E0
:1031C000FC910680F781E02D0994FC018091DD04DB
:1031D000811103C08FEF9FEF08959FB7F89482E0AD
:1031E0008093E9002091F20030E01216130614F4E7
:1031F00021E030E02115310559F0289884E68093CC
:10320000DC048091F10080838091F200882319F022
:103210009FBFC90108958BE68093E800F9CFEF9234
:10322000FF920F931F93CF93DF9300D0CDB7DEB7FC
:103230008C0169831A82FC01E480F580FFEFEF1AAC
:10324000FF0AB7010E94CD23882381F0F801208175
:10325000318184819581BE016F5F7F4F820F931F03
:103260000E941135F801F582E48281E00F900F9001
:10327000DF91CF911F910F91FF90EF900895EF9202
:10328000FF920F931F93CF93DF93EC017B018A0191
:10329000BA010E94CD232881398181110DC02115E9
:1032A000310519F0C9010E948033198218821D82EC
:1032B0001C821B821A8206C01D830C83B701C901C0
:1032C0000E941135CE01DF91CF911F910F91FF9098
:1032D000EF900895CF93DF93EC016115710559F0DC
:1032E000FB0101900020E9F73197AF01461B570B16
:1032F0000E943F190CC088819981009711F00E94AB
:103300008033198218821D821C821B821A82CE0190
:10331000DF91CF910895DC015996ED91FC915A9778
:103320003097B9F083899489A589B68942855385F8
:1033300064857585841B950BA60BB70B811520E85A
:103340009207A105B10538F08FEF9FE7A0E0B0E04C
:10335000089580E090E00895CF93DF931F92CDB75A
:10336000DEB76983DC01ED91FC910280F381E02DF1
:1033700041E050E0BE016F5F7F4F09950F90DF91F4
:10338000CF910895FC01818D928D009711F00C94DE
:10339000B00C0895CF93DF93EC01898D9A8D00973F
:1033A00039F481E090E09B838A8380E090E00BC059
:1033B000FC01138212820E94930EE98DFA8D228104
:1033C0003381232B71F7DF91CF9108950F931F93D2
:1033D000CF938C01FC0164839085C62FC90F6C2F9D
:1033E0006F70C8010E94ED156C2F62956F7060615F
:1033F000C801CF911F910F910C94ED158FB7F894E0
:103400008091E4048FBF089561E0FC0184810E94F3
:10341000D2088091E30481111092E30408958EBDD7
:1034200000000DB407FEFDCF8EB508958FEF0C940C
:103430000F1A0F931F93CF93DF93EB010E9478092C
:103440008B010E94161A8F3F49F00E947809601B79
:10345000710B6C177D07A8F380E001C081E0DF915C
:10346000CF911F910F910895CF93DF93EC018E813F
:10347000882389F08F8198859C012F5F3F4F388783
:103480002F838230924018F40E94161AF3CFCE0197
:103490000E94041A1E82DF91CF9108958CBD9DBDBC
:1034A0000895CF93DF93EC018091E304811109C06B
:1034B00081E08093E3048091BD079091BE070E9454
:1034C0004E1A60E08C81DF91CF910C94D208CF929C
:1034D000DF92FF920F931F93CF93DF9300D000D022
:1034E000CDB7DEB76C01F62E29833A834B835C831C
:1034F0000E94341AC6010E94511A6CE271E0C601A2
:103500000E94191A8F2D80640E940F1A08E110E0A2
:103510005C814B813A812981DA01C901002E04C006
:10352000B695A795979587950A94D2F729833A83FC
:103530004B835C830E940F1A0850110929813A813C
:103540004B815C81083F8FEF180731F7FF2029F08E
:10355000E8E0FE1204C087E803C085E901C08FEFF0
:103560000E940F1A10E00E94161AF601828787FF48
:1035700004C01F3F11F01F5FF6CF0F900F900F9008
:103580000F90DF91CF911F910F91FF90DF90CF901F
:103590000895AF92BF92CF92DF92EF92FF920F9376
:1035A0001F93CF93DF93EC016901C801820F931F32
:1035B0008130924008F070C08E81882371F088813C
:1035C0009981AA81BB81481759076A077B0729F4AB
:1035D0008F819885C816D906B0F5488359836A83C8
:1035E0007B838B85833039F089E0440F551F661F3C
:1035F000771F8A95D1F79A01AB0161E1CE010E9454
:10360000671A882319F083E08D8346C00E947809E9
:103610005B010E94161A8A878F3F49F40E9478093D
:103620006A197B096D327140A0F38FE003C08E3FB1
:1036300031F08DE08D83CE010E94041A2DC01886D2
:103640001F8281E08E838F8198858C159D0540F4C3
:103650000E94161A8F819885019698878F83F3CFE1
:103660006701E00EF11ECE14DF0431F00E94161A3D
:10367000F60181936F01F7CF8F819885080F191F8D
:1036800018870F838985882319F00115124048F0A7
:10369000CE010E94341A05C0CE010E94041A80E0B7
:1036A00001C081E0DF91CF911F910F91FF90EF90CA
:1036B000DF90CF90BF90AF900895EF92FF920F935D
:1036C0001F93CF93DF93EC017901411551056105FB
:1036D000710511F482E13CC08B85833039F089E0BB
:1036E000440F551F661F771F8A95D1F79A01AB01CA
:1036F00068E1CE010E94671A882311F084E028C097
:103700008EEF0E940F1A87018EEFF81AF80181914F
:103710008F010E940F1A0E151F05C1F78FEF0E942F
:103720000F1A8FEF0E940F1A0E94161A8A878F7144
:10373000853031F081E18D83CE010E94041A09C0E9
:1037400068E572E0CE010E94191A811107C085E177
:103750008D83CE010E94041A80E013C020E030E087
:10376000A9016DE0CE010E94671A811104C00E9478
:10377000161A882311F084E1EBCFCE010E94041ABF
:1037800081E0DF91CF911F910F91FF90EF9008950D
:10379000FC01DB0112968D919C9113979383828398
:1037A0008BE591E09183808314968C9114978483A8
:1037B00015968C911597858316964D915D916D9117
:1037C0007C91199746835783608771871A964D912C
:1037D0005D916D917C911D974287538764877587B2
:1037E0001E964D915D916D917C91519746875787BB
:1037F000608B718B52968C915297828B53964D9120
:103800005D916D917C915697438B548B658B768B34
:1038100057964D915D916D917C915A97478B508F42
:10382000618F728F5B968D919C915C97948F838F43
:103830000895EF92FF920F931F93CF93DF93EC01C4
:103840007B018A011B821A8288EE93E0A0E0B0E03F
:103850008C839D83AE83BF838FEA91E099838883B5
:103860008DE190E00E94EB329A8F898F009779F07A
:103870002DE1F701DC0101900D922A95E1F74CE072
:1038800050E0B801CE010C960E941835188EDF91D9
:10389000CF911F910F91FF90EF9008952F923F923B
:1038A0004F925F926F927F928F929F92AF92BF9250
:1038B000CF92DF92EF92FF920F931F93CF93DF93FC
:1038C00000D0CDB7DEB7FC018581882309F4D9C0CB
:1038D000848180FFD6C021E02A8343895489658989
:1038E000768982859385A485B585481759076A0727
:1038F0007B0709F41A826F013A81832F90E0DE0181
:1039000011964D013F01B6E06B0E711C892B09F435
:103910007DC0D6011A964D915D916D917C911D9758
:103920005A01B1E0BB22F60125811A012B0189E081
:1039300056944794379427948A95D1F7838D948D24
:10394000223061F4FC01828D938DA48DB58DBC0174
:10395000CD01620D731D841D951D45C0DC011496BB
:103960001C9111501221A114B104D1F4111118C0ED
:10397000452B462B472B51F4F6018789908DA18D5D
:10398000B28D86839783A087B1870AC0468157810D
:103990006085718593010E94C30B882309F471C06F
:1039A000F601238D348D86819781A085B18502979C
:1039B000A109B109AC01BD01F901058404C0440F9E
:1039C000551F661F771F0A94D2F786859785A089B1
:1039D000B189840F951FA61FB71FBC01CD01610FD0
:1039E000711D811D911DD60114962C9126FF14C0C6
:1039F000009108011091090120910A0130910B01F9
:103A0000601771078207930751F506C0FA81FF23FB
:103A1000C1F1898190E037C040E00E94DA0A882332
:103A200081F1F501E559FA4FD401CF010196E8176C
:103A3000F90719F021912D93FACFEFEF8E1A9E0A14
:103A4000F60182859385A485B5850196A11DB11DDA
:103A500082879387A487B58780E090E057CF740171
:103A600001E010E09501AB01BC0180916B079091E2
:103A70006C070E94C91A882321F0BFEF8B1A9B0A9A
:103A8000DFCF8FEF9FEF0F900F90DF91CF911F91BE
:103A90000F91FF90EF90DF90CF90BF90AF909F90ED
:103AA0008F907F906F905F904F903F902F900895F0
:103AB000FC01818D928D009711F00C944E1C8FEFBC
:103AC0009FEF08950F931F93CF93DF93FC01818D98
:103AD000928D0097B9F0EF010E944E1C8C010F3FB0
:103AE0008FEF180791F0898D9A8DFC0142855385DF
:103AF0006485758541505109610971090E94EE0C78
:103B0000C80105C080E090E002C08FEF9FEFDF9119
:103B1000CF911F910F910895CF93DF93EC019C817A
:103B20008E81981758F4E881F9810084F185E02DA1
:103B300042E0CE0109958C818F5F8C83DF91CF911C
:103B400008950F931F93CF93DF931F92CDB7DEB7E6
:103B50008C01FC018681681728F4C80149830E9402
:103B6000E6194981F80187818695869586954817DB
:103B700058F44583642F606BC8010F90DF91CF919B
:103B80001F910F910C94ED150F90DF91CF911F9124
:103B90000F910895CF92DF92EF92FF920F931F93B0
:103BA000CF93DF93EC01F62EC42ED22E8F81869513
:103BB00086958695081710F00FEF080F1D2D011739
:103BC00080F0412F6F2DCE010E94A11DEF2CCE144D
:103BD00030F060E0CE010E948C1DE394F8CF1F5FAF
:103BE000EECF4D2D6F2DCE01DF91CF911F910F9113
:103BF000FF90EF90DF90CF900C94A11D2F923F92F9
:103C00004F925F926F927F928F929F92AF92BF92EC
:103C1000CF92DF92EF92FF920F931F93CF93DF9398
:103C2000CDB7DEB727970FB6F894DEBF0FBECDBF76
:103C3000DC011B960D911C911C970115110509F4CF
:103C400062C19F838E83F801B4913196449131967D
:103C500054903196A491EA2EF12CF7E0EF0EF11C6E
:103C600023E0F594E7942A95E1F7EB82F801349686
:103C700074913196E491671758F0862F90E02E2FBB
:103C800030E0F901E70FF11D8E179F070CF473C0A8
:103C90006D3069F4AE81BF8116968C91882309F44A
:103CA00067C060E08E819F810E94E61961C06A3022
:103CB00009F029C1EE81FF8181856581D62E8E9D17
:103CC000D00C11248781869586958695D81630F07C
:103CD0008285882319F082E08287D12C4D2D60E007
:103CE0008E819F810E94A11DAE81BF811A968C9109
:103CF0001A97823008F43CC015962C9115971B96A4
:103D0000ED91FC911C97309741F03396E491199610
:103D10000C91E09FE02D112401C0E0E08FEF820FB5
:103D20000E2F10E0095F1F4F93E0159507959A95A8
:103D3000E1F7080FEE81FF81468141506481CF0198
:103D40000E94CA1DAE81BF8119968C9119976D2D65
:103D50008E9D600D1124660F660F660F17968C916D
:103D6000861708F460E060648E819F810E94ED15E3
:103D700081E090E0CAC050E05B2BC8010696671B4B
:103D8000EE81FF81F185F9834230510588F4452B9E
:103D900009F019825E9C90015F9C300D1124629F96
:103DA0008001639F100D1124080F191F412C24C09E
:103DB000EA2FE77021F048E0442E4E1A01C0412C52
:103DC000A82FFC0140E050E07E2F7A1B761728F4E4
:103DD0007491470F511D3196F7CFFC01E60FF11D8D
:103DE00054904E9D80014F9D100D5E9D100D11242D
:103DF000020F131F080F191FAE81BF811496BC91CB
:103E0000BC83EE81FF813580652C712CCC24C3945A
:103E1000D12C812C912C7FEF7C0D7A838B817817AC
:103E200008F05FC0212CAE81BF8119968C912816B5
:103E300008F051C07A81711102C0222051F0AE8188
:103E4000BF8115964C9115974F5F6C81CD010E94F3
:103E5000A11DA12CB12CA51488F5F501E80DF91DC3
:103E6000E00FF11F2491442061F0CE14DF0449F4E7
:103E7000E22FF0E0042C02C0F595E7950A94E2F7F2
:103E80002E2FEE81FF818185823079F4E22F21107F
:103E9000E295EF70F0E0E851FF4F2491622F8E81A0
:103EA0009F812D830E948C1D2D81622F8E819F8189
:103EB0000E948C1DFFEFAF1ABF0ACDCFB12C7981C4
:103EC000B71639F060E08E819F810E948C1DB394FB
:103ED000F6CF2394A8CF860C971CBFEFCB1ADB0A32
:103EE0009ACFAE81BF8117968C911797869586954C
:103EF0008695381608F03CCF15963C921597632DA1
:103F0000606BCD0133CF80E090E027960FB6F89438
:103F1000DEBF0FBECDBFDF91CF911F910F91FF90FC
:103F2000EF90DF90CF90BF90AF909F908F907F9059
:103F30006F905F904F903F902F90089585ED809304
:103F4000BC008091BC0084FDFCCF10922E0508952A
:103F500040910805262F30E0240F311D2132310514
:103F6000DCF420912E052430C9F4FC0180E090E0BF
:103F7000861758F4309108052191DC01AA51BB4FF6
:103F8000A30FB11D2C930196F3CF80910805680F04
:103F90006093080580E0089581E0089582E0089527
:103FA00008958FEF9FEF08958FEF9FEF0895809111
:103FB000E50490E09195819591090895CF93DF9361
:103FC00000D0CDB7DEB7CB01642F49835A830E945E
:103FD000A81F4981842F5A81952F0F900F90DF9150
:103FE000CF910895CF93DF931F92CDB7DEB769834A
:103FF00061E0CE0101960E94A81F81E090E00F9041
:10400000DF91CF9108950895FB016281738188E06B
:1040100098E00C94C527FB016281738188E098E0E9
:104020000C94C527FB016281738188E098E00C94B1
:10403000C5270F93CF93DF93EC010F81069506956B
:10404000069501504E81415020E060E00E94CA1D5B
:1040500081E09A85911101C080E08A8760E4CE01F9
:10406000DF91CF910F910C94ED1588E098E00E94BC
:10407000192067E373E088E098E00E94B3270E946C
:104080006E1368EE73E080E090E00C943E0988E0E7
:1040900098E00E94192088E791E00E94292A60EDAB
:1040A00077E080E090E00E943E0988E098E00E947E
:1040B000192060ED77E080E090E00E943E090C94CA
:1040C000D818CF93DF9388E098E00E941920C8E0C9
:1040D000D8E083E695E09C878B876DE473E0CE01A2
:1040E0000E94B327CE010E94AF2763E673E0CE01A2
:1040F0000E94B32788E793E09C878B8761E080E08C
:1041000090E00E943D3280E090E00E94353290E0E5
:1041100090935D0580935C056CED75E080E090E028
:104120000E943E09DF91CF910C94D818CF93DF9372
:1041300088E098E00E941920C8E0D8E083E695E086
:104140009C878B876DE473E0CE010E94B327CE017C
:104150000E94AF2766E773E0CE010E94B32788E78D
:1041600093E09C878B8760E080E090E00E943D3286
:1041700080E090E00E94353290E090935D0580935E
:104180005C056CED75E080E090E00E943E09DF91F7
:10419000CF910C94D818CF93DF93EB016A817B8188
:1041A0008DE697E00E94B3278A819B810884D98598
:1041B000C02D8958934009F462C088E098E00E94BD
:1041C000192067E973E088E098E00E94B3278091A6
:1041D0005C0590915D05892B49F06DEA73E080E5FF
:1041E00098E00E946A1962EC73E008C067ED73E022
:1041F00080E598E00E946A196CEE73E086E598E02D
:104200000E946A198A819B818150944081F46DE0FB
:1042100074E088E098E00E94B32780E598E00E946F
:10422000C31869E174E088E098E00E94B3278A81AE
:104230009B818958934081F461E074E088E098E0C4
:104240000E94B32786E598E00E94C31869E174E0F4
:1042500088E098E00E94B3278A819B81895194402D
:1042600009F041C061E074E088E098E00E94B32763
:1042700080E598E00E94C31862E274E02EC088E0F6
:1042800098E00E9419206DE473E088E098E00E94B5
:10429000B32769E474E088E098E00E94B3278A813C
:1042A0009B818B52944061F462E374E088E098E073
:1042B0000E94B32769E374E088E098E00E94B32786
:1042C0008A819B818953944071F46BE274E088E0A9
:1042D00098E00E94B32760E474E088E098E0DF9102
:1042E000CF910C94B327DF91CF9108951F920F9235
:1042F0000FB60F9211242F933F934F935F936F93B9
:104300007F938F939F93AF93BF93EF93FF9380918E
:10431000B900887F803609F49CC068F5883209F4BA
:104320005BC090F4803109F454C038F4882309F458
:10433000F6C0883009F44DC0F6C0883109F44CC08D
:10434000803209F45DC0EFC0803409F468C048F4DD
:10435000803309F455C0883309F0E5C080932D05FA
:10436000D8C0803509F44FC0883509F45DC0883461
:1043700009F0D9C0D6C0883909F4C7C0A8F4883775
:1043800009F467C038F4883609F463C0803709F44B
:1043900060C0C9C0883809F4B8C0803909F45FC06A
:1043A000803809F0C0C05BC0803B09F486C038F497
:1043B000803A09F466C0883A09F47FC0B4C0803CF2
:1043C00009F4A7C0883C09F4A4C0883B09F48AC05A
:1043D000AAC08091530510C090915205809151055B
:1043E000981770F5E091520581E08E0F8093520589
:1043F000F0E0EF5CFA4F80818093BB0085EC86C0D3
:1044000080932D058EC0E091520581E08E0F809340
:1044100052058091BB00F0E0EF5CFA4F80839091F1
:104420005205809151056EC0E091520581E08E0FDA
:10443000809352058091BB00F0E0EF5CFA4F8083DF
:104440008091300581116DC081E080932F0584EA51
:1044500061C083E080932E0510922C05CFCF809110
:104460002C05803208F051C0E0912C0581E08E0FC0
:1044700080932C058091BB00F0E0E45FFA4F8083CD
:10448000BDCF85EC8093BC0010922E0580912C0549
:10449000803230F4E0912C05F0E0E45FFA4F1082B6
:1044A00060912C0570E0E0910A05F0910B058CE01D
:1044B00095E0099510922C0536C084E080932E0576
:1044C0001092090510920805E0910605F091070584
:1044D000099580910805811105C081E08093080548
:1044E0001092E604E091090581E08E0F80930905A2
:1044F000F0E0EA51FB4F80818093BB009091090569
:1045000080910805981708F479CF85E88093BC005E
:104510000AC085EC8093BC0010922E0504C0109256
:104520002D050E949E1FFF91EF91BF91AF919F912A
:104530008F917F916F915F914F913F912F910F904C
:104540000FBE0F901F901895DC01683810F0685866
:1045500025C0E62FF0E067FF12C0E058F10981E0C6
:1045600090E001C0880FEA95EAF7809514969C9137
:104570001497892314968C93149760E00FC0E85029
:10458000FF4F6491662301F167FF08C014968C9178
:1045900014978D7F14968C9314976F77FD01369640
:1045A00086E0662321F09081961301C0108281502D
:1045B00031968111F6CFCD01BD016C5F7F4F0E9416
:1045C0009D1081E090E0089580E090E00895DC0186
:1045D000683810F068582DC0E62FF0E067FF11C072
:1045E000E058F10981E090E001C0880FEA95EAF710
:1045F00014969C911497892B14968C93149760E0D1
:1046000018C0E850FF4F6491611109C081E090E04B
:1046100013969C938E93129780E090E0089567FF25
:1046200008C014968C911497826014968C931497FA
:104630006F7716968C911697861751F117968C9175
:104640001797861729F118968C911897861701F1FC
:1046500019968C9119978617D9F01A968C911A97FA
:104660008617B1F01B968C911B97861789F0FD0178
:10467000369680E090E02191211105C0FD01E80F00
:10468000F91F668305C0019686309105A1F7BECF5C
:10469000CD01BD016C5F7F4F0E949D1081E090E0D5
:1046A0000895EF92FF921F93CF93DF93EC01162FA3
:1046B0000E94E7227C01612FCE010E94A422C70143
:1046C0009927DF91CF911F91FF90EF90089540912E
:1046D000590550915A0520915705309158054217B8
:1046E0005307B4F49091E8009570E1F39091E800DD
:1046F00092FD19C08093F1008091590590915A055F
:1047000001968F739927892B19F48EEF8093E80017
:104710008091590590915A05019690935A0580937E
:10472000590581E0089580E00895615030F02091AE
:10473000F100FC0120830196F8CF289884E680934D
:10474000DC040895CF92DF92EF92FF920F931F93B4
:10475000CF93DF936C017A018B01C0E0D0E0CE15DE
:10476000DF0589F0D8016D918D01D601ED91FC91A5
:104770000190F081E02DC6010995892B11F47E018D
:1047800002C02196ECCFC701DF91CF911F910F910D
:10479000FF90EF90DF90CF9008950F931F93CF93EA
:1047A000DF93EC0188819981009729F02A813B8170
:1047B0002617370788F48B016F5F7F4F0E941834EC
:1047C000009761F0998388831B830A832C813D8144
:1047D000232B11F4FC01108281E001C080E0DF9105
:1047E000CF911F910F910895FC01118210821382C5
:1047F0001282158214826115710551F0FB0101903E
:104800000020E9F73197AF01461B570B0C943F1975
:1048100008951F920F920FB60F9211248F939F93BA
:104820008091E1009091E100937F9093E10083FFFC
:104830000FC01092E90091E09093EB001092EC0011
:1048400092E39093ED001092DD0498E09093F000D5
:1048500082FF20C093E09093E9009091F2009923A9
:1048600019F09AE39093E80090915B05992339F051
:1048700090915B05915090935B05992389F19091FC
:10488000DC04992339F09091DC0491509093DC047E
:10489000992341F184FF10C08091E2008E7E8160F7
:1048A0008093E2008091E1008F7E8093E10080910F
:1048B00056058E7E806111C080FF16C08091E20097
:1048C0008E7E80618093E2008091E1008E7E8093F5
:1048D000E100809156058E7E81608093560504C06C
:1048E0005D9ACDCF289AD6CF9F918F910F900FBE12
:1048F0000F901F901895DF92EF92FF920F931F93E6
:10490000CF93DF93D82E8A017B01E40EF51EEB01D5
:10491000CE15DF0571F0D7FE03C0FE01849101C002
:1049200088810E94672321968111F2CF8FEF9FEF3C
:1049300001C0C801DF91CF911F910F91FF90EF90BF
:10494000DF9008950F931F93CF93DF931F92CDB7FE
:10495000DEB782E0898342E450E069E477E080E8F2
:104960000E947B240E947628DC0112960D911C91F6
:1049700013970115110569F0D801ED91FC910280A2
:10498000F381E02DBE016F5F7F4FC801099597FF4E
:1049900007C089810F90DF91CF911F910F910895EA
:1049A000F80100851185E5CF1F920F920FB60F9287
:1049B0001124CF92DF92EF92FF920F931F932F93C8
:1049C0003F934F935F936F937F938F939F93AF9397
:1049D000BF93EF93FF93CF93DF93CDB7DEB76C9781
:1049E000DEBFCDBF1092E9008091E80083FFEDC1EA
:1049F00068E0CE0145960E94952382EF8093E800FF
:104A00008D8987FF05C09091E80090FFFCCF03C01F
:104A10009EEF9093E800982F907609F0C6C09E898B
:104A20002F89188D91110CC0803829F4809155057B
:104A30008093F10002C01092F1001092F10048C181
:104A4000422F50E0512B913051F4811141C141303E
:104A5000510509F03DC1809155058D7F0BC0933004
:104A600061F4811135C14130510509F031C18091A6
:104A700055058260809355052BC1953041F4809196
:104A8000E80080FFFCCF20682093E30021C196302E
:104A900009F05FC0EB8CFC8C1092E90010925A0573
:104AA00010925905123091F5109258051092570541
:104AB0000E94A22499E0BE016F5F7F4FDB01E92FC6
:104AC0001D92EA95E9F799831A8391E09E8390EA13
:104AD00098879AEF99872091590530915A05275F59
:104AE0003F4F3C832B838D831092E90010925A052F
:104AF00010925905F0925805E092570549E050E0B0
:104B000080E00E947B240E94A224E2C0F09258051B
:104B1000E09257050E947628DC011296ED90FC90F9
:104B20001397E114F10409F4C0C0D701ED91FC9191
:104B30000480F581E02DBE016B5E7F4FC7010995B2
:104B4000009719F00CF0C4C0C7C0F701E084F184ED
:104B5000E8CF973009F4C0C0983021F481E0809309
:104B6000F100B6C0993009F0B3C0837009F0B4C049
:104B7000EDE0F1E081E021E036E39081992361F0FE
:104B80008093E9002093EB0091919093EC00309397
:104B9000ED008F5F873089F78EE78093EA001092EF
:104BA000EA008F898093DD0493C08B8D9C8D1092D9
:104BB000E90010925A051092590590935805809378
:104BC0005705898D811156C08E899D89913A59F476
:104BD000813209F081C047E050E067E171E080E098
:104BE0000E947B2475C0913209F076C0833289F42B
:104BF000888D90E0982F88272F89822BA0E0B0E045
:104C00008093130190931401A0931501B0931601A2
:104C10005FC0803269F48091E80082FFFCCF67E0DA
:104C200087E191E00E9495238BEF8093E80006C016
:104C3000823209F04DC08F8980931E018091540506
:104C4000882319F0EEEFFAE002C0E0E0F8E080918E
:104C5000170190911801A0911901B0911A01803BA0
:104C60009440A105B10509F07BC080911E0180FF31
:104C700093C076C00E947628DC0112960D911C919B
:104C800013970115110541F1D801ED91FC910190A7
:104C9000F081E02DBE016B5E7F4FC8010995811147
:104CA00017C0F80100851185ECCF113009F44EC012
:104CB000133091F48F89882309F445C0823081F440
:104CC00040E862E18AEA97E00E94A62C882321F05E
:104CD0008EEF8093E80079C081E28093EB0075C08D
:104CE000813029F440E868E081EA97E0EDCF833035
:104CF00099F70E947628DC011296ED90FC901397AC
:104D00008E010F5F1F4F6801E114F10479F0D701A4
:104D1000ED91FC910680F781E02DB801C70109955E
:104D2000080F111DF701E084F184EECFD8011C9229
:104D3000F60101900020E9F73197BF016C197D0958
:104D400040E0C601C1CF6BE877E002C06FE877E0D2
:104D50006115710509F2FB01449150E080E840CFF4
:104D60000FB6F894A89580916000886180936000E8
:104D7000109260000FBEA895EE3F2AE0F20739F0CE
:104D80008091FE0A9091FF0A91838083A1CF1092B7
:104D9000FF0A1092FE0A9CCFEE3F8AE0F80731F03E
:104DA000808191819093FF0A8093FE0A87E797E7BD
:104DB000918380839BE088E10FB6F894A895809357
:104DC00060000FBE9093600083CF6C960FB6F8948E
:104DD000DEBF0FBECDBFDF91CF91FF91EF91BF91AD
:104DE000AF919F918F917F916F915F914F913F9183
:104DF0002F911F910F91FF90EF90DF90CF900F9028
:104E00000FBE0F901F9018952FB7F894877080935E
:104E1000E9009091E800892F807295FF04C090917D
:104E2000F20080E4891B2FBF08957F928F929F929A
:104E3000AF92BF92CF92DF92EF92FF920F931F93A8
:104E4000CF93DF93C82E8B017A018091DD0481110D
:104E500003C08FEF9FEF75C08091560580FF05C09E
:104E60008091E00082608093E000CE2DDF2DD12C78
:104E70008AEF882E8C2D8770B82E8C2D8072A82EEC
:104E80008C2D8074982E9AE3792E209709F452C0C5
:104E90008C2D0E940427282F81110AC08A94882013
:104EA000C1F261E070E080E090E00E943E09EDCF49
:104EB00090E0C817D9070CF42C2F3FB7F894B092A4
:104EC000E9008091E80085FF33C0822F90E0C81B85
:104ED000D90BAA2029F02150A8F01092F100FBCFA5
:104EE000F801C7FE07C0215058F044914093F100EB
:104EF0003196F9CF215020F041914093F100FACF43
:104F0000080F191FDD2019F07092E8000AC0809187
:104F1000E80085FD08C07092E800DD24D394209756
:104F200039F0D12C05C0209719F491107092E80047
:104F30003FBFABCFD110ACCF5D9884E680935B05CB
:104F4000C701DF91CF911F910F91FF90EF90DF90FC
:104F5000CF90BF90AF909F908F907F90089567E41F
:104F600074E00C9461280F931F93CF93DF93EC01AF
:104F70000E9461288C01CE010E94AF27800F911FF3
:104F8000DF91CF911F910F9108950C946128CF93D9
:104F9000DF931F92CDB7DEB76983DC01ED91FC9101
:104FA0000280F381E02D41E050E0BE016F5F7F4F52
:104FB00009950F90DF91CF91089583E08093E900E8
:104FC0008091F200882319F08AE38093E800089525
:104FD000FC018485958597FD0BC09FB7F89482E00E
:104FE0008093E9008091F2009FBF90E001960895C0
:104FF0009FB7F89482E08093E9008091F2009FBF10
:1050000090E00895CF93DF93EC0180911E018823F7
:1050100031F083E00E9415271816190634F081E05C
:1050200090E09B838A8380E090E0DF91CF910895A8
:1050300083E00E94042790E00895CF93DF931F92AE
:10504000CDB7DEB7FC018485958597FD05C02FEFB0
:105050003FEF358724870BC0CE0101960E94E518EB
:10506000019719F4898190E002C08FEF9FEF0F90B4
:10507000DF91CF9108950F931F93CF93DF931F92EA
:10508000CDB7DEB78C01FC018485958597FF0EC0F6
:10509000CE0101960E94E518019719F4298130E0AC
:1050A00002C02FEF3FEFF80135872487F801848590
:1050B00095850F90DF91CF911F910F9108950E94D8
:1050C000E2346115710579F0FB0101900020E9F7E8
:1050D0003197AF01461B570BDC01ED91FC9102802B
:1050E000F381E02D099480E090E0089580916205BD
:1050F00081110DC082E080935E0584E080935F059E
:10510000109261051092600581E0809362058EE542
:1051100095E00895CF93DF93282F30E0F901EC510B
:10512000F84F8491F901E357F34FD491F901E45515
:10513000F34FC491CC2391F081110E949508EC2F7C
:10514000F0E0EE0FFF1FEA52F84FA591B491EC91F9
:10515000ED2381E090E021F480E002C080E090E067
:10516000DF91CF9108958F929F92AF92BF92CF928D
:10517000DF92EF92FF92CF931092CA071092C80766
:105180001092C5071092C40784E08093C3070E9461
:1051900078096B017C0161E08091C3070E940209DC
:1051A00061E08091C3070E94D208CFB7F894809144
:1051B0006A05811127C0EDEBFCE08491EEE9FCE08B
:1051C0009491E82FF0E0EE0FFF1FE158F34FA59107
:1051D000B491EC91E92321F461E081E10E94D208CD
:1051E00061E081E10E9402098CB580618CBD8CB5C3
:1051F00080648CBD61E08FE00E94020961E080E183
:105200000E94020980916A058F5F80936A05CFBF73
:1052100082E58093BD0781E08093BE078091BD0742
:105220009091BE070E944E1ACAE08FEF0E940F1A9B
:10523000C150D9F78FEB97E00E94511A20E030E07F
:10524000A90160E08FEB97E00E94671AC82F809356
:10525000C907813049F00E9478096C197D09613DC8
:10526000774060F381E054C02AEA31E040E050E04A
:1052700068E08FEB97E00E94671A82FF03C0C0933B
:10528000CA070EC0C4E00E94161A8093C907C15015
:10529000D1F78A3A11F082E03BC082E08093CA07DE
:1052A0008091CA07823021F0812C912C540105C0D5
:1052B000812C912CA12C30E4B32E20E030E0A90108
:1052C00067E38FEB97E00E94671AA501940169E2FA
:1052D0008FEB97E00E94671A8093C907882349F0F3
:1052E0000E9478096C197D09613D774030F388E0B0
:1052F0000FC08091CA07823001F520E030E0A9019B
:105300006AE38FEB97E00E94671A882341F086E0FA
:105310008093C4078FEB97E00E94041A8FC00E940D
:10532000161A807C803C19F483E08093CA070E949F
:10533000161A0E94161A0E94161A8FEB97E00E9406
:10534000041A80E58093BD0781E08093BE070E9428
:105350006B2B882329F08091EE07882341F06EC0E3
:1053600080E00E946B2B882309F469C0F4CF809100
:10537000E207803109F582E08093EE071092000881
:105380001092010810920208109203088091E3071E
:105390009091E407A0E0B0E025E0880F991FAA1FD4
:1053A000BB1F2A95D1F78093FC079093FD07A0932C
:1053B000FE07B093FF071EC0803209F03FC083E0B4
:1053C0008093EE074091E5075091E6076091E7076B
:1053D0007091E80740930008509301086093020819
:1053E000709303082CEF37E08BEC97E00E94470C9A
:1053F000882321F18BEC97E09093050880930408B3
:1054000081E08093ED071092EF071092F007109261
:10541000F1071092F2071092F3071092F40710921E
:10542000F5071092F6071092F7071092F8071092FE
:10543000F9071092FA071092FB0701C080E0CF91A4
:10544000FF90EF90DF90CF90BF90AF909F908F90A4
:1054500008958F929F92AF92BF92CF92DF92EF9278
:10546000FF920F931F93CF93DF936C01E12CF12CEC
:1054700000E010E0AA24AA94BB24B394402F60E07B
:1054800088E098E00E94A11D45018E189F08C0E0A9
:10549000D0E0FE01EE0DFF1DEC0DFD1D649188E0D6
:1054A00098E00E948C1DC815D905F1F02196C038EE
:1054B000D10579F70F5F1F4F80E8E80EF11C04302B
:1054C0001105E1F644E060E088E098E0DF91CF91DB
:1054D0001F910F91FF90EF90DF90CF90BF90AF9012
:1054E0009F908F900C94A11DDF91CF911F910F91F0
:1054F000FF90EF90DF90CF90BF90AF909F908F90F4
:105500000895883810F0885829C0E82FF0E087FF08
:105510000FC0E058F10981E090E001C0880FEA95E2
:10552000EAF790916008892B8093600880E016C0AC
:10553000E150F44F8491811109C081E090E0909393
:105540005F0880935E0880E090E0089587FF06C0C2
:10555000909160089260909360088F7790916208B4
:10556000981721F190916308981701F190916408C0
:105570009817E1F0909165089817C1F0909166082E
:105580009817A1F090916708981781F020E030E01B
:10559000F901E45AF74F9681911102C0868306C043
:1055A0002F5F3F4F2630310599F7C7CF60E678E08F
:1055B0008CE598E00E949D1081E090E008958F9224
:1055C0009F92AF92BF920F931F93CF93DF93CDB76C
:1055D000DEB7A1970FB6F894DEBF0FBECDBF19A2FC
:1055E000423008F44AE08E010F5D1F4F842E912C4B
:1055F000A12CB12CA50194010E94B432E62FB9016F
:10560000CA0101501109EA3014F4E05D01C0E95CFF
:10561000D801EC93232B242B252B61F7B8018DE6C1
:1056200097E00E946128A1960FB6F894DEBF0FBEE6
:10563000CDBFDF91CF911F910F91BF90AF909F9001
:105640008F900895CF92DF92EF92FF92CF93DF93E6
:105650006C01990FEE08FF08F7FE1FC0E0916D077F
:10566000F0916E070190F081E02D6DE28DE697E0FC
:105670000995EC0166277727CB016C197D098E0906
:105680009F094AE00E94DF2A8C0F9D1FDF91CF9176
:10569000FF90EF90DF90CF9008954AE0C701B601E8
:1056A000DF91CF91FF90EF90DF90CF900C94DF2AA5
:1056B00060914C0870914D086115710559F0809109
:1056C0004E0890914F08DC01ED91FC910190F08122
:1056D000E02D099408958F929F92AF92BF92CF923E
:1056E000DF92EF92FF92CF93DF93C82F8FEB97E07B
:1056F00090936C0780936B07CC2369F1C53010F051
:1057000080E00DC140E060E070E0CB010E94DA0A69
:105710008823B1F320E1C29FC0011124855A9A4F1A
:10572000FC01E254FE4F20812F7751F73C964081D7
:10573000518162817381443651056105710500F321
:105740003497C080D180E280F380C114D104E10499
:10575000F10421F4D5CFC12CD12C760140E0C70152
:10576000B6010E94DA0A882359F280917605909159
:1057700077058115924021F6A0917B05AA2309F4B3
:10578000BFCF6091790570917A056115710509F4B3
:10579000B7CF20917805222309F4B2CFA093DD077B
:1057A0002093CF0780E030E0E1E0F0E0C82FAF01C8
:1057B000082E02C0440F551F0A94E2F7241735073C
:1057C00041F0982F8F5F983089F789E08093D80750
:1057D00097CF8093D80720918105309182052115BC
:1057E000310519F040E050E008C020918F0530915C
:1057F000900540919105509192052093D0073093E8
:10580000D1074093D2075093D30746015701860E24
:10581000971EA11CB11C8092DE079092DF07A09218
:10582000E007B092E107E0917C05F0917D05F093EF
:10583000E407E093E307B0E00E946A32860E971E09
:10584000A81EB91E8092E5079092E607A092E7078E
:10585000B092E80785E0EE0FFF1F8A95E1F7E1506F
:10586000FE4FEF2FFF27E6958E0E9F1EA11CB11C49
:105870008092D9079092DA07A092DB07B092DC07FA
:1058800020917E0530917F052115310521F0A90178
:1058900060E070E008C040918B0550918C056091EC
:1058A0008D0570918E05D701C60188199909AA093D
:1058B000BB09840F951FA61FB71F04C0B695A795F7
:1058C00097958795CA95D2F78093D4079093D5077B
:1058D000A093D607B093D707853F2FE09207A10585
:1058E000B10510F48CE018C0853F9F4FA105B105AC
:1058F00010F480E111C08091970590919805A091D6
:105900009905B0919A058093E5079093E607A093D7
:10591000E707B093E80780E28093E20781E0DF9138
:10592000CF91FF90EF90DF90CF90BF90AF909F907E
:105930008F90089580915008909151080E94803373
:1059400080915608909157080C948033CF92DF9243
:10595000EF92FF920F931F93CF93DF931F92CDB7D8
:10596000DEB7182F062FE42E862F880F8E5F9983BF
:105970000E94672383E00E946723F12EC12E998144
:10598000D92E8C2D8F19801798F4F601E7FE02C0EE
:10599000849101C080810E946723182F80E00E94BB
:1059A00067238123FFEFCF1ADF0A8111EACF01C0FD
:1059B00081E00F90DF91CF911F910F91FF90EF90B9
:1059C000DF90CF900895789484B5826084BD84B5CB
:1059D000816084BD85B5826085BD85B5816085BDEA
:1059E00080916E00816080936E00109281008091A2
:1059F000810082608093810080918100816080932A
:105A0000810080918000816080938000809191006E
:105A100082608093910080919100816080939100D9
:105A2000809190008160809390008091C10084609B
:105A30008093C1008091C10082608093C1008091F9
:105A4000C10081608093C1008091C3008160809318
:105A5000C3008091C00082608093C0008091C2002A
:105A600081608093C20080917A00846080937A0084
:105A700080917A00826080937A0080917A008E7F94
:105A800080937A0080917A00806880937A001092E7
:105A9000DD0410925505109256058091D700816063
:105AA0008093D70080EA8093D80089B58F7E89BD26
:105AB00089B5826089BD09B400FEFDCF61E070E068
:105AC00080E090E00E943E098091D8008F7C806148
:105AD0008093D8008091E000807F8093E0008091E7
