:100000000C9451060C9479060C9479060C9479069C
:100010000C9479060C9479060C9479060C94790664
:100020000C9479060C9479060C942A180C94F51803
:100030000C9479060C9479060C9479060C94790644
:100040000C9479060C9479060C9479060C94790634
:100050000C9479060C9479060C9479060C94681E1D
:100060000C9479060C9479060C9479060C94790614
:100070000C9479060C9479060C9479060C94790604
:100080000C9479060C9479060C9479060C947906F4
:100090000C94D8080C9479060C9479060C94790683
:1000A0000C9479060C9479060C947906B91BBC1B48
:1000B000AB1BAF1BB51BDD1BDD1BDD1BC01BC41B3E
:1000C000C81BCE1BD21BDD1BD81B0000000000008C
:1000D00000002A2B280000000000000000000000A3
:1000E000000000000000000000002C9E9FA0A1A2C4
:1000F000A32DA5A6AF2F363837A4271E1F202122F7
:1001000023242526B7B664A7E4AD1F848586878897
:10011000898A8B8C8D8E8F909192939495969798D7
:10012000999A9B9C9D253526B1B8B0040506070811
:10013000090A0B0C0D0E0F101112131415161718B7
:10014000191A1B1C1D24B5273100000000000000F7
:10015000000080E0F0FCFFFFFFFFFFFFFFFFFFFF5D
:10016000070307FFFFFFFFFFFFFFFFFFFFFFFFFF8B
:10017000FFFFFF070307FFFFFFFFFFFFFFFFFFFF7B
:10018000FCF8E0800000000000000000000000001B
:10019000000000000000000000000000000000005F
:1001A000000000000000000000000000000000004F
:1001B000000000000000000000000000000000003F
:1001C000000000000000000000000000000000002F
:1001D00000F8FFFFFFFFFF0F0FFFFF010001FFFF10
:1001E000000000FFFF010001FFFF0F0FFFFF0100F4
:1001F00001FFFF000000FFFF010001FFFF1F1FFFC5
:10020000FFFFFFFFF800000000000080E0380878E2
:10021000F0000000C0F818F88000C07018F8F8006E
:100220000000000000080888D8380000C0F0180856
:1002300008F8F000001010F8F800000070D8888866
:10024000C87800000000000000000000000000006E
:10025000003FFFFFFFFFFFFCFCFFFF800080FFFF70
:10026000000000FFFF800080FFFFF0F0FFFF800034
:1002700080FFFF000000FFFF800080FFFFF8F8FF15
:10028000FFFFFFFF1F00000000000C070302020336
:100290000F0C00080F01000007060300000F01000B
:1002A000000000080C0E0D0808080000070F0808E1
:1002B000080703000000000F030000070F080808EC
:1002C0000F07000000000000000000000000000018
:1002D000000001070F3FFFFFFFFFFFFFFFFFFFFFD2
:1002E000E0C0E0FFFFFFFFFFFFFFFFFFFFFFFFFF9B
:1002F000FFFFFFE0C0E0FFFFFFFFFFFFFFFFFFFF8B
:100300003F1F070000000000000000000000000088
:1003100000000000000000000000000000000000DD
:1003200000000000000000000000000000000000CD
:1003300000000000000000000000000000000000BD
:100340000000000000000000000000000507206120
:10035000000000000000005F00000007000700141C
:100360007F147F14242A7F2A1223130864623649DB
:100370005522500005030000001C224100004122CC
:100380001C00082A1C2A0808083E080800503000F3
:100390000008080808080060600000201008040237
:1003A0003E5149453E00427F40004261514946214D
:1003B00041454B311814127F1027454545393C4AB9
:1003C0004949300171090503364949493606494909
:1003D000291E0036360000005636000000081422A0
:1003E0004114141414144122140800020151090686
:1003F000324979413E7E1111117E7F494949363E8D
:10040000414141227F4141221C7F494949417F09A5
:100410000901013E414151327F0808087F00417FB8
:1004200041002040413F017F081422417F4040406D
:10043000407F0204027F7F0408107F3E4141413E1D
:100440007F090909063E4151215E7F091929464667
:100450004949493101017F01013F4040403F1F2090
:1004600040201F7F2018207F631408146303047842
:100470000403615149454300007F414102040810D3
:100480002041417F000004020102044040404040FE
:10049000000102040020545454787F484444383802
:1004A00044444420384444487F3854545418087E07
:1004B000090102081454543C7F0804047800447D68
:1004C00040002040443D00007F10284400417F4010
:1004D000007C041804787C080404783844444438C8
:1004E0007C14141408081414187C7C0804040848AC
:1004F00054545420043F4440203C4040207C1C2065
:1005000040201C3C4030403C44281028440C5050B3
:10051000503C4464544C44000836410000007F00C5
:1005200000004136080008082A1C08081C2A080890
:100530000006090906000005072060000000000011
:1005400000005F00000007000700147F147F1424E0
:100550002A7F2A1223130864623649562050000865
:10056000070300001C2241000041221C002A1C7FBE
:100570001C2A08083E080800807030000808080897
:1005800008000060600020100804023E5149453E0A
:1005900000427F400072494949462141494D331884
:1005A00014127F1027454545393C4A4949314121BC
:1005B0001109073649494936464949291E000014A0
:1005C00000000040340000000814224114141414E8
:1005D00014004122140802015909063E415D594E9A
:1005E0007C1211127C7F494949363E414141227FAC
:1005F0004141413E7F494949417F090909013E4145
:100600004151737F0808087F00417F41002040412D
:100610003F017F081422417F404040407F021C027E
:100620007F7F0408107F3E4141413E7F0909090652
:100630003E4151215E7F0919294626494949320325
:10064000017F01033F4040403F1F2040201F3F40AB
:1006500038403F6314081463030478040361594964
:100660004D43007F414141020408102000414141B7
:100670007F0402010204404040404000030708009C
:1006800020545478407F284444383844444428381F
:100690004444287F385454541800087E090218A492
:1006A000A49C787F0804047800447D4000204040EA
:1006B0003D007F1028440000417F40007C04780406
:1006C000787C080404783844444438FC18242418FE
:1006D00018242418FC7C08040408485454542404A6
:1006E000043F44243C4040207C1C2040201C3C40D3
:1006F00030403C44281028444C9090907C446454F2
:100700004C440008364100000077000000413608E4
:100710000002010204023C2623263C00030C0F3099
:10072000333C3FC0C3CCCFF0F3FCFF080B00020208
:10073000020100090400000102020000052400106B
:100740000105240101010424020605240600010715
:1007500005810310004009040100020A000000079F
:10076000050202400000070583024000000403095F
:100770000412010002EF0201404F1B04920001012C
:10078000020301537061726B46756E0053706172A3
:100790006B46756E2050726F204D6963726F000555
:1007A000010902A1010901A1008501050919012919
:1007B00003150025019503750181029501750581D9
:1007C0000305010930093109381581257F75089520
:1007D000038106C0C005010906A1018502050719AC
:1007E000E029E7150025017501950881029501753D
:1007F0000881039506750815002565050719002968
:10080000658100C0AED580A81FD300408D142002A2
:10081000A1C8DA02817FD9F1DB40A4A6AF000000B5
:1008200000240027002A002D0030000000000025D1
:100830000028002B002E00310000000000230026BD
:100840000029002C002F0004040404040304050202
:10085000020202040302020202060606060606045B
:100860000402020204040408020110408040102027
:100870004080408008020401804020100201108066
:1008800010204040200000000200090F0000030477
:1008900001000C000000000000000000000000004B
:1008A00000000000000507206100000000000000BB
:1008B0005F00000007000700147F147F14242A7FC4
:1008C0002A1223130864623649552250000503009A
:1008D00000001C2241000041221C00082A1C2A089A
:1008E00008083E0808005030000008080808080002
:1008F0006060000020100804023E5149453E00425D
:100900007F400042615149462141454B3118141244
:100910007F1027454545393C4A4949300171090551
:10092000033649494936064949291E003636000032
:100930000056360000000814224114141414144107
:10094000221408000201510906324979413E7E1104
:1009500011117E7F494949363E414141227F414143
:10096000221C7F494949417F090901013E4141510A
:10097000327F0808087F00417F41002040413F014D
:100980007F081422417F404040407F0204027F7F65
:100990000408107F3E4141413E7F090909063E415E
:1009A00051215E7F09192946464949493101017F94
:1009B00001013F4040403F1F2040201F7F20182062
:1009C0007F631408146303047804036151494543A9
:1009D00000007F4141020408102041417F000004D3
:1009E0000201020440404040400001020400205443
:1009F0005454787F4844443838444444203844446C
:100A0000487F3854545418087E090102081454547D
:100A10003C7F0804047800447D40002040443D00B1
:100A2000007F10284400417F40007C041804787C3B
:100A30000804047838444444387C14141408081416
:100A400014187C7C080404084854545420043F447F
:100A500040203C4040207C1C2040201C3C4030403A
:100A60003C44281028440C5050503C4464544C449E
:100A7000000836410000007F0000004136080008F1
:100A8000082A1C08081C2A08080006090906FFFF96
:100A9000BFFFFFFFFBFFFFFFBFFFFF7FFBFFFFF776
:100AA000BBFFFF7FBBFFFFF7BBFFFE7FBBFFEFD7A7
:100AB000BBFDFE7DBBDFEFD7BB7DFE7DBBD3EFD79C
:100AC000BB3D7E7CBBD3E7C7B3397E7C3B93E7C796
:100AD00093397C3C3993C78393397C383183C783FE
:100AE00011187C38118187830118783810018783A9
:100AF000011038300001830300101810000181013B
:100B00000010101000000101000010000000FFFFA5
:100B1000BFFFFFFFFBFFFFF7BFFFFFFFFBFFFF076D
:100B2000E1FD7D0DADEDCD1DFBF3E61F1BC1FDFD10
:100B300001FBFE7D3B83FDFD0D31CEE5F33BD9CDC1
:100B4000AD2D6C48A303F9FD9DC1E670399DEDC53F
:100B500003F9FC1C0193C78303F1FC3C0103C1FDB5
:100B6000FD047000F9FD1DFDF1803818E0FD3D81A8
:100B700001C0F07818098D0D0C0CF8F8F001810116
:100B80000010101000000101000000000000FFFF35
:100B9000BFFFFFFFFBFFFFFFBFFFFF7FFBBF017C2E
:100BA0007F67602F6B37B39C9FE7F06280BF3F7019
:100BB0006B2D6E35B89FCFD0BA409F3F30626F67C4
:100BC0002B350E1C603F3F83B1071F7C7103A7C00C
:100BD0009F3F3B60292327B19E1F673801787F1F05
:100BE0000018607F3F818480073F7C7C7F07808086
:100BF0000E3F3F3060212323301C1F0F0100810175
:100C00000010101000000101000010000000FFFFA4
:100C1000BFFFFFFFFBFFFFF7BFFFFFFFFBFFFFF77C
:100C2000BFFFFF7FBBFFEFF7BBFFFE7FBBFFEFD731
:100C3000BBFFFE7DBBDFEFD7BB3DFE7DBBD3EFD758
:100C4000BB3D7E7DBBD3E7C7B3397E7C3B93E7C713
:100C500093397C3C3993C78393397C383183C7837C
:100C600011187C381181878301187838100183832B
:100C700001103830000183030010181000018101B9
:100C80000010101000000101000000000000040826
:100C900019802000070605040100080A0B0C0D0945
:100CA000EF1E11241FBECFEFDAE0DEBFCDBF12E092
:100CB000A0E0B1E0EAEDFBE402C005900D92A4379C
:100CC000B107D9F726E0A4E7B2E001C01D92AD3527
:100CD000B207E1F716E0C1E5D6E004C02197FE01B6
:100CE0000E94E023C035D107C9F70E949F200C94D1
:100CF000EB250C940000DC015996ED91FC915A977C
:100D00003097B9F083899489A589B689428553853E
:100D100064857585841B950BA60BB70B811520E8A0
:100D20009207A105B10538F08FEF9FE7A0E0B0E092
:100D3000089580E090E00895CF93DF931F92CDB7A0
:100D4000DEB76983DC01ED91FC910280F381E02D37
:100D500041E050E0BE016F5F7F4F09950F90DF913A
:100D6000CF91089585ED8093BC008091BC0084FDF7
:100D7000FCCF1092BD02089540919702262F30E0DB
:100D8000240F311D21323105DCF42091BD022430C5
:100D9000C9F4FC0180E090E0861758F43091970286
:100DA0002191DC01AB58BD4FA30FB11D2C930196CF
:100DB000F3CF80919702680F6093970280E00895C7
:100DC00081E0089582E0089508958FEF9FEF0895E0
:100DD0008FEF9FEF08958091740290E09195819537
:100DE00091090895CF93DF9300D0CDB7DEB7CB0143
:100DF000642F49835A830E94BC064981842F5A81FB
:100E0000952F0F900F90DF91CF910895CF93DF939F
:100E10001F92CDB7DEB7698361E0CE0101960E94D3
:100E2000BC0681E090E00F90DF91CF910895089586
:100E3000FC016093BC008091BC0087FFFCCF9091C7
:100E4000B900987F90830895CF92DF92EF92FF923E
:100E50000F931F93CF93DF93EC01C62ED42E8F8573
:100E6000882351F0411108C084E98093BC0080912F
:100E7000BC0084FDFCCF1F86EF848E01035F1F4FF3
:100E8000E11014C0FE8464EAC8010E9418078D8531
:100E9000883011F1803101F1DD2011F080E4E82E7D
:100EA000E092BB0064E8C8010E941807C092BB0032
:100EB00064E8C8010E94180782E0D81204C08F8538
:100EC0008F5F8F8711C084E98093BC008091BC0044
:100ED00084FDFCCF1F8608C0FF0CF092BB0064E8C5
:100EE000C8010E941807D8CFDF91CF911F910F91B1
:100EF000FF90EF90DF90CF900895089580E090E00C
:100F00000895FC01818D928D009729F0FC012581C7
:100F100021110C946C140895CF93DF931F92CDB7D9
:100F2000DEB7FC01818D928D009751F0BE016F5F9D
:100F30007F4F0E940017019719F4898190E002C049
:100F40008FEF9FEF0F90DF91CF910895EF92FF9277
:100F50000F931F93CF93DF931F92CDB7DEB7FC01A2
:100F6000818D928D009701F17F01BE016F5F7F4FF0
:100F70000E940017019719F4098110E002C00FEFD9
:100F80001FEF0F3F8FEF180789F0F701818D928DCA
:100F9000FC0142855385648575854150510961097D
:100FA00071090E94D31202C000E010E0C8010F9046
:100FB000DF91CF911F910F91FF90EF900895CF9304
:100FC000DF93EC01898D9A8D009739F481E090E0F0
:100FD0009B838A8380E090E00BC0FC011382128225
:100FE0000E94A814E98DFA8D22813381232B71F799
:100FF000DF91CF91089565EB71E080E695E00E9466
:10100000051D6CED75E080E090E00C94721DFB0115
:101010006281738180E695E00C94051DFB0162817D
:10102000738180E695E00C94051DFB01628173815C
:1010300080E695E00C94051DEF92FF921F93CF93ED
:10104000DF93EC01162F683818F0E8E7E60F23C0AD
:10105000E62FF0E067FF0DC0E058F10981E090E075
:1010600001C0880FEA95EAF79C81892B8C83E0E028
:1010700012C0E653FF4FE491E11107C081E090E018
:101080009B838A83E12CF12C3FC0E7FF04C08C8155
:1010900082608C83EF778E818E1739F18F818E1766
:1010A00021F188858E1709F189858E17F1F08A85DF
:1010B0008E17D9F08B858E17C1F0DE01169680E071
:1010C00090E02D91211106C0DE01A80FB91F1696E0
:1010D000EC930BC001968630910599F781E090E082
:1010E0009B838A83E12CF12C0AC00E946010BE0110
:1010F0006C5F7F4F0E94CF16EE24E394F12C1838DA
:1011000018F0E8E7E10F1DC0E12FF0E017FF0EC077
:10111000E058F10921E030E001C0220FEA95EAF73A
:1011200020958C8128232C83E0E00BC0E653FF4FF1
:10113000E491EE23D1F0E7FF04C08C818D7F8C8396
:10114000EF77DE01169686E0EE2321F09C919E1348
:1011500001C01C92815011968111F6CF0E9460103F
:10116000BE016C5F7F4F0E94CF16C701DF91CF9108
:101170001F91FF90EF9008958EBD00000DB407FE03
:10118000FDCF8EB50895CF93DF93EC019C818E81C6
:10119000981758F4E881F9810084F185E02D42E048
:1011A000CE0109958C818F5F8C83DF91CF9108955B
:1011B0001F920F920FB60F9211242F933F934F93CC
:1011C0005F936F937F938F939F93AF93BF93EF93AF
:1011D000FF938091B900887F803609F49CC068F540
:1011E000883209F45BC090F4803109F454C038F4BB
:1011F000882309F4F6C0883009F44DC0F6C0883160
:1012000009F44CC0803209F45DC0EFC0803409F4A9
:1012100068C048F4803309F455C0883309F0E5C04C
:101220008093BC02D8C0803509F44FC0883509F4DA
:101230005DC0883409F0D9C0D6C0883909F4C7C068
:10124000A8F4883709F467C038F4883609F463C015
:10125000803709F460C0C9C0883809F4B8C0803943
:1012600009F45FC0803809F0C0C05BC0803B09F45E
:1012700086C038F4803A09F466C0883A09F47FC021
:10128000B4C0803C09F4A7C0883C09F4A4C0883BE2
:1012900009F48AC0AAC08091E20210C09091E102D4
:1012A0008091E002981770F5E091E10281E08E0FE5
:1012B0008093E102F0E0E054FD4F80818093BB0019
:1012C00085EC86C08093BC028EC0E091E10281E093
:1012D0008E0F8093E1028091BB00F0E0E054FD4F5F
:1012E00080839091E1028091E0026EC0E091E10282
:1012F00081E08E0F8093E1028091BB00F0E0E0542A
:10130000FD4F80838091BF0281116DC081E0809389
:10131000BE0284EA61C083E08093BD021092BB02EA
:10132000CFCF8091BB02803208F051C0E091BB0268
:1013300081E08E0F8093BB028091BB00F0E0E55608
:10134000FD4F8083BDCF85EC8093BC001092BD0221
:101350008091BB02803230F4E091BB02F0E0E556B0
:10136000FD4F10826091BB0270E0E0919902F09114
:101370009A028BE992E009951092BB0236C084E094
:101380008093BD021092980210929702E09195020C
:10139000F0919602099580919702811105C081E034
:1013A0008093970210927502E091980281E08E0F6F
:1013B00080939802F0E0EB58FD4F80818093BB0052
:1013C0009091980280919702981708F479CF85E858
:1013D0008093BC000AC085EC8093BC001092BD02D3
:1013E00004C01092BC020E94B206FF91EF91BF911F
:1013F000AF919F918F917F916F915F914F913F91AD
:101400002F910F900FBE0F901F901895DC01ED915A
:10141000FC910084F185E02D40E009940F931F9327
:10142000CF938C01FC0164839085C62FC90F6C2F6C
:101430006F70C8010E94060A6C2F62956F70606120
:10144000C801CF911F910F910C94060A0F931F931F
:10145000CF93DF931F92CDB7DEB78C01FC0186815D
:10146000681728F4C80149830E940E0A4981F801CF
:101470008781869586958695481758F44583642F0D
:10148000606BC8010F90DF91CF911F910F910C9469
:10149000060A0F90DF91CF911F910F910895CF927F
:1014A000DF92EF92FF920F931F93CF93DF93EC01A4
:1014B000F62EC42ED22E8F81869586958695081796
:1014C00010F00FEF080F1D2D011780F0412F6F2D29
:1014D000CE010E94260AEF2CCE1430F060E0CE013F
:1014E0000E94C308E394F8CF1F5FEECF4D2D6F2D00
:1014F000CE01DF91CF911F910F91FF90EF90DF9080
:10150000CF900C94260A2F923F924F925F926F9247
:101510007F928F929F92AF92BF92CF92DF92EF9283
:10152000FF920F931F93CF93DF93CDB7DEB727972B
:101530000FB6F894DEBF0FBECDBFDC011B960D9138
:101540001C911C970115110509F462C19F838E83BC
:10155000F801B49131964491319654903196A4910A
:10156000EA2EF12CF7E0EF0EF11C23E0F594E7945E
:101570002A95E1F7EB82F801349674913196E49163
:10158000671758F0862F90E02E2F30E0F901E70F13
:10159000F11D8E179F070CF473C06D3069F4AE8196
:1015A000BF8116968C91882309F467C060E08E8114
:1015B0009F810E940E0A61C06A3009F029C1EE8144
:1015C000FF8181856581D62E8E9DD00C1124878167
:1015D000869586958695D81630F08285882319F0F1
:1015E00082E08287D12C4D2D60E08E819F810E9408
:1015F000260AAE81BF811A968C911A97823008F420
:101600003CC015962C9115971B96ED91FC911C975B
:10161000309741F03396E49119960C91E09FE02DBC
:10162000112401C0E0E08FEF820F0E2F10E0095F60
:101630001F4F93E0159507959A95E1F7080FEE81F6
:10164000FF81468141506481CF010E944F0AAE81E3
:10165000BF8119968C9119976D2D8E9D600D112467
:10166000660F660F660F17968C91861708F460E078
:1016700060648E819F810E94060A81E090E0CAC06A
:1016800050E05B2BC8010696671BEE81FF81F18558
:10169000F9834230510588F4452B09F019825E9C8C
:1016A00090015F9C300D1124629F8001639F100D9B
:1016B0001124080F191F412C24C0EA2FE77021F0D4
:1016C00048E0442E4E1A01C0412CA82FFC0140E0F6
:1016D00050E07E2F7A1B761728F47491470F511D26
:1016E0003196F7CFFC01E60FF11D54904E9D80011D
:1016F0004F9D100D5E9D100D1124020F131F080F3A
:10170000191FAE81BF811496BC91BC83EE81FF810D
:101710003580652C712CCC24C394D12C812C912C38
:101720007FEF7C0D7A838B81781708F05FC0212CC6
:10173000AE81BF8119968C91281608F051C07A812C
:10174000711102C0222051F0AE81BF8115964C91DB
:1017500015974F5F6C81CD010E94260AA12CB12CF8
:10176000A51488F5F501E80DF91DE00FF11F24918E
:10177000442061F0CE14DF0449F4E22FF0E0042CA1
:1017800002C0F595E7950A94E2F72E2FEE81FF81CE
:101790008185823079F4E22F2110E295EF70F0E03C
:1017A000E55EF84F2491622F8E819F812D830E94E8
:1017B000C3082D81622F8E819F810E94C308FFEF95
:1017C000AF1ABF0ACDCFB12C7981B71639F060E0DE
:1017D0008E819F810E94C308B394F6CF2394A8CF33
:1017E000860C971CBFEFCB1ADB0A9ACFAE81BF8164
:1017F00017968C911797869586958695381608F0DA
:101800003CCF15963C921597632D606BCD0133CF7D
:1018100080E090E027960FB6F894DEBF0FBECDBFF4
:10182000DF91CF911F910F91FF90EF90DF90CF90BC
:10183000BF90AF909F908F907F906F905F904F90F0
:101840003F902F9008950F93CF93DF93EC010F817A
:1018500006950695069501504E81415020E060E0C6
:101860000E944F0A81E09A85911101C080E08A8729
:1018700060E4CE01DF91CF910F910C94060ACF93D3
:10188000DF9380E695E00E94230CC0E6D5E085E377
:1018900095E09C878B8766EC71E0CE010E941A1D53
:1018A0006CED71E0CE010E94051D6FED71E0CE017F
:1018B0000E941A1D8AE493E09C878B876CED75E08B
:1018C00080E090E00E94721DDF91CF910C94C216CF
:1018D000CF93DF9380E695E00E94230CC0E6D5E02D
:1018E00085E395E09C878B8766EC71E0CE010E94D2
:1018F0001A1D6CED71E0CE010E94051D62EF71E0D2
:10190000CE010E941A1D8AE493E09C878B876CEDC0
:1019100075E080E090E00E94721DDF91CF910C9401
:10192000C21680E695E00E94230C8AE491E00E94B2
:101930006A1660ED77E080E090E00E94721D61E041
:1019400070E080E090E00E94721D6CED75E080E038
:1019500090E00E94721D0C94C216CF93DF93EB01AE
:101960006A817B818EE095E00E941A1D8A819B81AD
:101970000884D985C02D8550924009F44DC080E679
:1019800095E00E94230C62E172E080E695E00E94FF
:101990001A1D8A819B818852924091F463E372E020
:1019A00080E695E00E941A1D65E072E080E695E011
:1019B0000E941A1D6EE372E080E695E00E941A1DF7
:1019C0008A819B818550924091F468E272E080E6C2
:1019D00095E00E941A1D66E472E080E695E00E94A0
:1019E0001A1D6EE372E080E695E00E941A1D8A815E
:1019F0009B818E53924009F043C068E272E080E61A
:101A000095E00E941A1D65E072E080E695E00E9474
:101A10001A1D63E572E02EC080E695E00E94230C5B
:101A200066EC71E080E695E00E941A1D6EED71E0B3
:101A300080E695E00E941A1D8A819B818B55924019
:101A400061F461E672E080E695E00E941A1D67E6A7
:101A500072E080E695E00E941A1D8A819B8187567C
:101A6000924071F46BE572E080E695E00E941A1DE9
:101A70006DE672E080E695E0DF91CF910C941A1D3F
:101A8000DF91CF9108950F931F93CF93DF93EC01D4
:101A900000E010E08E8590E0081719079CF4C8015B
:101AA000880F991FEA85FB85E80FF91F80819181D6
:101AB000DC01ED91FC910680F781E02D09950F5F27
:101AC0001F4FE8CFE885F9851582188A1F868E8515
:101AD000882331F0EA85FB850190F081E02D02C07A
:101AE000E0E0F0E0F987E88781E08583DF91CF913E
:101AF0001F910F910895FC018785808B968599230E
:101B000031F1882311F0815004C0662301F18FEF79
:101B1000890F878722859385A22FB92FA80FB11D22
:101B2000A80FB11D0D90BC91A02DB187A08781E0B9
:101B300015968C938089E22FF92FE80FF11DE80F9D
:101B4000F11D0190F081E02D158281E0089580E083
:101B50000895CF93DF93FC018785808B2685222310
:101B6000B1F1482F50E030E02150310942175307BE
:101B7000B1F08F5F878722859385A22FB92FA80F99
:101B8000B11DA80FB11D0D90BC91A02DB187A087EC
:101B900081E015968C938089E22FF92F0EC0662381
:101BA000B1F01786A285B385CD91DC911197D187CD
:101BB000C08781E08D838089FD01E80FF11DE80F6A
:101BC000F11D0190F081E02D158281E001C080E0DF
:101BD000DF91CF910895DC011696ED91FC91179756
:101BE000309709F0099580E090E00895CF93DF9356
:101BF000EC010E94EB0DCE01DF91CF910895DC0145
:101C0000FB0112968C91129790E024813581821706
:101C10009307D1F491818081813A31F481E0913050
:101C200091F0933089F411C0813271F49B3021F42A
:101C300082811F968C9305C09A3031F48281509630
:101C40008C9381E00895089580E00895DC01FB0104
:101C500088E4808389E4818384E482831D969C9157
:101C60001D979F709F5B93831D968D919C911E97EE
:101C700024E0969587952A95E1F78F708F5B848392
:101C800085E00895FC0182818F5BFB01808381E008
:101C90000895EF92FF920F931F93CF93DF93FB0171
:101CA0002081213851F52381223239F5DC01129649
:101CB0002C9130E04481558142175307F1F4EC0137
:101CC0000B851C85E12CF12C0115110591F0F80113
:101CD000448155816281738180E80E949C188F3F06
:101CE000FFEF9F0769F0E80EF91ED8010D911C91D6
:101CF000EBCF81E08F87C70105C080E090E002C094
:101D00008FEF9FEFDF91CF911F910F91FF90EF9099
:101D10000895CF93DF93CDB7DEB769970FB6F894E8
:101D2000DEBF0FBECDBFFC01DB018C918F5F8C93BA
:101D3000BE016F5F7F4F89E1DB011D928A95E9F754
:101D400029E0298384E08A8391E09D8383E08E8368
:101D50002A8721E22B879C879D879F8722E2288BF9
:101D600027E02B8B25E02C8B8E8B20E430E0388F06
:101D70002F8B998F82818B8395858685998B8A8B12
:101D8000838180688D8B49E150E080E00E949C183F
:101D900069960FB6F894DEBF0FBECDBFDF91CF912D
:101DA00008958FEF0C94BC080F931F93CF93DF938C
:101DB000EB010E945C1E8B010E94D10E8F3F49F007
:101DC0000E945C1E601B710B6C177D07A8F380E0FE
:101DD00001C081E0DF91CF911F910F91089561E0E3
:101DE000FC0184810E94421D8091E30281111092C6
:101DF000E3020895CF93DF93EC018E81882389F06D
:101E00008F8198859C012F5F3F4F38872F838230C9
:101E1000924018F40E94D10EF3CFCE010E94EF0E33
:101E20001E82DF91CF910895CF92DF92FF920F93A0
:101E30001F93CF93DF9300D000D0CDB7DEB76C01F6
:101E4000F62E29833A834B835C830E94FA0E80919D
:101E5000E30229813A814B815C81811109C081E0D3
:101E60008093E30290915E0580915F059CBD8DBDDE
:101E700060E0F601848129833A834B835C830E946E
:101E8000421D6CE271E0C6010E94D40E8F2D806469
:101E90000E94BC0808E110E05C814B813A812981F5
:101EA000DA01C901002E04C0B695A79597958795CC
:101EB0000A94D2F729833A834B835C830E94BC083F
:101EC0000850110929813A814B815C81083FFFEF5D
:101ED0001F0731F7FF2029F088E0F81204C087E8D7
:101EE00003C085E901C08FEF0E94BC0810E00E948A
:101EF000D10EF601828787FF04C01F3F11F01F5FDC
:101F0000F6CF0F900F900F900F90DF91CF911F9110
:101F10000F91FF90DF90CF900895EF92FF920F9373
:101F20001F93CF93DF93EC017901411551056105B2
:101F3000710511F482E13CC08B85833039F089E072
:101F4000440F551F661F771F8A95D1F79A01AB0181
:101F500068E1CE010E94140F882311F084E028C0AC
:101F60008EEF0E94BC0887018EEFF81AF80181916C
:101F70008F010E94BC080E151F05C1F78FEF0E944C
:101F8000BC088FEF0E94BC080E94D10E8A878F7117
:101F9000853031F081E18D83CE010E94EF0E09C0C2
:101FA00068E572E0CE010E94D40E811107C085E180
:101FB0008D83CE010E94EF0E80E013C020E030E060
:101FC000A9016DE0CE010E94140F811104C00E948E
:101FD000D10E882311F084E1EBCFCE010E94EF0EE9
:101FE00081E0DF91CF911F910F91FF90EF900895C5
:101FF000CF93DF938091E402882399F1C0910C0381
:10200000D0910D034091130150911401609115017D
:10201000709116012EE033E0CE010E948D0F8111E8
:1020200002C080E01FC04091E5025091E60260913D
:10203000E7027091E802411551056105710579F0DB
:102040002EE033E0CE010E948D0F882351F31092D1
:10205000E5021092E6021092E7021092E802109256
:10206000E40281E0DF91CF9108950F931F93CF9306
:10207000DF93EC018B018E8590E00196BC01660F29
:10208000771F8A859B850E941325FC019B878A8781
:10209000892B89F08E85E80FF11DE80FF11D118362
:1020A0000083811105C01987088781E0F8018583C5
:1020B0008E858F5F8E87DF91CF911F910F9108954D
:1020C0008091FA0281116BC081E08093ED028093D0
:1020D000EE0223EF32E03093F0022093EF021092F1
:1020E000F2021092F10227E231E03093EA022093EB
:1020F000E9021092F5021092F4021092F702109287
:10210000F6028093F8028093F90281EC8093F30247
:102110000E942E1DFC0121818091ED0290E0820F32
:10212000911D089724F081E08093FA0238C0A281C3
:10213000B381109729F489EE92E0938382830EC0D5
:1021400018968D919C911997009711F0DC01F8CFAA
:1021500089EE92E019969C938E93189780818093D4
:10216000EB0281818093EC0290818091EE02890FD5
:10217000808380E09091ED028917A8F6A091EF028C
:10218000B091F002A80FB11D9C91A181B0E0A050C8
:10219000BF4F9C9391819F5F91838F5FEBCF89EEBF
:1021A00092E00895AF92BF92CF92DF92EF92FF92AA
:1021B0000F931F93CF93DF93EC016901C801820F46
:1021C000931F8130924008F070C08E81882371F097
:1021D00088819981AA81BB81481759076A077B07C3
:1021E00029F48F819885C816D906B0F5488359839C
:1021F0006A837B838B85833039F089E0440F551FD8
:10220000661F771F8A95D1F79A01AB0161E1CE0174
:102210000E94140F882319F083E08D8346C00E942A
:102220005C1E5B010E94D10E8A878F3F49F40E9499
:102230005C1E6A197B096D327140A0F38FE003C008
:102240008E3F31F08DE08D83CE010E94EF0E2DC0C8
:1022500018861F8281E08E838F8198858C159D055D
:1022600040F40E94D10E8F819885019698878F83C4
:10227000F3CF6701E00EF11ECE14DF0431F00E94AF
:10228000D10EF60181936F01F7CF8F819885080FEA
:10229000191F18870F838985882319F001151240AB
:1022A00048F0CE010E94FA0E05C0CE010E94EF0E4A
:1022B00080E001C081E0DF91CF911F910F91FF90ED
:1022C000EF90DF90CF90BF90AF9008958F929F9244
:1022D000AF92BF92EF92FF920F931F93CF934B0158
:1022E0005C01C42F8091130190911401A0911501FC
:1022F000B091160188159905AA05BB0501F10E9448
:10230000F80F811102C080E020C08EE0E82E83E04B
:10231000F82E00E012E020E030E0B501A401809149
:102320000C0390910D030E94D210882361F38092D8
:10233000130190921401A0921501B09216018091A0
:10234000E402C82BC093E40281E0CF911F910F916A
:10235000FF90EF90BF90AF909F908F9008954F9215
:102360005F926F927F928F929F92AF92BF92CF9225
:10237000DF92EF92FF920F931F93CF93DF93EC01C5
:102380006A017B012801390142305105610571055F
:1023900010F480E073C089859A85AB85BC85019671
:1023A000A11DB11D84179507A607B70790F38B8869
:1023B0009C88AD88BE888F89803129F4BB27AF2DDA
:1023C0009E2D8D2D09C0DB01CA0147E0B695A7956A
:1023D000979587954A95D1F7880E991EAA1EBB1E20
:1023E0008091130190911401A0911501B0911601F3
:1023F00088169906AA06BB0679F48F898031A1F464
:10240000DD24EE24FF24C601880F991FFC01E25F42
:10241000FC4F5182408219C040E0C501B4010E94C6
:1024200066118111EACFB5CFE894C7F8DD24EE2418
:10243000FF24C601880F991F880F991FFC01E25FD6
:10244000FC4F40825182628273828091E4028160FB
:102450008093E4028A89823080F08D819E81AF81F1
:10246000B885880E991EAA1EBB1E8092E502909226
:10247000E602A092E702B092E80281E0DF91CF91FC
:102480001F910F91FF90EF90DF90CF90BF90AF9092
:102490009F908F907F906F905F904F9008958F9254
:1024A0009F92AF92BF92CF92DF92EF92FF920F93E3
:1024B0001F93CF93DF93FC0181859285A385B4851B
:1024C0000196A11DB11D84179507A607B70710F443
:1024D00080E05CC083899489A589B689C789C031A9
:1024E00029F4852E962EA72EBB2409C04A015B0134
:1024F000C7E0B694A79497948794CA95D1F7E90159
:102500006A017B018F01BC01CD01680D791D8A1D17
:102510009B1D8090130190901401A0901501B09024
:102520001601681579058A059B0599F4F8018789D4
:102530008031A9F4B701A601552766277727440FF4
:10254000551FFA01E25FFC4F80819181A0E0B0E06D
:1025500018C040E00E9466118111E8CFB9CFB701E1
:10256000A6014F77552766277727440F551F440F3D
:10257000551FFA01E25FFC4F80819181A281B381F6
:10258000BF7088839983AA83BB8381E0DF91CF9159
:102590001F910F91FF90EF90DF90CF90BF90AF9081
:1025A0009F908F9008958F929F92AF92BF92CF92FB
:1025B000DF92EF92FF920F931F93CF93DF93EC0183
:1025C0008D81811102C080E077C00B891C892D8923
:1025D0003E890417150726073707A8F36A017B0110
:1025E000823029F4CA86DB86EC86FD860DC0C114D4
:1025F000D104E104F10451F41E821F821886198669
:102600001A861B861C861D8681E056C08A849B84A0
:10261000AC84BD84EB8DFC8D258530E0275F3F4F7A
:10262000B501A4014150510961097109022E04C08C
:1026300076956795579547950A94D2F7D701C601C5
:102640000197A109B10904C0B695A79597958795FB
:102650002A95D2F784179507A607B70720F089288F
:102660008A288B2849F44F89588D698D7A8D4E833D
:102670005F836887798704C0841B950BA60BB70B13
:102680004C015D018E010A5F1F4F81149104A1046A
:10269000B10409F4A7CF4E815F81688579859801DF
:1026A0008B8D9C8D0E944F1291E0891A9108A10890
:1026B000B1088111EACF87CFDF91CF911F910F91A0
:1026C000FF90EF90DF90CF90BF90AF909F908F9052
:1026D00008953F924F925F926F927F928F929F9256
:1026E000AF92BF92CF92DF92EF92FF920F931F9320
:1026F000CF93DF93CDB7DEB72C970FB6F894DEBF3C
:102700000FBECDBF5C01DC015B968D909C905C9709
:102710001696CD90DD90ED90FC901997C114D104E0
:10272000E104F10439F0BFEFCB1ADB0AEB0AFB0A34
:10273000312C07C0F401C080D180E280F3803324C3
:102740003394F40181859285A385B4859C01AD0104
:102750002F5F3F4F4F4F5F4F29873A874B875C87EB
:10276000260137011D821E821F821886F401818591
:102770009285A385B4852D813E814F815885281788
:1027800039074A075B0708F063C089859A85AB85DE
:10279000BC858C159D05AE05BF0550F482E0C82EA2
:1027A000D12CE12CF12C92E0492E512C612C712C72
:1027B0009E012F5F3F4FB701A601C4010E944F1237
:1027C000882309F445C089819A81AB81BC81892B1A
:1027D0008A2B8B2B41F0260137019FEF491A590AAA
:1027E000690A790A05C0C414D504E604F70491F017
:1027F0002D813E814F8158852F5F3F4F4F4F5F4F57
:102800002D833E834F8358873FEFC31AD30AE30AD1
:10281000F30AACCF0FEF1FEF2FEF3FE0B301A201A0
:10282000C4010E94AF11882399F0D50116964D91ED
:102830005D916D917C911997411551056105710567
:1028400049F093018201C4010E94AF11811102C0BD
:1028500080E02AC0D50116964D925D926D927C92D1
:102860001997332051F0D301C2010196A11DB11D6A
:10287000F40180839183A283B383F5018789908DCE
:10288000A18DB28D892B8A2B8B2B69F4D50157969C
:102890004D925D926D927C925A9714968C911497FA
:1028A000806814968C9381E02C960FB6F894DEBF66
:1028B0000FBECDBFDF91CF911F910F91FF90EF9091
:1028C000DF90CF90BF90AF909F908F907F906F9050
:1028D0005F904F903F900895CF93DF93FC01248148
:1028E00027FF2EC0EC01668577858089918941E0BC
:1028F0000E946611882341F1EA8980E2E89FF00195
:102900001124DF01A25FBC4F1097F1F08D8182305E
:1029100050F44B895C896D897E895C964D935D93FB
:102920006D937C935F978F89988DA98DBA8DE25FA7
:10293000FC4F938F828FB58BA48B8C818F778C8388
:10294000DF91CF910C94F80F80E0DF91CF91089543
:102950002F923F924F925F926F927F928F929F92AF
:10296000AF92BF92CF92DF92EF92FF920F931F939D
:10297000CF93DF9300D000D000D0CDB7DEB78C016D
:102980005B011A01DC0115968C9115978130C9F411
:1029900014968C9181FF15C082FF1DC0F8014389F8
:1029A00054896589768982859385A485B585841740
:1029B0009507A607B70779F0C8010E94D3128111C5
:1029C0000AC081E090E0D80113969C938E931297F1
:1029D00080E090E042C1610120910C0330910D0331
:1029E0003E832D8382C0D8015B968D919C915C972C
:1029F000FC0174802FEF270D2A013B0139E076940A
:102A00006794579447943A95D1F7722E74207A01BF
:102A1000F1E0FF22772009F474C080E092E08E1983
:102A20009F0946018C159D0508F44C01D8015B9661
:102A30002D913C915C9716968D919D910D90BC9136
:102A4000A02D0297A109B109F901058404C0880FDE
:102A5000991FAA1FBB1F0A94D2F746855785608924
:102A60007189840F951FA61FB71F9C01AD01270D0B
:102A7000311D411D511D29013A01811432E0930697
:102A800009F086C08091130190911401A091150165
:102A9000B091160184159505A605B70559F48FEF79
:102AA0009FEFDC018093130190931401A093150113
:102AB000B09316019501B301A2018D819E810E9400
:102AC0008D0F882309F47DCF9EEFB91AC818D90855
:102AD000F80182859385A485B585880D991DA11D72
:102AE000B11D82879387A487B587D8011A964D9127
:102AF0005D916D917C911D97C114D10409F073CF44
:102B000087C0E114F10409F088CF16964D915D91CC
:102B10006D917C911997411551056105710559F425
:102B200057968D919D910D90BC91A02D0097A10578
:102B3000B10541F521C09E012F5F3F4F0E944F120A
:102B4000882309F446CF89819A81AB81BC81F80141
:102B5000238D348DF9012789203129F048EF5FEF6B
:102B60006FEF7FE004C048EF5FEF60E070E0841734
:102B70009507A607B70730F0C8010E9469138111B5
:102B80004CCF1FCFF80186839783A087B18745CFAD
:102B9000E114F10429F5D8011A964D915D916D91DA
:102BA0007C911D9753968D919D910D90BC91A02D78
:102BB000481759076A077B0798F00E94F80F882387
:102BC00009F4FFCE40921301509214016092150156
:102BD000709216018091E40281608093E40208C043
:102BE00041E0C301B2010E946611882309F4E9CED5
:102BF000D501F701E25FFC4FCF01880D991DE81761
:102C0000F90719F02D912193FACFA80CB91C5ECFCA
:102C100053968D919D910D90BC91A02D8417950791
:102C2000A607B70740F4F801438B548B658B768B6E
:102C3000848180688483D80114968C9183FD02C0BE
:102C4000C1010BC0F8018581882309F4BACEC801FF
:102C50000E946C148111F4CFB4CE26960FB6F8946E
:102C6000DEBF0FBECDBFDF91CF911F910F91FF90BF
:102C7000EF90DF90CF90BF90AF909F908F907F901C
:102C80006F905F904F903F902F900895CF93DF9378
:102C90001F92CDB7DEB7698341E050E0BE016F5FA0
:102CA0007F4F0E94A8140F90DF91CF9108956091FB
:102CB000A3057091A4056115710559F08091A505D2
:102CC0009091A605DC01ED91FC910190F081E02D41
:102CD000099408958F929F92AF92BF92CF92DF9204
:102CE000EF92FF920F931F93CF93DF936C01E12C30
:102CF000F12C00E010E0AA24AA94BB24B394402F46
:102D000060E080E695E00E94260A45018E189F0843
:102D1000C0E0D0E0FE01EE0DFF1DEC0DFD1D649145
:102D200080E695E00E94C308C815D905F1F0219608
:102D3000C038D10579F70F5F1F4F80E8E80EF11C0E
:102D400004301105E1F644E060E080E695E0DF91B3
:102D5000CF911F910F91FF90EF90DF90CF90BF9098
:102D6000AF909F908F900C94260ADF91CF911F9186
:102D70000F91FF90EF90DF90CF90BF90AF909F901A
:102D80008F900895E1EAF5E08081918193838283B9
:102D9000DC01ED91FC910680F781E02D0994CF9242
:102DA000DF92EF92FF920F931F93CF93DF931F92C7
:102DB000CDB7DEB77C016B0182E0898341E050E052
:102DC000BE016F5F7F4FF70183810E94AC1D8C01B4
:102DD00097FD0CC0F701838148E050E0B6018064A4
:102DE0000E94AC1D97FD02C0800F911F0F90DF91D4
:102DF000CF911F910F91FF90EF90DF90CF900895AA
:102E00004F925F926F927F928F929F92AF92BF92FA
:102E1000CF92DF92EF92FF920F931F93CF93DF93A6
:102E20003C016B01DC0115968C91811103C08FEF81
:102E30009FEFD5C0F301848180FFF9CF81E08388C3
:102E40009488A588B68842855385648575858416DF
:102E50009506A606B70609F480E090E02C01430130
:102E6000B6E08B0E911CA0900C03B0900D03892B43
:102E700009F480C0D3011A964D915D916D917C91BA
:102E80001D97EA01D17015962C9115977A018B0147
:102E900089E016950795F794E7948A95D1F75B96A4
:102EA0008D919C915C97223061F4FC01828D938D11
:102EB000A48DB58DBC01CD016E0D7F1D801F911FAE
:102EC00046C0DC0114962C912150122F1E21209710
:102ED000E9F411111BC0452B462B472B51F4F3018C
:102EE0008789908DA18DB28D86839783A087B187C6
:102EF0000DC0D30116964D915D916D917C911997FE
:102F000094010E944F12882309F491CFF301238D7D
:102F1000348D86819781A085B1850297A109B10979
:102F2000F901058404C0880F991FAA1FBB1F0A94CA
:102F3000D2F74685578560897189840F951FA61F32
:102F4000B71FBC01CD01610F711D811D911DD30102
:102F500014962C9126FF10C00091130110911401BA
:102F600020911501309116016017710782079307B0
:102F700031F502C0C20133C040E00E9466118823CF
:102F800009F455CFC25FDC4FF601CE010196C81798
:102F9000D90719F029912193FACFEFEFCE1ADE0A63
:102FA000F30182859385A485B5850196A11DB11D88
:102FB00082879387A487B58780E090E058CF760119
:102FC00001E010E09E01AB01BC01C5010E94D210DE
:102FD000882309F42CCFBFEFCB1ADB0AE1CFDF91B6
:102FE000CF911F910F91FF90EF90DF90CF90BF9006
:102FF000AF909F908F907F906F905F904F900895CB
:10300000FC0180910B03811103C08FEF9FEF0895A6
:103010009FB7F89482E08093E9002091F20030E0BD
:103020001216130614F421E030E02115310559F091
:10303000289884E680930A038091F1008083809130
:10304000F200882319F09FBFC90108958BE6809391
:10305000E800F9CF1F920F920FB60F9211248F93B1
:103060009F938091E1009091E100937F9093E10024
:1030700083FF0FC01092E90091E09093EB00109253
:10308000EC0092E39093ED0010920B0398E0909384
:10309000F00082FF20C093E09093E9009091F2004D
:1030A000992319F09AE39093E800909109039923EA
:1030B00039F090910903915090930903992389F174
:1030C00090910A03992339F090910A0391509093BB
:1030D0000A03992341F184FF10C08091E2008E7EA3
:1030E00081608093E2008091E1008F7E8093E10017
:1030F000809108038E7E806111C080FF16C0809190
:10310000E2008E7E80618093E2008091E1008E7EFD
:103110008093E100809108038E7E81608093080394
:1031200004C05D9ACDCF289AD6CF9F918F910F90F2
:103130000FBE0F901F901895DF92EF92FF920F93A2
:103140001F93CF93DF93D82E8A017B01E40EF51EE7
:10315000EB01CE15DF0571F0D7FE03C0FE018491AF
:1031600001C088810E94CA1C21968111F2CF8FEF85
:103170009FEF01C0C801DF91CF911F910F91FF9088
:10318000EF90DF9008950F931F93CF93DF931F92DB
:10319000CDB7DEB782E0898342E450E06BE277E0AE
:1031A00080E80E949C180E942E1DDC0112960D9151
:1031B0001C9113970115110569F0D801ED91FC914F
:1031C0000280F381E02DBE016F5F7F4FC80109953A
:1031D00097FF07C089810F90DF91CF911F910F91C9
:1031E0000895F80100851185E5CF1F920F920FB663
:1031F0000F921124CF92DF92EF92FF920F931F93C1
:103200002F933F934F935F936F937F938F939F93EE
:10321000AF93BF93EF93FF93CF93DF93CDB7DEB719
:103220006C97DEBFCDBF1092E9008091E80083FF6C
:10323000EDC168E0CE0145960E94F81C82EF8093B4
:10324000E8008D8987FF05C09091E80090FFFCCFD2
:1032500003C09EEF9093E800982F907609F0C6C0C7
:103260009E892F89188D91110CC0803829F4809186
:1032700007038093F10002C01092F1001092F10058
:1032800048C1422F50E0512B913051F4811141C17E
:103290004130510509F03DC1809107038D7F0BC07E
:1032A000933061F4811135C14130510509F031C1CC
:1032B000809107038260809307032BC1953041F40E
:1032C0008091E80080FFFCCF20682093E30021C1BB
:1032D000963009F05FC0EB8CFC8C1092E9001092E4
:1032E000050310920403123091F51092030310921B
:1032F00002030E94C31899E0BE016F5F7F4FDB019C
:10330000E92F1D92EA95E9F799831A8391E09E834C
:1033100090EA98879AEF99872091040330910503EA
:10332000275F3F4F3C832B838D831092E9001092DF
:10333000050310920403F0920303E092020349E0B4
:1033400050E080E00E949C180E94C318E2C0F092F6
:103350000303E09202030E942E1DDC011296ED9001
:10336000FC901397E114F10409F4C0C0D701ED916A
:10337000FC910480F581E02DBE016B5E7F4FC7019B
:103380000995009719F00CF0C4C0C7C0F701E0849C
:10339000F184E8CF973009F4C0C0983021F481E07F
:1033A0008093F100B6C0993009F0B3C0837009F082
:1033B000B4C0E1E0F1E081E021E036E390819923BF
:1033C00061F08093E9002093EB0091919093EC00E1
:1033D0003093ED008F5F873089F78EE78093EA00A6
:1033E0001092EA008F8980930B0393C08B8D9C8D84
:1033F0001092E900109205031092040390930303C6
:1034000080930203898D811156C08E899D89913ADE
:1034100059F4813209F081C047E050E06BE071E07F
:1034200080E00E949C1875C0913209F076C083320A
:1034300089F4888D90E0982F88272F89822BA0E02F
:10344000B0E08093070190930801A0930901B09325
:103450000A015FC0803269F48091E80082FFFCCFEE
:1034600067E08BE091E00E94F81C8BEF8093E8000E
:1034700006C0823209F04DC08F898093120180917D
:103480000603882319F0EEEFFAE002C0E0E0F8E06E
:1034900080910B0190910C01A0910D01B0910E0152
:1034A000803B9440A105B10509F07BC080911201D9
:1034B00080FF93C076C00E942E1DDC0112960D91F4
:1034C0001C9113970115110541F1D801ED91FC9163
:1034D0000190F081E02DBE016B5E7F4FC801099520
:1034E000811117C0F80100851185ECCF113009F466
:1034F0004EC0133091F48F89882309F445C082307F
:1035000081F440E862E18CE897E00E94B21E8823D3
:1035100021F08EEF8093E80079C081E28093EB0088
:1035200075C0813029F440E868E083E897E0EDCF8A
:10353000833099F70E942E1DDC011296ED90FC90CD
:1035400013978E010F5F1F4F6801E114F10479F0AA
:10355000D701ED91FC910680F781E02DB801C701FC
:103560000995080F111DF701E084F184EECFD80111
:103570001C92F60101900020E9F73197BF016C1908
:103580007D0940E0C601C1CF6DE677E002C061E78A
:1035900077E06115710509F2FB01449150E080E884
:1035A00040CF0FB6F894A895809160008861809311
:1035B0006000109260000FBEA895EE3F2AE0F2076F
:1035C00039F08091FE0A9091FF0A91838083A1CF08
:1035D0001092FF0A1092FE0A9CCFEE3F8AE0F80795
:1035E00031F0808191819093FF0A8093FE0A87E7F2
:1035F00097E7918380839BE088E10FB6F894A895C4
:10360000809360000FBE9093600083CF6C960FB6DE
:10361000F894DEBF0FBECDBFDF91CF91FF91EF9148
:10362000BF91AF919F918F917F916F915F914F91DA
:103630003F912F911F910F91FF90EF90DF90CF90CE
:103640000F900FBE0F901F9018952FB7F8948770AA
:103650008093E9009091E800892F807295FF04C063
:103660009091F20080E4891B2FBF0895CF92DF92E2
:10367000EF92FF920F931F93CF93DF936C017A0128
:103680008B01C0E0D0E0CE15DF0589F0D8016D9147
:103690008D01D601ED91FC910190F081E02DC601E4
:1036A0000995892B11F47E0102C02196ECCFC70148
:1036B000DF91CF911F910F91FF90EF90DF90CF900E
:1036C0000895CF93DF931F92CDB7DEB76983DC01F6
:1036D000ED91FC910280F381E02D41E050E0BE01CC
:1036E0006F5F7F4F09950F90DF91CF91089583E031
:1036F0008093E9008091F200882319F08AE3809397
:10370000E800089583E00E94251B90E00895FC01E5
:103710008485958597FD0BC09FB7F89482E08093D0
:10372000E9008091F2009FBF90E0019608959FB755
:10373000F89482E08093E9008091F2009FBF90E0CE
:10374000089590E0FC013197EF30F105B0F5EA5AA9
:10375000FF4F0C94E023809180008F7703C080910D
:1037600080008F7D80938000089580918000877F06
:10377000F9CF84B58F7702C084B58F7D84BD08955D
:10378000809190008F7707C0809190008F7D03C05B
:1037900080919000877F8093900008958091C00071
:1037A0008F7703C08091C0008F7D8093C000089503
:1037B0008091C200877F8093C2000895CF93DF93EA
:1037C000282F30E0F901EB57F74F8491F901EA59BE
:1037D000F74FD491F901E95BF74FC491CC2391F0F5
:1037E00081110E94A11BEC2FF0E0EE0FFF1FE75CA0
:1037F000F74FA591B491EC91ED2381E090E021F495
:1038000080E002C080E090E0DF91CF910895CF93F7
:10381000DF9390E0FC01EA59F74F2491FC01E95B4A
:10382000F74F8491882361F190E0880F991FFC0184
:10383000E35EF74FC591D491FC01E55DF74FA5918B
:10384000B491611109C09FB7F894888120958223B3
:103850008883EC912E230BC0623061F49FB7F894FB
:103860003881822F809583238883EC912E2B2C9393
:103870009FBF06C08FB7F894E8812E2B28838FBF97
:10388000DF91CF9108953FB7F894809149069091C8
:103890004A06A0914B06B0914C0626B5A89B05C0E0
:1038A0002F3F19F00196A11DB11D3FBFBA2FA92FBF
:1038B000982F8827820F911DA11DB11DBC01CD013C
:1038C00043E0660F771F881F991F4A95D1F7089527
:1038D00080E0089580E00895DB01ED91FC9111975F
:1038E0000280F381E02DBC01CD0109940895DB0134
:1038F000ED91FC9111970084F185E02DBC01CD0183
:1039000009940E94EB0D80E090E008950F931F93BF
:10391000CF93DF931F92CDB7DEB78C01FC01848576
:10392000958597FF0EC0CE0101960E940018019761
:1039300019F4298130E002C02FEF3FEFF8013587FD
:103940002487F801848595850F90DF91CF911F9191
:103950000F910895CF93DF931F92CDB7DEB7FC018F
:103960008485958597FD05C02FEF3FEF3587248728
:103970000BC0CE0101960E940018019719F48981AD
:1039800090E002C08FEF9FEF0F90DF91CF910895ED
:103990000E94DD254091040350910503209102030C
:1039A0003091030342175307B4F49091E8009570E7
:1039B000E1F39091E80092FD19C08093F1008091AD
:1039C00004039091050301968F739927892B19F4AD
:1039D0008EEF8093E8008091040390910503019697
:1039E000909305038093040381E0089580E0089597
:1039F000615030F02091F100FC0120830196F8CF56
:103A0000289884E680930A0308956115710579F07A
:103A1000FB0101900020E9F73197AF01461B570BDE
:103A2000DC01ED91FC910280F381E02D099480E0AE
:103A300090E008950F931F93CF93DF93EC010E94C2
:103A4000051D8C016CED71E0CE010E94051D800FFB
:103A5000911FDF91CF911F910F9108958091510691
:103A600081110DC082E080934D0684E080934E0664
:103A70001092500610924F0681E0809351068DE41B
:103A800096E008951F93CF93DF93282F30E0F9013C
:103A9000EB57F74F8491F901EA59F74FD491F901A7
:103AA000E95BF74FC491CC23C9F0162F81110E9416
:103AB000A11BEC2FF0E0EE0FFF1FE55DF74FA59186
:103AC000B4918FB7F894111105C09C91ED2FE0953A
:103AD000E92302C0EC91ED2BEC938FBFDF91CF91E6
:103AE0001F9108958F929F92AF92BF92CF92DF92D3
:103AF000EF92FF926B017C010E94431C4B015C0121
:103B0000C114D104E104F104F1F00E94431CDC0172
:103B1000CB0188199909AA09BB09883E9340A105E0
:103B2000B10570F321E0C21AD108E108F10888EE6E
:103B3000880E83E0981EA11CB11CC114D104E104BD
:103B4000F10419F7DDCFFF90EF90DF90CF90BF9099
:103B5000AF909F908F9008957F928F929F92AF9297
:103B6000BF92CF92DF92EF92FF920F931F93CF936A
:103B7000DF93C82E8B017A0180910B03811103C062
:103B80008FEF9FEF75C08091080380FF05C0809183
:103B9000E00082608093E000CE2DDF2DD12C8AEFF3
:103BA000882E8C2D8770B82E8C2D8072A82E8C2D8F
:103BB0008074982E9AE3792E209709F452C08C2DA8
:103BC0000E94251B282F81110AC08A948820C1F2E7
:103BD00061E070E080E090E00E94721DEDCF90E027
:103BE000C817D9070CF42C2F3FB7F894B092E9000E
:103BF0008091E80085FF33C0822F90E0C81BD90B6D
:103C0000AA2029F02150A8F01092F100FBCFF80172
:103C1000C7FE07C0215058F044914093F1003196FF
:103C2000F9CF215020F041914093F100FACF080FD5
:103C3000191FDD2019F07092E8000AC08091E80099
:103C400085FD08C07092E800DD24D394209739F0F8
:103C5000D12C05C0209719F491107092E8003FBF55
:103C6000ABCFD110ACCF5D9884E680930903C70138
:103C7000DF91CF911F910F91FF90EF90DF90CF9048
:103C8000BF90AF909F908F907F900895CF93DF93D8
:103C9000EC0180911201882331F083E00E94AC1D79
:103CA0001816190634F081E090E09B838A8380E047
:103CB00090E0DF91CF9108952FB7F8946091450679
:103CC0007091460680914706909148062FBF08954F
:103CD0001F920F920FB60F9211242F933F938F9341
:103CE0009F93AF93BF938091450690914606A09114
:103CF0004706B09148063091440626E0230F2D3741
:103D000020F40296A11DB11D05C029E8230F0396DA
:103D1000A11DB11D2093440680934506909346064D
:103D2000A0934706B09348068091490690914A06B1
:103D3000A0914B06B0914C060196A11DB11D809338
:103D4000490690934A06A0934B06B0934C06BF9148
:103D5000AF919F918F913F912F910F900FBE0F9038
:103D60001F901895CF92DF92EF92FF920F931F93BF
:103D7000CF93DF931F92CDB7DEB7182F062FE42E17
:103D8000862F880F8E5F99830E94CA1C83E00E9451
:103D9000CA1CF12EC12E9981D92E8C2D8F19801716
:103DA00098F4F601E7FE02C0849101C080810E9470
:103DB000CA1C182F80E00E94CA1C8123FFEFCF1A73
:103DC000DF0A8111EACF01C081E00F90DF91CF912E
:103DD0001F910F91FF90EF90DF90CF9008950F9378
:103DE0001F93109211051092100548EE53E060E009
:103DF00070E040931205509313056093140570937F
:103E0000150581E491E090930F0580930E058FEFE7
:103E10009FEF90931B0580931A0580E580935E05C4
:103E200081E080935F051092AC051092AD05109271
:103E3000B0051092B20502E010E020E030E00093FF
:103E4000B3051093B4052093B5053093B6051092D1
:103E5000CA051092D4051092D30523E531E03093C2
:103E6000D2052093D1051092D6051092F305109239
:103E7000F2054093F4055093F5056093F6057093B1
:103E8000F7052FE531E03093F1052093F00510920E
:103E90006305109262058093690510926C0510927B
:103EA0006B0521E731E030936105209360051092A6
:103EB0000A0690910206911112C01092FD0510920F
:103EC000FC052FE937E03093FF052093FE0526E33C
:103ED00030E03093010620930006809302060E9492
:103EE0006010FC01A385B485109729F48CEF95E050
:103EF000948783870BC08D919C911197009711F047
:103F0000DC01F9CF8CEF95E08D939C932585368568
:103F10008091000690910106820F931F96878587F6
:103F200081E190E00E94E623FC018EED91E0938315
:103F3000828314821582178216822DE831E0318344
:103F4000208311861086138612861586148616869F
:103F50001786108AF093A205E093A105F093A405BB
:103F6000E093A30587E191E09093A6058093A505D2
:103F700088E292E090939C0580939B0510929D05AA
:103F800010929E058BEF97E09093A00580939F057C
:103F90008FE791E090939A058093990545E052E070
:103FA00050938B0540938A0510928C0510928D05D5
:103FB00010928F0510928E05309389052093880505
:103FC000109291051092900510929305109292050F
:103FD00010929505109294051092960510929705EF
:103FE000109298052EE332E03093830520938205EA
:103FF000109284051092850521E93CE030938705F5
:104000002093860590938105809380052BE532E00F
:1040100030937B0520937A0510927C0510927D05E4
:1040200028E63CE030937F0520937E059093790548
:104030008093780527E632E030937305209372056C
:1040400010927405109275052FE33CE030937705CC
:1040500020937605909371058093700510921C064D
:1040600010921B068BE991E090931A068093190633
:1040700080911106811113C010920C0610920B064C
:1040800085ED97E090930E0680930D068FE290E009
:104090009093100680930F0681E0809311060E9492
:1040A0006010FC01A385B485109729F48BE096E09D
:1040B000948783870BC08D919C911197009711F085
:1040C000DC01F9CF8BE096E08D939C9325853685B6
:1040D00080910F0690911006820F931F9687858717
:1040E00010922C0610922B0688EE93E0A0E0B0E030
:1040F00080932D0690932E06A0932F06B093300642
:1041000087EA91E090932A0680932906109243064D
:10411000109242061092350680E890E00E94E62355
:1041200090932806809327068CE090E00E94E62377
:1041300090932606809325061F910F9108957894F9
:1041400084B5826084BD84B5816084BD85B582609C
:1041500085BD85B5816085BD80916E00816080934D
:104160006E001092810080918100826080938100B6
:1041700080918100816080938100809180008160C6
:104180008093800080919100826080939100809163
:104190009100816080939100809190008160809374
:1041A00090008091C10084608093C1008091C10023
:1041B00082608093C1008091C10081608093C100C2
:1041C0008091C30081608093C3008091C0008260B1
:1041D0008093C0008091C20081608093C200809172
:1041E0007A00846080937A0080917A008260809364
:1041F0007A0080917A008E7F80937A0080917A0095
:10420000806880937A0010920B031092070310923B
:1042100008038091D70081608093D70080EA809363
:10422000D80089B58F7E89BD89B5826089BD09B402
:1042300000FEFDCF61E070E080E090E00E94721D22
:104240008091D8008F7C80618093D8008091E000BD
:10425000807F8093E0008091E1008E7E8093E1007A
:104260008DE08093E200559A209AEEEFFFE785916A
:1042700094918B3F9C4D19F481E08093060310923A
:104280006F058CE380936E051092B90082E08093F5
:10429000B8001092640510926505EEE8FCE0859187
:1042A0009491E82EE0E9FCE0F490E1E9FCE0E4918F
:1042B000E0936605E2E9FCE0E491E0936705E3E959
:1042C000FCE0E491E09368058C01802F8E198F1536
:1042D00048F4F801649180E695E00E94060A0F5FB9
:1042E0001F4FF3CF10926A0580E695E00E94230CE1
:1042F00083EA98E090936C0580936B058EE89AE0D2
:104300000E946A1660ED77E080E090E00E94721DE6
:1043100080E695E00E94230C80E695E00E94230C45
:1043200061E070E080E090E00E94721D6AEF70E052
:1043300080E090E00E94721D69E975E08091A1051E
:104340009091A2050E9435100091A1051091A2053F
:1043500068E875E0C8010E94351010939505009338
:10436000940560E875E08091A1059091A2050E94F6
:10437000351068E775E088E895E00E94351060E741
:1043800075E088E895E00E9435100E945716E4E930
:10439000FCE0E49180917B00E3FBFF27F0F9CF2F55
:1043A00020E0D22F95E0CC0FDD1F9A95E1F78F7DAD
:1043B000C82BC0937B00E770E064E0937C008091A1
:1043C0007A00806480937A0080917A0086FDFCCF29
:1043D000609178008091790070E0782B072E000CB6
:1043E000880B990B611571058105910511F00E94EB
:1043F0003D2361E086E00E94071C61E087E00E94A7
:10440000071C61E086E00E94421D61E087E00E9497
:10441000421D6AEF70E080E090E00E94721D60E053
:1044200086E00E94421D60E087E00E94421D6AEF24
:1044300070E080E090E00E94721D61E086E00E94E2
:10444000421D61E087E00E94421D6AEF70E080E05B
:1044500090E00E94721D60E086E00E94421D60E0D4
:1044600087E00E94421D6AEF70E080E090E00E94C9
:10447000721D62E088E00E94071C62E089E00E94F1
:10448000071C62E08AE00E94071C62E08BE00E9449
:10449000071C62E08CE00E94071C62E08BE00E9437
:1044A000071C62E088E00E94071C8FEF9FEF90934B
:1044B0001B0580931A0500E010E08CE00E94DE1BD3
:1044C000892B21F5A091A305B091A4051896CD9153
:1044D000DC9119978C81882341F0E881F981028071
:1044E000F381E02D60E0CE0108C0ED91FC911197C1
:1044F0000280F381E02D60E0CD0109950E945716FE
:1045000062E370E080E090E00E94721D88E00E940B
:10451000DE1B892B49F5E091A305F091A405868562
:104520008823D1F0878522859385E22FF92FE80F24
:10453000F11DE80FF11D80819181009769F0DC0188
:10454000ED91FC910084F185E02D0995009721F013
:104550009093A4058093A3050E94571662E370E030
:1045600080E090E00E94721D8BE00E94DE1B892B90
:1045700021F5A091A305B091A4051896CD91DC91E9
:1045800019978C81882341F0E881F9810480F581B5
:10459000E02D60E0CE0108C0ED91FC911197048000
:1045A000F581E02D60E0CD0109950E94571662E388
:1045B00070E080E090E00E94721D64E670E080E0B0
:1045C00090E00E94721D0115110509F476CF0E943A
:1045D000000073CF8F929F92AF92BF92CF92DF92E3
:1045E000EF92FF92CF93DF93EC01688179818A810A
:1045F0009B81611571058105910521F464E279EDD6
:104600008BE597E02DE133EF41E050E00E94462337
:1046100049015A019B01AC01A7EAB1E40E9465235C
:104620006B017C01ACEEB4EFA50194010E947323F1
:10463000DC01CB018C0D9D1DAE1DBF1DB7FF03C05E
:104640000197A109B04888839983AA83BB83BC01E1
:10465000CD019F77DF91CF91FF90EF90DF90CF90CA
:10466000BF90AF909F908F9008950E94EA22089586
:1046700089E191E00E94EA22089560931901709304
:104680001A0180931B0190931C010895052E97FB3E
:104690001EF400940E945D2357FD07D00E94AF23B3
:1046A00007FC03D04EF40C945D2350954095309553
:1046B00021953F4F4F4F5F4F08959095809570958E
:1046C00061957F4F8F4F9F4F08950E94D123A59FE3
:1046D000900DB49F900DA49F800D911D11240895FD
:1046E000B7FF0C9465230E946523821B930B0895EA
:1046F0002F923F924F925F926F927F928F929F92F2
:10470000AF92BF92CF92DF92EF92FF920F931F93DF
:10471000CF93DF93CDB7DEB7CA1BDB0B0FB6F89490
:10472000DEBF0FBECDBF09942A88398848885F84D0
:104730006E847D848C849B84AA84B984C884DF8041
:10474000EE80FD800C811B81AA81B981CE0FD11D25
:104750000FB6F894DEBF0FBECDBFED010895A1E204
:104760001A2EAA1BBB1BFD010DC0AA1FBB1FEE1FEB
:10477000FF1FA217B307E407F50720F0A21BB30B36
:10478000E40BF50B661F771F881F991F1A9469F7B2
:1047900060957095809590959B01AC01BD01CF010E
:1047A0000895A29FB001B39FC001A39F700D811D0A
:1047B0001124911DB29F700D811D1124911D08952A
:1047C000EE0FFF1F0590F491E02D0994CF93DF9336
:1047D0008230910510F482E090E0E0915B06F09168
:1047E0005C0620E030E0C0E0D0E0309711F140817D
:1047F000518148175907C0F04817590761F4828161
:104800009381209719F09B838A832BC090935C0639
:1048100080935B0626C02115310519F04217530716
:1048200018F49A01BE01DF01EF010280F381E02D4F
:10483000DCCF2115310509F1281B390B2430310556
:1048400090F412968D919C9113976115710521F04A
:10485000FB019383828304C090935C0680935B0684
:10486000FD01329644C0FD01E20FF31F8193919345
:10487000225031092D933C933AC020915906309132
:104880005A06232B41F420911F01309120013093CF
:104890005A062093590620911D0130911E012115C1
:1048A000310541F42DB73EB74091210150912201CD
:1048B000241B350BE0915906F0915A06E217F307D5
:1048C000A0F42E1B3F0B2817390778F0AC014E5F80
:1048D0005F4F2417350748F04E0F5F1F50935A065D
:1048E000409359068193919302C0E0E0F0E0CF013C
:1048F000DF91CF9108950F931F93CF93DF9300978C
:1049000009F48CC0FC0132971382128200915B067D
:1049100010915C060115110581F420813181820F0F
:10492000931F2091590630915A062817390779F5B7
:10493000F0935A06E093590671C0D80140E050E068
:10494000AE17BF0750F412962D913C911397AD010D
:104950002115310509F1D901F3CF9D01DA01338326
:10496000228360817181860F971F8217930769F4F4
:10497000EC0128813981260F371F2E5F3F4F31838D
:1049800020838A819B8193838283452B29F4F09332
:104990005C06E0935B0642C01396FC93EE9312977D
:1049A000ED01499159919E01240F351FE217F3073C
:1049B00071F480819181840F951F029611969C93CA
:1049C0008E938281938113969C938E931297E0E04D
:1049D000F0E0D80112968D919C911397009719F0F1
:1049E000F8018C01F6CF8D919C9198012E5F3F4F7D
:1049F000820F931F2091590630915A0628173907C4
:104A000069F4309729F410925C0610925B0602C09C
:104A10001382128210935A0600935906DF91CF91A8
:104A20001F910F910895A0E0B0E0E9E1F5E20C9448
:104A30007C23EC01009721F4CB010E94E623B8C04F
:104A4000FC01E60FF71F9C0122503109E217F30722
:104A500008F4ACC0D9010D911C91119706171707E6
:104A6000B0F00530110508F49FC0C80104978617FF
:104A7000970708F499C002501109061B170B019300
:104A800011936D937C93CF010E947B248DC05B01B9
:104A9000A01AB10A4C01800E911EA0915B06B09144
:104AA0005C0640E050E0E12CF12C109709F44AC07C
:104AB000A815B905D1F56D907C901197630182E03E
:104AC000C80ED11CCA14DB0480F1A3014A195B098A
:104AD0006A0182E0C80ED11C1296BC901297139600
:104AE000AC91B5E0CB16D10440F0B282A3835183E0
:104AF0004083D9016D937C930AC00E5F1F4FC301A1
:104B0000800F911FF90191838083EB2DFA2FE1141F
:104B1000F10431F0D7011396FC93EE93129744C041
:104B2000F0935C06E0935B063FC08D919C911197DA
:104B30004817590708F4AC017D0112960D90BC91FD
:104B4000A02DB3CF8091590690915A0688159905EA
:104B5000E1F446175707C8F480911D0190911E019A
:104B6000009741F48DB79EB74091210150912201E9
:104B7000841B950BE817F907C8F4F0935A06E093E5
:104B80005906F901718360830FC0CB010E94E623AF
:104B90007C01009759F0A801BE010E94E225CE01D8
:104BA0000E947B24C70104C0CE0102C080E090E0D7
:104BB000CDB7DEB7EEE00C94982381E090E0F89456
:104BC0000C94EB25FB01DC0102C001900D924150D9
:0A4BD0005040D8F70895F894FFCF85
:104BDA0000C18081000000FFFFFFFF00E10000002C
:104BEA00000000FFFFFFFF33010100000000005D2D
:104BFA0006800000000000FF0D890E490E260E00F7
:104C0A00000000AD0C15080E080708170700000081
:104C1A0000611B461E821B771B871BAA1C861C0071
:104C2A000000004616361B7E077D070000000006BE
:104C3A0007F2067E07E406EB06E806E50600000032
:104C4A0000830A361B7E077D072407000000006CDC
:104C5A001C6A1C681C761C811C00000000771CA9B9
:104C6A000D7B0D430DF60D000000001C08361B7E5F
:104C7A00077D07000000009C06DF077E0781077B8F
:104C8A00068C07A6074974656D312053656C656308
:104C9A007465642020003D3D3D3D3D204B45594211
:104CAA004F41524453203D3D3D3D3D000D0A0045D4
:104CBA004E204C61796F75742053656C6563746519
:104CCA0064005054204C61796F75742053656C658B
:104CDA0063746564002020204B6579626F61726499
:104CEA0073003D3D3D3D3D204D41494E204D454ED1
:104CFA0055203D3D3D3D3D002020205363726970A3
:104D0A007473002D3E2053637269707473002020FF
:104D1A0020496E666F002D3E204B6579626F617285
:104D2A006473002D3E20496E666F00202020505487
:104D3A00002D3E20505400202020454E002D3E20BC
:044D4A00454E0000D2
:1070000055C000006EC000006CC000006AC00000E7
:1070100068C0000066C0000064C0000062C00000DC
:1070200060C000005EC00000FCC400005AC0000048
:1070300058C0000056C0000054C0000052C00000FC
:1070400050C000005DC000004CC000004AC00000FD
:1070500048C0000046C0000044C0000042C000001C
:1070600040C000003EC000003CC000003AC000002C
:1070700038C0000036C0000034C0000032C000003C
:1070800030C000002EC000002CC000002AC000004C
:1070900028C0000026C0000024C0000022C000005C
:1070A00020C000001EC000001CC0000011241FBE34
:1070B000CFEFDAE0DEBFCDBF11E0A0E0B1E0E2E467
:1070C000FFE702C005900D92A43BB107D9F711E08C
:1070D000A4EBB1E001C01D92AD3CB107E1F74FD385
:1070E0002EC78ECFF89410926F001092810081E02D
:1070F00085BF15BE47985D9A289A0C9400000895A4
:107100001F920F920FB60F9211242F938F939F937C
:10711000EF93FF9310928500109284008091B40148
:107120009091B501009741F001979093B50180933C
:10713000B401892B09F45D9A8091B6019091B70151
:10714000009741F001979093B7018093B601892B86
:1071500009F4289A8091BA019091BB01019690930D
:10716000BB018093BA01E0E0F0E0859194918F5FDC
:107170009F4F49F08091B8019091B9010196909389
:10718000B9018093B801FF91EF919F918F912F9159
:107190000F900FBE0F901F90189584E08093E90028
:1071A0000DC08091E8008B778093E80003C08EB318
:1071B000882351F08091E80082FFF9CF8091E800A8
:1071C00085FFEFCF8091F1000895982F83E08093A1
:1071D000E9008091E80085FD0DC08091E8008E7780
:1071E0008093E80003C08EB3882369F08091E800A3
:1071F00080FFF9CF9093F1005D9884E690E0909342
:10720000B5018093B40108954F925F926F927F927F
:107210008F929F92AF92BF92CF92DF92EF92FF92A6
:107220000F931F93CF93DF9384E08093E9008091C5
:10723000E80082FF57C2289884E690E09093B70157
:107240008093B601AADF182F853481F48CEA9DE083
:107250009093B9018093B80107B600FCFDCFF9996E
:10726000FECF81E180935700E89503C0843519F47F
:1072700094DF8DE00DC28C34E1F38035D1F3843797
:1072800021F484E4A2DF80E003C2813611F489E5B1
:10729000FFC18134B1F481DF182F7FDF90E0880FC8
:1072A000991FAA2797FDA095BA2F312F330F20E001
:1072B000442737FD4095542F822B932BA42BB52BBD
:1072C000B8C1803711F483E5E3C1833549F4C0E0E8
:1072D000D1E089917ADF21E0C730D207D1F7D9C157
:1072E000863521F481E371DF80E3D2C1833731F445
:1072F00087E86BDF85E969DF8EE1CAC18536B9F4BD
:10730000E0E0F0E093E085E090935700E89507B661
:1073100000FCFDCF80935700E89507B600FCFDCF39
:10732000E058FF4FA0E7E030FA0771F7A2CF8237AD
:1073300039F4E1E0F0E089E0809357008491A8C13E
:10734000863439F4E0E0F0E089E0809357008491DE
:107350009FC18E3439F4E3E0F0E089E08093570078
:10736000849196C1813539F4E2E0F0E089E08093C0
:10737000570084918DC1823631F489E526DF80E0A3
:1073800024DF80E885C1823419F0873609F0E5C032
:107390001092B9011092B80100DF082FFEDEF82E1E
:1073A000FCDE682E8554823008F071C1902F80E099
:1073B000CF2DD0E0C82BD92B10926F00173609F0D3
:1073C0004BC081E180935700E895DD24CC24C39421
:1073D0003FC0E090BD01F090BE010091BF0110914F
:1073E000C001B6E46B16D9F4ED2DF0E0EE29FF29CB
:1073F000E4918E2FEADEDD2081F082E090E0A0E0D3
:10740000B0E0E80EF91E0A1F1B1FE092BD01F092CA
:10741000BE010093BF011093C001DC2418C0D80145
:10742000C701B695A7959795879573D5CEDE82E06F
:1074300090E0A0E0B0E0E80EF91E0A1F1B1FE092EA
:10744000BD01F092BE010093BF011093C0012197CE
:10745000209709F0BECF7DC08090BD019090BE0105
:10746000A090BF01B090C00196E4691609F05DC01C
:1074700083E0F40180935700E89507B600FCFDCF48
:1074800054C0F6E46F1661F5772031F1E090BD014C
:10749000F090BE010091BF011091C0017EDED82E98
:1074A000CC24852D90E08C299D29F7010C01409278
:1074B0005700E895112482E090E0A0E0B0E0E80EEB
:1074C000F91E0A1F1B1FE092BD01F092BE0100933E
:1074D000BF011093C00102C060DE582E742423C087
:1074E000E090BD01F090BE010091BF011091C0017C
:1074F00016950795F794E79450DE682FC70111D5CC
:107500008091BD019091BE01A091BF01B091C001D9
:107510000296A11DB11D8093BD019093BE01A09361
:10752000BF01B093C001219704C05524772444249F
:107530004394209709F0A5CF96E4691641F485E0BD
:10754000F40180935700E89507B600FCFDCF8DE06D
:107550003CDE82E080936F009CC0833471F4009124
:10756000BD011091BE0119DE90E021E0F8010C018F
:1075700020935700E89511247CCE833619F5E090CE
:10758000BD01F090BE010091BF011091C00105DE68
:10759000F701E16090E021E00C0120935700E895AD
:1075A000112482E090E0A0E0B0E0E80EF91E0A1F8E
:1075B0001B1FE092BD01F092BE010093BF0110932A
:1075C000C00157CE8D3661F4E091BD01F091BE014E
:1075D00085E080935700E89507B600FCFDCF49CEC3
:1075E000823551F4E091BD01F091BE0105911491F5
:1075F000812FEBDD802F4CC0843421F5E090BD015C
:10760000F090BE010091BF011091C0011695079541
:10761000F794E794C2DD682FC70183D48091BD0140
:107620009091BE01A091BF01B091C0010296A11D31
:10763000B11D8093BD019093BE01A093BF01B09393
:10764000C00117CE843609F5E090BD01F090BE016F
:107650000091BF011091C001D801C701B695A7954F
:107660009795879556D4B1DD82E090E0A0E0B0E038
:10767000E80EF91E0A1F1B1FE092BD01F092BE0129
:107680000093BF011093C00104C08B3111F08FE350
:107690009CDD83E08093E9009091E8008091E80010
:1076A0008E778093E80095FF04C010C08EB38823C6
:1076B000C9F08091E80080FFF9CF8091E8008E77D3
:1076C0008093E80003C08EB3882361F08091E800C6
:1076D00080FFF9CF84E08093E9008091E8008B7708
:1076E0008093E800DF91CF911F910F91FF90EF9071
:1076F000DF90CF90BF90AF909F908F907F906F90D2
:107700005F904F9008959091C501892F8F778132B6
:1077100049F58091C6018032A1F0813219F5913A84
:1077200009F58091E800877F8093E8008CE091E084
:1077300067E070E025D28091E8008B778093E800C5
:107740000895913279F48091E800877F8093E80072
:107750008CE091E067E070E077D28091E8008E776E
:107760008093E800089582E061EC42E0D1D083E0AC
:1077700061E842E1CDD084E060E842E1C9C01F93F6
:10778000209100081092000844B714BE88E10FB69B
:10779000F89480936000109260000FBE80E8E0E0F3
:1077A000F0E00FB6F89480936100E09361000FBEA3
:1077B00031E035BF92E095BF3F9A209A559A809369
:1077C00061001092610047985D9A289A1092890092
:1077D0008AEF8093880090936F0083E0809381000C
:1077E000859194918F5F9F4F11F03093BC01942F3E
:1077F00041FF19C0809109012817A9F08093000862
:10780000789480911301882339F08091BA01909186
:10781000BB0188579140C8F3F8941092000881E0AA
:10782000809313010CC090FF04C08091BC01882399
:1078300051F493FF09C080910901281729F0809124
:10784000BC01882309F04EDCD4D078941092B901A1
:107850001092B8011EEF20C0D7DC49D38091B80147
:107860009091B901815A9F4010F0109213018091BC
:10787000C1019091C20101969093C2018093C10110
:10788000292F97FF03C0512F591B252F220F28178F
:1078900010F4479801C0479A809113018823E1F6BC
:1078A0008091E00081608093E0001CDC80E090E04B
:1078B0001F910895FA01923049F0933061F09130B0
:1078C000F9F484E191E022E130E01EC086E291E02B
:1078D0002EE330E019C0882329F484E691E024E007
:1078E00030E012C0813029F488E691E02EE130E0EA
:1078F0000BC0823029F488E891E02AE230E004C02D
:1079000080E090E020E030E091838083C901089519
:107910008093E9008091EB0081608093EB001092EE
:10792000ED006093EC004093ED008091EE00881F25
:107930008827881F08958091C50188238CF403C08F
:107940008EB38823B1F08091E80082FFF9CF809157
:10795000E8008B778093E80008958EB3882349F080
:107960008091E80080FFF9CF8091E8008E778093C6
:10797000E8000895EF92FF920F931F9345D04CD0EB
:1079800008ED10E0F80180818F7780838081806826
:10799000808380818F7D808319BC1EBA1092C301C1
:1079A00080EEE82EF12CF70180818B7F8083F80137
:1079B00080818160808380E060E042E0A9DFE1EEC9
:1079C000F0E080818E7F8083E2EEF0E08081816054
:1079D0008083808188608083F70180818E7F8083AF
:1079E000F8018081806180831F910F91FF90EF905B
:1079F0000895E7EDF0E08081816080838AE482BFB2
:107A000081E08093C401B6CFE8EDF0E080818E7F05
:107A100080831092E20008951092DA001092E10043
:107A200008951F920F920FB60F9211242F933F9338
:107A30004F935F936F937F938F939F93AF93BF9376
:107A4000EF93FF938091DA0080FF1AC08091D800F5
:107A500080FF16C08091DA008E7F8093DA008091DB
:107A6000D90080FF0AC019BC82E089BD09B400FEBC
:107A7000FDCF81E08EBB3AD203C019BC1EBA36D20C
:107A80008091E10080FF17C08091E20080FF13C069
:107A90008091E2008E7F8093E2008091E20080611D
:107AA0008093E2008091D80080628093D80019BC56
:107AB00085E08EBB1BD28091E10084FF2BC08091BA
:107AC000E20084FF27C019BC82E089BD09B400FE32
:107AD000FDCF8091D8008F7D8093D8008091E10008
:107AE0008F7E8093E1008091E2008F7E8093E200A0
:107AF0008091E20081608093E2008091C30188233D
:107B000031F48091E30087FD02C081E001C084E090
:107B10008EBBECD18091E10083FF21C08091E20017
:107B200083FF1DC08091E100877F8093E10082E0A8
:107B30008EBB1092C3018091E1008E7F8093E100A3
:107B40008091E2008E7F8093E2008091E20080616C
:107B50008093E20080E060E042E0DADEC7D1FF918E
:107B6000EF91BF91AF919F918F917F916F915F91B5
:107B70004F913F912F910F900FBE0F901F9018952E
:107B80009C014091CB015091CC014617570718F446
:107B9000F90190E044C06115710511F0AB01F8CF17
:107BA0008091E8008E778093E80040E050E0F0CFCD
:107BB0008EB3882309F444C0853009F443C0809112
:107BC000E80083FF02C081E008958091E80082FD13
:107BD00031C08091E80080FF22C08091F300909135
:107BE000F200782F60E0292F30E0262B372B07C0DA
:107BF00081918093F100415050402F5F3F4F4115DC
:107C0000510519F02830310598F390E028303105FE
:107C100009F491E08091E8008E778093E8004115A7
:107C2000510531F6992321F605C08EB3882341F022
:107C3000853041F08091E80082FFF7CF80E0089521
:107C400082E0089583E008959C016115710529F48F
:107C50008091E8008B778093E800F90126C08EB30D
:107C6000882391F1853091F18091E80083FF02C073
:107C700081E008958091E80082FFF1CF06C08091F5
:107C8000F10081936150704059F02091F300809190
:107C9000F200322F20E090E0822B932B892B79F792
:107CA0008091E8008B778093E80061157105B9F643
:107CB00005C08EB3882341F0853041F08091E80003
:107CC00080FFF7CF80E0089582E0089583E0089573
:107CD0000F931F93DF93CF9300D0CDB7DEB7E5ECC2
:107CE000F1E08091F100819381E0ED3CF807C9F764
:107CF0000ADD8091E80083FFE4C08091C501909186
:107D0000C601953009F46DC0963040F4913081F190
:107D1000913070F0933009F0D4C02AC0983009F443
:107D2000A3C0993009F4B2C0963009F0CAC07CC033
:107D3000803809F4C6C0823809F0C3C08091C901F7
:107D400087708093E9008091EB001092E900209108
:107D5000E800277F2093E80090E025E0969587953E
:107D60002A95E1F781708093F1001092F10087C0AD
:107D7000882319F0823009F0A4C08F71823009F095
:107D8000A0C08091C701882331F52091C9012770D7
