:100000000C945A050C9482050C9482050C9482057C
:100010000C9482050C9482050C9482050C94820544
:100020000C9482050C9482050C94261A0C94F11AF7
:100030000C9482050C9482050C9482050C94820524
:100040000C9482050C9482050C9482050C94820514
:100050000C9482050C9482050C9482050C94FE1E6F
:100060000C9482050C9482050C9482050C948205F4
:100070000C9482050C9482050C9482050C948205E4
:100080000C9482050C9482050C9482050C948205D4
:100090000C945E130C9482050C9482050C948205DA
:1000A0000C9482050C9482050C94820548154B151E
:1000B0003A153E1544156C156C156C154F155315F6
:1000C00057155D1561156C156715000000000000DF
:1000D00000002A2B280000000000000000000000A3
:1000E000000000000000000000002C9EB4A0A1A2AF
:1000F000A434A6A7A5AE362D3738271E1F202122EF
:1001000023242526B333B62EB7B89F8485868788E7
:10011000898A8B8C8D8E8F909192939495969798D7
:10012000999A9B9C9D2F3130A3AD35040506070895
:10013000090A0B0C0D0E0F101112131415161718B7
:10014000191A1B1C1DAFB1B0B500000005072061D6
:10015000000000000000005F00000007000700141E
:100160007F147F14242A7F2A1223130864623649DD
:100170005522500005030000001C224100004122CE
:100180001C00082A1C2A0808083E080800503000F5
:100190000008080808080060600000201008040239
:1001A0003E5149453E00427F40004261514946214F
:1001B00041454B311814127F1027454545393C4ABB
:1001C000494930017109050336494949360649490B
:1001D000291E0036360000005636000000081422A2
:1001E0004114141414144122140800020151090688
:1001F000324979413E7E1111117E7F494949363E8F
:10020000414141227F4141221C7F494949417F09A7
:100210000901013E414151327F0808087F00417FBA
:1002200041002040413F017F081422417F4040406F
:10023000407F0204027F7F0408107F3E4141413E1F
:100240007F090909063E4151215E7F091929464669
:100250004949493101017F01013F4040403F1F2092
:1002600040201F7F2018207F631408146303047844
:100270000403615149454300007F414102040810D5
:100280002041417F00000402010204404040404000
:10029000000102040020545454787F484444383804
:1002A00044444420384444487F3854545418087E09
:1002B000090102081454543C7F0804047800447D6A
:1002C00040002040443D00007F10284400417F4012
:1002D000007C041804787C080404783844444438CA
:1002E0007C14141408081414187C7C0804040848AE
:1002F00054545420043F4440203C4040207C1C2067
:1003000040201C3C4030403C44281028440C5050B5
:10031000503C4464544C44000836410000007F00C7
:1003200000004136080008082A1C08081C2A080892
:100330000006090906000005072060000000000013
:1003400000005F00000007000700147F147F1424E2
:100350002A7F2A1223130864623649562050000867
:10036000070300001C2241000041221C002A1C7FC0
:100370001C2A08083E080800807030000808080899
:1003800008000060600020100804023E5149453E0C
:1003900000427F400072494949462141494D331886
:1003A00014127F1027454545393C4A4949314121BE
:1003B0001109073649494936464949291E000014A2
:1003C00000000040340000000814224114141414EA
:1003D00014004122140802015909063E415D594E9C
:1003E0007C1211127C7F494949363E414141227FAE
:1003F0004141413E7F494949417F090909013E4147
:100400004151737F0808087F00417F41002040412F
:100410003F017F081422417F404040407F021C0280
:100420007F7F0408107F3E4141413E7F0909090654
:100430003E4151215E7F0919294626494949320327
:10044000017F01033F4040403F1F2040201F3F40AD
:1004500038403F6314081463030478040361594966
:100460004D43007F414141020408102000414141B9
:100470007F0402010204404040404000030708009E
:1004800020545478407F2844443838444444283821
:100490004444287F385454541800087E090218A494
:1004A000A49C787F0804047800447D4000204040EC
:1004B0003D007F1028440000417F40007C04780408
:1004C000787C080404783844444438FC1824241800
:1004D00018242418FC7C08040408485454542404A8
:1004E000043F44243C4040207C1C2040201C3C40D5
:1004F00030403C44281028444C9090907C446454F4
:100500004C440008364100000077000000413608E6
:100510000002010204023C2623263C00030C0F309B
:10052000333C3FC0C3CCCFF0F3FCFFAED580A81F57
:10053000D300408D142002A1C8DA02817FD9F1DBFB
:1005400040A4A6AF00000000250028002B002E00CC
:100550003100000000002300260029002C002F009D
:100560000000000200090F0000030401000C00005D
:10057000000000000000000000000000000000007B
:1005800005072061000000000000005F0000000778
:10059000000700147F147F14242A7F2A12231308D3
:1005A000646236495522500005030000001C2241B8
:1005B000000041221C00082A1C2A0808083E0808DE
:1005C00000503000000808080808006060000020A3
:1005D000100804023E5149453E00427F40004261FE
:1005E0005149462141454B311814127F102745458A
:1005F00045393C4A494930017109050336494949A1
:1006000036064949291E00363600000056360000DD
:100610000008142241141414141441221408000276
:1006200001510906324979413E7E1111117E7F49FF
:100630004949363E414141227F4141221C7F49497F
:1006400049417F090901013E414151327F080808B3
:100650007F00417F41002040413F017F081422413B
:100660007F404040407F0204027F7F0408107F3EAD
:100670004141413E7F090909063E4151215E7F0902
:10068000192946464949493101017F01013F40404E
:10069000403F1F2040201F7F2018207F6314081434
:1006A000630304780403615149454300007F4141DD
:1006B000020408102041417F0000040201020440AE
:1006C00040404040000102040020545454787F48C8
:1006D0004444383844444420384444487F385454CF
:1006E0005418087E090102081454543C7F0804047D
:1006F0007800447D40002040443D00007F102844A5
:1007000000417F40007C041804787C080404783899
:10071000444444387C14141408081414187C7C08CD
:100720000404084854545420043F4440203C4040B2
:10073000207C1C2040201C3C4030403C4428102899
:10074000440C5050503C4464544C44000836410022
:1007500000007F0000004136080008082A1C080835
:100760001C2A08080006090906FFFFBFFFFFFFFB60
:10077000FFFFFFBFFFFF7FFBFFFFF7BBFFFF7FBB5D
:10078000FFFFF7BBFFFE7FBBFFEFD7BBFDFE7DBBCF
:10079000DFEFD7BB7DFE7DBBD3EFD7BB3D7E7CBB00
:1007A000D3E7C7B3397E7C3B93E7C793397C3C39A9
:1007B00093C78393397C383183C78311187C3811F0
:1007C0008187830118783810018783011038300041
:1007D00001830300101810000181010010101000A7
:1007E000000101000010000000FFFFBFFFFFFFFB42
:1007F000FFFFF7BFFFFFFFFBFFFF07E1FD7D0DAD33
:10080000EDCD1DFBF3E61F1BC1FDFD01FBFE7D3B96
:1008100083FDFD0D31CEE5F33BD9CDAD2D6C48A365
:1008200003F9FD9DC1E670399DEDC503F9FC1C017E
:1008300093C78303F1FC3C0103C1FDFD047000F983
:10084000FD1DFDF1803818E0FD3D8101C0F07818F4
:10085000098D0D0C0CF8F8F001810100101010004A
:10086000000101000000000000FFFFBFFFFFFFFBD1
:10087000FFFFFFBFFFFF7FFBBF017C7F67602F6B28
:1008800037B39C9FE7F06280BF3F706B2D6E35B829
:100890009FCFD0BA409F3F30626F672B350E1C60F0
:1008A0003F3F83B1071F7C7103A7C09F3F3B602977
:1008B0002327B19E1F673801787F1F0018607F3F94
:1008C000818480073F7C7C7F0780800E3F3F3060C3
:1008D000212323301C1F0F01008101001010100084
:1008E000000101000010000000FFFFBFFFFFFFFB41
:1008F000FFFFF7BFFFFFFFFBFFFFF7BFFFFF7FBB60
:10090000FFEFF7BBFFFE7FBBFFEFD7BBFFFE7DBB5B
:10091000DFEFD7BB3DFE7DBBD3EFD7BB3D7E7DBBBD
:10092000D3E7C7B3397E7C3B93E7C793397C3C3927
:1009300093C78393397C383183C78311187C38116E
:1009400081878301187838100183830110383000C3
:100950000183030010181000018101001010100025
:100960000001010000000000002B05198020000795
:100970000605040100080A0B0C0D09080B00020211
:100980000201000904000001020200000524001019
:1009900001052401010104240206052406000107C3
:1009A00005810310004009040100020A000000074D
:1009B000050202400000070583024000000403090D
:1009C0000412010002EF0201404F1B0492000101DA
:1009D000020301537061726B46756E005370617251
:1009E0006B46756E2050726F204D6963726F007C8C
:1009F0003C3E5E2B3D3F2F5B5D3B2C2A225C000082
:100A0000000000240027002A002D00300004080206
:100A10000110408040102040804080080204018086
:100A200040201002011080102040402004040404E3
:100A30000403040502020202040302020202060683
:100A4000060606060404020202040405010902A1C6
:100A5000010901A1008501050919012903150025D6
:100A60000195037501810295017505810305010951
:100A700030093109381581257F750895038106C035
:100A8000C005010906A1018502050719E029E7153E
:100A9000002501750195088102950175088103956E
:100AA000067508150025650507190029658100C030
:100AB0002D2D282A11241FBECFEFDAE0DEBFCDBFD7
:100AC00014E0A0E0B1E0E4EAF5E602C005900D9282
:100AD000A63AB107D9F728E0A6EAB4E001C01D9212
:100AE000AB3CB207E1F715E0C9E5D5E004C02197BA
:100AF000FE010E948330C835D107C9F70E94342A0D
:100B00000C94C5320C9400008FEF9FEF08958091F4
:100B1000CA0490E091958195910908950895FC018A
:100B20006093BC008091BC0087FFFCCF9091B9001E
:100B3000987F90830895CF92DF92EF92FF920F9368
:100B40001F93CF93DF93EC01C62ED42E8F8588237D
:100B500051F0411108C084E98093BC008091BC0031
:100B600084FDFCCF1F86EF848E01035F1F4FE110D1
:100B700014C0FE8464EAC8010E948F058D85883008
:100B800011F1803101F1DD2011F080E4E82EE092D6
:100B9000BB0064E8C8010E948F05C092BB0064E8F6
:100BA000C8010E948F0582E0D81204C08F858F5F34
:100BB0008F8711C084E98093BC008091BC0084FDC4
:100BC000FCCF1F8608C0FF0CF092BB0064E8C80190
:100BD0000E948F05D8CFDF91CF911F910F91FF9089
:100BE000EF90DF90CF900895089580E090E0089511
:100BF000CF93DF9300D0CDB7DEB7CB01642F49830D
:100C00005A830E948C144981842F5A81952F0F900A
:100C10000F90DF91CF910895CF93DF931F92CDB7BF
:100C2000DEB7698361E0CE0101960E948C1481E0F9
:100C300090E00F90DF91CF9108958EE198E00E94AF
:100C4000421360ED77E080E090E00E94C2166CED08
:100C500075E080E090E00E94C2160C948D27CF933F
:100C6000DF938EE198E00E944213CEE1D8E085E365
:100C700093E09C878B876BED71E0CE010E94051697
:100C8000CE010E94011661EF71E0CE010E940516AF
:100C90008AE491E09C878B8761E080E090E00E948D
:100CA000DB2F80E090E00E94D32F90E090933C05F2
:100CB00080933B056CED75E080E090E00E94C216E9
:100CC000DF91CF910C948D27CF93DF938EE198E045
:100CD0000E944213CEE1D8E085E393E09C878B87A6
:100CE0006BED71E0CE010E940516CE010E94011647
:100CF00064E072E0CE010E9405168AE491E09C87D0
:100D00008B8760E080E090E00E94DB2F80E090E045
:100D10000E94D32F90E090933C0580933B056CEDAF
:100D200075E080E090E00E94C216DF91CF910C94B4
:100D30008D27FB01628173818EE198E00C94171678
:100D4000FB01628173818EE198E00C941716FB0120
:100D5000628173818EE198E00C941716CF93DF9334
:100D6000EB016A817B8183E897E00E9405168A8106
:100D70009B810884D985C02D8751924009F462C0B7
:100D80008EE198E00E94421365E272E08EE198E005
:100D90000E94051680913B0590913C05892B49F0F6
:100DA0006BE372E086E698E00E94F01960E572E07D
:100DB00008C065E672E086E698E00E94F0196AE7EE
:100DC00072E08CE698E00E94F0198A819B818F582E
:100DD000924081F46BE972E08EE198E00E94051682
:100DE00086E698E00E942F1967EA72E08EE198E0AB
:100DF0000E9405168A819B818751924081F46FE899
:100E000072E08EE198E00E9405168CE698E00E9460
:100E10002F1967EA72E08EE198E00E9405168A8138
:100E20009B81875A924009F041C06FE872E08EE1E1
:100E300098E00E94051686E698E00E942F1960EB64
:100E400072E02EC08EE198E00E9442136BED71E0DB
:100E50008EE198E00E94051665E973E08EE198E066
:100E60000E9405168A819B81895B924061F460EC47
:100E700072E08EE198E00E94051667EC72E08EE168
:100E800098E00E9405168A819B81875C924071F4EC
:100E900069EB72E08EE198E00E9405166EEC72E05C
:100EA0008EE198E0DF91CF910C940516DF91CF9100
:100EB0000895CF93DF93EB010E94A71F28E030E055
:100EC000AE0162E0DF91CF910C94731FDC016838B2
:100ED00010F0685825C0E62FF0E067FF12C0E05818
:100EE000F10981E090E001C0880FEA95EAF780956A
:100EF00014969C911497892314968C93149760E010
:100F00000FC0E653FF4F6491662301F167FF08C0ED
:100F100014968C9114978D7F14968C9314976F77F9
:100F2000FD01369686E0662321F09081961301C07C
:100F30001082815031968111F6CFCD01BD016C5FD9
:100F40007F4F0E94590781E090E0089580E090E093
:100F50000895DC01683810F068582DC0E62FF0E0E5
:100F600067FF11C0E058F10981E090E001C0880FEF
:100F7000EA95EAF714969C911497892B14968C9312
:100F8000149760E018C0E653FF4F6491611109C0E7
:100F900081E090E013969C938E93129780E090E00E
:100FA000089567FF08C014968C9114978260149678
:100FB0008C9314976F7716968C911697861751F12C
:100FC00017968C911797861729F118968C91189778
:100FD000861701F119968C9119978617D9F01A96F0
:100FE0008C911A978617B1F01B968C911B978617D8
:100FF00089F0FD01369680E090E02191211105C035
:10100000FD01E80FF91F668305C001968630910542
:10101000A1F7BECFCD01BD016C5F7F4F0E94590784
:1010200081E090E00895EF92FF921F93CF93DF93BA
:10103000EC01162F0E94A9077C01612FCE010E94AE
:101040006607C7019927DF91CF911F91FF90EF901D
:101050000895FC01E60FF71FDA01CD01841B950B03
:101060008217930734F491918D919817B1F380E032
:10107000089581E00895AF92BF92CF92DF92EF92F0
:10108000FF920F931F93CF93DF93CDB7DEB7609797
:101090000FB6F894DEBF0FBECDBF5C018B016B01B4
:1010A0008FEFC81AD80A26E030E045ED52E0B601CD
:1010B000C5010E942908882391F1209100013091F7
:1010C0000101C901330FAA0BBB0B609102017091A2
:1010D00003016B01770FEE08FF08C816D906EA0670
:1010E000FB06DCF49C01AD012C193D094E095F099A
:1010F00069F02D873E874F87588B0E94372F2D85AB
:101100003E854F8558890E94E92F03C060E070E05A
:10111000CB01C60ED71EE81EF91E760144C00A5F39
:101120001F4F7601B501CE0101960E94111A0C15D0
:101130001D0510F47801860165E973E0CE0107967C
:101140000E94111A8D819E81E816F906C0F480175D
:10115000910708F48C01E981FA81E00FF11FD0803A
:10116000108269817A816E0D7F1DCE0107960E94E3
:10117000F01989819A81FC01E00FF11FD0820F8163
:1011800018850115110521F0C8010E94632F03C0C5
:1011900060E070E0CB017B01C8010E941E318981B3
:1011A0009A810E941E31C70160960FB6F894DEBF87
:1011B0000FBECDBFDF91CF911F910F91FF90EF90A8
:1011C000DF90CF90BF90AF900895EF92FF920F9372
:1011D0001F93CF93DF9300D000D0CDB7DEB78091BF
:1011E000A8049091A904E0918008F091810800E0A2
:1011F00010E00817190734F42191203229F00F5F0D
:101200001F4FF7CF0FEF1FEF6CED72E083E897E011
:101210000E941716609180087091810883E897E01A
:101220000E9405168EE198E00E94421362EE72E081
:101230008EE198E00E9405168EE198E00E9401166A
:1012400060918008709181088EE198E00E941716E5
:101250006FE873E080918008909181080E948A2F46
:1012600090935605809355050F3F8FEF180719F49B
:101270000E94E21745C068EF72E0C8010E94812811
:10128000811167C065E073E0C8010E948128811167
:1012900060C06CE573E0C8010E948128811165C0BF
:1012A00063E173E0C8010E94812881115EC08091D2
:1012B0008008909181080530110509F062C025E091
:1012C00030E047E653E060E070E00E9429088823A0
:1012D00009F48CC06FE873E080E090E00E948A2FF0
:1012E00090935605809355050E94452F9093A7042F
:1012F0008093A604BC01990F880B990B0E94C2161B
:10130000109278081092790810927A0810927B084F
:1013100010927C0810927D081092760866E778E0BB
:1013200082E798E00E9459076091060170910701D9
:10133000072E000C880B990B0E94C2160F900F907D
:101340000F900F90DF91CF911F910F91FF90EF9031
:101350000895B80180918008909181080E943B080F
:101360009093070180930601CBCFB801809180084C
:10137000909181080E943B0890930501809304019D
:10138000BFCF0630110591F526E030E046E253E08C
:1013900060E070E00E942908882341F107E010E036
:1013A0008091A8049091A904081719070CF0A8CF00
:1013B000E0918008F0918108E00FF11FF0806F2D1F
:1013C00082E798E00E94A9076091040170910501ED
:1013D000072E000C880B990B0E94C2166F2D82E716
:1013E00098E00E9466070F5F1F4FDACF6DE273E04F
:1013F000C8010E948128882379F14091A804509166
:10140000A90498012F5F3F4F809180089091810837
:10141000241735074CF4FC01E20FF31F60816032A2
:1014200041F02F5F3F4FF4CFEE24EA94FF24FA946B
:1014300001C07901B8010E943B08182FB7018091C3
:101440008008909181080E943B0890912E08998312
:101450001A838B831C8214C063E373E0C8010E946B
:1014600081288823C1F0B80180918008909181087B
:101470000E943B0890912E0899831A821B828C83CC
:101480000E94A71F24E030E0AE014F5F5F4F61E094
:101490000E94731F35CF6AE373E0C8010E94812860
:1014A000882361F0B80180918008909181080E94A2
:1014B0003B08909303018093020122CF64E473E020
:1014C000C8010E948128882361F0B80180918008BA
:1014D000909181080E943B08909301018093000144
:1014E0000FCF6EE473E0C8010E948128811108CFFC
:1014F00062E573E0C8010E948128811101CF8091CB
:10150000550590915605892B09F4FACE0E94E217F1
:1015100069E573E080E090E00E948A2F9093560581
:1015200080935505ECCF2F923F924F925F926F922E
:101530007F928F929F92AF92BF92CF92DF92EF9263
:10154000FF920F931F93CF93DF93CDB7DEB7C857AA
:10155000D1090FB6F894DEBF0FBECDBF8EE198E083
:101560000E9442136DE673E08EE198E00E9405163A
:1015700065E973E0CE018D589F4F0E94111A89E0F2
:101580000E942D16892B11F461E301C060E3CE01A6
:101590008D589F4F0E9495198AE00E942D16892B25
:1015A00011F461E301C060E3CE018D589F4F0E94AA
:1015B00095198DE00E942D16892B11F461E301C06D
:1015C00060E3CE018D589F4F0E94951985E00E94DF
:1015D0002D16892B11F461E301C060E3CE018D5813
:1015E0009F4F0E949519E9960EAD1FADE9970C5FCC
:1015F0001F4FB801CE018D589F4F0E946E1988234E
:1016000091F0E5962EAD3FADE597E9968EAD9FAD95
:10161000E99763E873E0820F931F0E94AF32E99667
:101620001FAF0EAFE9978EE198E00E94011660E0CF
:1016300087E00E94561661E086E00E94561668E830
:1016400073E08EE198E00E941716CE018D589F4FEF
:101650000E942F190E940426E596CEACDFACE597D8
:101660005E018EE1A80EB11C6FEF77E0C5010E940C
:101670006C0F1C821B828BE591E09A8389831E820A
:1016800036018E010F5F1F4F250118016FE270E0D8
:10169000C3010E949B32009709F441C0F3012081ED
:1016A0002F3221F4FFEF6F1A7F0AF0CF86198D30A9
:1016B00008F08CE0E82EF12CA701B301CE01885A86
:1016C0009F4F0E94B632E8E5F0E0EC0FFD1FEE0DF3
:1016D000FF1D1082C8010E94FE22F8018581882327
:1016E00051F01EAE1DAE8BE591E09CAF8BAF219605
:1016F0001FAE21971CC0AE01485A5F4FB201C8010E
:101700000E949A27882369F36E0C7F1CC2010E94F5
:10171000FE22942D852D2801092F182FB7CF4301C4
:101720008C189D08B201CE01CB960E946C0FC80C9C
:10173000D91CF6018081811109C0BE01655C7F4F13
:10174000C1010E946C0F41E953E03FC019A218A2E9
:101750008BE591E09F8F8E8F1BA221968FAD2197F5
:10176000811116C06C961FAE1EAE6C9788EE93E08A
:10177000A0E0B0E0A0968CAF9DAFAEAFBFAFA0979A
:10178000E3961FAE1EAEE397A5961FAEA59723C0A6
:101790008250A601823040F46FEF77E0C5010E94CD
:1017A0009A2781110DC0DECFBE01655C7F4FC50158
:1017B0000E949A278823B1F2CE01CB960E94FE2286
:1017C000B501C1010E946C0FA601B101CE01885A7A
:1017D0009F4F0E94BD0F6C968EAD9FAD6C979093FE
:1017E000850880938408A0968CAD9DADAEADBFAD4D
:1017F000A0978093860890938708A0938808B09359
:101800008908A4968CAD9DADAEADBFADA497809375
:101810008A0890938B08A0938C08B0938D088DE074
:10182000E8E5F0E0EC0FFD1F3C96AEE8B8E0019073
:101830000D928A95E1F7E3968EAD9FADE397909375
:101840009C0880939B0882E898E00E94210D2091DB
:10185000A8043091A904892B09F49AC0009180084A
:1018600010918108020F131F82E898E00E94FC107B
:10187000F80180838091A8049091A904E0918008E8
:10188000F0918108E80FF91F20812D3031F02A30C6
:1018900071F0803891055CF475C082E898E00E9490
:1018A00006110A9721F482E898E00E94FC10E0916A
:1018B0009B08F0919C08309729F082849384A4843B
:1018C000B58404C088248A94982C540100E010E068
:1018D00082E898E00E94210D892B91F0E0907E082B
:1018E000F0907F08E00EF11E82E898E00E94FC1064
:1018F000F70180830F5F1F4F0C30110549F703C0BC
:1019000007301105B4F000917E0810917F0826E0A1
:1019100030E042E553E060E070E0C8010E94290831
:10192000882339F066E070E0C8010E943B088C0112
:1019300002C000E010E0E12CF12CE016F10634F4D6
:101940000E94E508FFEFEF1AFF0AF7CF80919B088E
:1019500090919C08009721F0B501A4010E94682293
:10196000E0918008F09181088091A8049091A904E9
:10197000E80FF91F10820E94E5081092A904109246
:10198000A80461CF01969093A9048093A8045BCF2B
:101990001216130674F48091800890918108FC015E
:1019A000E20FF31F10820E94E5081092A904109222
:1019B000A80480919B0890919C08009761F00E9478
:1019C000FE2280919B0890919C080E941E311092EB
:1019D0009C0810929B0861E087E00E94561660E028
:1019E00086E00E945616E5968EAD9FADE5970E9463
:1019F0001E316CED75E080E090E00E94C216C85880
:101A0000DF4F0FB6F894DEBF0FBECDBFDF91CF9191
:101A10001F910F91FF90EF90DF90CF90BF90AF900C
:101A20009F908F907F906F905F904F903F902F90FE
:101A30000895DC01ED91FC910084F185E02D40E0FA
:101A40000994DC015996ED91FC915A973097B9F0C1
:101A500083899489A589B68942855385648575856E
:101A6000841B950BA60BB70B811520E89207A105E7
:101A7000B10538F08FEF9FE7A0E0B0E0089580E077
:101A800090E00895CF93DF931F92CDB7DEB76983BF
:101A9000DC01ED91FC910280F381E02D41E050E00A
:101AA000BE016F5F7F4F09950F90DF91CF91089531
:101AB00085ED8093BC008091BC0084FDFCCF10922A
:101AC0001305089508958FEF9FEF0895FC01818D10
:101AD000928D009711F00C942A220895CF93DF93F2
:101AE000EC01898D9A8D009739F481E090E09B8319
:101AF0008A8380E090E00BC0FC01138212820E9476
:101B00000D24E98DFA8D22813381232B71F7DF912A
:101B1000CF9108950F931F93CF938C01FC016483A1
:101B20009085C62FC90F6C2F6F70C8010E94190DC8
:101B30006C2F62956F706061C801CF911F910F91FA
:101B40000C94190D8FB7F89480913A058FBF0895C2
:101B500061E0FC0184810E94561680913905811153
:101B60001092390508958EBD00000DB407FEFDCF1B
:101B70008EB508958FEF0C94B30D0F931F93CF93F1
:101B8000DF93EB010E94F21E8B010E94BA0D8F3F82
:101B900049F00E94F21E601B710B6C177D07A8F3C1
:101BA00080E001C081E0DF91CF911F910F910895F6
:101BB000CF93DF93EC018E81882389F08F81988504
:101BC0009C012F5F3F4F38872F838230924018F45B
:101BD0000E94BA0DF3CFCE010E94A80D1E82DF91A4
:101BE000CF9108958CBD9DBD0895CF93DF93EC01F7
:101BF00080913905811109C081E080933905809178
:101C0000D3079091D4070E94F20D60E08C81DF91A0
:101C1000CF910C945616CF92DF92FF920F931F93A1
:101C2000CF93DF9300D000D0CDB7DEB76C01F62E96
:101C300029833A834B835C830E94D80DC6010E949E
:101C4000F50D6CE271E0C6010E94BD0D8F2D806420
:101C50000E94B30D08E110E05C814B813A8129813B
:101C6000DA01C901002E04C0B695A795979587950E
:101C70000A94D2F729833A834B835C830E94B30D85
:101C80000850110929813A814B815C81083F8FEF0F
:101C9000180731F7FF2029F0E8E0FE1204C087E8BA
:101CA00003C085E901C08FEF0E94B30D10E00E94D0
:101CB000BA0DF601828787FF04C01F3F11F01F5F36
:101CC000F6CF0F900F900F900F90DF91CF911F9153
:101CD0000F91FF90DF90CF900895AF92BF92CF9277
:101CE000DF92EF92FF920F931F93CF93DF93EC015C
:101CF0006901C801820F931F8130924008F070C0C3
:101D00008E81882371F088819981AA81BB814817CF
:101D100059076A077B0729F48F819885C816D90669
:101D2000B0F5488359836A837B838B85833039F090
:101D300089E0440F551F661F771F8A95D1F79A01D6
:101D4000AB0161E1CE010E940B0E882319F083E004
:101D50008D8346C00E94F21E5B010E94BA0D8A87E5
:101D60008F3F49F40E94F21E6A197B096D3271405F
:101D7000A0F38FE003C08E3F31F08DE08D83CE0164
:101D80000E94A80D2DC018861F8281E08E838F814E
:101D900098858C159D0540F40E94BA0D8F81988519
:101DA000019698878F83F3CF6701E00EF11ECE1462
:101DB000DF0431F00E94BA0DF60181936F01F7CF75
:101DC0008F819885080F191F18870F8389858823AD
:101DD00019F00115124048F0CE010E94D80D05C03F
:101DE000CE010E94A80D80E001C081E0DF91CF917B
:101DF0001F910F91FF90EF90DF90CF90BF90AF9029
:101E00000895EF92FF920F931F93CF93DF93EC010E
:101E10007901411551056105710511F482E13CC05C
:101E20008B85833039F089E0440F551F661F771F7B
:101E30008A95D1F79A01AB0168E1CE010E940B0EA1
:101E4000882311F084E028C08EEF0E94B30D870133
:101E50008EEFF81AF80181918F010E94B30D0E15D3
:101E60001F05C1F78FEF0E94B30D8FEF0E94B30DD6
:101E70000E94BA0D8A878F71853031F081E18D83A0
:101E8000CE010E94A80D09C068E572E0CE010E9453
:101E9000BD0D811107C085E18D83CE010E94A80D83
:101EA00080E013C020E030E0A9016DE0CE010E9487
:101EB0000B0E811104C00E94BA0D882311F084E139
:101EC000EBCFCE010E94A80D81E0DF91CF911F9151
:101ED0000F91FF90EF900895FC01DB0112968D9118
:101EE0009C911397938382838BE591E09183808308
:101EF00014968C911497848315968C9115978583ED
:101F000016964D915D916D917C91199746835783FB
:101F1000608771871A964D915D916D917C911D97A7
:101F200042875387648775871E964D915D916D91A9
:101F30007C91519746875787608B718B52968C9115
:101F40005297828B53964D915D916D917C915697EE
:101F5000438B548B658B768B57964D915D916D912C
:101F60007C915A97478B508F618F728F5B968D91C2
:101F70009C915C97948F838F0895EF92FF920F93BB
:101F80001F93CF93DF93EC017B018A011B821A829E
:101F900088EE93E0A0E0B0E08C839D83AE83BF83A6
:101FA0008FEA91E0998388838DE190E00E948930E7
:101FB0009A8F898F009779F02DE1F701DC0101906C
:101FC0000D922A95E1F74CE050E0B801CE010C9655
:101FD0000E94B632188EDF91CF911F910F91FF9022
:101FE000EF9008952F923F924F925F926F927F925F
:101FF0008F929F92AF92BF92CF92DF92EF92FF9219
:102000000F931F93CF93DF9300D0CDB7DEB7FC01C2
:102010008581882309F4D9C0848180FFD6C021E05E
:102020002A83438954896589768982859385A48525
:10203000B585481759076A077B0709F41A826F01AB
:102040003A81832F90E0DE0111964D013F01B6E009
:102050006B0E711C892B09F47DC0D6011A964D9127
:102060005D916D917C911D975A01B1E0BB22F60103
:1020700025811A012B0189E05694479437942794BF
:102080008A95D1F7838D948D223061F4FC01828D85
:10209000938DA48DB58DBC01CD01620D731D841D82
:1020A000951D45C0DC0114961C9111501221A114FC
:1020B000B104D1F4111118C0452B462B472B51F414
:1020C000F6018789908DA18DB28D86839783A08735
:1020D000B1870AC0468157816085718593010E944E
:1020E0003D21882309F471C0F601238D348D86814A
:1020F0009781A085B1850297A109B109AC01BD0105
:10210000F901058404C0440F551F661F771F0A9408
:10211000D2F786859785A089B189840F951FA61F60
:10212000B71FBC01CD01610F711D811D911DD6012D
:1021300014962C9126FF14C000911B0110911C01D4
:1021400020911D0130911E016017710782079307CE
:1021500051F506C0FA81FF23C1F1898190E037C0B3
:1021600040E00E945420882381F1F501EF57FA4F97
:10217000D401CF010196E817F90719F021912D93A9
:10218000FACFEFEF8E1A9E0AF60182859385A48519
:10219000B5850196A11DB11D82879387A487B58758
:1021A00080E090E057CF740101E010E09501AB01B1
:1021B000BC0180918107909182070E946D0E882357
:1021C00021F0BFEF8B1A9B0ADFCF8FEF9FEF0F90AD
:1021D0000F90DF91CF911F910F91FF90EF90DF90C3
:1021E000CF90BF90AF909F908F907F906F905F90B7
:1021F0004F903F902F900895FC01818D928D009714
:1022000011F00C94F20F8FEF9FEF08950F931F932F
:10221000CF93DF93FC01818D928D0097B9F0EF0190
:102220000E94F20F8C010F3F8FEF180791F0898DFC
:102230009A8DFC014285538564857585415051090D
:10224000610971090E946822C80105C080E090E020
:1022500002C08FEF9FEFDF91CF911F910F910895F3
:10226000CF93DF93EC019C818E81981758F4E8811D
:10227000F9810084F185E02D42E0CE0109958C8141
:102280008F5F8C83DF91CF9108950F931F93CF932E
:10229000DF931F92CDB7DEB78C01FC0186816817F2
:1022A00028F4C80149830E948A0D4981F801878179
:1022B000869586958695481758F44583642F606BFC
:1022C000C8010F90DF91CF911F910F910C94190DC0
:1022D0000F90DF91CF911F910F910895CF92DF92D0
:1022E000EF92FF920F931F93CF93DF93EC01F62EA3
:1022F000C42ED22E8F81869586958695081710F06C
:102300000FEF080F1D2D011780F0412F6F2DCE010B
:102310000E944511EF2CCE1430F060E0CE010E94F7
:102320003011E394F8CF1F5FEECF4D2D6F2DCE010E
:10233000DF91CF911F910F91FF90EF90DF90CF90A1
:102340000C9445112F923F924F925F926F927F9221
:102350008F929F92AF92BF92CF92DF92EF92FF92B5
:102360000F931F93CF93DF93CDB7DEB727970FB6A9
:10237000F894DEBF0FBECDBFDC011B960D911C9102
:102380001C970115110509F462C19F838E83F80122
:10239000B49131964491319654903196A491EA2E9D
:1023A000F12CF7E0EF0EF11C23E0F594E7942A9569
:1023B000E1F7EB82F801349674913196E491671756
:1023C00058F0862F90E02E2F30E0F901E70FF11D35
:1023D0008E179F070CF473C06D3069F4AE81BF8116
:1023E00016968C91882309F467C060E08E819F81E6
:1023F0000E948A0D61C06A3009F029C1EE81FF8117
:1024000081856581D62E8E9DD00C1124878186957D
:1024100086958695D81630F08285882319F082E05B
:102420008287D12C4D2D60E08E819F810E944511C5
:10243000AE81BF811A968C911A97823008F43CC005
:1024400015962C9115971B96ED91FC911C97309742
:1024500041F03396E49119960C91E09FE02D112400
:1024600001C0E0E08FEF820F0E2F10E0095F1F4FD9
:1024700093E0159507959A95E1F7080FEE81FF8196
:10248000468141506481CF010E946E11AE81BF81AF
:1024900019968C9119976D2D8E9D600D1124660FE4
:1024A000660F660F17968C91861708F460E06064DB
:1024B0008E819F810E94190D81E090E0CAC050E09A
:1024C0005B2BC8010696671BEE81FF81F185F983BE
:1024D0004230510588F4452B09F019825E9C900129
:1024E0005F9C300D1124629F8001639F100D1124A9
:1024F000080F191F412C24C0EA2FE77021F048E093
:10250000442E4E1A01C0412CA82FFC0140E050E09F
:102510007E2F7A1B761728F47491470F511D319640
:10252000F7CFFC01E60FF11D54904E9D80014F9DA9
:10253000100D5E9D100D1124020F131F080F191F9F
:10254000AE81BF811496BC91BC83EE81FF81358042
:10255000652C712CCC24C394D12C812C912C7FEF31
:102560007C0D7A838B81781708F05FC0212CAE81B7
:10257000BF8119968C91281608F051C07A8171118B
:1025800002C0222051F0AE81BF8115964C91159763
:102590004F5F6C81CD010E944511A12CB12CA51477
:1025A00088F5F501E80DF91DE00FF11F2491442095
:1025B00061F0CE14DF0449F4E22FF0E0042C02C0F5
:1025C000F595E7950A94E2F72E2FEE81FF8181853C
:1025D000823079F4E22F2110E295EF70F0E0E55EB1
:1025E000FA4F2491622F8E819F812D830E9430119A
:1025F0002D81622F8E819F810E943011FFEFAF1AD3
:10260000BF0ACDCFB12C7981B71639F060E08E8149
:102610009F810E943011B394F6CF2394A8CF860CEB
:10262000971CBFEFCB1ADB0A9ACFAE81BF811796FA
:102630008C911797869586958695381608F03CCF2D
:1026400015963C921597632D606BCD0133CF80E0DA
:1026500090E027960FB6F894DEBF0FBECDBFDF9196
:10266000CF911F910F91FF90EF90DF90CF90BF908F
:10267000AF909F908F907F906F905F904F903F9022
:102680002F9008950F93CF93DF93EC010F81069560
:102690000695069501504E81415020E060E00E9471
:1026A0006E1181E09A85911101C080E08A8760E413
:1026B000CE01DF91CF910F910C94190D1F920F92C3
:1026C0000FB60F9211242F933F934F935F936F9305
:1026D0007F938F939F93AF93BF93EF93FF938091DB
:1026E000B900887F803609F49CC068F5883209F407
:1026F0005BC090F4803109F454C038F4882309F4A5
:10270000F6C0883009F44DC0F6C0883109F44CC0D9
:10271000803209F45DC0EFC0803409F468C048F429
:10272000803309F455C0883309F0E5C08093120561
:10273000D8C0803509F44FC0883509F45DC08834AD
:1027400009F0D9C0D6C0883909F4C7C0A8F48837C1
:1027500009F467C038F4883609F463C0803709F497
:1027600060C0C9C0883809F4B8C0803909F45FC0B6
:10277000803809F0C0C05BC0803B09F486C038F4E3
:10278000803A09F466C0883A09F47FC0B4C0803C3E
:1027900009F4A7C0883C09F4A4C0883B09F48AC0A6
:1027A000AAC08091380510C09091370580913605F8
:1027B000981770F5E091370581E08E0F809337050B
:1027C000F0E0EA5EFA4F80818093BB0085EC86C022
:1027D000809312058EC0E091370581E08E0F8093C3
:1027E00037058091BB00F0E0EA5EFA4F808390915C
:1027F0003705809136056EC0E091370581E08E0F78
:10280000809337058091BB00F0E0EA5EFA4F808349
:102810008091150581116DC081E08093140584EAD3
:1028200061C083E08093130510921105CFCF809192
:102830001105803208F051C0E091110581E08E0F42
:10284000809311058091BB00F0E0EF50FB4F808337
:10285000BDCF85EC8093BC001092130580911105CB
:10286000803230F4E0911105F0E0EF50FB4F108220
:102870006091110570E0E091EF04F091F00481EFB8
:1028800094E009951092110536C084E080931305F9
:102890001092EE041092ED04E091EB04F091EC0440
:1028A00009958091ED04811105C081E08093ED04CC
:1028B0001092CB04E091EE0481E08E0F8093EE0441
:1028C000F0E0E553FB4F80818093BB009091EE04D4
:1028D0008091ED04981708F479CF85E88093BC00C7
:1028E0000AC085EC8093BC001092130504C01092BE
:1028F00012050E94580DFF91EF91BF91AF919F91EA
:102900008F917F916F915F914F913F912F910F9098
:102910000FBE0F901F9018954091ED04262F30E0C8
:10292000240F311D21323105DCF4209113052430B0
:10293000C9F4FC0180E090E0861758F43091ED0472
:102940002191DC01A553BB4FA30FB11D2C93019620
:10295000F3CF8091ED04680F6093ED0480E008955B
:1029600081E0089582E008952FB7F89487708093EE
:10297000E9009091E800892F807295FF04C0909142
:10298000F20080E4891B2FBF0895CF92DF92EF926F
:10299000FF920F931F93CF93DF936C017A018B010A
:1029A000C0E0D0E0CE15DF0589F0D8016D918D0132
:1029B000D601ED91FC910190F081E02DC6010995C1
:1029C000892B11F47E0102C02196ECCFC701DF9163
:1029D000CF911F910F91FF90EF90DF90CF900895CE
:1029E000CF93DF931F92CDB7DEB76983DC01ED9102
:1029F000FC910280F381E02D41E050E0BE016F5F69
:102A00007F4F09950F90DF91CF91089583E08093D8
:102A1000E9008091F200882319F08AE38093E800AE
:102A2000089583E00E94B41490E00895FC01848529
:102A3000958597FD0BC09FB7F89482E08093E900DD
:102A40008091F2009FBF90E0019608959FB7F8949F
:102A500082E08093E9008091F2009FBF90E00895AA
:102A600090E0FC013197EF30F105B0F5EA5AFF4FE5
:102A70000C948330809180008F7703C08091800018
:102A80008F7D80938000089580918000877FF9CFAB
:102A900084B58F7702C084B58F7D84BD0895809101
:102AA00090008F7707C0809190008F7D03C0809148
:102AB0009000877F8093900008958091C0008F7769
:102AC00003C08091C0008F7D8093C00008958091E5
:102AD000C200877F8093C20008950F931F93CF9306
:102AE000DF931F92CDB7DEB78C01FC0184859585FD
:102AF00097FF0EC0CE0101960E944419019719F468
:102B0000298130E002C02FEF3FEFF801358724879D
:102B1000F801848595850F90DF91CF911F910F91DA
:102B20000895CF93DF931F92CDB7DEB7FC01848564
:102B3000958597FD05C02FEF3FEF358724870BC0A4
:102B4000CE0101960E944419019719F4898190E001
:102B500002C08FEF9FEF0F90DF91CF9108950E94F9
:102B6000803240914D0550914E0520914B0530919A
:102B70004C0542175307B4F49091E8009570E1F3C7
:102B80009091E80092FD19C08093F10080914D056D
:102B900090914E0501968F739927892B19F48EEF2A
:102BA0008093E80080914D0590914E050196909399
:102BB0004E0580934D0581E0089580E008956150B1
:102BC00030F02091F100FC0120830196F8CF289885
:102BD00084E68093530508956115710579F0FB0132
:102BE00001900020E9F73197AF01461B570BDC013C
:102BF000ED91FC910280F381E02D099480E090E05A
:102C0000089563E973E00C94EC150F931F93CF9331
:102C1000DF93EC010E94EC158C01CE010E9401169D
:102C2000800F911FDF91CF911F910F9108950C9408
:102C3000EC158091430581110DC082E080933F0522
:102C400084E080934005109242051092410581E096
:102C5000809343058FE395E00895CF93DF93282F6A
:102C600030E0F901E05AFA4F8491F901E35FF54F42
:102C7000D491F901E45DF54FC491CC2391F0811119
:102C80000E943015EC2FF0E0EE0FFF1FEE5AFA4FC6
:102C9000A591B491EC91ED2381E090E021F480E0E6
:102CA00002C080E090E0DF91CF9108951F93CF9311
:102CB000DF93282F30E0F901E05AFA4F8491F901AF
:102CC000E35FF54FD491F901E45DF54FC491CC2356
:102CD000C9F0162F81110E943015EC2FF0E0EE0F95
:102CE000FF1FEC5BFA4FA591B4918FB7F8941111C7
:102CF00005C09C91ED2FE095E92302C0EC91ED2BEE
:102D0000EC938FBFDF91CF911F910895CF93DF9305
:102D100090E0FC01E35FF54F2491FC01E45DF54F89
:102D20008491882361F190E0880F991FFC01E150A4
:102D3000F64FC591D491FC01EC5BFA4FA591B4918B
:102D4000611109C09FB7F8948881209582238883F8
:102D5000EC912E230BC0623061F49FB7F894388158
:102D6000822F809583238883EC912E2B2C939FBFF9
:102D700006C08FB7F894E8812E2B28838FBFDF9190
:102D8000CF9108958F929F92AF92BF92CF92DF9290
:102D9000EF92FF926B017C010E94CD1E4B015C0102
:102DA000C114D104E104F104F1F00E94CD1EDC0154
:102DB000CB0188199909AA09BB09883E9340A1054E
:102DC000B10570F321E0C21AD108E108F10888EEDC
:102DD000880E83E0981EA11CB11CC114D104E1042B
:102DE000F10419F7DDCFFF90EF90DF90CF90BF9007
:102DF000AF909F908F9008957F928F929F92AF9205
:102E0000BF92CF92DF92EF92FF920F931F93CF93D7
:102E1000DF93C82E8B017A0180915405811103C084
:102E20008FEF9FEF75C08091510580FF05C08091A5
:102E3000E00082608093E000CE2DDF2DD12C8AEF60
:102E4000882E8C2D8770B82E8C2D8072A82E8C2DFC
:102E50008074982E9AE3792E209709F452C08C2D15
:102E60000E94B414282F81110AC08A948820C1F2CC
:102E700061E070E080E090E00E94C216EDCF90E04B
:102E8000C817D9070CF42C2F3FB7F894B092E9007B
:102E90008091E80085FF33C0822F90E0C81BD90BDA
:102EA000AA2029F02150A8F01092F100FBCFF801E0
:102EB000C7FE07C0215058F044914093F10031966D
:102EC000F9CF215020F041914093F100FACF080F43
:102ED000191FDD2019F07092E8000AC08091E80007
:102EE00085FD08C07092E800DD24D394209739F066
:102EF000D12C05C0209719F491107092E8003FBFC3
:102F0000ABCFD110ACCF5D9884E680935205C7015A
:102F1000DF91CF911F910F91FF90EF90DF90CF90B5
:102F2000BF90AF909F908F907F900895CF93DF9345
:102F3000EC0180911A01882331F083E00E94FC1695
:102F40001816190634F081E090E09B838A8380E0B4
:102F500090E0DF91CF910895CF92DF92EF92FF92B0
:102F6000CF93DF936C01990FEE08FF08F7FE1FC0A7
:102F7000E0918307F09184070190F081E02D6DE2EC
:102F800083E897E00995EC0166277727CB016C1958
:102F90007D098E099F094AE00E94B6288C0F9D1F6B
:102FA000DF91CF91FF90EF90DF90CF9008954AE0AE
:102FB000C701B601DF91CF91FF90EF90DF90CF90E6
:102FC0000C94B628CF93DF9362EF73E083E897E029
:102FD0000E941716609155057091560583E897E099
:102FE0000E94051667EF73E083E897E00E941716CA
:102FF000A0915505B0915605FD0101900020E9F71B
:103000003197BF016A1B7B0B80E090E04AE00E9491
:10301000B6286FE873E083E897E00E941716609186
:103020005505709156058CEF93E00E94A6320E94E0
:10303000AC17609155057091560580E094E00E94B0
:10304000A6320E94AC1783E897E00E940116C09157
:103050005505D091560560E074E0CE010E94A6327D
:10306000892B11F460EBE2C06CEF73E0CE010E949B
:10307000A632892B11F463E8D9C066E074E0CE0172
:103080000E94A632892B11F461E8D0C06CE074E094
:10309000CE010E94A632892B71F060E174E0CE016E
:1030A0000E94A632892B39F069E174E0CE010E94BA
:1030B000A632892B11F462E8B9C061E274E0CE0156
:1030C0000E94A632892B39F06BE274E0CE010E9497
:1030D000A632892B11F466E8A9C064E374E0CE013E
:1030E0000E94A632892B39F069E374E0CE010E9478
:1030F000A632892B11F460E899C061E474E0CE0136
:103100000E94A632892B11F461EC90C06AE474E04D
:10311000CE010E94A632892B11F464ED87C061E5CF
:1031200074E0CE010E94A632892B11F465ED7EC0B9
:1031300065E574E0CE010E94A632892B39F069E57D
:1031400074E0CE010E94A632892B11F461EB6EC0AF
:1031500060E674E0CE010E94A632892B11F462ED84
:1031600065C065E674E0CE010E94A632892B11F499
:1031700061ED5CC06CE674E0CE010E94A632892B42
:1031800011F463ED53C063E774E0CE010E94A632F0
:10319000892B11F466ED4AC064E874E0CE010E9408
:1031A000A632892B11F460E241C06CE774E0CE01D5
:1031B0000E94A632892B11F463EB38C060E874E0FA
:1031C000CE010E94A632892B11F462EB2FC060E77A
:1031D00074E0CE010E94A632892B39F06AE874E0CF
:1031E000CE010E94A632892B11F46AED1FC067E759
:1031F00074E0CE010E94A632892B39F062E974E0B6
:10320000CE010E94A632892B11F469ED0FC06CE14A
:1032100074E0CE010E94A632892B39F06CE974E08B
:10322000CE010E94A632892B41F468ED82E798E036
:103230000E94A90781E090E002C080E090E09093B6
:10324000580580935705892B39F4688182E798E007
:10325000DF91CF910C94A907DF91CF910895CF937F
:10326000DF93FC0144815581608171818EE198E09A
:103270000E94C514EC018EE198E00E9401168C0FAB
:103280009D1FDF91CF910895FC018091540581111C
:1032900003C08FEF9FEF08959FB7F89482E080936B
:1032A000E9002091F20030E01216130614F421E038
:1032B00030E02115310559F0289884E680935305B4
:1032C0008091F10080838091F200882319F09FBFE4
:1032D000C90108958BE68093E800F9CF0F931F93FF
:1032E000CF93DF93EC0188819981009729F02A819F
:1032F0003B812617370788F48B016F5F7F4F0E9451
:10330000B631009761F0998388831B830A832C81EF
:103310003D81232B11F4FC01108281E001C080E08B
:10332000DF91CF911F910F910895EF92FF920F932C
:103330001F93CF93DF9300D0CDB7DEB78C016983A5
:103340001A82FC01E480F580FFEFEF1AFF0AB70153
:103350000E946E19882381F0F801208131818481D7
:103360009581BE016F5F7F4F820F931F0E94AF3226
:10337000F801F582E48281E00F900F90DF91CF9108
:103380001F910F91FF90EF900895EF92FF920F938E
:103390001F93CF93DF93EC017B018A01BA010E9456
:1033A0006E192881398181110DC02115310519F05F
:1033B000C9010E941E31198218821D821C821B8243
:1033C0001A8206C01D830C83B701C9010E94AF3267
:1033D000CE01DF91CF911F910F91FF90EF90089553
:1033E000CF93DF93EC016115710559F0FB0101905A
:1033F0000020E9F73197AF01461B570B0E94C51912
:103400000CC088819981009711F00E941E311982A9
:1034100018821D821C821B821A82CE01DF91CF91FD
:103420000895FC0111821082138212821582148287
:103430006115710551F0FB0101900020E9F731970A
:10344000AF01461B570B0C94C51908951F920F929C
:103450000FB60F9211248F939F938091E10090916A
:10346000E100937F9093E10083FF0FC01092E90089
:1034700091E09093EB001092EC0092E39093ED00BA
:103480001092540598E09093F00082FF20C093E0E2
:103490009093E9009091F200992319F09AE39093A8
:1034A000E80090915205992339F09091520591507E
:1034B00090935205992389F190915305992339F0FE
:1034C00090915305915090935305992341F184FFB6
:1034D00010C08091E2008E7E81608093E200809136
:1034E000E1008F7E8093E100809151058E7E8061A6
:1034F00011C080FF16C08091E2008E7E80618093B3
:10350000E2008091E1008E7E8093E1008091510580
:103510008E7E81608093510504C05D9ACDCF289A3C
:10352000D6CF9F918F910F900FBE0F901F9018953F
:10353000DF92EF92FF920F931F93CF93DF93D82EDA
:103540008A017B01E40EF51EEB01CE15DF0571F05B
:10355000D7FE03C0FE01849101C088810E94B1158D
:1035600021968111F2CF8FEF9FEF01C0C801DF914B
:10357000CF911F910F91FF90EF90DF9008950F93DF
:103580001F93CF93DF931F92CDB7DEB782E089837D
:1035900042E450E06BE779E080E80E94981A0E94CC
:1035A0001916DC0112960D911C9113970115110546
:1035B00069F0D801ED91FC910280F381E02DBE010C
:1035C0006F5F7F4FC801099597FF07C089810F90F2
:1035D000DF91CF911F910F910895F801008511851A
:1035E000E5CF1F920F920FB60F921124CF92DF9268
:1035F000EF92FF920F931F932F933F934F935F93FD
:103600006F937F938F939F93AF93BF93EF93FF93AA
:10361000CF93DF93CDB7DEB76C97DEBFCDBF1092EF
:10362000E9008091E80083FFEDC168E0CE01459696
:103630000E94DF1582EF8093E8008D8987FF05C027
:103640009091E80090FFFCCF03C09EEF9093E800BC
:10365000982F907609F0C6C09E892F89188D9111F8
:103660000CC0803829F4809150058093F10002C08D
:103670001092F1001092F10048C1422F50E0512BFE
:10368000913051F4811141C14130510509F03DC1E2
:10369000809150058D7F0BC0933061F4811135C14D
:1036A0004130510509F031C180915005826080930D
:1036B00050052BC1953041F48091E80080FFFCCF8C
:1036C00020682093E30021C1963009F05FC0EB8CA5
:1036D000FC8C1092E90010924E0510924D051230AC
:1036E00091F510924C0510924B050E94BF1A99E07B
:1036F000BE016F5F7F4FDB01E92F1D92EA95E9F76D
:1037000099831A8391E09E8390EA98879AEF99872C
:1037100020914D0530914E05275F3F4F3C832B8311
:103720008D831092E90010924E0510924D05F09293
:103730004C05E0924B0549E050E080E00E94981A69
:103740000E94BF1AE2C0F0924C05E0924B050E9425
:103750001916DC011296ED90FC901397E114F10418
:1037600009F4C0C0D701ED91FC910480F581E02DF2
:10377000BE016B5E7F4FC7010995009719F00CF0F1
:10378000C4C0C7C0F701E084F184E8CF973009F4E2
:10379000C0C0983021F481E08093F100B6C0993028
:1037A00009F0B3C0837009F0B4C0E9E0F1E081E052
:1037B00021E036E39081992361F08093E900209322
:1037C000EB0091919093EC003093ED008F5F873088
:1037D00089F78EE78093EA001092EA008F89809340
:1037E000540593C08B8D9C8D1092E90010924E056C
:1037F00010924D0590934C0580934B05898D811156
:1038000056C08E899D89913A59F4813209F081C060
:1038100047E050E063E171E080E00E94981A75C0D3
:10382000913209F076C0833289F4888D90E0982F28
:1038300088272F89822BA0E0B0E080930F0190931E
:103840001001A0931101B09312015FC0803269F49E
:103850008091E80082FFFCCF67E083E191E00E9465
:10386000DF158BEF8093E80006C0823209F04DC06F
:103870008F8980931A0180914F05882319F0EEEF0C
:10388000FAE002C0E0E0F8E08091130190911401A9
:10389000A0911501B0911601803B9440A105B1059E
:1038A00009F07BC080911A0180FF93C076C00E940E
:1038B0001916DC0112960D911C9113970115110533
:1038C00041F1D801ED91FC910190F081E02DBE0114
:1038D0006B5E7F4FC8010995811117C0F801008503
:1038E0001185ECCF113009F44EC0133091F48F895B
:1038F000882309F445C0823081F440E862E18CED10
:1039000099E00E94F02C882321F08EEF8093E8004C
:1039100079C081E28093EB0075C0813029F440E8E2
:1039200068E083ED99E0EDCF833099F70E94191696
:10393000DC011296ED90FC9013978E010F5F1F4FE4
:103940006801E114F10479F0D701ED91FC91068052
:10395000F781E02DB801C7010995080F111DF70186
:10396000E084F184EECFD8011C92F6010190002092
:10397000E9F73197BF016C197D0940E0C601C1CF5D
:103980006DEB79E002C061EC79E06115710509F237
:10399000FB01449150E080E840CF0FB6F894A89521
:1039A00080916000886180936000109260000FBE7B
:1039B000A895EE3F2AE0F20739F08091FE0A909137
:1039C000FF0A91838083A1CF1092FF0A1092FE0A12
:1039D0009CCFEE3F8AE0F80731F08081918190938F
:1039E000FF0A8093FE0A87E797E7918380839BE035
:1039F00088E10FB6F894A895809360000FBE90936D
:103A0000600083CF6C960FB6F894DEBF0FBECDBFBB
:103A1000DF91CF91FF91EF91BF91AF919F918F91E6
:103A20007F916F915F914F913F912F911F910F91D6
:103A3000FF90EF90DF90CF900F900FBE0F901F90F0
:103A4000189580E0089580E00895DB01ED91FC91E8
:103A500011970280F381E02DBC01CD0109940895F6
:103A6000DB01ED91FC9111970084F185E02DBC0103
:103A7000CD0109940F931F93CF93DF93EC0100E0E6
:103A800010E08E8590E0081719079CF4C801880F94
:103A9000991FEA85FB85E80FF91F80819181DC0180
:103AA000ED91FC910680F781E02D09950F5F1F4F86
:103AB000E8CFE885F9851582188A1F868E858823C8
:103AC00031F0EA85FB850190F081E02D02C0E0E055
:103AD000F0E0F987E88781E08583DF91CF911F913E
:103AE0000F910895FC018785808B9685992331F18C
:103AF000882311F0815004C0662301F18FEF890FF4
:103B0000878722859385A22FB92FA80FB11DA80FF3
:103B1000B11D0D90BC91A02DB187A08781E01596B5
:103B20008C938089E22FF92FE80FF11DE80FF11D2A
:103B30000190F081E02D158281E0089580E00895E4
:103B4000CF93DF93FC018785808B26852223B1F1FB
:103B5000482F50E030E02150310942175307B1F0AF
:103B60008F5F878722859385A22FB92FA80FB11D5C
:103B7000A80FB11D0D90BC91A02DB187A08781E049
:103B800015968C938089E22FF92F0EC06623B1F031
:103B90001786A285B385CD91DC911197D187C08717
:103BA00081E08D838089FD01E80FF11DE80FF11D93
:103BB0000190F081E02D158281E001C080E0DF916D
:103BC000CF910895DC011696ED91FC9117973097EF
:103BD00009F0099580E090E008950E94E21D80E0E0
:103BE00090E00895CF93DF93EC010E94E21DCE0197
:103BF000DF91CF910895DC01FB0112968C91129711
:103C000090E02481358182179307D1F491818081DE
:103C1000813A31F481E0913091F0933089F411C010
:103C2000813271F49B3021F482811F968C9305C000
:103C30009A3031F4828150968C9381E008950895F2
:103C400080E00895DC01FB0188E4808389E48183BE
:103C500084E482831D969C911D979F709F5B938344
:103C60001D968D919C911E9724E0969587952A9597
:103C7000E1F78F708F5B848385E00895FC0182817A
:103C80008F5BFB01808381E00895EF92FF920F9399
:103C90001F93CF93DF93FB012081213851F52381BE
:103CA000223239F5DC0112962C9130E044815581A5
:103CB00042175307F1F4EC010B851C85E12CF12C24
:103CC0000115110591F0F8014481558162817381DC
:103CD00080E80E94981A8F3FFFEF9F0769F0E80E77
:103CE000F91ED8010D911C91EBCF81E08F87C701A0
:103CF00005C080E090E002C08FEF9FEFDF91CF9191
:103D00001F910F91FF90EF900895CF93DF93CDB760
:103D1000DEB769970FB6F894DEBF0FBECDBFFC01CA
:103D2000DB018C918F5F8C93BE016F5F7F4F89E1C8
:103D3000DB011D928A95E9F729E0298384E08A83D3
:103D400091E09D8383E08E832A8721E22B879C87E5
:103D50009D879F8722E2288B27E02B8B25E02C8BE9
:103D60008E8B20E430E0388F2F8B998F82818B836C
:103D700095858685998B8A8B838180688D8B49E1B7
:103D800050E080E00E94981A69960FB6F894DEBF62
:103D90000FBECDBFDF91CF9108953FB7F8948091CA
:103DA0007B0590917C05A0917D05B0917E0526B59F
:103DB000A89B05C02F3F19F00196A11DB11D3FBF63
:103DC000BA2FA92F982F8827820F911DA11DB11DF1
:103DD000BC01CD0143E0660F771F881F991F4A95EC
:103DE000D1F708952FB7F894609177057091780511
:103DF0008091790590917A052FBF08951F920F92B7
:103E00000FB60F9211242F933F938F939F93AF93ED
:103E1000BF938091770590917805A0917905B09135
:103E20007A053091760526E0230F2D3720F402968F
:103E3000A11DB11D05C029E8230F0396A11DB11DC9
:103E4000209376058093770590937805A093790564
:103E5000B0937A0580917B0590917C05A0917D05BA
:103E6000B0917E050196A11DB11D80937B059093B5
:103E70007C05A0937D05B0937E05BF91AF919F9186
:103E80008F913F912F910F900FBE0F901F9018951B
:103E90000F931F93CF93DF93EC018B018E8590E0FE
:103EA0000196BC01660F771F8A859B850E94B631FB
:103EB000FC019B878A87892B89F08E85E80FF11D8D
:103EC000E80FF11D11830083811105C01987088750
:103ED00081E0F80185838E858F5F8E87DF91CF919A
:103EE0001F910F910895AF92BF92CF92DF92EF9200
:103EF000FF920F931F93CF93DF931F92CDB7DEB73F
:103F00007C0169836A01590141E050E0BE016F5FA5
:103F10007F4FFC0183810E94FC168C0197FD0BC032
:103F2000F7018381A501B60180640E94FC1697FD0C
:103F300002C0800F911F0F90DF91CF911F910F91C1
:103F4000FF90EF90DF90CF90BF90AF900895809159
:103F50006E0581116BC081E08093610580936205DD
:103F600027E635E0309364052093630510926605DB
:103F7000109265052FE231E030935E0520935D05D8
:103F8000109269051092680510926B0510926A05EF
:103F900080936C0580936D0581EC809367050E948A
:103FA0001916FC0121818091610590E0820F911D1D
:103FB000089724F081E080936E0538C0A281B38118
:103FC000109729F48DE595E0938382830EC01896AF
:103FD0008D919C911997009711F0DC01F8CF8DE538
:103FE00095E019969C938E931897808180935F0536
:103FF000818180936005908180916205890F808323
:1040000080E0909161058917A8F6A0916305B091B1
:104010006405A80FB11D9C91A181B0E0A85FBE4FBF
:104020009C9391819F5F91838F5FEBCF8DE595E0AE
:10403000089580917F058823A9F140911B0150913B
:104040001C0160911D0170911E0121E835E08091F5
:104050008107909182070E94010F811102C080E0C8
:1040600008954091590550915A0560915B057091F2
:104070005C05411551056105710591F021E835E0B8
:1040800080918107909182070E94010F882339F364
:104090001092590510925A0510925B0510925C051A
:1040A00010927F0581E008958F929F92AF92BF9208
:1040B000EF92FF920F931F93CF934B015C01C42F9C
:1040C00080911B0190911C01A0911D01B0911E01D6
:1040D00088159905AA05BB0501F10E9419208111D7
:1040E00002C080E020C081E8E82E85E0F82E00E0E4
:1040F00012E020E030E0B501A401809181079091A9
:1041000082070E946D0E882361F380921B019092BA
:104110001C01A0921D01B0921E0180917F05C82B49
:10412000C0937F0581E0CF911F910F91FF90EF9099
:10413000BF90AF909F908F9008954F925F926F9233
:104140007F928F929F92AF92BF92CF92DF92EF9227
:10415000FF920F931F93CF93DF93EC016A017B01D2
:1041600028013901423051056105710510F480E0E4
:1041700073C089859A85AB85BC850196A11DB11D4B
:1041800084179507A607B70790F38B889C88AD889E
:10419000BE888F89803129F4BB27AF2D9E2D8D2DB0
:1041A00009C0DB01CA0147E0B695A79597958795A9
:1041B0004A95D1F7880E991EAA1EBB1E80911B013D
:1041C00090911C01A0911D01B0911E0188169906C5
:1041D000AA06BB0679F48F898031A1F4DD24EE2490
:1041E000FF24C601880F991FFC01EF57FA4F518237
:1041F000408219C040E0C501B4010E9454208111E1
:10420000EACFB5CFE894C7F8DD24EE24FF24C60139
:10421000880F991F880F991FFC01EF57FA4F4082B2
:1042200051826282738280917F05816080937F05D5
:104230008A89823080F08D819E81AF81B885880E19
:10424000991EAA1EBB1E8092590590925A05A092F3
:104250005B05B0925C0581E0DF91CF911F910F91DA
:10426000FF90EF90DF90CF90BF90AF909F908F9096
:104270007F906F905F904F9008958F929F92AF9232
:10428000BF92CF92DF92EF92FF920F931F93CF9343
:10429000DF93FC0181859285A385B4850196A11DDC
:1042A000B11D84179507A607B70710F480E05CC01E
:1042B00083899489A589B689C789C03129F4852E57
:1042C000962EA72EBB2409C04A015B01C7E0B69415
:1042D000A79497948794CA95D1F7E9016A017B0165
:1042E0008F01BC01CD01680D791D8A1D9B1D809039
:1042F0001B0190901C01A0901D01B0901E0168153B
:1043000079058A059B0599F4F80187898031A9F41C
:10431000B701A601552766277727440F551FFA01D5
:10432000EF57FA4F80819181A0E0B0E018C040E0E3
:104330000E9454208111E8CFB9CFB701A6014F7771
:10434000552766277727440F551F440F551FFA013D
:10435000EF57FA4F80819181A281B381BF7088832A
:104360009983AA83BB8381E0DF91CF911F910F9145
:10437000FF90EF90DF90CF90BF90AF909F908F9085
:1043800008954F925F926F927F92AF92BF92CF92B9
:10439000DF92EF92FF920F931F93CF93DF9300D0A2
:1043A00000D0CDB7DEB78C0149835A836B837C8301
:1043B0005901C12CD12C7601412C82E0582E612C60
:1043C000712C49815A816B817C819E012F5F3F4F07
:1043D000C8010E943D21882351F1D301C201F80197
:1043E000058404C0880F991FAA1FBB1F0A94D2F727
:1043F000C80ED91EEA1EFB1E49815A816B817C8141
:104400008789803129F088EF9FEFAFEFBFE004C0CC
:1044100088EF9FEFA0E0B0E0481759076A077B07D5
:1044200080F2F501C082D182E282F38281E00F90B6
:104430000F900F900F90DF91CF911F910F91FF90F0
:10444000EF90DF90CF90BF90AF907F906F905F9094
:104450004F900895CF93DF93EC018D818823A1F1D4
:104460008C8187FF2DC06E857F858889998941E081
:104470000E945420882341F1EA8980E2E89FF001FC
:104480001124DF01AF57BA4F1097F1F08D818230C0
:1044900050F44B895C896D897E895C964D935D9360
:1044A0006D937C935F978F89988DA98DBA8DEF5707
:1044B000FA4F938F828FB58BA48B8C818F778C83EF
:1044C000DF91CF910C94192080E0DF91CF91089576
:1044D0008F929F92AF92BF92CF92DF92EF92FF9214
:1044E0000F931F93CF93DF93EC018D81811102C055
:1044F00080E077C00B891C892D893E890417150738
:1045000026073707A8F36A017B01823029F4CA869F
:10451000DB86EC86FD860DC0C114D104E104F104F4
:1045200051F41E821F82188619861A861B861C86E5
:104530001D8681E056C08A849B84AC84BD84EB8D4B
:10454000FC8D258530E0275F3F4FB501A401415028
:10455000510961097109022E04C076956795579536
:1045600047950A94D2F7D701C6010197A109B1096D
:1045700004C0B695A795979587952A95D2F7841785
:104580009507A607B70720F089288A288B2849F4C1
:104590004F89588D698D7A8D4E835F8368877987BF
:1045A00004C0841B950BA60BB70B4C015D018E015B
:1045B0000A5F1F4F81149104A104B10409F4A7CF2D
:1045C0004E815F816885798598018B8D9C8D0E94D5
:1045D0003D2191E0891A9108A108B1088111EACF23
:1045E00087CFDF91CF911F910F91FF90EF90DF90D8
:1045F000CF90BF90AF909F908F900895CF93DF930F
:10460000EC010E942A22882311F01D8281E0DF91B3
:10461000CF9108953F924F925F926F927F928F92C7
:104620009F92AF92BF92CF92DF92EF92FF920F9341
:104630001F93CF93DF93CDB7DEB72C970FB6F894C7
:10464000DEBF0FBECDBF5C01DC015B968D909C9000
:104650005C971696CD90DD90ED90FC901997C11463
:10466000D104E104F10439F0BFEFCB1ADB0AEB0A05
:10467000FB0A312C07C0F401C080D180E280F380B6
:1046800033243394F40181859285A385B4859C01FC
:10469000AD012F5F3F4F4F4F5F4F29873A874B87C1
:1046A0005C87260137011D821E821F821886F40155
:1046B00081859285A385B4852D813E814F81588562
:1046C000281739074A075B0708F063C089859A8570
:1046D000AB85BC858C159D05AE05BF0550F482E009
:1046E000C82ED12CE12CF12C92E0492E512C612CBA
:1046F000712C9E012F5F3F4FB701A601C4010E949C
:104700003D21882309F445C089819A81AB81BC8110
:10471000892B8A2B8B2B41F0260137019FEF491AF9
:10472000590A690A790A05C0C414D504E604F704D5
:1047300091F02D813E814F8158852F5F3F4F4F4F24
:104740005F4F2D833E834F8358873FEFC31AD30AB1
:10475000E30AF30AACCF0FEF1FEF2FEF3FE0B301F7
:10476000A201C4010E949D20882399F0D5011696CC
:104770004D915D916D917C911997411551056105A0
:10478000710549F093018201C4010E949D208111AD
:1047900002C080E02AC0D50116964D925D926D92BE
:1047A0007C921997332051F0D301C2010196A11DCB
:1047B000B11DF40180839183A283B383F5018789BE
:1047C000908DA18DB28D892B8A2B8B2B69F4D5010D
:1047D00057964D925D926D927C925A9714968C9159
:1047E0001497806814968C9381E02C960FB6F894F9
:1047F000DEBF0FBECDBFDF91CF911F910F91FF9014
:10480000EF90DF90CF90BF90AF909F908F907F9070
:104810006F905F904F903F9008952F923F924F92EC
:104820005F926F927F928F929F92AF92BF92CF9240
:10483000DF92EF92FF920F931F93CF93DF9300D0FD
:1048400000D0CDB7DEB78C015B011A01DC011596F3
:104850008C9115978130C9F414968C9181FF15C005
:1048600082FF1BC0F8014389548965897689828556
:104870009385A485B58584179507A607B70769F0C2
:10488000C8010E946822811108C081E090E0F8010F
:104890009383828380E090E039C1610183C0D801B5
:1048A0005B968D919C915C97FC01248121502A019B
:1048B0003B0139E076946794579447943A95D1F741
:1048C000722E74207A01F1E0FF22772009F476C07D
:1048D00080E092E08E199F0946018C159D0508F431
:1048E0004C01D8015B962D913C915C9716968D9169
:1048F0009D910D90BC91A02D0297A109B109F901DC
:10490000058404C0880F991FAA1FBB1F0A94D2F701
:104910004685578560897189840F951FA61FB71F2B
:104920009C01AD01270D311D411D511D29013A0189
:10493000811432E0930609F088C080911B019091A8
:104940001C01A0911D01B0911E0184159505A605BD
:10495000B70559F48FEF9FEFDC0180931B01909313
:104960001C01A0931D01B0931E019501B301A2018A
:1049700080918107909182070E94010F882309F49A
:1049800084CF9EEFB91AC818D908F801828593859B
:10499000A485B585880D991DA11DB11D82879387BA
:1049A000A487B587D8011A964D915D916D917C9140
:1049B0001D97C114D10409F072CF87C0E114F1042E
:1049C00009F086CF16964D915D916D917C91199766
:1049D000411551056105710559F457968D919D91C9
:1049E0000D90BC91A02D0097A105B10541F521C006
:1049F0009E012F5F3F4F0E943D21882309F44BCF3A
:104A000089819A81AB81BC81F801238D348DF901B4
:104A10002789203129F048EF5FEF6FEF7FE004C076
:104A200048EF5FEF60E070E084179507A607B707CF
:104A300030F0C8010E940A2381114ACF26CFF80125
:104A400086839783A087B18743CFE114F10429F5CA
:104A5000D8011A964D915D916D917C911D97539659
:104A60008D919D910D90BC91A02D481759076A0713
:104A70007B0798F00E941920882309F406CF409202
:104A80001B0150921C0160921D0170921E018091C9
:104A90007F05816080937F0508C041E0C301B201BA
:104AA0000E945420882309F4F0CED501F701EF5776
:104AB000FA4FCF01880D991DE817F90719F02D91CC
:104AC0002193FACFA80CB91C5ECF53968D919D917E
:104AD0000D90BC91A02D84179507A607B70740F449
:104AE000F801438B548B658B768B8481806884833B
:104AF000D80114968C9183FD02C0C10107C0C80182
:104B00000E942A22882309F4C0CEF7CF0F900F907D
:104B10000F900F90DF91CF911F910F91FF90EF9029
:104B2000DF90CF90BF90AF909F908F907F906F90CD
:104B30005F904F903F902F900895CF93DF931F92F7
:104B4000CDB7DEB7698341E050E0BE016F5F7F4FB4
:104B50000E940D240F90DF91CF910895CF93DF93A2
:104B6000EC016A8B80911B0190911C01A0911D01A9
:104B7000B0911E018E879F87A88BB98B80E2689FBA
:104B8000F0011124EF57FA4F4489558960E070E035
:104B9000BA01552744274F8B588F698F7A8F828DA2
:104BA000938DA0E0B0E0482B592B6A2B7B2B4F8BC9
:104BB000588F698F7A8F8385887151F4848D958D94
:104BC000A68DB78D8B8B9C8BAD8BBE8B81E00EC081
:104BD000803111F080E015C09E012D5E3F4F8B8D1E
:104BE0009C8D0E94C1218823A9F384E08D8381E0FC
:104BF0008C831E821F82188619861A861B861C8645
:104C00001D86DF91CF9108958F929F92AF92BF92B0
:104C1000CF92DF92EF92FF92CF931092E007109223
:104C2000DE071092DB071092DA0784E08093D90741
:104C30000E94F21E6B017C0161E08091D9070E9405
:104C4000861661E08091D9070E945616CFB7F89476
:104C500080918005811127C0EDE3FAE08491EEE1B7
:104C6000FAE09491E82FF0E0EE0FFF1FE150F64FCD
:104C7000A591B491EC91E92321F461E081E10E94D6
:104C8000561661E081E10E9486168CB580618CBD6C
:104C90008CB580648CBD61E08FE00E94861661E077
:104CA00080E10E948616809180058F5F8093800549
:104CB000CFBF82E58093D30781E08093D4078091B2
:104CC000D3079091D4070E94F20DCAE08FEF0E94A3
:104CD000B30DC150D9F785ED97E00E94F50D20E0A6
:104CE00030E0A90160E085ED97E00E940B0EC82F2F
:104CF0008093DF07813049F00E94F21E6C197D0914
:104D0000613D774060F381E054C02AEA31E040E041
:104D100050E068E085ED97E00E940B0E82FF03C033
:104D2000C093E0070EC0C4E00E94BA0D8093DF0775
:104D3000C150D1F78A3A11F082E03BC082E0809303
:104D4000E0078091E007823021F0812C912C540102
:104D500005C0812C912CA12C30E4B32E20E030E052
:104D6000A90167E385ED97E00E940B0EA501940170
:104D700069E285ED97E00E940B0E8093DF078823A0
:104D800049F00E94F21E6C197D09613D774030F3B5
:104D900088E00FC08091E007823001F520E030E02C
:104DA000A9016AE385ED97E00E940B0E882341F08C
:104DB00086E08093DA0785ED97E00E94A80D8FC00A
:104DC0000E94BA0D807C803C19F483E08093E00758
:104DD0000E94BA0D0E94BA0D0E94BA0D85ED97E0AF
:104DE0000E94A80D80E58093D30781E08093D407CB
:104DF0000E94F928882329F080910408882341F033
:104E00006EC080E00E94F928882309F469C0F4CFBD
:104E10008091F807803109F582E0809304081092B0
:104E2000160810921708109218081092190880910D
:104E3000F9079091FA07A0E0B0E025E0880F991FEC
:104E4000AA1FBB1F2A95D1F78093120890931308CD
:104E5000A0931408B09315081EC0803209F03FC01B
:104E600083E0809304084091FB075091FC07609118
:104E7000FD077091FE074093160850931708609342
:104E800018087093190822E138E081EE97E00E943B
:104E9000C121882321F181EE97E090931B08809334
:104EA0001A0881E080930308109205081092060802
:104EB00010920708109208081092090810920A0828
:104EC00010920B0810920C0810920D0810920E0808
:104ED00010920F08109210081092110801C080E083
:104EE000CF91FF90EF90DF90CF90BF90AF909F90C9
:104EF0008F90089560916208709163086115710543
:104F000059F08091640890916508DC01ED91FC9165
:104F10000190F081E02D09940895E0E6F8E08081A9
:104F2000918193838283DC01ED91FC910680F7816E
:104F3000E02D0994AF92BF92CF92DF92EF92FF9251
:104F40000F931F93CF93DF93CDB7DEB72B970FB699
:104F5000F894DEBF0FBECDBF7C01CE0101966C017F
:104F6000FC0190E28BE08C0D91938E13FDCFDA0162
:104F700020E037E09D91992339F19E3219F0EFEE50
:104F8000F9E00AC03A3009F4AAC028E03AE0F2CFCA
:104F90003196891709F4A3C084918111F9CF321792
:104FA00008F49DC08FED890F8E3508F098C081E020
:104FB000820FF601E20FF11D2FE9290F2A3108F4C3
:104FC00090529083282FD6CF8981803209F487C0F0
:104FD0008B01FB01838D948DF701948F838FFB01EF
:104FE00016821782108611861286138614861586FD
:104FF000A12CF80182859385A485B58543895489C0
:105000006589768984179507A607B70708F067C0F2
:1050100025E0B695A795979587952A95D1F7F82F0E
:10502000FF70BF2EF8018581823008F458C0C80196
:105030000E94F20F97FD53C0F80182859385A485E5
:10504000B5854F96A11DB11D82879387A487B5872B
:10505000F0E2BF9EC0011124BC016F577A4F611569
:105060007105E9F1FB0120812223B9F1253EE1F030
:105070004BE050E0C6010E948532892B09F0B9CF80
:105080006B2DC7012B960FB6F894DEBF0FBECDBFB8
:10509000DF91CF911F910F91FF90EF90DF90CF9014
:1050A000BF90AF900C94AE25A11014C0F701B28A46
:1050B00040911B0150911C0160911D0170911E01D6
:1050C00046875787608B718BFC01EF57FA4F8081C1
:1050D000882329F0AA24A3948CCFAA2039F380E056
:1050E0002B960FB6F894DEBF0FBECDBFDF91CF91E8
:1050F0001F910F91FF90EF90DF90CF90BF90AF90F6
:105100000895EF92FF920F931F93CF93DF9300D0F8
:1051100000D000D0CDB7DEB77C018B01CE01019667
:105120000E94111A80918008909181082D813E8102
:10513000E216F30641F49701A80160E070E00E94D6
:105140002908182F01C010E089819A810E941E3120
:10515000812F26960FB6F894DEBF0FBECDBFDF912C
:10516000CF911F910F91FF90EF9008958F929F9292
:10517000AF92BF920F931F93CF93DF93CDB7DEB75C
:10518000A1970FB6F894DEBF0FBECDBF19A2423073
:1051900008F44AE08E010F5D1F4F842E912CA12C44
:1051A000B12CA50194010E945230E62FB901CA0129
:1051B00001501109EA3014F4E05D01C0E95CD80146
:1051C000EC93232B242B252B61F7B80183E897E080
:1051D0000E94EC15A1960FB6F894DEBF0FBECDBFAE
:1051E000DF91CF911F910F91BF90AF909F908F90C3
:1051F00008958F929F92AF92BF92CF92DF92EF92DB
:10520000FF92CF93DF93C82F85ED97E090938207AD
:1052100080938107CC2369F1C53010F080E00DC187
:1052200040E060E070E0CB010E9454208823B1F39D
:1052300020E1C29FC00111248F589A4FFC01E25413
:10524000FE4F20812F7751F73C964081518162813A
:105250007381443651056105710500F33497C080B0
:10526000D180E280F380C114D104E104F10421F47F
:10527000D5CFC12CD12C760140E0C701B6010E94E8
:105280005420882359F280918C0590918D058115C9
:10529000924021F6A0919105AA2309F4BFCF609115
:1052A0008F05709190056115710509F4B7CF2091B4
:1052B0008E05222309F4B2CFA093F3072093E507CC
:1052C00080E030E0E1E0F0E0C82FAF01082E02C03E
:1052D000440F551F0A94E2F72417350741F0982F21
:1052E0008F5F983089F789E08093EE0797CF80939E
:1052F000EE0720919705309198052115310519F099
:1053000040E050E008C02091A5053091A6054091ED
:10531000A7055091A8052093E6073093E70740932F
:10532000E8075093E90746015701860E971EA11C16
:10533000B11C8092F4079092F507A092F607B09204
:10534000F707E0919205F0919305F093FA07E09347
:10535000F907B0E00E940830860E971EA81EB91EFD
:105360008092FB079092FC07A092FD07B092FE0787
:1053700085E0EE0FFF1F8A95E1F7E150FE4FEF2F1A
:10538000FF27E6958E0E9F1EA11CB11C8092EF0791
:105390009092F007A092F107B092F2072091940545
:1053A000309195052115310521F0A90160E070E0EB
:1053B00008C04091A1055091A2056091A30570918C
:1053C000A405D701C60188199909AA09BB09840F48
:1053D000951FA61FB71F04C0B695A79597958795EB
:1053E000CA95D2F78093EA079093EB07A093EC0756
:1053F000B093ED07853F2FE09207A105B10510F4AA
:105400008CE018C0853F9F4FA105B10510F480E1E5
:1054100011C08091AD059091AE05A091AF05B091FE
:10542000B0058093FB079093FC07A093FD07B09312
:10543000FE0780E28093F80781E0DF91CF91FF9033
:10544000EF90DF90CF90BF90AF909F908F90089596
:1054500080916608909167080E941E3180916C08C7
:1054600090916D080C941E31789484B5826084BD4F
:1054700084B5816084BD85B5826085BD85B5816058
:1054800085BD80916E00816080936E0010928100D6
:105490008091810082608093810080918100816091
:1054A0008093810080918000816080938000809152
:1054B000910082608093910080919100816080933F
:1054C0009100809190008160809390008091C10054
:1054D00084608093C1008091C10082608093C1008C
:1054E0008091C10081608093C1008091C300816080
:1054F0008093C3008091C00082608093C00080913F
:10550000C20081608093C20080917A0084608093A1
:105510007A0080917A00826080937A0080917A008C
:105520008E7F80937A0080917A00806880937A00E1
:105530001092540510925005109251058091D70099
:1055400081608093D70080EA8093D80089B58F7EF0
:1055500089BD89B5826089BD09B400FEFDCF61E0D7
:1055600070E080E090E00E94C2168091D8008F7CAD
:1055700080618093D8008091E000807F8093E0007C
:105580008091E1008E7E8093E1008DE08093E200C7
:10559000559A209AEEEFFFE7859194918B3F9C4DB1
:1055A00019F481E080934F0510922D088CE38093CD
:1055B0002C081092B90082E08093B8001092220863
:1055C00010922308E9E6F9E085919491E82EEBE644
:1055D000F9E0F490ECE6F9E0E491E0932408EDE6DC
:1055E000F9E0E491E0932508EEE6F9E0E491E09338
:1055F00026088C01802F8E198F1548F4F8016491CC
:105600008EE198E00E94190D0F5F1F4FF3CF1092AB
:1056100028088EE198E00E9442138EE795E090936F
:105620002A0880932908C12CD12CE12CF12CAA2422
:10563000AA94BB24B3944E2D60E08EE198E00E94C2
:10564000451145018C189D0800E010E0F801EC0DB3
:10565000FD1DE759F84F64918EE198E00E943011EA
:1056600008151905A9F00F5F1F4F0038110571F7D4
:10567000FFEFEF1AFF0A20E8C20ED11C84E0E81603
:10568000F104C9F644E060E08EE198E00E94451123
:1056900068EE73E080E090E00E94C2168EE198E030
:1056A0000E9442138EE198E00E94421361E070E094
:1056B00080E090E00E94C2166AEF70E080E090E027
:1056C0000E94C21668E578E08091600890916108B8
:1056D0000E94481F009160081091610867E478E01B
:1056E000C8010E94481F10935408009353086FE3A9
:1056F00078E080916008909161080E94481F67E3FC
:1057000078E087E498E00E94481F6FE278E087E441
:1057100098E00E94481F80E090E00E94D32F90E024
:1057200090933C0580933B050E947A2780E090E0AF
:105730000E94D32F90E090933E0580933D05892BE6
:1057400019F066E973E002C063EA73E083E897E06A
:105750000E940516EFE6F9E0E49180917B00E3FBFF
:10576000992790F9C92FA0E0DA2F95E0CC0FDD1F23
:105770009A95E1F78F7DC82BC0937B00E770E064BA
:10578000E0937C0080917A00806480937A0080911D
:105790007A0086FDFCCF609178008091790070E0FE
:1057A000782B072E000C880B990B6115710581056C
:1057B000910511F00E943C2F61E087E00E9486165F
:1057C00061E086E00E94861661E087E00E9456163E
:1057D00061E086E00E94561664E670E080E090E0AA
:1057E0000E94C21660E087E00E94561660E086E0E4
:1057F0000E94561664E670E080E090E00E94C216B7
:1058000061E087E00E94561661E086E00E9456162D
:1058100064E670E080E090E00E94C21660E087E0FD
:105820000E94561660E086E00E94561664E670E01C
:1058300080E090E00E94C21662E089E00E94861635
:1058400062E08AE00E94861662E08DE00E94861681
:1058500062E085E00E94861662E08CE00E94861677
:1058600062E08BE00E94861662E088E00E94861665
:105870000E94042681111BC060EB73E083E897E06F
:105880000E9405168EE198E00E9442136BEC73E0D3
:105890008EE198E00E9405168EE198E00E940116C4
:1058A00061EE73E08EE198E00E94051604C061E0AD
:1058B00087E00E9456168FEF9FEF9093900780939A
:1058C0008F0700E010E08CE00E942D16892B21F557
:1058D000A0916208B09163081896CD91DC91199758
:1058E0008C81882341F0E881F9810280F381E02DE9
:1058F00060E0CE0108C0ED91FC9111970280F38128
:10590000E02D60E0CD0109950E947A2762E370E006
:1059100080E090E00E94C21688E00E942D16892B3C
:1059200049F5E0916208F091630886858823D1F0FB
:10593000878522859385E22FF92FE80FF11DE80F67
:10594000F11D80819181009769F0DC01ED91FC915E
:105950000084F185E02D0995009721F0909363086C
:10596000809362080E947A2762E370E080E090E012
:105970000E94C2168BE00E942D16892B21F5A09162
:105980006208B09163081896CD91DC9119978C81CB
:10599000882341F0E881F9810480F581E02D60E001
:1059A000CE0108C0ED91FC9111970480F581E02DA6
:1059B00060E0CD0109950E947A2762E370E080E003
:1059C00090E00E94C21664E670E080E090E00E94E1
:1059D000C2160115110509F476CF0E94000073CF9D
:1059E000CF92DF92EF92FF920F931F93CF93DF93AB
:1059F0001F92CDB7DEB7182F062FE42E862F880F03
:105A00008E5F99830E94B11583E00E94B115F12E3B
:105A1000C12E9981D92E8C2D8F19801798F4F601FB
:105A2000E7FE02C0849101C080810E94B115182F49
:105A300080E00E94B1158123FFEFCF1ADF0A8111A8
:105A4000EACF01C081E00F90DF91CF911F910F91BC
:105A5000FF90EF90DF90CF9008950F931F931092D7
:105A600086071092850748EE53E060E070E04093AF
:105A70008707509388076093890770938A0789E4A2
:105A800091E090938407809383078FEF9FEF90932B
:105A9000900780938F0780E58093D30781E0809300
:105AA000D4071092DA071092DB071092DE071092EB
:105AB000E00702E010E020E030E00093E1071093FF
:105AC000E2072093E3073093E4071092F80710925F
:105AD0000208109201082BE531E030930008209372
