:100000000C9459060C9481060C9481060C9481067C
:100010000C9481060C9481060C9481060C94810644
:100020000C9481060C9481060C946B110C9436127E
:100030000C9481060C9481060C9481060C94810624
:100040000C9481060C9481060C9481060C94810614
:100050000C9481060C9481060C9481060C9426174E
:100060000C9481060C9481060C9481060C948106F4
:100070000C9481060C9481060C9481060C948106E4
:100080000C9481060C9481060C9481060C948106D4
:100090000C94C2280C9481060C9481060C94810661
:1000A0000C9481060C9481060C9481064F1652160E
:1000B000411645164B1673167316731656165A16B6
:1000C0005E166416681673166E16000000000000B7
:1000D00000002A2B280000000000000000000000A3
:1000E000000000000000000000002C9E9FA0A1A2C4
:1000F000A32DA5A6AF2F363837A4271E1F202122F7
:1001000023242526B7B664A7E4AD1F848586878897
:10011000898A8B8C8D8E8F909192939495969798D7
:10012000999A9B9C9D253526B1B8B0040506070811
:10013000090A0B0C0D0E0F101112131415161718B7
:10014000191A1B1C1D24B5273100000000000000F7
:10015000000080E0F0FCFFFFFFFFFFFFFFFFFFFF5D
:10016000070307FFFFFFFFFFFFFFFFFFFFFFFFFF8B
:10017000FFFFFF070307FFFFFFFFFFFFFFFFFFFF7B
:10018000FCF8E0800000000000000000000000001B
:10019000000000000000000000000000000000005F
:1001A000000000000000000000000000000000004F
:1001B000000000000000000000000000000000003F
:1001C000000000000000000000000000000000002F
:1001D00000F8FFFFFFFFFF0F0FFFFF010001FFFF10
:1001E000000000FFFF010001FFFF0F0FFFFF0100F4
:1001F00001FFFF000000FFFF010001FFFF1F1FFFC5
:10020000FFFFFFFFF800000000000080E0380878E2
:10021000F0000000C0F818F88000C07018F8F8006E
:100220000000000000080888D8380000C0F0180856
:1002300008F8F000001010F8F800000070D8888866
:10024000C87800000000000000000000000000006E
:10025000003FFFFFFFFFFFFCFCFFFF800080FFFF70
:10026000000000FFFF800080FFFFF0F0FFFF800034
:1002700080FFFF000000FFFF800080FFFFF8F8FF15
:10028000FFFFFFFF1F00000000000C070302020336
:100290000F0C00080F01000007060300000F01000B
:1002A000000000080C0E0D0808080000070F0808E1
:1002B000080703000000000F030000070F080808EC
:1002C0000F07000000000000000000000000000018
:1002D000000001070F3FFFFFFFFFFFFFFFFFFFFFD2
:1002E000E0C0E0FFFFFFFFFFFFFFFFFFFFFFFFFF9B
:1002F000FFFFFFE0C0E0FFFFFFFFFFFFFFFFFFFF8B
:100300003F1F070000000000000000000000000088
:1003100000000000000000000000000000000000DD
:1003200000000000000000000000000000000000CD
:1003300000000000000000000000000000000000BD
:1003400000000000000000000000080B0002020294
:100350000100090400000102020000052400100150
:1003600005240101010424020605240600010705F5
:10037000810310004009040100020A000000070583
:100380000202400000070583024000000403090444
:1003900012010002EF0201404F1B04920001010212
:1003A0000301537061726B46756E00537061726B1E
:1003B00046756E2050726F204D6963726F007C3CF1
:1003C0003E5E2B3D3F2F5B5D3B2C2A225C000000F4
:1003D0000000240027002A002D003000000000004B
:1003E000250028002B002E003100AED580A81FD399
:1003F00000408D142002A1C8DA02817FD9F1DB40D0
:10040000A4A6AF000000002300260029002C002F26
:1004100000040404040403040502020202040302AB
:10042000020202060606060606040402020204048C
:1004300004080201104080401020408040800802E3
:100440000401804020100201108010204040200054
:1004500000000200090F0000030401000C0000006E
:100460000000000000000000000000000000000587
:10047000072061000000000000005F00000007008E
:100480000700147F147F14242A7F2A122313086480
:100490006236495522500005030000001C2241002D
:1004A0000041221C00082A1C2A0808083E080800EF
:1004B00050300000080808080800606000002010A4
:1004C0000804023E5149453E00427F4000426151CE
:1004D00049462141454B311814127F1027454545A7
:1004E000393C4A49493001710905033649494936C1
:1004F000064949291E003636000000563600000025
:100500000814224114141414144122140800020186
:10051000510906324979413E7E1111117E7F4949C8
:1005200049363E414141227F4141221C7F49494990
:10053000417F090901013E414151327F0808087F8E
:1005400000417F41002040413F017F081422417F4C
:10055000404040407F0204027F7F0408107F3E41FC
:1005600041413E7F090909063E4151215E7F09193B
:100570002946464949493101017F01013F40404038
:100580003F1F2040201F7F2018207F631408146322
:100590000304780403615149454300007F4141024F
:1005A0000408102041417F00000402010204404081
:1005B000404040000102040020545454787F4844D5
:1005C00044383844444420384444487F38545454D0
:1005D00018087E090102081454543C7F080404786A
:1005E00000447D40002040443D00007F102844002E
:1005F000417F40007C041804787C08040478384467
:100600004444387C14141408081414187C7C08041E
:1006100004084854545420043F4440203C404020A7
:100620007C1C2040201C3C4030403C442810284486
:100630000C5050503C4464544C4400083641000077
:10064000007F0000004136080008082A1C08081C2A
:100650002A08080006090906FFFFBFFFFFFFFBFF8E
:10066000FFFFBFFFFF7FFBFFFFF7BBFFFF7FBBFF6E
:10067000FFF7BBFFFE7FBBFFEFD7BBFDFE7DBBDF00
:10068000EFD7BB7DFE7DBBD3EFD7BB3D7E7CBBD31D
:10069000E7C7B3397E7C3B93E7C793397C3C3993FA
:1006A000C78393397C383183C78311187C38118113
:1006B00087830118783810018783011038300001D2
:1006C00083030010181000018101001010100000B9
:1006D0000101000010000000FFFFBFFFFFFFFBFF54
:1006E000FFF7BFFFFFFFFBFFFF07E1FD7D0DADED56
:1006F000CD1DFBF3E61F1BC1FDFD01FBFE7D3B8312
:10070000FDFD0D31CEE5F33BD9CDAD2D6C48A303F6
:10071000F9FD9DC1E670399DEDC503F9FC1C0193FF
:10072000C78303F1FC3C0103C1FDFD047000F9FD2A
:100730001DFDF1803818E0FD3D8101C0F0781809F9
:100740008D0D0C0CF8F8F001810100101010000064
:100750000101000000000000FFFFBFFFFFFFFBFFE3
:10076000FFFFBFFFFF7FFBBF017C7F67602F6B3701
:10077000B39C9FE7F06280BF3F706B2D6E35B89FD2
:10078000CFD0BA409F3F30626F672B350E1C603F61
:100790003F83B1071F7C7103A7C09F3F3B602923A4
:1007A00027B19E1F673801787F1F0018607F3F8147
:1007B0008480073F7C7C7F0780800E3F3F30602134
:1007C0002323301C1F0F01008101001010100000B6
:1007D0000101000010000000FFFFBFFFFFFFFBFF53
:1007E000FFF7BFFFFFFFFBFFFFF7BFFFFF7FBBFF71
:1007F000EFF7BBFFFE7FBBFFEFD7BBFFFE7DBBDF8D
:10080000EFD7BB3DFE7DBBD3EFD7BB3D7E7DBBD3DA
:10081000E7C7B3397E7C3B93E7C793397C3C399378
:10082000C78393397C383183C78311187C38118191
:100830008783011878381001838301103830000154
:100840008303001018100001810100101010000037
:100850000101000000000000EA03198020000706E3
:1008600005040100080A0B0C0D0905010902A1018C
:100870000901A100850105091901290315002501B8
:100880009503750181029501750581030501093004
:10089000093109381581257F750895038106C0C087
:1008A00005010906A1018502050719E029E71500E0
:1008B000250175019508810295017508810395064A
:1008C0007508150025650507190029658100C00018
:1008D0000005072061000000000000005F0000002C
:1008E00007000700147F147F14242A7F2A12231381
:1008F00008646236495522500005030000001C229E
:1009000041000041221C00082A1C2A0808083E0851
:100910000800503000000808080808006060000067
:1009200020100804023E5149453E00427F400042EB
:10093000615149462141454B311814127F1027451A
:100940004545393C4A494930017109050336494951
:100950004936064949291E00363600000056360041
:100960000000081422411414141414412214080025
:100970000201510906324979413E7E1111117E7FF3
:10098000494949363E414141227F4141221C7F492C
:100990004949417F090901013E414151327F08081F
:1009A000087F00417F41002040413F017F08142221
:1009B000417F404040407F0204027F7F0408107F57
:1009C0003E4141413E7F090909063E4151215E7F7A
:1009D00009192946464949493101017F01013F4032
:1009E00040403F1F2040201F7F2018207F631408B5
:1009F00014630304780403615149454300007F41B7
:100A000041020408102041417F0000040201020459
:100A10004040404040000102040020545454787F7C
:100A2000484444383844444420384444487F385487
:100A3000545418087E090102081454543C7F0804D9
:100A4000047800447D40002040443D00007F102891
:100A50004400417F40007C041804787C080404783A
:100A600038444444387C14141408081414187C7C4A
:100A7000080404084854545420043F4440203C4097
:100A800040207C1C2040201C3C4030403C4428102E
:100A900028440C5050503C4464544C4400083641A7
:100AA0000000007F0000004136080008082A1C08EA
:100AB000081C2A080800060909060000050720602E
:100AC000000000000000005F0000000700070014A5
:100AD0007F147F14242A7F2A122313086462364964
:100AE0005620500008070300001C2241000041224C
:100AF0001C002A1C7F1C2A08083E08080080703051
:100B000000080808080800006060002010080402BF
:100B10003E5149453E00427F4000724949494621C5
:100B200041494D331814127F1027454545393C4A39
:100B30004949314121110907364949493646494950
:100B4000291E000014000000403400000008142298
:100B50004114141414140041221408020159090606
:100B60003E415D594E7C1211127C7F494949363E07
:100B7000414141227F4141413E7F494949417F09ED
:100B80000909013E414151737F0808087F00417FF8
:100B900041002040413F017F081422417F404040F6
:100BA000407F021C027F7F0408107F3E4141413E8E
:100BB0007F090909063E4151215E7F091929462610
:100BC0004949493203017F01033F4040403F1F2014
:100BD00040201F3F4038403F6314081463030478EB
:100BE00004036159494D43007F414141020408100B
:100BF00020004141417F0402010204404040404046
:100C0000000307080020545478407F2844443838B3
:100C100044444428384444287F3854545418000825
:100C20007E090218A4A49C787F0804047800447DFF
:100C300040002040403D007F1028440000417F409C
:100C4000007C047804787C080404783844444438F0
:100C5000FC1824241818242418FC7C0804040848D0
:100C60005454542404043F44243C4040207C1C2021
:100C700040201C3C4030403C44281028444C90907C
:100C8000907C4464544C44000836410000007700D6
:100C900000004136080002010204023C2623263CE3
:100CA00000030C0F30333C3FC0C3CCCFF0F3FCFF4C
:100CB000782C11241FBECFEFDAE0DEBFCDBF13E0EA
:100CC000A0E0B1E0EAECF3E602C005900D92A63494
:100CD000B107D9F727E0A6E4B3E001C01D92A9331C
:100CE000B207E1F716E0C9E5D6E004C02197FE019E
:100CF0000E94AC2FC835D107C9F70E942D2A0C9449
:100D0000E3310C9400000895FC016093BC008091D5
:100D1000BC0087FFFCCF9091B900987F9083089525
:100D2000CF92DF92EF92FF920F931F93CF93DF93B7
:100D3000EC01C62ED42E8F85882351F0411108C0B6
:100D400084E98093BC008091BC0084FDFCCF1F86A9
:100D5000EF848E01035F1F4FE11014C0FE8464EA2C
:100D6000C8010E9484068D85883011F1803101F11F
:100D7000DD2011F080E4E82EE092BB0064E8C801B9
:100D80000E948406C092BB0064E8C8010E948406E9
:100D900082E0D81204C08F858F5F8F8711C084E9ED
:100DA0008093BC008091BC0084FDFCCF1F8608C0EE
:100DB000FF0CF092BB0064E8C8010E948406D8CF03
:100DC000DF91CF911F910F91FF90EF90DF90CF9027
:100DD0000895089580E090E0089587E296E00E94EB
:100DE00058288AE491E00E94CB1E60ED77E080E015
:100DF00090E00E94E01661E070E080E090E00E94E8
:100E0000E0166CED75E080E090E00E94E0160C9436
:100E1000231FCF93DF93EB016A817B818CE895E000
:100E20000E94671E8A819B810884D985C02D8B5DB5
:100E3000914009F44DC087E296E00E94582868EE80
:100E400071E087E296E00E94671E8A819B818E5F37
:100E5000914091F469E072E087E296E00E94671E9B
:100E60006BED71E087E296E00E94671E64E172E03C
:100E700087E296E00E94671E8A819B818B5D91408C
:100E800091F46EEF71E087E296E00E94671E6CE1DC
:100E900072E087E296E00E94671E64E172E087E2FA
:100EA00096E00E94671E8A819B818451924009F0DE
:100EB00043C06EEF71E087E296E00E94671E6BED23
:100EC00071E087E296E00E94671E69E272E02EC040
:100ED00087E296E00E94582861E372E087E296E09C
:100EE0000E94671E6BE073E087E296E00E94671E37
:100EF0008A819B818754924061F46DE472E087E2BD
:100F000096E00E94671E63E572E087E296E00E9429
:100F1000671E8A819B818355924071F467E472E079
:100F200087E296E00E94671E69E572E087E296E03C
:100F3000DF91CF910C94671EDF91CF910895FB0153
:100F40006281738187E296E00C94791EFB016281D5
:100F5000738187E296E00C94791EFB0162817381B4
:100F600087E296E00C94791ECF93DF93EB010E9409
:100F7000CF1728E030E0AE0162E0DF91CF910C9412
:100F80009B17DC01683810F0685825C0E62FF0E0A8
:100F900067FF12C0E058F10981E090E001C0880FBE
:100FA000EA95EAF7809514969C91149789231496F4
:100FB0008C93149760E00FC0E653FF4F6491662353
:100FC00001F167FF08C014968C9114978D7F1496D9
:100FD0008C9314976F77FD01369686E0662321F097
:100FE0009081961301C01082815031968111F6CF05
:100FF000CD01BD016C5F7F4F0E94B40781E090E09E
:10100000089580E090E00895DC01683810F0685899
:101010002DC0E62FF0E067FF11C0E058F10981E034
:1010200090E001C0880FEA95EAF714969C91149716
:10103000892B14968C93149760E018C0E653FF4FE9
:101040006491611109C081E090E013969C938E93A6
:10105000129780E090E0089567FF08C014968C9185
:101060001497826014968C9314976F7716968C91D0
:101070001697861751F117968C911797861729F1B5
:1010800018968C911897861701F119968C911997DB
:101090008617D9F01A968C911A978617B1F01B967D
:1010A0008C911B97861789F0FD01369680E090E0C1
:1010B0002191211105C0FD01E80FF91F668305C0CC
:1010C000019686309105A1F7BECFCD01BD016C5FC1
:1010D0007F4F0E94B40781E090E00895EF92FF9265
:1010E0001F93CF93DF93EC01162F0E9404087C011D
:1010F000612FCE010E94C107C7019927DF91CF91CF
:101100001F91FF90EF900895FC01E60FF71FDA01A1
:10111000CD01841B950B8217930734F491918D9127
:101120009817B1F380E0089581E00895AF92BF92DF
:10113000CF92DF92EF92FF920F931F93CF93DF93A3
:10114000CDB7DEB760970FB6F894DEBF0FBECDBF48
:101150005C018B016B018FEFC81AD80A26E030E0E2
:101160004FE552E0B601C5010E948408882391F141
:101170002091000130910101C901330FAA0BBB0B73
:10118000C0900201D09003010D2C000CEE08FF0866
:10119000C816D906EA06FB060CF078C09C01AD0122
:1011A0002C193D094E095F0969F02D873E874F874D
:1011B000588B0E94762E2D853E854F8558890E943A
:1011C000122F03C060E070E0CB01C60ED71EE81EF0
:1011D000F91E5CC00A5F1F4F7601B501CE01019672
:1011E0000E9456110C151D0510F4780186016BE064
:1011F00073E0CE0107960E9456118D819E81E816FC
:10120000F90680F58017910708F48C01E981FA81CD
:10121000E00FF11FD080108269817A816E0D7F1DF1
:101220006115710569F0FB0101900020E9F7319724
:10123000AF01461B570BCE0107960E942B110CC025
:101240008F819885009711F00E94473018861F8281
:101250001C861B861A86198689819A81FC01E00FFB
:10126000F11FD0820F8118850115110521F0C801E9
:101270000E94A22E03C060E070E0CB016B01C801A8
:101280000E94473089819A810E944730C60160964A
:101290000FB6F894DEBF0FBECDBFDF91CF911F9187
:1012A0000F91FF90EF90DF90CF90BF90AF90089597
:1012B000EF92FF920F931F93CF93DF9300D000D054
:1012C000CDB7DEB78091490390914A03E0917D0646
:1012D000F0917E0600E010E00817190734F4219120
:1012E000203229F00F5F1F4FF7CF0FEF1FEF66E699
:1012F00072E08CE895E00E94791E60917D06709105
:101300007E068CE895E00E94671E6EEF72E0809189
:101310007D0690917E060E94C92E90938B05809346
:101320008A0587E296E00E9458280F3F8FEF180742
:1013300019F40E94651F61C06CE672E0C8010E944A
:10134000301F811183C069E772E0C8010E94301F1D
:1013500081117CC060ED72E0C8010E94301F8111D4
:1013600081C067E872E0C8010E94301F81117AC015
:1013700080917D0690917E060530110509F084C0AC
:1013800025E030E04BED52E060E070E00E94840820
:10139000882309F4B4C06EEF72E080E090E00E9410
:1013A000C92E90938B0580938A050E94842E90937A
:1013B0004703809346036BED72E087E296E00E945C
:1013C000671E4091460350914703052E000C660BA3
:1013D000770B77FF53C087E296E00E943A1E87E2C0
:1013E00096E00E94631E6091460370914703072EAA
:1013F000000C880B990B0E94E01610927506109253
:10140000760610927706109278061092790610925E
:101410007A061092730663E776E08FE696E00E9404
:10142000B4076091060170910701072E000C880B2C
:10143000990B0E94E0160F900F900F900F90DF9184
:10144000CF911F910F91FF90EF900895B801809177
:101450007D0690917E060E949608909307018093E6
:101460000601CBCFB80180917D0690917E060E9447
:1014700096089093050180930401BFCF2AE087E28C
:1014800096E00E94F11DABCF06301105C1F526E0B4
:1014900030E04AE952E060E070E00E94840888236E
:1014A00071F16AE972E087E296E00E94671E07E048
:1014B00010E08091490390914A03081719070CF036
:1014C0009CCFE0917D06F0917E06E00FF11FF08049
:1014D0006F2D8FE696E00E940408609104017091E0
:1014E0000501072E000C880B990B0E94E0166F2D4A
:1014F0008FE696E00E94C1070F5F1F4FDACF61EAC7
:1015000072E0C8010E94301F882379F1409149039D
:1015100050914A0398012F5F3F4F80917D06909133
:101520007E06241735074CF4FC01E20FF31F60819F
:10153000603241F02F5F3F4FF4CFEE24EA94FF2456
:10154000FA9401C07901B8010E949608182FB701DA
:1015500080917D0690917E060E94960890913706B4
:1015600099831A838B831C8214C067EA72E0C801D6
:101570000E94301F8823C1F0B80180917D069091B0
:101580007E060E9496089091370699831A821B82E4
:101590008C830E94CF1724E030E0AE014F5F5F4F95
:1015A00061E00E949B1729CF6EEA72E0C8010E9499
:1015B000301F882361F0B80180917D0690917E06EE
:1015C0000E949608909303018093020116CF68EB66
:1015D00072E0C8010E94301F882361F0B801809139
:1015E0007D0690917E060E9496089093010180935B
:1015F000000103CF62EC72E0C8010E94301F81112C
:10160000FCCE66EC72E0C8010E94301F8111F5CE5D
:1016100080918A0590918B05892B09F4EECE0E946A
:10162000651F6DEC72E080E090E00E94C92E9093FF
:101630008B0580938A05ECCF8F929F92AF92BF92D9
:10164000CF92DF92EF92FF920F931F93CF93DF938E
:10165000CDB7DEB7C857D1090FB6F894DEBF0FBEBD
:10166000CDBF87E296E00E94582861EE72E087E2E3
:1016700096E00E94671E6BE073E0CE018D589F4F8D
:101680000E94561189E00E948F1E892B11F461E39C
:1016900001C060E3CE018D589F4F0E94FB108AE08D
:1016A0000E948F1E892B11F461E301C060E3CE011B
:1016B0008D589F4F0E94FB108DE00E948F1E892B3A
:1016C00011F461E301C060E3CE018D589F4F0E9489
:1016D000FB1085E00E948F1E892B11F461E301C08D
:1016E00060E3CE018D589F4F0E94FB10E9960EAD2E
:1016F0001FADE9970C5F1F4FB801CE018D589F4F6A
:101700000E94D410882391F0E5962EAD3FADE59769
:10171000E9968EAD9FADE99764E073E0820F931F69
:101720000E94CD31E9961FAF0EAFE99787E296E0B0
:101730000E94631E67EF72E087E296E00E94791EC6
:10174000E9964EAD5FADE997E5966EAD7FADE59755
:1017500087E296E00E94421C87E296E00E94631EA8
:101760001092E9051092E7051092E4051092E30546
:1017700084E08093E2050E941A176B017C0161E00E
:101780008091E2050E94A41661E08091E2050E942A
:1017900074161FB7F89480914803811127C0E2E2C4
:1017A000F4E08491E1E4F4E09491E82FF0E0EE0FAE
:1017B000FF1FE253FC4FA591B491EC91E92321F472
:1017C00061E081E10E94741661E081E10E94A4164B
:1017D0008CB580618CBD8CB580648CBD61E08FE080
:1017E0000E94A41661E080E10E94A4168091480343
:1017F0008F5F809348031FBF82E58093DC0581E003
:101800008093DD058091DC059091DD050E948B229F
:101810001AE08FEF0E944C221150D9F78EED95E01F
:101820000E948E2220E030E0A90160E08EED95E07C
:101830000E94A422182F8093E805813049F00E946D
:101840001A176C197D09613D774060F381E054C03F
:101850002AEA31E040E050E068E08EED95E00E9439
:10186000A42282FF03C01093E9050EC014E00E9479
:1018700053228093E8051150D1F78A3A11F082E0A3
:101880003BC082E08093E9058091E905823021F038
:10189000812C912C540105C0812C912CA12C30E479
:1018A000B32E20E030E0A90167E38EED95E00E94C1
:1018B000A422A501940169E28EED95E00E94A42284
:1018C0008093E805882349F00E941A176C197D0956
:1018D000613D774030F388E00FC08091E9058230A8
:1018E00001F520E030E0A9016AE38EED95E00E9469
:1018F000A422882341F086E08093E3058EED95E0F5
:101900000E9441228DC00E945322807C803C19F4A9
:1019100083E08093E9050E9453220E9453220E9493
:1019200053228EED95E00E94412280E58093DC05F4
:1019300081E08093DD050E947B0F882329F0809150
:101940000D06882341F06CC080E00E947B0F882345
:1019500009F466C0F4CF80910106803109F582E078
:1019600080930D0610921F061092200610922106F9
:10197000109222068091020690910306A0E0B0E04A
:1019800025E0880F991FAA1FBB1F2A95D1F78093C6
:101990001B0690931C06A0931D06B0931E061DC047
:1019A0008032F1F583E080930D064091040650915A
:1019B0000506609106067091070640931F06509336
:1019C000200660932106709322062BE136E08AEE12
:1019D00095E00E94E919882319F18AEE95E0909329
:1019E00024068093230681E080930C0610920E0655
:1019F00010920F0610921006109211061092120605
:101A000010921306109214061092150610921606E4
:101A100010921706109218061092190610921A06C4
:101A200068E076E0CE0101960E940524BE016F5F5A
:101A30007F4FCE01CB960E94052419A218A28BE5F8
:101A400091E09F8F8E8F1BA221968FAD21978111E0
:101A500016C06C961FAE1EAE6C9788EE93E0A0E0A9
:101A6000B0E0A0968CAF9DAFAEAFBFAFA097E396AE
:101A70001FAE1EAEE397A5961FAEA5972CC0825051
:101A800040E053E0823048F468E076E0CE014E96C4
:101A90000E94940E81110EC0DCCFBE01655C7F4FA9
:101AA000CE014E960E94940E882399F2CE01CB96D9
:101AB0000E942C21BE01625E7F4FCE0101960E94E2
:101AC000052440E053E0BE016F5F7F4FCE01885A8E
:101AD0009F4F0E9456246C968EAD9FAD6C9790934D
:101AE000820680938106A0968CAD9DADAEADBFAD54
:101AF000A0978093830690938406A0938506B09365
:101B00008606A4968CAD9DADAEADBFADA497809377
:101B1000870690938806A0938906B0938A068DE085
:101B2000E8E5F0E0EC0FFD1F3C96ABE8B6E0019075
:101B30000D928A95E1F7E3968EAD9FADE397909372
:101B400099068093980687E296E00E9458288FE7CE
:101B500096E00E943B200091490310914A03892B93
:101B600009F497C0E0907D06F0907E06E00EF11E2D
:101B70008FE796E00E949525F7018083E0917D062E
:101B8000F0917E06E00FF11F80818D3031F08A30B8
:101B900071F0003811055CF475C08FE796E00E9483
:101BA0009F250A9721F48FE796E00E949525E09102
:101BB0009806F0919906309729F082849384A48442
:101BC000B58404C088248A94982C540100E010E065
:101BD0008FE796E00E943B20892B91F0E0907B06F6
:101BE000F0907C06E00EF11E8FE796E00E949525AE
:101BF000F70180830F5F1F4F0C30110549F703C0B9
:101C000007301105B4F000917B0610917C0626E0A8
:101C100030E046EC52E060E070E0C8010E948408C9
:101C2000882339F066E070E0C8010E9496088C01B4
:101C300002C000E010E0E12CF12CE016F10634F4D3
:101C40000E945809FFEFEF1AFF0AF7CF809198061C
:101C500090919906009721F0B501A4010E94962069
:101C6000E0917D06F0917E068091490390914A03B0
:101C7000E80FF91F10820E94580910924A0310922F
:101C8000490365CF0F5F1F4F10934A030093490329
:101C90005ECF1016110674F480917D0690917E0639
:101CA000FC01E00FF11F10820E94580910924A03B4
:101CB000109249038091980690919906009761F0DF
:101CC0000E942C2180919806909199060E9447309D
:101CD0001092990610929806E5968EAD9FADE59705
:101CE0000E9447306CED75E080E090E00E94E016C5
:101CF000C858DF4F0FB6F894DEBF0FBECDBFDF91DF
:101D0000CF911F910F91FF90EF90DF90CF90BF90F8
:101D1000AF909F908F900895DC01ED91FC9100842D
:101D2000F185E02D40E00994AF92BF92CF92DF920F
:101D3000EF92FF920F931F93CF93DF93CDB7DEB750
:101D40002B970FB6F894DEBF0FBECDBF7C01CE013E
:101D500001966C01FC0190E28BE08C0D91938E1347
:101D6000FDCFDA0120E037E09D91992339F19E32D1
:101D700019F0EEEBF3E00AC03A3009F4AAC028E00B
:101D80003AE0F2CF3196891709F4A3C0849181110A
:101D9000F9CF321708F49DC08FED890F8E3508F00A
:101DA00098C081E0820FF601E20FF11D2FE9290FA3
:101DB0002A3108F490529083282FD6CF898180321F
:101DC00009F487C08B01FB01838D948DF701948FFB
:101DD000838FFB0116821782108611861286138666
:101DE00014861586A12CF80182859385A485B58576
:101DF000438954896589768984179507A607B707AB
:101E000008F067C025E0B695A795979587952A9520
:101E1000D1F7F82FFF70BF2EF8018581823008F4CA
:101E200058C0C8010E948B2497FD53C0F8018285D9
:101E30009385A485B5854F96A11DB11D8287938793
:101E4000A487B587F0E2BF9EC0011124BC0166578C
:101E50007C4F61157105E9F1FB0120812223B9F165
:101E6000253EE1F04BE050E0C6010E94AE31892BE7
:101E700009F0B9CF6B2DC7012B960FB6F894DEBFD2
:101E80000FBECDBFDF91CF911F910F91FF90EF90CB
:101E9000DF90CF90BF90AF900C94E51FA11014C0BD
:101EA000F701B28A40911B0150911C0160911D0104
:101EB00070911E0146875787608B718BFC01E65736
:101EC000FC4F8081882329F0AA24A3948CCFAA20D8
:101ED00039F380E02B960FB6F894DEBF0FBECDBF6E
:101EE000DF91CF911F910F91FF90EF90DF90CF90F6
:101EF000BF90AF9008958F929F92AF92BF92CF9272
:101F0000DF92EF92FF92CF93DF93C82F8EED95E093
:101F10009093560380935503CC2369F1C53010F09C
:101F200080E00DC140E060E070E0CB010E947C18D1
:101F30008823B1F320E1C29FC001112486589C4F31
:101F4000FC01E254FE4F20812F7751F73C964081EF
:101F5000518162817381443651056105710500F339
:101F60003497C080D180E280F380C114D104E104B1
:101F7000F10421F4D5CFC12CD12C760140E0C7016A
:101F8000B6010E947C18882359F2809195039091A4
:101F900096038115924021F6A0919A03AA2309F491
:101FA000BFCF60919803709199036115710509F491
:101FB000B7CF20919703222309F4B2CFA093FC0559
:101FC0002093EE0580E030E0E1E0F0E0C82FAF01C3
:101FD000082E02C0440F551F0A94E2F72417350754
:101FE00041F0982F8F5F983089F789E08093F7054B
:101FF00097CF8093F7052091A0033091A10321157D
:10200000310519F040E050E008C02091AE03309156
:10201000AF034091B0035091B1032093EF0530938B
:10202000F0054093F1055093F20546015701860EE5
:10203000971EA11CB11C8092FD059092FE05A092F6
:10204000FF05B0920006E0919B03F0919C03F09392
:102050000306E0930206B0E00E94312F860E971E21
:10206000A81EB91E8092040690920506A09206064C
:10207000B092070685E0EE0FFF1F8A95E1F7E15069
:10208000FE4FEF2FFF27E6958E0E9F1EA11CB11C61
:102090008092F8059092F905A092FA05B092FB059E
:1020A00020919D0330919E032115310521F0A90156
:1020B00060E070E008C04091AA035091AB036091CA
:1020C000AC037091AD03D701C60188199909AA091B
:1020D000BB09840F951FA61FB71F04C0B695A7950F
:1020E00097958795CA95D2F78093F3059093F40559
:1020F000A093F505B093F605853F2FE09207A10563
:10210000B10510F48CE018C0853F9F4FA105B105C3
:1021100010F480E111C08091B6039091B703A091B3
:10212000B803B091B9038093040690930506A09379
:102130000606B093070680E28093010681E0DF91F6
:10214000CF91FF90EF90DF90CF90BF90AF909F9096
:102150008F900895FC0180915403811103C08FEF8B
:102160009FEF08959FB7F89482E08093E900209153
:10217000F20030E01216130614F421E030E02115CD
:10218000310559F0289884E6809353038091F1003B
:1021900080838091F200882319F09FBFC9010895C0
:1021A0008BE68093E800F9CF0F931F93CF93DF93D3
:1021B000EC0188819981009729F02A813B812617BB
:1021C000370788F48B016F5F7F4F0E94DF300097E5
:1021D00061F0998388831B830A832C813D81232BA3
:1021E00011F4FC01108281E001C080E0DF91CF9109
:1021F0001F910F910895EF92FF920F931F93CF932A
:10220000DF9300D0CDB7DEB78C0169831A82FC0161
:10221000E480F580FFEFEF1AFF0AB7010E94D410A7
:10222000882381F0F8012081318184819581BE016C
:102230006F5F7F4F820F931F0E94CD31F801F582AF
:10224000E48281E00F900F90DF91CF911F910F9169
:10225000FF90EF900895EF92FF920F931F93CF930B
:10226000DF93EC017B018A01BA010E94D41028811E
:10227000398181110DC02115310519F0C9010E9464
:102280004730198218821D821C821B821A8206C066
:102290001D830C83B701C9010E94CD31CE01DF91AE
:1022A000CF911F910F91FF90EF900895FC01118243
:1022B000108213821282158214826115710551F009
:1022C000FB0101900020E9F73197AF01461B570B46
:1022D0000C942B1108951F920F920FB60F92112498
:1022E0008F939F938091E1009091E100937F909371
:1022F000E10083FF0FC01092E90091E09093EB00A2
:102300001092EC0092E39093ED001092540398E049
:102310009093F00082FF20C093E09093E9009091A9
:10232000F200992319F09AE39093E80090915203F8
:10233000992339F09091520391509093520399232D
:1023400089F190915303992339F09091530391505F
:1023500090935303992341F184FF10C08091E200D0
:102360008E7E81608093E2008091E1008F7E809379
:10237000E100809151038E7E806111C080FF16C004
:102380008091E2008E7E80618093E2008091E10086
:102390008E7E8093E100809151038E7E81608093D8
:1023A000510304C05D9ACDCF289AD6CF9F918F91CB
:1023B0000F900FBE0F901F901895DF92EF92FF9233
:1023C0000F931F93CF93DF93D82E8A017B01E40EE6
:1023D000F51EEB01CE15DF0571F0D7FE03C0FE013F
:1023E000849101C088810E94061D21968111F2CF3F
:1023F0008FEF9FEF01C0C801DF91CF911F910F9127
:10240000FF90EF90DF9008950F931F93CF93DF938A
:102410001F92CDB7DEB782E0898342E450E06AE4E0
:1024200073E080E80E94DD110E947B1EDC011296A1
:102430000D911C9113970115110569F0D801ED91CB
:10244000FC910280F381E02DBE016F5F7F4FC801D8
:10245000099597FF07C089810F90DF91CF911F9158
:102460000F910895F80100851185E5CF1F920F9215
:102470000FB60F921124CF92DF92EF92FF920F933B
:102480001F932F933F934F935F936F937F938F93FC
:102490009F93AF93BF93EF93FF93CF93DF93CDB70A
:1024A000DEB76C97DEBFCDBF1092E9008091E800E7
:1024B00083FFEDC168E0CE0145960E94E41D82EFE6
:1024C0008093E8008D8987FF05C09091E80090FF18
:1024D000FCCF03C09EEF9093E800982F907609F010
:1024E000C6C09E892F89188D91110CC0803829F49F
:1024F000809150038093F10002C01092F10010927D
:10250000F10048C1422F50E0512B913051F481111C
:1025100041C14130510509F03DC1809150038D7F8B
:102520000BC0933061F4811135C14130510509F080
:1025300031C1809150038260809350032BC195304C
:1025400041F48091E80080FFFCCF20682093E300F5
:1025500021C1963009F05FC0EB8CFC8C1092E90031
:1025600010924E0310924D03123091F510924C03CD
:1025700010924B030E94041299E0BE016F5F7F4FDF
:10258000DB01E92F1D92EA95E9F799831A8391E01F
:102590009E8390EA98879AEF998720914D03309116
:1025A0004E03275F3F4F3C832B838D831092E900BE
:1025B00010924E0310924D03F0924C03E0924B03A5
:1025C00049E050E080E00E94DD110E940412E2C068
:1025D000F0924C03E0924B030E947B1EDC011296AA
:1025E000ED90FC901397E114F10409F4C0C0D701F9
:1025F000ED91FC910480F581E02DBE016B5E7F4F73
:10260000C7010995009719F00CF0C4C0C7C0F701C5
:10261000E084F184E8CF973009F4C0C0983021F409
:1026200081E08093F100B6C0993009F0B3C08370A7
:1026300009F0B4C0E9E0F1E081E021E036E3908107
:10264000992361F08093E9002093EB00919190939E
:10265000EC003093ED008F5F873089F78EE7809331
:10266000EA001092EA008F898093540393C08B8D07
:102670009C8D1092E90010924E0310924D0390939E
:102680004C0380934B03898D811156C08E899D899F
:10269000913A59F4813209F081C047E050E063E19A
:1026A00071E080E00E94DD1175C0913209F076C0C2
:1026B000833289F4888D90E0982F88272F89822B88
:1026C000A0E0B0E080930F0190931001A09311015E
:1026D000B09312015FC0803269F48091E80082FFFC
:1026E000FCCF67E083E191E00E94E41D8BEF8093D3
:1026F000E80006C0823209F04DC08F8980931A012C
:1027000080914F03882319F0EEEFFAE002C0E0E079
:10271000F8E08091130190911401A0911501B091FE
:102720001601803B9440A105B10509F07BC0809162
:102730001A0180FF93C076C00E947B1EDC011296B6
:102740000D911C9113970115110541F1D801ED91DF
:10275000FC910190F081E02DBE016B5E7F4FC801BE
:102760000995811117C0F80100851185ECCF113052
:1027700009F44EC0133091F48F89882309F445C0C1
:10278000823081F440E862E18BEA93E00E94F02914
:10279000882321F08EEF8093E80079C081E2809356
:1027A000EB0075C0813029F440E868E082EA93E0EC
:1027B000EDCF833099F70E947B1EDC011296ED90DD
:1027C000FC9013978E010F5F1F4F6801E114F10415
:1027D00079F0D701ED91FC910680F781E02DB801E9
:1027E000C7010995080F111DF701E084F184EECFB0
:1027F000D8011C92F60101900020E9F73197BF0142
:102800006C197D0940E0C601C1CF6CE873E002C0DD
:1028100060E973E06115710509F2FB01449150E034
:1028200080E840CF0FB6F894A89580916000886149
:1028300080936000109260000FBEA895EE3F2AE0E2
:10284000F20739F08091FE0A9091FF0A918380830C
:10285000A1CF1092FF0A1092FE0A9CCFEE3F8AE0B1
:10286000F80731F0808191819093FF0A8093FE0AEE
:1028700087E797E7918380839BE088E10FB6F89420
:10288000A895809360000FBE9093600083CF6C96F4
:102890000FB6F894DEBF0FBECDBFDF91CF91FF9191
:1028A000EF91BF91AF919F918F917F916F915F91C8
:1028B0004F913F912F911F910F91FF90EF90DF90DB
:1028C000CF900F900FBE0F901F9018953FB7F894C0
:1028D00080917A0390917B03A0917C03B0917D035A
:1028E00026B5A89B05C02F3F19F00196A11DB11D6B
:1028F0003FBFBA2FA92F982F8827820F911DA11DA6
:10290000B11DBC01CD0143E0660F771F881F991FE1
:102910004A95D1F7089580E0089580E00895DB019D
:10292000ED91FC9111970280F381E02DBC01CD0166
:1029300009940895DB01ED91FC9111970084F185D4
:10294000E02DBC01CD0109940F931F93CF93DF932A
:10295000EC0100E010E08E8590E0081719079CF468
:10296000C801880F991FEA85FB85E80FF91F808150
:102970009181DC01ED91FC910680F781E02D0995B4
:102980000F5F1F4FE8CFE885F9851582188A1F86EB
:102990008E85882331F0EA85FB850190F081E02D5A
:1029A00002C0E0E0F0E0F987E88781E08583DF910D
:1029B000CF911F910F910895FC018785808B96859B
:1029C000992331F1882311F0815004C0662301F16D
:1029D0008FEF890F878722859385A22FB92FA80FA4
:1029E000B11DA80FB11D0D90BC91A02DB187A0877E
:1029F00081E015968C938089E22FF92FE80FF11D65
:102A0000E80FF11D0190F081E02D158281E008951D
:102A100080E00895CF93DF93FC018785808B268526
:102A20002223B1F1482F50E030E021503109421704
:102A30005307B1F08F5F878722859385A22FB92F27
:102A4000A80FB11DA80FB11D0D90BC91A02DB1878D
:102A5000A08781E015968C938089E22FF92F0EC014
:102A60006623B1F01786A285B385CD91DC911197CD
:102A7000D187C08781E08D838089FD01E80FF11D3A
:102A8000E80FF11D0190F081E02D158281E001C079
:102A900080E0DF91CF910895DC011696ED91FC91D5
:102AA0001797309709F0099580E090E008950E940B
:102AB0004C1580E090E00895CF93DF93EC010E94E5
:102AC0004C15CE01DF91CF910895DC01FB011296E8
:102AD0008C91129790E02481358182179307D1F46D
:102AE00091818081813A31F481E0913091F093308D
:102AF00089F411C0813271F49B3021F482811F96D8
:102B00008C9305C09A3031F4828150968C9381E089
:102B10000895089580E00895DC01FB0188E4808336
:102B200089E4818384E482831D969C911D979F7024
:102B30009F5B93831D968D919C911E9724E09695A3
:102B400087952A95E1F78F708F5B848385E00895E0
:102B5000FC0182818F5BFB01808381E00895EF920D
:102B6000FF920F931F93CF93DF93FB0120812138B6
:102B700051F52381223239F5DC0112962C9130E097
:102B80004481558142175307F1F4EC010B851C85F4
:102B9000E12CF12C0115110591F0F80144815581CA
:102BA0006281738180E80E94DD118F3FFFEF9F07F4
:102BB00069F0E80EF91ED8010D911C91EBCF81E070
:102BC0008F87C70105C080E090E002C08FEF9FEFC4
:102BD000DF91CF911F910F91FF90EF900895CF93C8
:102BE000DF93CDB7DEB769970FB6F894DEBF0FBE9F
:102BF000CDBFFC01DB018C918F5F8C93BE016F5FB9
:102C00007F4F89E1DB011D928A95E9F729E029834D
:102C100084E08A8391E09D8383E08E832A8721E28A
:102C20002B879C879D879F8722E2288B27E02B8B11
:102C300025E02C8B8E8B20E430E0388F2F8B998F02
:102C400082818B8395858685998B8A8B8381806829
:102C50008D8B49E150E080E00E94DD1169960FB64E
:102C6000F894DEBF0FBECDBFDF91CF91089590E005
:102C7000FC013197EF30F105B0F5EA5AFF4F0C94A3
:102C8000AC2F809180008F7703C0809180008F7D72
:102C900080938000089580918000877FF9CF84B56C
:102CA0008F7702C084B58F7D84BD08958091900098
:102CB0008F7707C0809190008F7D03C08091900036
:102CC000877F8093900008958091C0008F7703C024
:102CD0008091C0008F7D8093C00008958091C200D4
:102CE000877F8093C20008951F93CF93DF93282F8F
:102CF00030E0F901E15BFB4F8491F901E05DFB4FAE
:102D0000D491F901EF5EFB4FC491CC23C9F0162F8B
:102D100081110E943716EC2FF0E0EE0FFF1FE452F6
:102D2000FC4FA591B4918FB7F894111105C09C91F7
:102D3000ED2FE095E92302C0EC91ED2BEC938FBFD2
:102D4000DF91CF911F910895CF93DF9390E0FC0125
:102D5000E05DFB4F2491FC01EF5EFB4F84918823E3
:102D600061F190E0880F991FFC01E253FC4FC5917F
:102D7000D491FC01E452FC4FA591B491611109C0BA
:102D80009FB7F8948881209582238883EC912E2325
:102D90000BC0623061F49FB7F8943881822F809520
:102DA00083238883EC912E2B2C939FBF06C08FB773
:102DB000F894E8812E2B28838FBFDF91CF9108955F
:102DC0008F929F92AF92BF92CF92DF92EF92FF923B
:102DD0006B017C010E9466144B015C01C114D1049B
:102DE000E104F104F1F00E946614DC01CB018819C2
:102DF0009909AA09BB09883E9340A105B10570F362
:102E000021E0C21AD108E108F10888EE880E83E0BB
:102E1000981EA11CB11CC114D104E104F10419F7DE
:102E2000DDCFFF90EF90DF90CF90BF90AF909F905D
:102E30008F9008952FB7F89460917603709177037F
:102E400080917803909179032FBF08951F920F927C
:102E50000FB60F9211242F933F938F939F93AF93AD
:102E6000BF938091760390917703A0917803B091FE
:102E700079033091750326E0230F2D3720F4029655
:102E8000A11DB11D05C029E8230F0396A11DB11D89
:102E9000209375038093760390937703A093780330
:102EA000B093790380917A0390917B03A0917C0386
:102EB000B0917D030196A11DB11D80937A0390937B
:102EC0007B03A0937C03B0937D03BF91AF919F914F
:102ED0008F913F912F910F900FBE0F901F901895DB
:102EE0000F931F93CF93DF93EC018B018E8590E0BE
:102EF0000196BC01660F771F8A859B850E94DF3093
:102F0000FC019B878A87892B89F08E85E80FF11D4C
:102F1000E80FF11D11830083811105C0198708870F
:102F200081E0F80185838E858F5F8E87DF91CF9159
:102F30001F910F910895AF92BF92CF92DF92EF92BF
:102F4000FF920F931F93CF93DF931F92CDB7DEB7FE
:102F50007C0169836A01590141E050E0BE016F5F65
:102F60007F4FFC0183810E94341D8C0197FD0BC0B3
:102F7000F7018381A501B60180640E94341D97FD8D
:102F800002C0800F911F0F90DF91CF911F910F9181
:102F9000FF90EF90DF90CF90BF90AF900895809119
:102FA0006D0381116BC081E08093600380936103A6
:102FB00026E633E0309363032093620310926503A7
:102FC000109264032FE231E030935D0320935C03A1
:102FD000109268031092670310926A0310926903BB
:102FE00080936B0380936C0381EC809366030E9453
:102FF0007B1EFC0121818091600390E0820F911D76
:10300000089724F081E080936D0338C0A281B381DA
:10301000109729F48CE593E0938382830EC0189671
:103020008D919C911997009711F0DC01F8CF8CE5F8
:1030300093E019969C938E931897808180935E03FA
:10304000818180935F03908180916103890F8083E8
:1030500080E0909160038917A8F6A0916203B09177
:103060006303A80FB11D9C91A181B0E0A85FBE4F82
:103070009C9391819F5F91838F5FEBCF8CE593E071
:103080000895809157038823A9F140911B01509125
:103090001C0160911D0170911E012AE833E08091AE
:1030A0005503909156030E949A23811102C080E03B
:1030B0000895409158035091590360915A037091BB
:1030C0005B03411551056105710591F02AE833E074
:1030D00080915503909156030E949A23882339F3D7
:1030E000109258031092590310925A0310925B03E6
:1030F0001092570381E008958F929F92AF92BF92F2
:10310000EF92FF920F931F93CF934B015C01C42F5B
:1031100080911B0190911C01A0911D01B0911E0195
:1031200088159905AA05BB0501F10E944118811176
:1031300002C080E020C08AE8E82E83E0F82E00E09C
:1031400012E020E030E0B501A40180915503909198
:1031500056030E940623882361F380921B019092FC
:103160001C01A0921D01B0921E0180915703C82B33
:10317000C093570381E0CF911F910F91FF90EF9083
:10318000BF90AF909F908F9008954F925F926F92F3
:103190007F928F929F92AF92BF92CF92DF92EF92E7
:1031A000FF920F931F93CF93DF93EC016A017B0192
:1031B00028013901423051056105710510F480E0A4
:1031C00073C089859A85AB85BC850196A11DB11D0B
:1031D00084179507A607B70790F38B889C88AD885E
:1031E000BE888F89803129F4BB27AF2D9E2D8D2D70
:1031F00009C0DB01CA0147E0B695A7959795879569
:103200004A95D1F7880E991EAA1EBB1E80911B01FC
:1032100090911C01A0911D01B0911E018816990684
:10322000AA06BB0679F48F898031A1F4DD24EE244F
:10323000FF24C601880F991FFC01E657FC4F5182FD
:10324000408219C040E0C501B4010E947C18811180
:10325000EACFB5CFE894C7F8DD24EE24FF24C601F9
:10326000880F991F880F991FFC01E657FC4F408279
:1032700051826282738280915703816080935703E9
:103280008A89823080F08D819E81AF81B885880ED9
:10329000991EAA1EBB1E8092580390925903A092B9
:1032A0005A03B0925B0381E0DF91CF911F910F91A0
:1032B000FF90EF90DF90CF90BF90AF909F908F9056
:1032C0007F906F905F904F9008958F929F92AF92F2
:1032D000BF92CF92DF92EF92FF920F931F93CF9303
:1032E000DF93FC0181859285A385B4850196A11D9C
:1032F000B11D84179507A607B70710F480E05CC0DE
:1033000083899489A589B689C789C03129F4852E16
:10331000962EA72EBB2409C04A015B01C7E0B694D4
:10332000A79497948794CA95D1F7E9016A017B0124
:103330008F01BC01CD01680D791D8A1D9B1D8090F8
:103340001B0190901C01A0901D01B0901E016815FA
:1033500079058A059B0599F4F80187898031A9F4DC
:10336000B701A601552766277727440F551FFA0195
:10337000E657FC4F80819181A0E0B0E018C040E0AA
:103380000E947C188111E8CFB9CFB701A6014F7711
:10339000552766277727440F551F440F551FFA01FD
:1033A000E657FC4F80819181A281B381BF708883F1
:1033B0009983AA83BB8381E0DF91CF911F910F9105
:1033C000FF90EF90DF90CF90BF90AF909F908F9045
:1033D00008954F925F926F927F92AF92BF92CF9279
:1033E000DF92EF92FF920F931F93CF93DF9300D062
:1033F00000D0CDB7DEB78C0149835A836B837C83C1
:103400005901C12CD12C7601412C82E0582E612C1F
:10341000712C49815A816B817C819E012F5F3F4FC6
:10342000C8010E946519882351F1D301C201F80136
:10343000058404C0880F991FAA1FBB1F0A94D2F7E6
:10344000C80ED91EEA1EFB1E49815A816B817C8100
:103450008789803129F088EF9FEFAFEFBFE004C08C
:1034600088EF9FEFA0E0B0E0481759076A077B0795
:1034700080F2F501C082D182E282F38281E00F9076
:103480000F900F900F90DF91CF911F910F91FF90B0
:10349000EF90DF90CF90BF90AF907F906F905F9054
:1034A0004F900895CF93DF93EC018D818823A1F194
:1034B0008C8187FF2DC06E857F858889998941E041
:1034C0000E947C18882341F1EA8980E2E89FF0019C
:1034D0001124DF01A657BC4F1097F1F08D81823087
:1034E00050F44B895C896D897E895C964D935D9320
:1034F0006D937C935F978F89988DA98DBA8DE657D0
:10350000FC4F938F828FB58BA48B8C818F778C83AC
:10351000DF91CF910C94411880E0DF91CF91089515
:103520002F923F924F925F926F927F928F929F92D3
:10353000AF92BF92CF92DF92EF92FF920F931F93C1
:10354000CF93DF9300D000D0CDB7DEB78C015B0105
:103550001A01DC0115968C9115978130C9F41496E7
:103560008C9181FF15C082FF1BC0F80143895489EB
:103570006589768982859385A485B58584179507A5
:10358000A607B70769F0C8010E949620811108C0FC
:1035900081E090E0F8019383828380E090E039C17C
:1035A000610183C0D8015B968D919C915C97FC0171
:1035B000248121502A013B0139E076946794579485
:1035C00047943A95D1F7722E74207A01F1E0FF22E8
:1035D000772009F476C080E092E08E199F094601B9
:1035E0008C159D0508F44C01D8015B962D913C91FA
:1035F0005C9716968D919D910D90BC91A02D029790
:10360000A109B109F901058404C0880F991FAA1FF7
:10361000BB1F0A94D2F74685578560897189840F4C
:10362000951FA61FB71F9C01AD01270D311D411D20
:10363000511D29013A01811432E0930609F088C036
:1036400080911B0190911C01A0911D01B0911E0160
:1036500084159505A605B70559F48FEF9FEFDC019A
:1036600080931B0190931C01A0931D01B0931E0138
:103670009501B301A20180915503909156030E94D8
:103680009A23882309F484CF9EEFB91AC818D90861
:10369000F80182859385A485B585880D991DA11DA6
:1036A000B11D82879387A487B587D8011A964D915B
:1036B0005D916D917C911D97C114D10409F072CF79
:1036C00087C0E114F10409F086CF16964D915D9103
:1036D0006D917C911997411551056105710559F45A
:1036E00057968D919D910D90BC91A02D0097A105AD
:1036F000B10541F521C09E012F5F3F4F0E94651922
:10370000882309F44BCF89819A81AB81BC81F80170
:10371000238D348DF9012789203129F048EF5FEF9F
:103720006FEF7FE004C048EF5FEF60E070E0841768
:103730009507A607B70730F0C8010E94382181110C
:103740004ACF26CFF80186839783A087B18743CFDE
:10375000E114F10429F5D8011A964D915D916D910E
:103760007C911D9753968D919D910D90BC91A02DAC
:10377000481759076A077B0798F00E944118882369
:1037800009F406CF40921B0150921C0160921D016A
:1037900070921E018091570381608093570308C087
:1037A00041E0C301B2010E947C18882309F4F0CEE5
:1037B000D501F701E657FC4FCF01880D991DE81799
:1037C000F90719F02D912193FACFA80CB91C5ECFFF
:1037D00053968D919D910D90BC91A02D84179507C6
:1037E000A607B70740F4F801438B548B658B768BA3
:1037F000848180688483D80114968C9183FD02C0F3
:10380000C10107C0C8010E94521A882309F4C0CE22
:10381000F7CF0F900F900F900F90DF91CF911F91E6
:103820000F91FF90EF90DF90CF90BF90AF909F905F
:103830008F907F906F905F904F903F902F90089562
:10384000CF93DF931F92CDB7DEB7698341E050E09D
:10385000BE016F5F7F4F0E94901A0F90DF91CF9152
:1038600008952FB7F89487708093E9009091E8004D
:10387000892F807295FF04C09091F20080E4891B2B
:103880002FBF0895CF92DF92EF92FF920F931F9375
:10389000CF93DF936C017A018B01C0E0D0E0CE15AD
:1038A000DF0589F0D8016D918D01D601ED91FC9174
:1038B0000190F081E02DC6010995892B11F47E015C
:1038C00002C02196ECCFC701DF91CF911F910F91DC
:1038D000FF90EF90DF90CF900895CF93DF931F92EA
:1038E000CDB7DEB76983DC01ED91FC910280F381F5
:1038F000E02D41E050E0BE016F5F7F4F09950F90D2
:10390000DF91CF91089583E08093E9008091F200E8
:10391000882319F08AE38093E800089583E00E94E9
:10392000311C90E00895FC018485958597FD0BC0BE
:103930009FB7F89482E08093E9008091F2009FBFE6
:1039400090E0019608959FB7F89482E08093E90093
:103950008091F2009FBF90E008956115710579F0A4
:10396000FB0101900020E9F73197AF01461B570B8F
:10397000DC01ED91FC910280F381E02D099480E05F
:1039800090E008950F931F93CF93DF931F92CDB7CD
:10399000DEB78C01FC018485958597FF0EC0CE01B2
:1039A00001960E94AA10019719F4298130E002C003
:1039B0002FEF3FEFF80135872487F801848595853F
:1039C0000F90DF91CF911F910F910895CF93DF93C7
:1039D0001F92CDB7DEB7FC018485958597FD05C0A4
:1039E0002FEF3FEF358724870BC0CE0101960E9451
:1039F000AA10019719F4898190E002C08FEF9FEF20
:103A00000F90DF91CF9108950E94A93140914D030D
:103A100050914E0320914B0330914C0342175307B2
:103A2000B4F49091E8009570E1F39091E80092FD74
:103A300019C08093F10080914D0390914E0301963F
:103A40008F739927892B19F48EEF8093E80080916A
:103A50004D0390914E03019690934E0380934D0336
:103A600081E0089580E008957F928F929F92AF92B7
:103A7000BF92CF92DF92EF92FF920F931F93CF935B
:103A8000DF93C82E8B017A0180915403811103C00A
:103A90008FEF9FEF75C08091510380FF05C080912B
:103AA000E00082608093E000CE2DDF2DD12C8AEFE4
:103AB000882E8C2D8770B82E8C2D8072A82E8C2D80
:103AC0008074982E9AE3792E209709F452C08C2D99
:103AD0000E94311C282F81110AC08A948820C1F2CB
:103AE00061E070E080E090E00E94E016EDCF90E0B1
:103AF000C817D9070CF42C2F3FB7F894B092E900FF
:103B00008091E80085FF33C0822F90E0C81BD90B5D
:103B1000AA2029F02150A8F01092F100FBCFF80163
:103B2000C7FE07C0215058F044914093F1003196F0
:103B3000F9CF215020F041914093F100FACF080FC6
:103B4000191FDD2019F07092E8000AC08091E8008A
:103B500085FD08C07092E800DD24D394209739F0E9
:103B6000D12C05C0209719F491107092E8003FBF46
:103B7000ABCFD110ACCF5D9884E680935203C701E0
:103B8000DF91CF911F910F91FF90EF90DF90CF9039
:103B9000BF90AF909F908F907F900895CF93DF93C9
:103BA000EC0180911A01882331F083E00E94341DDA
:103BB0001816190634F081E090E09B838A8380E038
:103BC00090E0DF91CF910895615030F02091F100A5
:103BD000FC0120830196F8CF289884E68093530354
:103BE00008954F925F926F927F92EF92FF920F93A0
:103BF0001F93CF93DF93CDB7DEB7A1970FB6F8949D
:103C0000DEBF0FBECDBF7C01FA01CB0119A222306D
:103C100008F42AE08E010F5D1F4F422E512C612CBB
:103C2000712CBF01A30192010E947B2FF901CA01EF
:103C3000015011096A3014F4605D01C0695CD8015B
:103C40006C93232B242B252B61F7B801C7010E940D
:103C5000AD1CA1960FB6F894DEBF0FBECDBFDF91AD
:103C6000CF911F910F91FF90EF907F906F905F9099
:103C70004F900895CF92DF92EF92FF920F931F9390
:103C8000CF93DF93EC016A017B01E881F981019018
:103C9000F081E02D6DE209958C0144275527BA018A
:103CA0004C195D096E097F092AE0CE010E94F11DC1
:103CB000800F911FDF91CF911F910F91FF90EF9097
:103CC000DF90CF90089569E073E00C94AD1C0F93E2
:103CD0001F93CF93DF93EC010E94AD1C8C01CE01AA
:103CE0000E94631E800F911FDF91CF911F910F9152
:103CF00008950C94AD1C8091820381110DC082E067
:103D000080937E0384E080937F031092810310925E
:103D1000800381E0809382038EE793E00895CF9340
:103D2000DF93282F30E0F901E15BFB4F8491F9012B
:103D3000E05DFB4FD491F901EF5EFB4FC491CC23C2
:103D400091F081110E943716EC2FF0E0EE0FFF1F6B
:103D5000ED5FFB4FA591B491EC91ED2381E090E0F4
:103D600021F480E002C080E090E0DF91CF910895DF
:103D700060916B0670916C066115710559F0809128
:103D80006D0690916E06DC01ED91FC910190F08141
:103D9000E02D099408958F929F92AF92BF92CF9297
:103DA000DF92EF92FF920F931F93CF93DF936C01FB
:103DB000E12CF12C00E010E0AA24AA94BB24B394D7
:103DC000402F60E087E296E00E945B2645018E1856
:103DD0009F08C0E0D0E0FE01EE0DFF1DEC0DFD1DC3
:103DE000649187E296E00E944626C815D905F1F055
:103DF0002196C038D10579F70F5F1F4F80E8E80E94
:103E0000F11C04301105E1F644E060E087E296E041
:103E1000DF91CF911F910F91FF90EF90DF90CF90A6
:103E2000BF90AF909F908F900C945B26DF91CF91C5
:103E30001F910F91FF90EF90DF90CF90BF90AF90C8
:103E40009F908F900895E9E6F6E0808191819383B9
:103E50008283DC01ED91FC910680F781E02D0994CD
:103E6000EF92FF920F931F93CF93DF9300D000D078
:103E700000D0CDB7DEB77C018B01CE0101960E9448
:103E8000561180917D0690917E062D813E81E2162D
:103E9000F30641F49701A80160E070E00E948408F5
:103EA000182F01C010E089819A810E944730812F2C
:103EB00026960FB6F894DEBF0FBECDBFDF91CF912F
:103EC0001F910F91FF90EF900895CF93DF936CE0D7
:103ED00073E08CE895E00E94791E60918A057091EC
:103EE0008B058CE895E00E94671E61E173E08CE829
:103EF00095E00E94791EA0918A05B0918B05FD0185
:103F000001900020E9F73197AF014A1B5B0B60E09D
:103F100070E02AE08CE895E00E94F11D6EEF72E0FF
:103F20008CE895E00E94791E60918A0570918B055E
:103F300086E193E00E94C431AC01990F660B770BC8
:103F400077FF05C08CE895E00E943A1E05C02AE084
:103F50008CE895E00E94F11D60918A0570918B05B7
:103F60008AE193E00E94C431AC01990F660B770B94
:103F700077FF05C08CE895E00E943A1E05C02AE054
:103F80008CE895E00E94F11D8CE895E00E94631E8C
:103F9000C0918A05D0918B056AE173E0CE010E9441
:103FA000C431892B11F460EB0AC066E173E0CE01E5
:103FB0000E94C431892B11F463E801C068818FE647
:103FC00096E0DF91CF910C940408CF93DF93EC013E
:103FD0006A8B80911B0190911C01A0911D01B091F1
:103FE0001E018E879F87A88BB98B80E2689FF001A6
:103FF0001124E657FC4F4489558960E070E0BA010E
:10400000552744274F8B588F698F7A8F828D938DD8
:10401000A0E0B0E0482B592B6A2B7B2B4F8B588F9D
:10402000698F7A8F8385887151F4848D958DA68DE3
:10403000B78D8B8B9C8BAD8BBE8B81E00EC080319E
:1040400011F080E015C09E012D5E3F4F8B8D9C8D41
:104050000E94E9198823A9F384E08D8381E08C8391
:104060001E821F82188619861A861B861C861D864C
:10407000DF91CF910895DC015996ED91FC915A970B
:104080003097B9F083899489A589B689428553858B
:1040900064857585841B950BA60BB70B811520E8ED
:1040A0009207A105B10538F08FEF9FE7A0E0B0E0DF
:1040B000089580E090E00895CF93DF931F92CDB7ED
:1040C000DEB76983DC01ED91FC910280F381E02D84
:1040D00041E050E0BE016F5F7F4F09950F90DF9187
:1040E000CF910895FC01818D928D009711F00C9471
:1040F000521A0895CF93DF93EC01898D9A8D009722
:1041000039F481E090E09B838A8380E090E00BC0EB
:10411000FC01138212820E94901AE98DFA8D22818D
:104120003381232B71F7DF91CF9108958F929F9266
:10413000AF92BF92CF92DF92EF92FF920F931F93B5
:10414000CF93DF93EC018D81811102C080E077C0B5
:104150000B891C892D893E89041715072607370707
:10416000A8F36A017B01823029F4CA86DB86EC86DB
:10417000FD860DC0C114D104E104F10451F41E8286
:104180001F82188619861A861B861C861D8681E06A
:1041900056C08A849B84AC84BD84EB8DFC8D2585C0
:1041A00030E0275F3F4FB501A4014150510961093B
:1041B0007109022E04C076956795579547950A9424
:1041C000D2F7D701C6010197A109B10904C0B6957C
:1041D000A795979587952A95D2F784179507A607EF
:1041E000B70720F089288A288B2849F44F89588DF1
:1041F000698D7A8D4E835F836887798704C0841BBD
:10420000950BA60BB70B4C015D018E010A5F1F4F8A
:1042100081149104A104B10409F4A7CF4E815F81F8
:104220006885798598018B8D9C8D0E94651991E038
:10423000891A9108A108B1088111EACF87CFDF91CF
:10424000CF911F910F91FF90EF90DF90CF90BF9093
:10425000AF909F908F900895CF93DF93EC010E94D1
:10426000521A882311F01D8281E0DF91CF910895C9
:104270003F924F925F926F927F928F929F92AF92F6
:10428000BF92CF92DF92EF92FF920F931F93CF9343
:10429000DF93CDB7DEB72C970FB6F894DEBF0FBE15
:1042A000CDBF5C01DC015B968D909C905C9716966F
:1042B000CD90DD90ED90FC901997C114D104E104EC
:1042C000F10439F0BFEFCB1ADB0AEB0AFB0A312C01
:1042D00007C0F401C080D180E280F380332433949E
:1042E000F40181859285A385B4859C01AD012F5F82
:1042F0003F4F4F4F5F4F29873A874B875C87260197
:1043000037011D821E821F821886F40181859285E5
:10431000A385B4852D813E814F81588528173907A3
:104320004A075B0708F063C089859A85AB85BC8521
:104330008C159D05AE05BF0550F482E0C82ED12C2A
:10434000E12CF12C92E0492E512C612C712C9E0114
:104350002F5F3F4FB701A601C4010E946519882352
:1043600009F445C089819A81AB81BC81892B8A2B54
:104370008B2B41F0260137019FEF491A590A690A30
:10438000790A05C0C414D504E604F70491F02D8120
:104390003E814F8158852F5F3F4F4F4F5F4F2D8399
:1043A0003E834F8358873FEFC31AD30AE30AF30AC9
:1043B000ACCF0FEF1FEF2FEF3FE0B301A201C4011D
:1043C0000E94C518882399F0D50116964D915D91EC
:1043D0006D917C911997411551056105710549F061
:1043E00093018201C4010E94C518811102C080E0BE
:1043F0002AC0D50116964D925D926D927C921997C6
:10440000332051F0D301C2010196A11DB11DF40169
:1044100080839183A283B383F5018789908DA18DD9
:10442000B28D892B8A2B8B2B69F4D50157964D922F
:104430005D926D927C925A9714968C911497806835
:1044400014968C9381E02C960FB6F894DEBF0FBEC5
:10445000CDBFDF91CF911F910F91FF90EF90DF9033
:10446000CF90BF90AF909F908F907F906F905F9014
:104470004F903F9008958FB7F8948091C3068FBFF7
:10448000089561E0FC0184810E9474168091C20647
:1044900081111092C20608958EBD00000DB407FE72
:1044A000FDCF8EB508958FEF0C944C220F931F9380
:1044B000CF93DF93EB010E941A178B010E945322C6
:1044C0008F3F49F00E941A17601B710B6C177D0714
:1044D000A8F380E001C081E0DF91CF911F910F919F
:1044E0000895CF93DF93EC018E81882389F08F812B
:1044F00098859C012F5F3F4F38872F8382309240F1
:1045000018F40E945322F3CFCE010E9441221E8252
:10451000DF91CF9108958CBD9DBD0895CF93DF931A
:10452000EC018091C206811109C081E08093C2062E
:104530008091DC059091DD050E948B2260E08C81EA
:10454000DF91CF910C947416CF92DF92FF920F936C
:104550001F93CF93DF9300D000D0CDB7DEB76C01AF
:10456000F62E29833A834B835C830E947122C60115
:104570000E948E226CE271E0C6010E9456228F2DAD
:1045800080640E944C2208E110E05C814B813A81FA
:104590002981DA01C901002E04C0B695A795979527
:1045A00087950A94D2F729833A834B835C830E94D0
:1045B0004C220850110929813A814B815C81083FC6
:1045C0008FEF180731F7FF2029F0E8E0FE1204C052
:1045D00087E803C085E901C08FEF0E944C2210E0FC
:1045E0000E945322F601828787FF04C01F3F11F00B
:1045F0001F5FF6CF0F900F900F900F90DF91CF912C
:104600001F910F91FF90DF90CF900895AF92BF92CE
:10461000CF92DF92EF92FF920F931F93CF93DF938E
:10462000EC016901C801820F931F8130924008F0AC
:1046300070C08E81882371F088819981AA81BB81A5
:10464000481759076A077B0729F48F819885C81690
:10465000D906B0F5488359836A837B838B85833081
:1046600039F089E0440F551F661F771F8A95D1F7EF
:104670009A01AB0161E1CE010E94A422882319F0C6
:1046800083E08D8346C00E941A175B010E9453226B
:104690008A878F3F49F40E941A176A197B096D3285
:1046A0007140A0F38FE003C08E3F31F08DE08D8329
:1046B000CE010E9441222DC018861F8281E08E8388
:1046C0008F8198858C159D0540F40E9453228F811F
:1046D0009885019698878F83F3CF6701E00EF11ECE
:1046E000CE14DF0431F00E945322F60181936F0152
:1046F000F7CF8F819885080F191F18870F83898539
:10470000882319F00115124048F0CE010E94712251
:1047100005C0CE010E94412280E001C081E0DF910E
:10472000CF911F910F91FF90EF90DF90CF90BF90AE
:10473000AF900895EF92FF920F931F93CF93DF9363
:10474000EC017901411551056105710511F482E112
:104750003CC08B85833039F089E0440F551F661FBC
:10476000771F8A95D1F79A01AB0168E1CE010E94CB
:10477000A422882311F084E028C08EEF0E944C22EE
:1047800087018EEFF81AF80181918F010E944C2267
:104790000E151F05C1F78FEF0E944C228FEF0E946C
:1047A0004C220E9453228A878F71853031F081E13B
:1047B0008D83CE010E94412209C068E572E0CE01DE
:1047C0000E945622811107C085E18D83CE010E948F
:1047D000412280E013C020E030E0A9016DE0CE016D
:1047E0000E94A422811104C00E945322882311F048
:1047F00084E1EBCFCE010E94412281E0DF91CF9195
:104800001F910F91FF90EF900895FC01DB0112962C
:104810008D919C911397938382838BE591E0918393
:10482000808314968C911497848315968C91159798
:10483000858316964D915D916D917C911997468374
:104840005783608771871A964D915D916D917C9128
:104850001D9742875387648775871E964D915D919A
:104860006D917C91519746875787608B718B5296DB
:104870008C915297828B53964D915D916D917C9165
:104880005697438B548B658B768B57964D915D91E4
:104890006D917C915A97478B508F618F728F5B9689
:1048A0008D919C915C97948F838F0895EF92FF92E6
:1048B0000F931F93CF93DF93EC017B018A011B823F
:1048C0001A8288EE93E0A0E0B0E08C839D83AE83F3
:1048D000BF838FEA91E0998388838DE190E00E9405
:1048E000B22F9A8F898F009779F02DE1F701DC01C3
:1048F00001900D922A95E1F74CE050E0B801CE010D
:104900000C960E94D431188EDF91CF911F910F9198
:10491000FF90EF9008952F923F924F925F926F9287
:104920007F928F929F92AF92BF92CF92DF92EF923F
:10493000FF920F931F93CF93DF9300D0CDB7DEB7D5
:10494000FC018581882309F4D9C0848180FFD6C009
:1049500021E02A83438954896589768982859385F4
:10496000A485B585481759076A077B0709F41A8299
:104970006F013A81832F90E0DE0111964D013F01D6
:10498000B6E06B0E711C892B09F47DC0D6011A9616
:104990004D915D916D917C911D975A01B1E0BB22C3
:1049A000F60125811A012B0189E05694479437942A
:1049B00027948A95D1F7838D948D223061F4FC0180
:1049C000828D938DA48DB58DBC01CD01620D731DBB
:1049D000841D951D45C0DC0114961C9111501221B7
:1049E000A114B104D1F4111118C0452B462B472B4B
:1049F00051F4F6018789908DA18DB28D86839783BE
:104A0000A087B1870AC0468157816085718593016F
:104A10000E946519882309F471C0F601238D348D35
:104A200086819781A085B1850297A109B109AC0162
:104A3000BD01F901058404C0440F551F661F771F8F
:104A40000A94D2F786859785A089B189840F951F2E
:104A5000A61FB71FBC01CD01610F711D811D911DE6
:104A6000D60114962C9126FF14C000911B011091C1
:104A70001C0120911D0130911E01601771078207F2
:104A8000930751F506C0FA81FF23C1F1898190E0B7
:104A900037C040E00E947C18882381F1F501E65779
:104AA000FC4FD401CF010196E817F90719F02191C5
:104AB0002D93FACFEFEF8E1A9E0AF6018285938529
:104AC000A485B5850196A11DB11D82879387A48712
:104AD000B58780E090E057CF740101E010E09501C8
:104AE000AB01BC0180915503909156030E940623AF
:104AF000882321F0BFEF8B1A9B0ADFCF8FEF9FEF48
:104B00000F900F90DF91CF911F910F91FF90EF9039
:104B1000DF90CF90BF90AF909F908F907F906F90DD
:104B20005F904F903F902F900895FC01818D928D62
:104B3000009711F00C948B248FEF9FEF08950F9343
:104B40001F93CF93DF93FC01818D928D0097B9F075
:104B5000EF010E948B248C010F3F8FEF180791F01B
:104B6000898D9A8DFC0142855385648575854150F8
:104B70005109610971090E949620C80105C080E0B1
:104B800090E002C08FEF9FEFDF91CF911F910F91C7
:104B900008950F931F93CF938C01FC01648390853C
:104BA000C62FC90F6C2F6F70C8010E948C0E6C2F1E
:104BB00062956F706061C801CF911F910F910C9445
:104BC0008C0E85ED8093BC008091BC0084FDFCCFF1
:104BD00010920D0708954091E706262F30E0240F2C
:104BE000311D21323105DCF420910D072430C9F448
:104BF000FC0180E090E0861758F43091E70621919F
:104C0000DC01AB53B94FA30FB11D2C930196F3CF29
:104C10008091E706680F6093E70680E0089581E0E1
:104C2000089582E0089508958FEF9FEF08958FEF24
:104C30009FEF08958091C40690E091958195910928
:104C40000895CF93DF9300D0CDB7DEB7CB01642FAB
:104C500049835A830E94EB254981842F5A81952FDD
:104C60000F900F90DF91CF910895CF93DF931F9214
:104C7000CDB7DEB7698361E0CE0101960E94EB25D6
:104C800081E090E00F90DF91CF910895CF93DF9373
:104C9000EC019C818E81981758F4E881F981008499
:104CA000F185E02D42E0CE0109958C818F5F8C83E8
:104CB000DF91CF9108950F931F93CF93DF931F92AE
:104CC000CDB7DEB78C01FC018681681728F4C801D6
:104CD00049830E94C9254981F80187818695869577
:104CE0008695481758F44583642F606BC8010F9070
:104CF000DF91CF911F910F910C948C0E0F90DF914B
:104D0000CF911F910F910895CF92DF92EF92FF9272
:104D10000F931F93CF93DF93EC01F62EC42ED22E68
:104D20008F81869586958695081710F00FEF080FEE
:104D30001D2D011780F0412F6F2DCE010E945B26A3
:104D4000EF2CCE1430F060E0CE010E944626E394B2
:104D5000F8CF1F5FEECF4D2D6F2DCE01DF91CF919C
:104D60001F910F91FF90EF90DF90CF900C945B26F6
:104D70002F923F924F925F926F927F928F929F926B
:104D8000AF92BF92CF92DF92EF92FF920F931F9359
:104D9000CF93DF93CDB7DEB727970FB6F894DEBF7A
:104DA0000FBECDBFDC011B960D911C911C97011508
:104DB000110509F462C19F838E83F801B491319685
:104DC0004491319654903196A491EA2EF12CF7E05B
:104DD000EF0EF11C23E0F594E7942A95E1F7EB82BE
:104DE000F801349674913196E491671758F0862F44
:104DF00090E02E2F30E0F901E70FF11D8E179F078D
:104E00000CF473C06D3069F4AE81BF8116968C913D
:104E1000882309F467C060E08E819F810E94C925C4
:104E200061C06A3009F029C1EE81FF818185658109
:104E3000D62E8E9DD00C11248781869586958695D9
:104E4000D81630F08285882319F082E08287D12C31
:104E50004D2D60E08E819F810E945B26AE81BF81D7
:104E60001A968C911A97823008F43CC015962C91B2
:104E700015971B96ED91FC911C97309741F0339656
:104E8000E49119960C91E09FE02D112401C0E0E01F
:104E90008FEF820F0E2F10E0095F1F4F93E01595E3
:104EA00007959A95E1F7080FEE81FF814681415001
:104EB0006481CF010E948426AE81BF8119968C91B6
:104EC00019976D2D8E9D600D1124660F660F660F6C
:104ED00017968C91861708F460E060648E819F813C
:104EE0000E948C0E81E090E0CAC050E05B2BC801AC
:104EF0000696671BEE81FF81F185F98342305105EB
:104F000088F4452B09F019825E9C90015F9C300D5E
:104F10001124629F8001639F100D1124080F191F37
:104F2000412C24C0EA2FE77021F048E0442E4E1AAD
:104F300001C0412CA82FFC0140E050E07E2F7A1BDD
:104F4000761728F47491470F511D3196F7CFFC0165
:104F5000E60FF11D54904E9D80014F9D100D5E9DFA
:104F6000100D1124020F131F080F191FAE81BF81EE
:104F70001496BC91BC83EE81FF813580652C712C29
:104F8000CC24C394D12C812C912C7FEF7C0D7A837F
:104F90008B81781708F05FC0212CAE81BF811996F4
:104FA0008C91281608F051C07A81711102C022201C
:104FB00051F0AE81BF8115964C9115974F5F6C8172
:104FC000CD010E945B26A12CB12CA51488F5F5011A
:104FD000E80DF91DE00FF11F2491442061F0CE147B
:104FE000DF0449F4E22FF0E0042C02C0F595E795C8
:104FF0000A94E2F72E2FEE81FF818185823079F4C9
:10500000E22F2110E295EF70F0E0E056F34F24918B
:10501000622F8E819F812D830E9446262D81622FD3
:105020008E819F810E944626FFEFAF1ABF0ACDCF27
:10503000B12C7981B71639F060E08E819F810E9492
:105040004626B394F6CF2394A8CF860C971CBFEFC7
:10505000CB1ADB0A9ACFAE81BF8117968C91179736
:10506000869586958695381608F03CCF15963C9225
:105070001597632D606BCD0133CF80E090E02796CC
:105080000FB6F894DEBF0FBECDBFDF91CF911F9159
:105090000F91FF90EF90DF90CF90BF90AF909F90D7
:1050A0008F907F906F905F904F903F902F900895DA
:1050B0000F93CF93DF93EC010F810695069506952C
:1050C00001504E81415020E060E00E94842681E042
:1050D0009A85911101C080E08A8760E4CE01DF915A
:1050E000CF910F910C948C0ECF93DF9387E296E0D3
:1050F0000E945828C7E2D6E08AEB9AE09C878B870B
:1051000061E372E0CE010E94671ECE010E94631E21
:1051100060E273E0CE010E94671E8FEC98E09C87EE
:105120008B876CED75E080E090E00E94E016DF91E7
:10513000CF910C94231FCF93DF9387E296E00E94D8
:105140005828C7E2D6E08AEB9AE09C878B8761E318
:1051500072E0CE010E94671ECE010E94631E63E3CF
:1051600073E0CE010E94671E8FEC98E09C878B87CE
:105170006CED75E080E090E00E94E016DF91CF9149
:105180000C94231F1F920F920FB60F9211242F938E
:105190003F934F935F936F937F938F939F93AF93BF
:1051A000BF93EF93FF938091B900887F803609F415
:1051B0009CC068F5883209F45BC090F4803109F432
:1051C00054C038F4882309F4F6C0883009F44DC07F
:1051D000F6C0883109F44CC0803209F45DC0EFC0DC
:1051E000803409F468C048F4803309F455C088332A
:1051F00009F0E5C080930C07D8C0803509F44FC092
:10520000883509F45DC0883409F0D9C0D6C0883922
:1052100009F4C7C0A8F4883709F467C038F48836A1
:1052200009F463C0803709F460C0C9C0883809F444
:10523000B8C0803909F45FC0803809F0C0C05BC0D5
:10524000803B09F486C038F4803A09F466C0883A95
:1052500009F47FC0B4C0803C09F4A7C0883C09F4BD
:10526000A4C0883B09F48AC0AAC08091320710C04C
:105270009091310780913007981770F5E0913107D0
:1052800081E08E0F80933107F0E0E05FF84F80817E
:105290008093BB0085EC86C080930C078EC0E091A4
:1052A000310781E08E0F809331078091BB00F0E0E1
:1052B000E05FF84F808390913107809130076EC096
:1052C000E091310781E08E0F809331078091BB0020
:1052D000F0E0E05FF84F808380910F0781116DC08F
:1052E00081E080930E0784EA61C083E080930D071C
:1052F00010920B07CFCF80910B07803208F051C07E
:10530000E0910B0781E08E0F80930B078091BB002B
:10531000F0E0E551F94F8083BDCF85EC8093BC0070
:1053200010920D0780910B07803230F4E0910B074B
:10533000F0E0E551F94F108260910B0770E0E091C9
:10534000E906F091EA068BEE96E0099510920B07BC
:1053500036C084E080930D071092E8061092E706AD
:10536000E091E506F091E60609958091E706811146
:1053700005C081E08093E7061092C506E091E8063B
:1053800081E08E0F8093E806F0E0EB53F94F8081C7
:105390008093BB009091E8068091E706981708F487
:1053A00079CF85E88093BC000AC085EC8093BC006F
:1053B00010920D0704C010920C070E94E125FF9186
:1053C000EF91BF91AF919F918F917F916F915F917D
:1053D0004F913F912F910F900FBE0F901F901895F6
:1053E000CF92DF92EF92FF920F931F93CF93DF93B1
:1053F0001F92CDB7DEB7182F062FE42E862F880F09
:105400008E5F99830E94061D83E00E94061DF12E87
:10541000C12E9981D92E8C2D8F19801798F4F60101
:10542000E7FE02C0849101C080810E94061D182FF2
:1054300080E00E94061D8123FFEFCF1ADF0A811151
:10544000EACF01C081E00F90DF91CF911F910F91C2
:10545000FF90EF90DF90CF900895789484B58260AC
:1054600084BD84B5816084BD85B5826085BD85B508
:10547000816085BD80916E00816080936E00109286
:105480008100809181008260809381008091810001
:105490008160809381008091800081608093800092
:1054A0008091910082608093910080919100816051
:1054B0008093910080919000816080939000809112
:1054C000C10084608093C1008091C100826080939C
:1054D000C1008091C10081608093C1008091C300B0
:1054E00081608093C3008091C00082608093C0007F
:1054F0008091C20081608093C20080917A008460B4
:1055000080937A0080917A00826080937A00809103
:105510007A008E7F80937A0080917A0080688093F1
:105520007A0010925403109250031092510380910C
:10553000D70081608093D70080EA8093D80089B536
:105540008F7E89BD89B5826089BD09B400FEFDCF1B
:1055500061E070E080E090E00E94E0168091D80069
:105560008F7C80618093D8008091E000807F809361
:10557000E0008091E1008E7E8093E1008DE08093D9
:10558000E200559A209AEEEFFFE7859194918B3FC8
:105590009C4D19F481E080934F03109236068CE302
:1055A000809335061092B90082E08093B800109283
:1055B0002B0610922C06E8E5F8E085919491E82EF0
:1055C000EAE5F8E0F490EBE5F8E0E491E0932D06ED
:1055D000ECE5F8E0E491E0932E06EDE5F8E0E491E7
:1055E000E0932F068C01802F8E198F1548F4F80157
:1055F000649187E296E00E948C0E0F5F1F4FF3CFFD
:105600001092310687E296E00E9458288DE694E0D9
:10561000909333068093320688E596E00E94CB1E75
:1056200068EE73E080E090E00E94E01687E296E08A
:105630000E94582887E296E00E94582861E070E0B6
:1056400080E090E00E94E0166AEF70E080E090E079
:105650000E94E01661E676E08091690690916A0604
:105660000E9470170091690610916A0660E576E065
:10567000C8010E94701710935D0600935C0668E4F1
:1056800076E08091690690916A060E94701760E446
:1056900076E080E596E00E94701768E376E080E5AA
:1056A00096E00E9470170E94B81EEEE5F8E0E491C3
:1056B00080917B00E3FBFF27F0F9CF2F20E0D22F72
:1056C00095E0CC0FDD1F9A95E1F78F7DC82BC09335
:1056D0007B00E770E064E0937C0080917A00806456
:1056E00080937A0080917A0086FDFCCF60917800EB
:1056F0008091790070E0782B072E000C880B990BB5
:10570000611571058105910511F00E947B2E61E004
:1057100086E00E94A41661E087E00E94A41661E082
:1057200086E00E94741661E087E00E94741664E6C9
:1057300070E080E090E00E94E01660E086E00E9469
:10574000741660E087E00E94741664E670E080E002
:1057500090E00E94E01661E086E00E94741661E02D
:1057600087E00E94741664E670E080E090E00E949A
:10577000E01660E086E00E94741660E087E00E9418
:10578000741664E670E080E090E00E94E01662E04B
:1057900089E00E94A41662E08AE00E94A41662E0FA
:1057A0008DE00E94A41662E085E00E94A41662E0EB
:1057B0008CE00E94A41662E08BE00E94A41662E0D6
:1057C00088E00E94A4168FEF9FEF90939905809335
:1057D000980500E010E08CE00E948F1E892B21F5D7
:1057E000A0916B06B0916C061896CD91DC9119973B
:1057F0008C81882341F0E881F9810280F381E02DDA
:1058000060E0CE0108C0ED91FC9111970280F38118
:10581000E02D60E0CD0109950E94B81E62E370E0C2
:1058200080E090E00E94E01688E00E948F1E892BA5
:1058300049F5E0916B06F0916C0686858823D1F0DE
:10584000878522859385E22FF92FE80FF11DE80F58
:10585000F11D80819181009769F0DC01ED91FC914F
:105860000084F185E02D0995009721F090936C0656
:1058700080936B060E94B81E62E370E080E090E0C7
:105880000E94E0168BE00E948F1E892B21F5A091CB
:105890006B06B0916C061896CD91DC9119978C81AE
:1058A000882341F0E881F9810480F581E02D60E0F2
:1058B000CE0108C0ED91FC9111970480F581E02D97
:1058C00060E0CD0109950E94B81E62E370E080E0BF
:1058D00090E00E94E01664E670E080E090E00E94B4
:1058E000E0160115110509F476CF0E94000073CF70
:1058F0000F931F9310928F0510928E0548EE53E080
:1059000060E070E04093900550939105609392059C
:105910007093930589E491E090938D0580938C05B5
:105920008FEF9FEF909399058093980580E5809382
:10593000DC0581E08093DD051092E3051092E4051B
:105940001092E7051092E90502E010E020E030E057
:105950000093EA051093EB052093EC053093ED05D9
:105960001092010610920B0610920A062BE531E008
:10597000309309062093080610920D0610929D069A
:1059800010929C0640939E0650939F066093A0063B
:105990007093A10627E631E030939B0620939A0688
:1059A00010922A0610922906809330061092330630
:1059B0001092320629E731E030932806209327061B
:1059C000109237069091AC06911112C01092A70662
:1059D0001092A6062AE638E03093A9062093A8067E
:1059E00026E330E03093AB062093AA068093AC0602
:1059F0000E94CF17FC01A385B485109729F486EA8D
:105A000096E0948783870BC08D919C9111970097A6
:105A100011F0DC01F9CF86EA96E08D939C93258501
:105A200036858091AA069091AB06820F931F9687C8
:105A3000858781E190E00E94B22FFC018BE093E02A
:105A400093838283148215821782168225E931E0BE
:105A5000318320831186108613861286158614865C
:105A600016861786108AF0936A06E0936906F0930B
:105A70006C06E0936B068FE191E090936E06809345
:105A80006D068EEF91E0909364068093630610920A
:105A90006506109266068CE19BE090936806809301
:105AA000670687E891E090936206809361064BED6C
:105AB00051E05093530640935206109254061092B0
:105AC00055061092570610925606309351062093B1
:105AD0005006109259061092580610925B061092CA
