:100000000C9469030C9491030C9491030C94910348
:100010000C9491030C9491030C9491030C94910310
:100020000C9491030C9491030C94C70E0C94920FB2
:100030000C9491030C9491030C9491030C949103F0
:100040000C9491030C9491030C9491030C949103E0
:100050000C9491030C9491030C9491030C94D0167E
:100060000C9491030C9491030C9491030C949103C0
:100070000C9491030C9491030C9491030C949103B0
:100080000C9491030C9491030C9491030C949103A0
:100090000C945C090C9491030C9491030C949103BF
:1000A0000C9491030C9491030C94910329162C1633
:1000B0001B161F1625164D164D164D1630163416E6
:1000C00038163E1642164D16481600000000000075
:1000D00000002A2B280000000000000000000000A3
:1000E000000000000000000000002C9E9FA0A1A2C4
:1000F000A32DA5A6AF2F363837A4271E1F202122F7
:1001000023242526B7B664A7E4AD1F848586878897
:10011000898A8B8C8D8E8F909192939495969798D7
:10012000999A9B9C9D253526B1B8B0040506070811
:10013000090A0B0C0D0E0F101112131415161718B7
:10014000191A1B1C1D24B527310000030C0F303376
:100150003C3FC0C3CCCFF0F3FCFF080B000202020F
:100160000100090400000102020000052400100142
:1001700005240101010424020605240600010705E7
:10018000810310004009040100020A000000070575
:100190000202400000070583024000000403090436
:1001A00012010002EF0201404F1B04920001010204
:1001B0000301537061726B46756E00537061726B10
:1001C00046756E2050726F204D6963726F00050195
:1001D0000902A1010901A1008501050919012903ED
:1001E00015002501950375018102950175058103AF
:1001F00005010930093109381581257F75089503F6
:100200008106C0C005010906A1018502050719E0A4
:1002100029E71500250175019508810295017508EA
:1002200081039506750815002565050719002965E0
:100230008100C0AED580A81FD300408D142002A13C
:10024000C8DA02817FD9F1DB40A4A6AF000000002C
:10025000250028002B002E003100000000002300A4
:10026000260029002C002F000404040404030405C4
:100270000202020204030202020206060606060643
:100280000404020202040404080201104080401029
:1002900020408040800802040180402010020110AC
:1002A0008010204040200000000200090F000003E1
:1002B0000401000C0000000000000000000000002D
:1002C00000000000000005072061000000000000A1
:1002D000005F00000007000700147F147F14242A29
:1002E0007F2A122313086462364955225000050301
:1002F0000000001C2241000041221C00082A1C2A88
:100300000808083E080800503000000808080808DF
:10031000006060000020100804023E5149453E0084
:10032000427F400042615149462141454B311814FA
:10033000127F1027454545393C4A4949300171092A
:1003400005033649494936064949291E0036360013
:10035000000056360000000814224114141414142E
:1003600041221408000201510906324979413E7EBA
:100370001111117E7F494949363E414141227F4159
:1003800041221C7F494949417F090901013E414100
:1003900051327F0808087F00417F41002040413FE3
:1003A000017F081422417F404040407F0204027FC9
:1003B0007F0408107F3E4141413E7F090909063E06
:1003C0004151215E7F0919294646494949310101B8
:1003D0007F01013F4040403F1F2040201F7F2018E9
:1003E000207F6314081463030478040361514945B2
:1003F0004300007F4141020408102041417F00007A
:100400000402010204404040404000010204002078
:10041000545454787F484444383844444420384441
:1004200044487F3854545418087E09010208145473
:10043000543C7F0804047800447D40002040443D43
:1004400000007F10284400417F40007C041804789D
:100450007C0804047838444444387C141414080894
:100460001414187C7C080404084854545420043F95
:100470004440203C4040207C1C2040201C3C40301C
:10048000403C44281028440C5050503C4464544C88
:1004900044000836410000007F000000413608009B
:1004A00008082A1C08081C2A08080006090906FF73
:1004B000FFBFFFFFFFFBFFFFFFBFFFFF7FFBFFFF54
:1004C000F7BBFFFF7FBBFFFFF7BBFFFE7FBBFFEF6D
:1004D000D7BBFDFE7DBBDFEFD7BB7DFE7DBBD3EF82
:1004E000D7BB3D7E7CBBD3E7C7B3397E7C3B93E76C
:1004F000C793397C3C3993C78393397C383183C7A0
:100500008311187C3811818783011878381001878E
:10051000830110383000018303001018100001819E
:10052000010010101000000101000010000000FF89
:10053000FFBFFFFFFFFBFFFFF7BFFFFFFFFBFFFF5B
:1005400007E1FD7D0DADEDCD1DFBF3E61F1BC1FDEC
:10055000FD01FBFE7D3B83FDFD0D31CEE5F33BD977
:10056000CDAD2D6C48A303F9FD9DC1E670399DED1D
:10057000C503F9FC1C0193C78303F1FC3C0103C1D3
:10058000FDFD047000F9FD1DFDF1803818E0FD3D12
:100590008101C0F07818098D0D0C0CF8F8F001817C
:1005A000010010101000000101000000000000FF19
:1005B000FFBFFFFFFFFBFFFFFFBFFFFF7FFBBF0191
:1005C0007C7F67602F6B37B39C9FE7F06280BF3FF3
:1005D000706B2D6E35B89FCFD0BA409F3F30626FA1
:1005E000672B350E1C603F3F83B1071F7C7103A74B
:1005F000C09F3F3B60292327B19E1F673801787F4A
:100600001F0018607F3F818480073F7C7C7F0780CC
:10061000800E3F3F3060212323301C1F0F010081DB
:10062000010010101000000101000010000000FF88
:10063000FFBFFFFFFFFBFFFFF7BFFFFFFFFBFFFF5A
:10064000F7BFFFFF7FBBFFEFF7BBFFFE7FBBFFEFF7
:10065000D7BBFFFE7DBBDFEFD7BB3DFE7DBBD3EF3E
:10066000D7BB3D7E7DBBD3E7C7B3397E7C3B93E7E9
:10067000C793397C3C3993C78393397C383183C71E
:100680008311187C38118187830118783810018311
:10069000830110383000018303001018100001811D
:1006A00001001010100000010100000000000033E4
:1006B0000219802000070605040100080A0B0C0D32
:1006C0000900000000240027002A002D003000004F
:1006D0004C1B11241FBECFEFDAE0DEBFCDBF12E00E
:1006E000A0E0B1E0E2EFF4E402C005900D92A6377D
:1006F000B107D9F726E0A6E7B2E001C01D92AF35F9
:10070000B207E1F713E0C9E6D3E004C02197FE0188
:100710000E946C20C836D107C9F70E94FA1C0C94BD
:1007200077220C9400008EBD00000DB407FEFDCFB3
:100730008EB508958FEF0C949303DC015996ED91DB
:10074000FC915A973097B9F083899489A589B68925
:100750004285538564857585841B950BA60BB70B65
:10076000811520E89207A105B10538F08FEF9FE7CA
:10077000A0E0B0E0089580E090E00895CF93DF938B
:100780001F92CDB7DEB76983DC01ED91FC91028049
:10079000F381E02D41E050E0BE016F5F7F4F09958E
:1007A0000F90DF91CF91089585ED8093BC008091EB
:1007B000BC0084FDFCCF1092BF02089540919902C5
:1007C000262F30E0240F311D21323105DCF4209139
:1007D000BF022430C9F4FC0180E090E0861758F491
:1007E000309199022191DC01A958BD4FA30FB11D91
:1007F0002C930196F3CF80919902680F6093990230
:1008000080E0089581E0089582E0089508958FEFD3
:100810009FEF08958FEF9FEF08958091760290E00B
:100820009195819591090895CF93DF9300D0CDB72D
:10083000DEB7CB01642F49835A830E94DE034981CE
:10084000842F5A81952F0F900F90DF91CF910895AB
:10085000CF93DF931F92CDB7DEB7698361E0CE01FE
:1008600001960E94DE0381E090E00F90DF91CF912E
:1008700008950895FC016093BC008091BC0087FF3F
:10088000FCCF9091B900987F90830895CF92DF922A
:10089000EF92FF920F931F93CF93DF93EC01C62E3D
:1008A000D42E8F85882351F0411108C084E98093AC
:1008B000BC008091BC0084FDFCCF1F86EF848E01BC
:1008C000035F1F4FE11014C0FE8464EAC8010E9458
:1008D0003A048D85883011F1803101F1DD2011F06D
:1008E00080E4E82EE092BB0064E8C8010E943A046C
:1008F000C092BB0064E8C8010E943A0482E0D812AA
:1009000004C08F858F5F8F8711C084E98093BC00FE
:100910008091BC0084FDFCCF1F8608C0FF0CF092C4
:10092000BB0064E8C8010E943A04D8CFDF91CF91A0
:100930001F910F91FF90EF90DF90CF900895089551
:1009400080E090E008950F931F93CF93DF93EB0126
:100950000E94C4168B010E949A038F3F49F00E94A7
:10096000C416601B710B6C177D07A8F380E001C0F3
:1009700081E0DF91CF911F910F91089561E0FC011B
:1009800084810E94D3138091E50281111092E502C7
:100990000895CF93DF93EC018E81882389F08F81B6
:1009A00098859C012F5F3F4F38872F83823092407C
:1009B00018F40E949A03F3CFCE010E94BE041E8257
:1009C000DF91CF910895CF92DF92FF920F931F9303
:1009D000CF93DF9300D000D0CDB7DEB76C01F62EF9
:1009E00029833A834B835C830E94C9048091E5028A
:1009F00029813A814B815C81811109C081E080931A
:100A0000E50290914205809143059CBD8DBD60E05B
:100A1000F601848129833A834B835C830E94D3133C
:100A20006CE271E0C6010E94A3048F2D80640E94D5
:100A3000930308E110E05C814B813A812981DA015E
:100A4000C901002E04C0B695A795979587950A947D
:100A5000D2F729833A834B835C830E949303085027
:100A6000110929813A814B815C81083FFFEF1F0703
:100A700031F7FF2029F088E0F81204C087E803C0AE
:100A800085E901C08FEF0E94930310E00E949A0352
:100A9000F601828787FF04C01F3F11F01F5FF6CF6A
:100AA0000F900F900F900F90DF91CF911F910F91AA
:100AB000FF90DF90CF900895FC01818D928D00977B
:100AC00029F0FC01258121110C9424190895CF935C
:100AD000DF931F92CDB7DEB7FC01818D928D009719
:100AE00051F0BE016F5F7F4F0E949D0D019719F479
:100AF000898190E002C08FEF9FEF0F90DF91CF913F
:100B00000895CF93DF93EC01898D9A8D009739F486
:100B100081E090E09B838A8380E090E00BC0FC0141
:100B2000138212820E946019E98DFA8D228133812D
:100B3000232B71F7DF91CF91089565EB71E084E489
:100B400095E00E9496136CED75E080E090E00C94C7
:100B50008A1666EC71E084E495E00E9496136CEDD1
:100B600075E080E090E00C948A1667ED71E084E413
:100B700095E00E9496136CED75E080E090E00C9497
:100B80008A16FB016281738184E495E00C949613CC
:100B9000FB016281738184E495E00C949613FB0160
:100BA0006281738184E495E00C949613EF92FF9236
:100BB0001F93CF93DF93EC01162F683818F0E8E706
:100BC000E60F23C0E62FF0E067FF0DC0E058F10903
:100BD00081E090E001C0880FEA95EAF79C81892BBB
:100BE0008C83E0E012C0E653FF4FE491E11107C0AF
:100BF00081E090E09B838A83E12CF12C3FC0E7FFEA
:100C000004C08C8182608C83EF778E818E1739F1DE
:100C10008F818E1721F188858E1709F189858E17AE
:100C2000F1F08A858E17D9F08B858E17C1F0DE0121
:100C3000169680E090E02D91211106C0DE01A80FEC
:100C4000B91F1696EC930BC001968630910599F763
:100C500081E090E09B838A83E12CF12C0AC00E9402
:100C60004517BE016C5F7F4F0E946C0DEE24E3942C
:100C7000F12C183818F0E8E7E10F1DC0E12FF0E083
:100C800017FF0EC0E058F10921E030E001C0220F4B
:100C9000EA95EAF720958C8128232C83E0E00BC0AD
:100CA000E653FF4FE491EE23D1F0E7FF04C08C81BF
:100CB0008D7F8C83EF77DE01169686E0EE2321F0A0
:100CC0009C919E1301C01C92815011968111F6CF08
:100CD0000E944517BE016C5F7F4F0E946C0DC701DB
:100CE000DF91CF911F91FF90EF9008958F929F9287
:100CF000AF92BF92CF92DF92EF92FF920F931F932A
:100D0000CF93DF93EC018D81811102C080E077C029
:100D10000B891C892D893E8904171507260737077B
:100D2000A8F36A017B01823029F4CA86DB86EC864F
:100D3000FD860DC0C114D104E104F10451F41E82FA
:100D40001F82188619861A861B861C861D8681E0DE
:100D500056C08A849B84AC84BD84EB8DFC8D258534
:100D600030E0275F3F4FB501A401415051096109AF
:100D70007109022E04C076956795579547950A9498
:100D8000D2F7D701C6010197A109B10904C0B695F0
:100D9000A795979587952A95D2F784179507A60763
:100DA000B70720F089288A288B2849F44F89588D65
:100DB000698D7A8D4E835F836887798704C0841B31
:100DC000950BA60BB70B4C015D018E010A5F1F4FFF
:100DD00081149104A104B10409F4A7CF4E815F816D
:100DE0006885798598018B8D9C8D0E94A01891E073
:100DF000891A9108A108B1088111EACF87CFDF9144
:100E0000CF911F910F91FF90EF90DF90CF90BF9007
:100E1000AF909F908F900895EF92FF920F931F9342
:100E2000CF93DF931F92CDB7DEB7FC01818D928DFA
:100E3000009701F17F01BE016F5F7F4F0E949D0D02
:100E4000019719F4098110E002C00FEF1FEF0F3F67
:100E50008FEF180789F0F701818D928DFC01428593
:100E600053856485758541505109610971090E9456
:100E7000760602C000E010E0C8010F90DF91CF912C
:100E80001F910F91FF90EF9008953F924F925F92C4
:100E90006F927F928F929F92AF92BF92CF92DF928A
:100EA000EF92FF920F931F93CF93DF93CDB7DEB7EF
:100EB0002C970FB6F894DEBF0FBECDBF5C01DC01EE
:100EC0005B968D909C905C971696CD90DD90ED9002
:100ED000FC901997C114D104E104F10439F0BFEF7B
:100EE000CB1ADB0AEB0AFB0A312C07C0F401C080E5
:100EF000D180E280F38033243394F401818592859C
:100F0000A385B4859C01AD012F5F3F4F4F4F5F4FCD
:100F100029873A874B875C87260137011D821E820D
:100F20001F821886F40181859285A385B4852D8161
:100F30003E814F815885281739074A075B0708F01B
:100F400063C089859A85AB85BC858C159D05AE05EA
:100F5000BF0550F482E0C82ED12CE12CF12C92E098
:100F6000492E512C612C712C9E012F5F3F4FB701F0
:100F7000A601C4010E94A018882309F445C08981F4
:100F80009A81AB81BC81892B8A2B8B2B41F0260166
:100F900037019FEF491A590A690A790A05C0C41432
:100FA000D504E604F70491F02D813E814F815885E8
:100FB0002F5F3F4F4F4F5F4F2D833E834F835887A7
:100FC0003FEFC31AD30AE30AF30AACCF0FEF1FEFC8
:100FD0002FEF3FE0B301A201C4010E940018882353
:100FE00099F0D50116964D915D916D917C9119976F
:100FF000411551056105710549F093018201C40154
:101000000E940018811102C080E02AC0D501169606
:101010004D925D926D927C921997332051F0D301DD
:10102000C2010196A11DB11DF40180839183A283A9
:10103000B383F5018789908DA18DB28D892B8A2B81
:101040008B2B69F4D50157964D925D926D927C92EF
:101050005A9714968C911497806814968C9381E01B
:101060002C960FB6F894DEBF0FBECDBFDF91CF91A7
:101070001F910F91FF90EF90DF90CF90BF90AF90B6
:101080009F908F907F906F905F904F903F900895CA
:10109000AF92BF92CF92DF92EF92FF920F931F9386
:1010A000CF93DF93EC016901C801820F931F813058
:1010B000924008F070C08E81882371F088819981F8
:1010C000AA81BB81481759076A077B0729F48F81DA
:1010D0009885C816D906B0F5488359836A837B83FF
:1010E0008B85833039F089E0440F551F661F771FC9
:1010F0008A95D1F79A01AB0161E1CE010E94E30428
:10110000882319F083E08D8346C00E94C4165B01DA
:101110000E949A038A878F3F49F40E94C4166A1975
:101120007B096D327140A0F38FE003C08E3F31F038
:101130008DE08D83CE010E94BE042DC018861F82D3
:1011400081E08E838F8198858C159D0540F40E94E7
:101150009A038F819885019698878F83F3CF6701D3
:10116000E00EF11ECE14DF0431F00E949A03F60166
:1011700081936F01F7CF8F819885080F191F18870A
:101180000F838985882319F00115124048F0CE019C
:101190000E94C90405C0CE010E94BE0480E001C0C7
:1011A00081E0DF91CF911F910F91FF90EF90DF9041
:1011B000CF90BF90AF900895EF92FF920F931F933F
:1011C000CF93DF93EC01790141155105610571055C
:1011D00011F482E13CC08B85833039F089E0440F03
:1011E000551F661F771F8A95D1F79A01AB0168E1F9
:1011F000CE010E94E304882311F084E028C08EEF22
:101200000E94930387018EEFF81AF80181918F01F4
:101210000E9493030E151F05C1F78FEF0E949303E1
:101220008FEF0E9493030E949A038A878F71853003
:1012300031F081E18D83CE010E94BE0409C068E5D2
:1012400072E0CE010E94A304811107C085E18D8365
:10125000CE010E94BE0480E013C020E030E0A9016E
:101260006DE0CE010E94E304811104C00E949A0344
:10127000882311F084E1EBCFCE010E94BE0481E00F
:10128000DF91CF911F910F91FF90EF900895CF9331
:10129000DF93EC019C818E81981758F4E881F981E5
:1012A0000084F185E02D42E0CE0109958C818F5FAD
:1012B0008C83DF91CF9108951F920F920FB60F92FA
:1012C00011242F933F934F935F936F937F938F934B
:1012D0009F93AF93BF93EF93FF938091B900887F63
:1012E000803609F49CC068F5883209F45BC090F43C
:1012F000803109F454C038F4882309F4F6C08830EA
:1013000009F44DC0F6C0883109F44CC0803209F4AC
:101310005DC0EFC0803409F468C048F4803309F43C
:1013200055C0883309F0E5C08093BE02D8C080352F
:1013300009F44FC0883509F45DC0883409F0D9C07C
:10134000D6C0883909F4C7C0A8F4883709F467C043
:1013500038F4883609F463C0803709F460C0C9C026
:10136000883809F4B8C0803909F45FC0803809F0C2
:10137000C0C05BC0803B09F486C038F4803A09F4F1
:1013800066C0883A09F47FC0B4C0803C09F4A7C0A5
:10139000883C09F4A4C0883B09F48AC0AAC08091A3
:1013A000E40210C09091E3028091E202981770F578
:1013B000E091E30281E08E0F8093E302F0E0EE53D0
:1013C000FD4F80818093BB0085EC86C08093BE0278
:1013D0008EC0E091E30281E08E0F8093E302809162
:1013E000BB00F0E0EE53FD4F80839091E3028091CB
:1013F000E2026EC0E091E30281E08E0F8093E3028F
:101400008091BB00F0E0EE53FD4F80838091C102DC
:1014100081116DC081E08093C00284EA61C083E0E5
:101420008093BF021092BD02CFCF8091BD02803267
:1014300008F051C0E091BD0281E08E0F8093BD02A3
:101440008091BB00F0E0E356FD4F8083BDCF85EC7B
:101450008093BC001092BF028091BD02803230F4B4
:10146000E091BD02F0E0E356FD4F10826091BD02B5
:1014700070E0E0919B02F0919C028DE992E0099569
:101480001092BD0236C084E08093BF0210929A028F
:1014900010929902E0919702F0919802099580913B
:1014A0009902811105C081E0809399021092770220
:1014B000E0919A0281E08E0F80939A02F0E0E95861
:1014C000FD4F80818093BB0090919A028091990298
:1014D000981708F479CF85E88093BC000AC085ECA2
:1014E0008093BC001092BF0204C01092BE020E9402
:1014F000D403FF91EF91BF91AF919F918F917F9115
:101500006F915F914F913F912F910F900FBE0F9070
:101510001F901895DC01ED91FC910084F185E02D80
:1015200040E009940F931F93CF938C01FC016483D7
:101530009085C62FC90F6C2F6F70C8010E948A0A50
:101540006C2F62956F706061C801CF911F910F91F0
:101550000C948A0A0F931F93CF93DF931F92CDB7FA
:10156000DEB78C01FC018681681728F4C801498325
:101570000E94920A4981F801878186958695869511
:10158000481758F44583642F606BC8010F90DF91B2
:10159000CF911F910F910C948A0A0F90DF91CF91F8
:1015A0001F910F910895CF92DF92EF92FF920F93C8
:1015B0001F93CF93DF93EC01F62EC42ED22E8F8192
:1015C000869586958695081710F00FEF080F1D2D4C
:1015D000011780F0412F6F2DCE010E94AA0AEF2C37
:1015E000CE1430F060E0CE010E944709E394F8CFBA
:1015F0001F5FEECF4D2D6F2DCE01DF91CF911F914B
:101600000F91FF90EF90DF90CF900C94AA0A2F9249
:101610003F924F925F926F927F928F929F92AF9282
:10162000BF92CF92DF92EF92FF920F931F93CF93CF
:10163000DF93CDB7DEB727970FB6F894DEBF0FBEA6
:10164000CDBFDC011B960D911C911C970115110556
:1016500009F462C19F838E83F801B491319644915D
:10166000319654903196A491EA2EF12CF7E0EF0ECA
:10167000F11C23E0F594E7942A95E1F7EB82F80159
:10168000349674913196E491671758F0862F90E064
:101690002E2F30E0F901E70FF11D8E179F070CF494
:1016A00073C06D3069F4AE81BF8116968C9188232A
:1016B00009F467C060E08E819F810E94920A61C038
:1016C0006A3009F029C1EE81FF8181856581D62EBE
:1016D0008E9DD00C11248781869586958695D81687
:1016E00030F08285882319F082E08287D12C4D2D3D
:1016F00060E08E819F810E94AA0AAE81BF811A9606
:101700008C911A97823008F43CC015962C9115974D
:101710001B96ED91FC911C97309741F03396E49124
:1017200019960C91E09FE02D112401C0E0E08FEFAD
:10173000820F0E2F10E0095F1F4F93E0159507955C
:101740009A95E1F7080FEE81FF814681415064814F
:10175000CF010E94D30AAE81BF8119968C9119974F
:101760006D2D8E9D600D1124660F660F660F179606
:101770008C91861708F460E060648E819F810E94DE
:101780008A0A81E090E0CAC050E05B2BC80106964F
:10179000671BEE81FF81F185F9834230510588F4A2
:1017A000452B09F019825E9C90015F9C300D11243D
:1017B000629F8001639F100D1124080F191F412C97
:1017C00024C0EA2FE77021F048E0442E4E1A01C0F1
:1017D000412CA82FFC0140E050E07E2F7A1B7617A9
:1017E00028F47491470F511D3196F7CFFC01E60F95
:1017F000F11D54904E9D80014F9D100D5E9D100D6A
:101800001124020F131F080F191FAE81BF811496F8
:10181000BC91BC83EE81FF813580652C712CCC247A
:10182000C394D12C812C912C7FEF7C0D7A838B81FA
:10183000781708F05FC0212CAE81BF8119968C917A
:10184000281608F051C07A81711102C0222051F08F
:10185000AE81BF8115964C9115974F5F6C81CD017C
:101860000E94AA0AA12CB12CA51488F5F501E80D57
:10187000F91DE00FF11F2491442061F0CE14DF0424
:1018800049F4E22FF0E0042C02C0F595E7950A94A4
:10189000E2F72E2FEE81FF818185823079F4E22FED
:1018A0002110E295EF70F0E0E65BFE4F2491622F8D
:1018B0008E819F812D830E9447092D81622F8E8109
:1018C0009F810E944709FFEFAF1ABF0ACDCFB12C0D
:1018D0007981B71639F060E08E819F810E944709B7
:1018E000B394F6CF2394A8CF860C971CBFEFCB1AE6
:1018F000DB0A9ACFAE81BF8117968C911797869598
:1019000086958695381608F03CCF15963C9215972B
:10191000632D606BCD0133CF80E090E027960FB64A
:10192000F894DEBF0FBECDBFDF91CF911F910F9115
:10193000FF90EF90DF90CF90BF90AF909F908F90EF
:101940007F906F905F904F903F902F9008950F93EE
:10195000CF93DF93EC010F81069506950695015014
:101960004E81415020E060E00E94D30A81E09A85D8
:10197000911101C080E08A8760E4CE01DF91CF91B0
:101980000F910C948A0ACF93DF93EB016A817B81DC
:1019900082EF94E00E94AB138A819B810884D985F1
:1019A000C02D885E914009F44DC084E495E00E940A
:1019B000A70C65EF71E084E495E00E94AB138A8187
:1019C0009B818B50924091F466E172E084E495E053
:1019D0000E94AB1368EE71E084E495E00E94AB13C3
:1019E00061E272E084E495E00E94AB138A819B81FE
:1019F000885E914091F46BE072E084E495E00E948F
:101A0000AB1369E272E084E495E00E94AB1361E2FB
:101A100072E084E495E00E94AB138A819B8181523D
:101A2000924009F043C06BE072E084E495E00E94CC
:101A3000AB1368EE71E084E495E00E94AB1366E3BB
:101A400072E02EC084E495E00E94A70C6EE372E081
:101A500084E495E00E94AB1364E772E084E495E0CF
:101A60000E94AB138A819B818455924061F46DE59D
:101A700072E084E495E00E94AB1366E672E084E4D1
:101A800095E00E94AB138A819B818656924071F447
:101A900064E572E084E495E00E94AB136CE672E0CA
:101AA00084E495E0DF91CF910C94AB13DF91CF915B
:101AB000089560918705709188056115710559F049
:101AC0008091890590918A05DC01ED91FC9101904E
:101AD000F081E02D09940895CF92DF92EF92FF926A
:101AE0000F931F93CF93DF931F92CDB7DEB77C0187
:101AF0006B0182E0898341E050E0BE016F5F7F4F60
:101B0000F70183810E94D9128C0197FD0CC0F70167
:101B1000838148E050E0B60180640E94D91297FDAD
:101B200002C0800F911F0F90DF91CF911F910F91F5
:101B3000FF90EF90DF90CF9008954F925F926F9259
:101B40007F928F929F92AF92BF92CF92DF92EF924D
:101B5000FF920F931F93CF93DF933C016B01DC0146
:101B600015968C91811103C08FEF9FEFD5C0F301C3
:101B7000848180FFF9CF81E083889488A588B68826
:101B8000428553856485758584169506A606B70635
:101B900009F480E090E02C014301B6E08B0E911C2B
:101BA000A090F002B090F102892B09F480C0D3011B
:101BB0001A964D915D916D917C911D97EA01D170BE
:101BC00015962C9115977A018B0189E0169507954A
:101BD000F794E7948A95D1F75B968D919C915C97E9
:101BE000223061F4FC01828D938DA48DB58DBC01F2
:101BF000CD016E0D7F1D801F911F46C0DC01149624
:101C00002C912150122F1E212097E9F411111BC095
:101C1000452B462B472B51F4F3018789908DA18DDD
:101C2000B28D86839783A087B1870DC0D3011696A6
:101C30004D915D916D917C91199794010E94A0182E
:101C4000882309F491CFF301238D348D8681978108
:101C5000A085B1850297A109B109F901058404C0E5
:101C6000880F991FAA1FBB1F0A94D2F74685578574
:101C700060897189840F951FA61FB71FBC01CD0114
:101C8000610F711D811D911DD30114962C9126FFAA
:101C900010C0009113011091140120911501309191
:101CA0001601601771078207930731F502C0C20160
:101CB00033C040E00E94B717882309F455CFCE50B7
:101CC000DD4FF601CE010196C817D90719F0299109
:101CD0002193FACFEFEFCE1ADE0AF30182859385C6
:101CE000A485B5850196A11DB11D82879387A48720
:101CF000B58780E090E058CF760101E010E09E01CA
:101D0000AB01BC01C5010E944808882309F42CCF0F
:101D1000BFEFCB1ADB0AE1CFDF91CF911F910F917B
:101D2000FF90EF90DF90CF90BF90AF909F908F90FB
:101D30007F906F905F904F900895FC018091EF022B
:101D4000811103C08FEF9FEF08959FB7F89482E051
:101D50008093E9002091F20030E01216130614F48B
:101D600021E030E02115310559F0289884E6809370
:101D7000EE028091F10080838091F200882319F0B7
:101D80009FBFC90108958BE68093E800F9CF1F92A9
:101D90000F920FB60F9211248F939F938091E100C1
:101DA0009091E100937F9093E10083FF0FC0109228
:101DB000E90091E09093EB001092EC0092E3909395
:101DC000ED001092EF0298E09093F00082FF20C0A7
:101DD00093E09093E9009091F200992319F09AE32F
:101DE0009093E8009091ED02992339F09091ED02E3
:101DF00091509093ED02992389F19091EE029923ED
:101E000039F09091EE0291509093EE02992341F1B6
:101E100084FF10C08091E2008E7E81608093E2009A
:101E20008091E1008F7E8093E1008091EC028E7EB4
:101E3000806111C080FF16C08091E2008E7E8061BB
:101E40008093E2008091E1008E7E8093E10080919A
:101E5000EC028E7E81608093EC0204C05D9ACDCF4F
:101E6000289AD6CF9F918F910F900FBE0F901F9001
:101E70001895DF92EF92FF920F931F93CF93DF930A
:101E8000D82E8A017B01E40EF51EEB01CE15DF058D
:101E900071F0D7FE03C0FE01849101C088810E94C9
:101EA000AB1221968111F2CF8FEF9FEF01C0C801D5
:101EB000DF91CF911F910F91FF90EF90DF900895E8
:101EC0000F931F93CF93DF931F92CDB7DEB782E0BE
:101ED000898342E450E06AE571E080E80E94390FAE
:101EE0000E94BF13DC0112960D911C9113970115EE
:101EF000110569F0D801ED91FC910280F381E02D8C
:101F0000BE016F5F7F4FC801099597FF07C08981A8
:101F10000F90DF91CF911F910F910895F8010085E7
:101F20001185E5CF1F920F920FB60F921124CF9219
:101F3000DF92EF92FF920F931F932F933F934F9354
:101F40005F936F937F938F939F93AF93BF93EF9321
:101F5000FF93CF93DF93CDB7DEB76C97DEBFCDBFD6
:101F60001092E9008091E80083FFEDC168E0CE01A6
:101F700045960E94891382EF8093E8008D8987FF40
:101F800005C09091E80090FFFCCF03C09EEF9093B6
:101F9000E800982F907609F0C6C09E892F89188D89
:101FA00091110CC0803829F48091EB028093F100EC
:101FB00002C01092F1001092F10048C1422F50E08F
:101FC000512B913051F4811141C14130510509F03B
:101FD0003DC18091EB028D7F0BC0933061F4811184
:101FE00035C14130510509F031C18091EB02826069
:101FF0008093EB022BC1953041F48091E80080FF83
:10200000FCCF20682093E30021C1963009F05FC027
:10201000EB8CFC8C1092E9001092E9021092E8021D
:10202000123091F51092E7021092E6020E94600FC2
:1020300099E0BE016F5F7F4FDB01E92F1D92EA95AA
:10204000E9F799831A8391E09E8390EA98879AEF43
:1020500099872091E8023091E902275F3F4F3C8346
:102060002B838D831092E9001092E9021092E8020E
:10207000F092E702E092E60249E050E080E00E9440
:10208000390F0E94600FE2C0F092E702E092E60290
:102090000E94BF13DC011296ED90FC901397E1149F
:1020A000F10409F4C0C0D701ED91FC910480F581E1
:1020B000E02DBE016B5E7F4FC7010995009719F0B7
:1020C0000CF0C4C0C7C0F701E084F184E8CF9730BA
:1020D00009F4C0C0983021F481E08093F100B6C0CB
:1020E000993009F0B3C0837009F0B4C0E1E0F1E0C9
:1020F00081E021E036E39081992361F08093E9004B
:102100002093EB0091919093EC003093ED008F5F62
:10211000873089F78EE78093EA001092EA008F8972
:102120008093EF0293C08B8D9C8D1092E9001092EA
:10213000E9021092E8029093E7028093E602898D0B
:10214000811156C08E899D89913A59F4813209F0E6
:1021500081C047E050E06BE071E080E00E94390F01
:1021600075C0913209F076C0833289F4888D90E091
:10217000982F88272F89822BA0E0B0E08093070159
:1021800090930801A0930901B0930A015FC08032C7
:1021900069F48091E80082FFFCCF67E08BE091E07A
:1021A0000E9489138BEF8093E80006C0823209F009
:1021B0004DC08F89809312018091EA02882319F023
:1021C000EEEFFAE002C0E0E0F8E080910B019091C0
:1021D0000C01A0910D01B0910E01803B9440A1052E
:1021E000B10509F07BC08091120180FF93C076C0D9
:1021F0000E94BF13DC0112960D911C9113970115DB
:10220000110541F1D801ED91FC910190F081E02D93
:10221000BE016B5E7F4FC8010995811117C0F8019F
:1022200000851185ECCF113009F44EC0133091F4C4
:102230008F89882309F445C0823081F440E862E147
:102240008BEB91E00E940F1B882321F08EEF80938F
:10225000E80079C081E28093EB0075C0813029F4F9
:1022600040E868E082EB91E0EDCF833099F70E947F
:10227000BF13DC011296ED90FC9013978E010F5F57
:102280001F4F6801E114F10479F0D701ED91FC9141
:102290000680F781E02DB801C7010995080F111DCF
:1022A000F701E084F184EECFD8011C92F601019091
:1022B0000020E9F73197BF016C197D0940E0C601A4
:1022C000C1CF6CE971E002C060EA71E0611571058F
:1022D00009F2FB01449150E080E840CF0FB6F8943A
:1022E000A8958091600088618093600010926000E2
:1022F0000FBEA895EE3F2AE0F20739F08091FE0A62
:102300009091FF0A91838083A1CF1092FF0A1092CF
:10231000FE0A9CCFEE3F8AE0F80731F08081918180
:102320009093FF0A8093FE0A87E797E79183808363
:102330009BE088E10FB6F894A895809360000FBEEB
:102340009093600083CF6C960FB6F894DEBF0FBEFB
:10235000CDBFDF91CF91FF91EF91BF91AF919F9151
:102360008F917F916F915F914F913F912F911F912D
:102370000F91FF90EF90DF90CF900F900FBE0F90D6
:102380001F9018952FB7F89487708093E90090916B
:10239000E800892F807295FF04C09091F20080E4DC
:1023A000891B2FBF0895CF92DF92EF92FF920F9378
:1023B0001F93CF93DF936C017A018B01C0E0D0E0D3
:1023C000CE15DF0589F0D8016D918D01D601ED9113
:1023D000FC910190F081E02DC6010995892B11F443
:1023E0007E0102C02196ECCFC701DF91CF911F91F2
:1023F0000F91FF90EF90DF90CF900895CF93DF93F0
:102400001F92CDB7DEB76983DC01ED91FC910280AC
:10241000F381E02D41E050E0BE016F5F7F4F0995F1
:102420000F90DF91CF91089583E08093E900809130
:10243000F200882319F08AE38093E800089583E08E
:102440000E94C21190E00895FC018485958597FD56
:102450000BC09FB7F89482E08093E9008091F2006E
:102460009FBF90E0019608959FB7F89482E0809313
:10247000E9008091F2009FBF90E008950F931F93B1
:10248000CF93DF931F92CDB7DEB78C01FC0184851B
:10249000958597FF0EC0CE0101960E949D0E019773
:1024A00019F4298130E002C02FEF3FEFF8013587A2
:1024B0002487F801848595850F90DF91CF911F9136
:1024C0000F910895CF93DF931F92CDB7DEB7FC0134
:1024D0008485958597FD05C02FEF3FEF35872487CD
:1024E0000BC0CE0101960E949D0E019719F48981BF
:1024F00090E002C08FEF9FEF0F90DF91CF91089592
:102500000E946922CF93DF93282F30E0F901EA552A
:10251000FD4F8491F901E957FD4FD491F901E85934
:10252000FD4FC491CC2391F081110E941116EC2F24
:10253000F0E0EE0FFF1FE65AFD4FA591B491EC912C
:10254000ED2381E090E021F480E002C080E090E0A3
:10255000DF91CF9108954091E8025091E9022091D6
:10256000E6023091E70242175307B4F49091E80075
:102570009570E1F39091E80092FD19C08093F1000D
:102580008091E8029091E90201968F739927892B37
:1025900019F48EEF8093E8008091E8029091E902AF
:1025A00001969093E9028093E80281E0089580E02B
:1025B00008957F928F929F92AF92BF92CF92DF92B7
:1025C000EF92FF920F931F93CF93DF93C82E8B014F
:1025D0007A018091EF02811103C08FEF9FEF75C0E8
:1025E0008091EC0280FF05C08091E00082608093C2
:1025F000E000CE2DDF2DD12C8AEF882E8C2D877018
:10260000B82E8C2D8072A82E8C2D8074982E9AE373
:10261000792E209709F452C08C2D0E94C211282FC8
:1026200081110AC08A948820C1F261E070E080E0E4
:1026300090E00E948A16EDCF90E0C817D9070CF4FD
:102640002C2F3FB7F894B092E9008091E80085FF05
:1026500033C0822F90E0C81BD90BAA2029F021504B
:10266000A8F01092F100FBCFF801C7FE07C021507F
:1026700058F044914093F1003196F9CF215020F069
:1026800041914093F100FACF080F191FDD2019F096
:102690007092E8000AC08091E80085FD08C0709241
:1026A000E800DD24D394209739F0D12C05C0209781
:1026B00019F491107092E8003FBFABCFD110ACCFAE
:1026C0005D9884E68093ED02C701DF91CF911F9161
:1026D0000F91FF90EF90DF90CF90BF90AF909F90C1
:1026E0008F907F900895CF93DF93EC01809112013A
:1026F000882331F083E00E94D9121816190634F0AD
:1027000081E090E09B838A8380E090E0DF91CF912D
:102710000895615030F02091F100FC012083019672
:10272000F8CF289884E68093EE020895611571052C
:1027300079F0FB0101900020E9F73197AF01461BCA
:10274000570BDC01ED91FC910280F381E02D09949F
:1027500080E090E008950F931F93CF93DF93EC01F7
:102760000E9496138C0162E772E0CE010E949613DC
:10277000800F911FDF91CF911F910F91089580914C
:102780002C0681110DC082E08093280684E080939E
:10279000290610922B0610922A0681E080932C06BF
:1027A00088E296E008951F93CF93DF93282F30E0BF
:1027B000F901EA55FD4F8491F901E957FD4FD49194
:1027C000F901E859FD4FC491CC23C9F0162F8111AE
:1027D0000E941116EC2FF0E0EE0FFF1FE45BFD4F9F
:1027E000A591B4918FB7F894111105C09C91ED2F6C
:1027F000E095E92302C0EC91ED2BEC938FBFDF91C4
:10280000CF911F9108953FB7F8948091570690910A
:102810005806A0915906B0915A0626B5A89B05C046
:102820002F3F19F00196A11DB11D3FBFBA2FA92F4F
:10283000982F8827820F911DA11DB11DBC01CD01CC
:1028400043E0660F771F881F991F4A95D1F70895B7
:1028500080E0089580E00895DB01ED91FC911197EF
:102860000280F381E02DBC01CD0109940895DB01C4
:10287000ED91FC9111970084F185E02DBC01CD0113
:1028800009940F931F93CF93DF93EC0100E010E0C6
:102890008E8590E0081719079CF4C801880F991FCE
:1028A000EA85FB85E80FF91F80819181DC01ED91BC
:1028B000FC910680F781E02D09950F5F1F4FE8CF4F
:1028C000E885F9851582188A1F868E85882331F060
:1028D000EA85FB850190F081E02D02C0E0E0F0E0A8
:1028E000F987E88781E08583DF91CF911F910F9170
:1028F0000895FC018785808B9685992331F1882383
:1029000011F0815004C0662301F18FEF890F878792
:1029100022859385A22FB92FA80FB11DA80FB11D35
:102920000D90BC91A02DB187A08781E015968C9366
:102930008089E22FF92FE80FF11DE80FF11D0190BA
:10294000F081E02D158281E0089580E00895CF9315
:10295000DF93FC018785808B26852223B1F1482FE8
:1029600050E030E02150310942175307B1F08F5F3A
:10297000878722859385A22FB92FA80FB11DA80F95
:10298000B11D0D90BC91A02DB187A08781E0159657
:102990008C938089E22FF92F0EC06623B1F0178641
:1029A000A285B385CD91DC911197D187C08781E055
:1029B0008D838089FD01E80FF11DE80FF11D019065
:1029C000F081E02D158281E001C080E0DF91CF91A0
:1029D0000895DC011696ED91FC911797309709F058
:1029E000099580E090E008950E94E91480E090E06D
:1029F0000895CF93DF93EC010E94E914CE01DF919B
:102A0000CF910895DC01FB0112968C91129790E012
:102A10002481358182179307D1F491818081813A95
:102A200031F481E0913091F0933089F411C081321A
:102A300071F49B3021F482811F968C9305C09A30EB
:102A400031F4828150968C9381E00895089580E05E
:102A50000895DC01FB0188E4808389E4818384E4B8
:102A600082831D969C911D979F709F5B93831D96FB
:102A70008D919C911E9724E0969587952A95E1F774
:102A80008F708F5B848385E00895FC0182818F5B6A
:102A9000FB01808381E00895EF92FF920F931F93D3
:102AA000CF93DF93FB012081213851F5238122321E
:102AB00039F5DC0112962C9130E0448155814217A2
:102AC0005307F1F4EC010B851C85E12CF12C011569
:102AD000110591F0F801448155816281738180E88C
:102AE0000E94390F8F3FFFEF9F0769F0E80EF91E34
:102AF000D8010D911C91EBCF81E08F87C70105C0F4
:102B000080E090E002C08FEF9FEFDF91CF911F91A7
:102B10000F91FF90EF900895CF93DF93CDB7DEB77D
:102B200069970FB6F894DEBF0FBECDBFFC01DB0185
:102B30008C918F5F8C93BE016F5F7F4F89E1DB01CA
:102B40001D928A95E9F729E0298384E08A8391E040
:102B50009D8383E08E832A8721E22B879C879D8734
:102B60009F8722E2288B27E02B8B25E02C8B8E8BF6
:102B700020E430E0388F2F8B998F82818B8395856D
:102B80008685998B8A8B838180688D8B49E150E0A3
:102B900080E00E94390F69960FB6F894DEBF0FBE31
:102BA000CDBFDF91CF910895CF93DF93809134060D
:102BB000882399F1C091F002D091F1024091130164
:102BC00050911401609115017091160122EF32E0CD
:102BD000CE010E94DC08811102C080E01FC040913C
:102BE00035065091360660913706709138064115CA
:102BF00051056105710579F022EF32E0CE010E94A6
:102C0000DC08882351F31092350610923606109294
:102C10003706109238061092340681E0DF91CF918A
:102C2000089590E0FC013197EF30F105B0F5EA5AD4
:102C3000FF4F0C946C20809180008F7703C08091AF
:102C400080008F7D80938000089580918000877F31
:102C5000F9CF84B58F7702C084B58F7D84BD089588
:102C6000809190008F7707C0809190008F7D03C086
:102C700080919000877F8093900008958091C0009C
:102C80008F7703C08091C0008F7D8093C00008952E
:102C90008091C200877F8093C2000895CF93DF9315
:102CA00090E0FC01E957FD4F2491FC01E859FD4FEC
:102CB0008491882361F190E0880F991FFC01EF5304
:102CC000F94FC591D491FC01E45BFD4FA591B491FE
:102CD000611109C09FB7F894888120958223888369
:102CE000EC912E230BC0623061F49FB7F8943881C9
:102CF000822F809583238883EC912E2B2C939FBF6A
:102D000006C08FB7F894E8812E2B28838FBFDF9100
:102D1000CF9108958F929F92AF92BF92CF92DF9200
:102D2000EF92FF926B017C010E9403144B015C0146
:102D3000C114D104E104F104F1F00E940314DC0198
:102D4000CB0188199909AA09BB09883E9340A105BE
:102D5000B10570F321E0C21AD108E108F10888EE4C
:102D6000880E83E0981EA11CB11CC114D104E1049B
:102D7000F10419F7DDCFFF90EF90DF90CF90BF9077
:102D8000AF909F908F9008952FB7F894609153065D
:102D90007091540680915506909156062FBF089564
:102DA0001F920F920FB60F9211242F933F938F9380
:102DB0009F93AF93BF938091530690915406A09137
:102DC0005506B09156063091520626E0230F2D3756
:102DD00020F40296A11DB11D05C029E8230F03961A
:102DE000A11DB11D20935206809353069093540663
:102DF000A0935506B09356068091570690915806B9
:102E0000A0915906B0915A060196A11DB11D80935B
:102E1000570690935806A0935906B0935A06BF914F
:102E2000AF919F918F913F912F910F900FBE0F9077
:102E30001F9018950F931F93CF93DF93EC018B0195
:102E40008E8590E00196BC01660F771F8A859B8571
:102E50000E949F21FC019B878A87892B89F08E85A0
:102E6000E80FF11DE80FF11D11830083811105C0EA
:102E70001987088781E0F80185838E858F5F8E87AB
:102E8000DF91CF911F910F91089580914A06811192
:102E90006BC081E080933D0680933E0623E436E0DC
:102EA0003093400620933F0610924206109241064E
:102EB0002DEA31E030933A06209339061092450608
:102EC00010924406109247061092460680934806D8
:102ED0008093490681EC809343060E94BF13FC0156
:102EE000218180913D0690E0820F911D089724F08A
:102EF00081E080934A0638C0A281B381109729F4FB
:102F000089E396E0938382830EC018968D919C91FD
:102F10001997009711F0DC01F8CF89E396E0199634
:102F20009C938E931897808180933B068181809338
:102F30003C06908180913E06890F808380E09091CD
:102F40003D068917A8F6A0913F06B0914006A80F4C
:102F5000B11D9C91A181B0E0A050BF4F9C93918185
:102F60009F5F91838F5FEBCF89E396E008958F9207
:102F70009F92AF92BF92EF92FF920F931F93CF93C6
:102F80004B015C01C42F8091130190911401A09119
:102F90001501B091160188159905AA05BB0501F127
:102FA0000E94D415811102C080E020C082EFE82E7B
:102FB00082E0F82E00E012E020E030E0B501A4014C
:102FC0008091F0029091F1020E944808882361F3F9
:102FD0008092130190921401A0921501B0921601F3
:102FE00080913406C82BC093340681E0CF911F91A5
:102FF0000F91FF90EF90BF90AF909F908F900895AA
:103000004F925F926F927F928F929F92AF92BF92F8
:10301000CF92DF92EF92FF920F931F93CF93DF93A4
:10302000EC016A017B01280139014230510561053B
:10303000710510F480E073C089859A85AB85BC85E5
:103040000196A11DB11D84179507A607B70790F338
:103050008B889C88AD88BE888F89803129F4BB27F6
:10306000AF2D9E2D8D2D09C0DB01CA0147E0B6951D
:10307000A795979587954A95D1F7880E991EAA1E10
:10308000BB1E8091130190911401A0911501B09184
:10309000160188169906AA06BB0679F48F89803135
:1030A000A1F4DD24EE24FF24C601880F991FFC0142
:1030B000EE50FD4F5182408219C040E0C501B4017D
:1030C0000E94B7178111EACFB5CFE894C7F8DD2485
:1030D000EE24FF24C601880F991F880F991FFC0159
:1030E000EE50FD4F4082518262827382809134069D
:1030F0008160809334068A89823080F08D819E8140
:10310000AF81B885880E991EAA1EBB1E8092350617
:1031100090923606A0923706B092380681E0DF9191
:10312000CF911F910F91FF90EF90DF90CF90BF90C4
:10313000AF909F908F907F906F905F904F90089589
:103140008F929F92AF92BF92CF92DF92EF92FF92B7
:103150000F931F93CF93DF93FC0181859285A38505
:10316000B4850196A11DB11D84179507A607B70761
:1031700010F480E05CC083899489A589B689C789E9
:10318000C03129F4852E962EA72EBB2409C04A01F2
:103190005B01C7E0B694A79497948794CA95D1F73A
:1031A000E9016A017B018F01BC01CD01680D791D28
:1031B0008A1D9B1D8090130190901401A090150111
:1031C000B0901601681579058A059B0599F4F801F8
:1031D00087898031A9F4B701A6015527662777278B
:1031E000440F551FFA01EE50FD4F80819181A0E000
:1031F000B0E018C040E00E94B7178111E8CFB9CF06
:10320000B701A6014F77552766277727440F551F2B
:10321000440F551FFA01EE50FD4F80819181A2812C
:10322000B381BF7088839983AA83BB8381E0DF91D8
:10323000CF911F910F91FF90EF90DF90CF90BF90B3
:10324000AF909F908F900895CF93DF93FC012481DE
:1032500027FF2EC0EC01668577858089918941E042
:103260000E94B717882341F1EA8980E2E89FF001C4
:103270001124DF01AE50BD4F1097F1F08D818230E7
:1032800050F44B895C896D897E895C964D935D9382
:103290006D937C935F978F89988DA98DBA8DEE5031
:1032A000FD4F938F828FB58BA48B8C818F778C830E
:1032B000DF91CF910C94D41580E0DF91CF910895E8
:1032C0002F923F924F925F926F927F928F929F9236
:1032D000AF92BF92CF92DF92EF92FF920F931F9324
:1032E000CF93DF9300D000D000D0CDB7DEB78C01F4
:1032F0005B011A01DC0115968C9115978130C9F498
:1033000014968C9181FF15C082FF1DC0F80143897E
:1033100054896589768982859385A485B5858417C6
:103320009507A607B70779F0C8010E9476068111B4
:103330000AC081E090E0D80113969C938E93129777
:1033400080E090E042C161012091F0023091F102F1
:103350003E832D8382C0D8015B968D919C915C97B2
:10336000FC0174802FEF270D2A013B0139E0769490
:103370006794579447943A95D1F7722E74207A0146
:10338000F1E0FF22772009F474C080E092E08E190A
:103390009F0946018C159D0508F44C01D8015B96E8
:1033A0002D913C915C9716968D919D910D90BC91BD
:1033B000A02D0297A109B109F901058404C0880F65
:1033C000991FAA1FBB1F0A94D2F7468557856089AB
:1033D0007189840F951FA61FB71F9C01AD01270D92
:1033E000311D411D511D29013A01811432E093061E
:1033F00009F086C08091130190911401A0911501EC
:10340000B091160184159505A605B70559F48FEFFF
:103410009FEFDC018093130190931401A093150199
:10342000B09316019501B301A2018D819E810E9486
:10343000DC08882309F47DCF9EEFB91AC818D90893
:10344000F80182859385A485B585880D991DA11DF8
:10345000B11D82879387A487B587D8011A964D91AD
:103460005D916D917C911D97C114D10409F073CFCA
:1034700087C0E114F10409F088CF16964D915D9153
:103480006D917C911997411551056105710559F4AC
:1034900057968D919D910D90BC91A02D0097A105FF
:1034A000B10541F521C09E012F5F3F4F0E94A0183A
:1034B000882309F446CF89819A81AB81BC81F801C8
:1034C000238D348DF9012789203129F048EF5FEFF2
:1034D0006FEF7FE004C048EF5FEF60E070E08417BB
:1034E0009507A607B70730F0C8010E94450781116C
:1034F0004CCF1FCFF80186839783A087B18745CF34
:10350000E114F10429F5D8011A964D915D916D9160
:103510007C911D9753968D919D910D90BC91A02DFE
:10352000481759076A077B0798F00E94D41588232B
:1035300009F4FFCE409213015092140160921501DC
:10354000709216018091340681608093340608C021
:1035500041E0C301B2010E94B717882309F4E9CE04
:10356000D501F701EE50FD4FCF01880D991DE817E9
:10357000F90719F02D912193FACFA80CB91C5ECF51
:1035800053968D919D910D90BC91A02D8417950718
:10359000A607B70740F4F801438B548B658B768BF5
:1035A000848180688483D80114968C9183FD02C045
:1035B000C1010BC0F8018581882309F4BACEC80186
:1035C0000E9424198111F4CFB4CE26960FB6F89438
:1035D000DEBF0FBECDBFDF91CF911F910F91FF9046
:1035E000EF90DF90CF90BF90AF909F908F907F90A3
:1035F0006F905F904F903F902F900895CF93DF93FF
:103600001F92CDB7DEB7698341E050E0BE016F5F26
:103610007F4F0E9460190F90DF91CF910895CF9254
:10362000DF92EF92FF920F931F93CF93DF931F923E
:10363000CDB7DEB7182F062FE42E862F880F8E5FAA
:1036400099830E94AB1283E00E94AB12F12EC12E2F
:103650009981D92E8C2D8F19801798F4F601E7FEE9
:1036600002C0849101C080810E94AB12182F80E0BB
:103670000E94AB128123FFEFCF1ADF0A8111EACF3C
:1036800001C081E00F90DF91CF911F910F91FF90CA
:10369000EF90DF90CF9008950F931F931092F50451
:1036A0001092F40448EE53E060E070E04093F604BA
:1036B0005093F7046093F8047093F90485E391E064
:1036C0009093F3048093F2048FEF9FEF9093FF04A5
:1036D0008093FE0480E58093420581E0809343055A
:1036E00010929005109291051092940510929605F3
:1036F00002E010E020E030E0009397051093980579
:103700002093990530939A051092AE051092B80552
:103710001092B70527E431E03093B6052093B50544
:103720001092BA051092D7051092D6054093D8058D
:103730005093D9056093DA057093DB0523E531E0FA
:103740003093D5052093D405109247051092460575
:1037500080934D051092500510924F0525E631E0FB
:1037600030934505209344051092EE059091E605AF
:10377000911112C01092E1051092E0052EEC31E09B
:103780003093E3052093E20526E330E03093E5052E
:103790002093E4058093E6050E944517FC01A3856C
:1037A000B485109729F480EE95E0948783870BC049
:1037B0008D919C911197009711F0DC01F9CF80EE6B
:1037C00095E08D939C93258536858091E4059091B5
:1037D000E505820F931F9687858781E190E00E941F
:1037E0007220FC0184E792E0938382831482158225
:1037F0001782168221E831E03183208311861086FA
:10380000138612861586148616861786108AF093FC
:103810008605E0938505F0938805E093870587E1A9
:1038200091E090938A05809389058BE092E09093D4
:10383000800580937F0510928105109282058DE9A5
:1038400095E0909384058093830583E791E09093BE
:103850007E0580937D0548EE51E050936F054093BF
:103860006E051092700510927105109273051092FA
:10387000720530936D0520936C05109275051092BA
:1038800074051092770510927605109279051092C2
:10389000780510927A0510927B0510927C0521E242
:1038A00032E0309367052093660510926805109208
:1038B000690529EA35E030936B0520936A059093FA
:1038C00065058093640524E532E030935F0520931D
:1038D0005E05109260051092610525EB35E030938E
:1038E00063052093620590935D0580935C0546E631
:1038F00052E0509357054093560510925805109288
:10390000590530935B0520935A0590935505809394
:103910005405109200061092FF058FE891E09093F5
:10392000FE058093FD058091F505811113C010926D
:10393000F0051092EF0584E092E09093F2058093F9
:10394000F1058FE290E09093F4058093F30581E018
:103950008093F5050E944517FC01A385B485109757
:1039600029F48FEE95E0948783870BC08D919C910D
:103970001197009711F0DC01F9CF8FEE95E08D9350
:103980009C93258536858091F3059091F405820FEF
:10399000931F968785871092100610920F0688EE67
:1039A00093E0A0E0B0E08093110690931206A093FC
:1039B0001306B09314068BE991E090930E06809362
:1039C0000D0610922706109226061092190680E81E
:1039D00090E00E94722090930C0680930B068CE07E
:1039E00090E00E94722090930A06809309061F912E
:1039F0000F910895789484B5826084BD84B5816008
:103A000084BD85B5826085BD85B5816085BD8091A9
:103A10006E00816080936E00109281008091810021
:103A20008260809381008091810081608093810019
:103A300080918000816080938000809191008260FD
:103A4000809391008091910081608093910080919A
:103A500090008160809390008091C1008460809389
:103A6000C1008091C10082608093C1008091C1003B
:103A700081608093C1008091C30081608093C30006
:103A80008091C00082608093C0008091C2008160FC
:103A90008093C20080917A00846080937A00809144
:103AA0007A00826080937A0080917A008E7F809382
:103AB0007A0080917A00806880937A001092EF02F9
:103AC0001092EB021092EC028091D70081608093FB
:103AD000D70080EA8093D80089B58F7E89BD89B5EB
:103AE000826089BD09B400FEFDCF61E070E080E036
:103AF00090E00E948A168091D8008F7C806180932C
:103B0000D8008091E000807F8093E0008091E10008
:103B10008E7E8093E1008DE08093E200559A209A9A
:103B2000EEEFFFE7859194918B3F9C4D19F481E076
:103B30008093EA02109253058CE380935205109211
:103B4000B90082E08093B8001092480510924905B0
:103B5000EFEAF6E085919491E82EE1EBF6E0F4903F
:103B6000E2EBF6E0E491E0934A05E3EBF6E0E49162
:103B7000E0934B05E4EBF6E0E491E0934C058C0117
:103B8000802F8E198F1548F4F801649184E495E034
:103B90000E948A0A0F5F1F4FF3CF10924E0584E4F4
:103BA00095E00E94A70C84EC92E0909350058093DE
:103BB0004F05C12CD12CE12CF12CAA24AA94BB24B2
:103BC000B3944E2D60E084E495E00E94AA0A45017A
:103BD0008C189D0800E010E0F801EC0DFD1DE1558A
:103BE000FB4F649184E495E00E944709081519058C
:103BF000A9F00F5F1F4F0038110571F7FFEFEF1AA3
:103C0000FF0A20E8C20ED11C84E0E816F104C9F6D0
:103C100044E060E084E495E00E94AA0A60ED77E069
:103C200080E090E00E948A1684E495E00E94A70C50
:103C300084E495E00E94A70C61E070E080E090E0F1
:103C40000E948A166AEF70E080E090E00E948A1677
:103C50006DE775E080918505909186050E941A17A1
:103C600000918505109186056CE675E0C8010E94FB
:103C70001A17109379050093780564E675E0809132
:103C80008505909186050E941A176CE575E08CE613
:103C900095E00E941A1764E575E08CE695E00E94B5
:103CA0001A170E94590DE5EBF6E0E49180917B0034
:103CB000E3FB992790F9C92FA0E0DA2F95E0CC0F0C
:103CC000DD1F9A95E1F78F7DC82BC0937B00E770CD
:103CD000E064E0937C0080917A00806480937A00B5
:103CE00080917A0086FDFCCF609178008091790008
:103CF00070E0782B072E000C880B990B611571056D
:103D00008105910511F00E94C91F61E086E00E94C3
:103D10004E1661E087E00E944E1661E086E00E9448
:103D2000D31361E087E00E94D3136AEF70E080E074
:103D300090E00E948A1660E086E00E94D31360E063
:103D400087E00E94D3136AEF70E080E090E00E9469
:103D50008A1661E086E00E94D31361E087E00E944A
:103D6000D3136AEF70E080E090E00E948A1660E072
:103D700086E00E94D31360E087E00E94D3136AEFCD
:103D800070E080E090E00E948A1662E088E00E9485
:103D90004E1662E089E00E944E1662E08AE00E94C0
:103DA0004E1662E08BE00E944E1662E08CE00E94AC
:103DB0004E1662E08BE00E944E1662E088E00E94A0
:103DC0004E168FEF9FEF9093FF048093FE0400E068
:103DD00010E08CE00E948212892B21F5A0918705CA
:103DE000B09188051896CD91DC9119978C81882324
:103DF00041F0E881F9810280F381E02D60E0CE019D
:103E000008C0ED91FC9111970280F381E02D60E0F4
:103E1000CD0109950E94590D62E370E080E090E0C9
:103E20000E948A1688E00E948212892B49F5E0914F
:103E30008705F091880586858823D1F087852285BE
:103E40009385E22FF92FE80FF11DE80FF11D808116
:103E50009181009769F0DC01ED91FC910084F1857E
:103E6000E02D0995009721F09093880580938705B0
:103E70000E94590D62E370E080E090E00E948A1693
:103E80008BE00E948212892B21F5A0918705B091C9
:103E900088051896CD91DC9119978C81882341F083
:103EA000E881F9810480F581E02D60E0CE0108C051
:103EB000ED91FC9111970480F581E02D60E0CD013A
:103EC00009950E94590D62E370E080E090E00E9445
:103ED0008A1664E670E080E090E00E948A16011580
:103EE000110509F476CF0E94000073CF8F929F9244
:103EF000AF92BF92CF92DF92EF92FF92CF93DF9378
:103F0000EC01688179818A819B8161157105810548
:103F1000910521F464E279ED8BE597E02DE133EF33
:103F200041E050E00E94D21F49015A019B01AC01BF
:103F3000A7EAB1E40E94F11F6B017C01ACEEB4EF83
:103F4000A50194010E94FF1FDC01CB018C0D9D1D7A
:103F5000AE1DBF1DB7FF03C00197A109B0488883FC
:103F60009983AA83BB83BC01CD019F77DF91CF9159
:103F7000FF90EF90DF90CF90BF90AF909F908F9089
:103F800008950E94761F089589E191E00E94761FAE
:103F900008956093190170931A0180931B01909307
:103FA0001C010895052E97FB1EF400940E94E91F42
:103FB00057FD07D00E943B2007FC03D04EF40C9421
:103FC000E91F50954095309521953F4F4F4F5F4FDA
:103FD000089590958095709561957F4F8F4F9F4F75
:103FE00008950E945D20A59F900DB49F900DA49F01
:103FF000800D911D11240895B7FF0C94F11F0E94AC
:10400000F11F821B930B08952F923F924F925F9264
:104010006F927F928F929F92AF92BF92CF92DF92D8
:10402000EF92FF920F931F93CF93DF93CDB7DEB73D
:10403000CA1BDB0B0FB6F894DEBF0FBECDBF0994D1
:104040002A88398848885F846E847D848C849B8428
:10405000AA84B984C884DF80EE80FD800C811B8136
:10406000AA81B981CE0FD11D0FB6F894DEBF0FBE65
:10407000CDBFED010895A1E21A2EAA1BBB1BFD01C5
:104080000DC0AA1FBB1FEE1FFF1FA217B307E40737
:10409000F50720F0A21BB30BE40BF50B661F771F8F
:1040A000881F991F1A9469F760957095809590956F
:1040B0009B01AC01BD01CF010895A29FB001B39F48
:1040C000C001A39F700D811D1124911DB29F700D21
:1040D000811D1124911D0895EE0FFF1F0590F4918D
:1040E000E02D0994CF93DF938230910510F482E0A4
:1040F00090E0E0915D06F0915E0620E030E0C0E0E7
:10410000D0E0309711F14081518148175907C0F034
:104110004817590761F482819381209719F09B8396
:104120008A832BC090935E0680935D0626C021157E
:10413000310519F04217530718F49A01BE01DF0147
:10414000EF010280F381E02DDCCF2115310509F16B
:10415000281B390B2430310590F412968D919C91D7
:1041600013976115710521F0FB019383828304C0CD
:1041700090935E0680935D06FD01329644C0FD017A
:10418000E20FF31F81939193225031092D933C93B9
:104190003AC020915B0630915C06232B41F42091BC
:1041A0001F013091200130935C0620935B06209123
:1041B0001D0130911E012115310541F42DB73EB787
:1041C0004091210150912201241B350BE0915B06A7
:1041D000F0915C06E217F307A0F42E1B3F0B2817A3
:1041E000390778F0AC014E5F5F4F2417350748F070
:1041F0004E0F5F1F50935C0640935B068193919333
:1042000002C0E0E0F0E0CF01DF91CF9108950F937D
:104210001F93CF93DF93009709F48CC0FC01329772
:104220001382128200915D0610915E060115110540
:1042300081F420813181820F931F20915B063091A0
:104240005C062817390779F5F0935C06E0935B0666
:1042500071C0D80140E050E0AE17BF0750F412968D
:104260002D913C911397AD012115310509F1D9012B
:10427000F3CF9D01DA013383228360817181860F40
:10428000971F8217930769F4EC0128813981260F63
:10429000371F2E5F3F4F318320838A819B81938319
:1042A0008283452B29F4F0935E06E0935D0642C0BD
:1042B0001396FC93EE931297ED01499159919E014B
:1042C000240F351FE217F30771F480819181840F69
:1042D000951F029611969C938E93828193811396DB
:1042E0009C938E931297E0E0F0E0D80112968D91A6
:1042F0009C911397009719F0F8018C01F6CF8D91DE
:104300009C9198012E5F3F4F820F931F20915B0677
:1043100030915C062817390769F4309729F4109218
:104320005E0610925D0602C01382128210935C0634
:1043300000935B06DF91CF911F910F910895A0E04C
:10434000B0E0E5EAF1E20C940820EC01009721F4DA
:10435000CB010E947220B8C0FC01E60FF71F9C0140
:1043600022503109E217F30708F4ACC0D9010D91CE
:104370001C91119706171707B0F00530110508F4C6
:104380009FC0C80104978617970708F499C0025088
:104390001109061B170B019311936D937C93CF01A9
:1043A0000E9407218DC05B01A01AB10A4C01800E4A
:1043B000911EA0915D06B0915E0640E050E0E12CB8
:1043C000F12C109709F44AC0A815B905D1F56D90E4
:1043D0007C901197630182E0C80ED11CCA14DB04E3
:1043E00080F1A3014A195B096A0182E0C80ED11C61
:1043F0001296BC9012971396AC91B5E0CB16D104EF
:1044000040F0B282A38351834083D9016D937C93A2
:104410000AC00E5F1F4FC301800F911FF9019183E6
:104420008083EB2DFA2FE114F10431F0D7011396BC
:10443000FC93EE93129744C0F0935E06E0935D0602
:104440003FC08D919C9111974817590708F4AC0112
:104450007D0112960D90BC91A02DB3CF80915B068B
:1044600090915C0688159905E1F446175707C8F442
:1044700080911D0190911E01009741F48DB79EB768
:104480004091210150912201841B950BE817F907F7
:10449000C8F4F0935C06E0935B06F90171836083D6
:1044A0000FC0CB010E9472207C01009759F0A80137
:1044B000BE010E946E22CE010E940721C70104C0E6
:1044C000CE0102C080E090E0CDB7DEB7EEE00C9404
:1044D000242081E090E0F8940C947722FB01DC0129
:1044E00002C001900D9241505040D8F70895F894C1
:0244F000FFCFFC
:1044F20000C18081000000FFFFFFFF00E10000001B
:10450200000000FFFFFFFF27010100000000005F25
:1045120006800000000000C30CCF05C805C10539A4
:104522000400000000FE1173131F12141224126201
:10453200123E1200000000FE1AD311A0049F0400D4
:1045420000000028041404A00406040D040A040751
:104552000400000000070BD311A0049F04460400CE
:104562000000002C142A1428143614F4140000003D
:10457200003714A71479144114F91400000000D66E
:1045820005D311A0049F0400000000BE038105A012
:10459200045C059D0367050C070000000002158CF2
:1045A200154C1529154974656D312053656C656389
:1045B2007465642020004974656D332053656C6511
:1045C200637465642020004974656D322053656C04
:1045D20065637465642020002020204B6579626F3A
:1045E20061726473003D3D3D3D3D204D41494E2089
:1045F2004D454E55203D3D3D3D3D0020202053631D
:104602007269707473002D3E205363726970747303
:1046120000202020496E666F002D3E204B65796296
:104622006F61726473002D3E20496E666F003D3DDE
:104632003D3D3D204B4559424F41524453203D3D63
:104642003D3D3D0020202050542D5054002D3E2051
:1046520050542D505400202020454E002D3E204520
:064662004E000D0A0000ED
:1070000055C000006EC000006CC000006AC00000E7
:1070100068C0000066C0000064C0000062C00000DC
:1070200060C000005EC00000FCC400005AC0000048
:1070300058C0000056C0000054C0000052C00000FC
:1070400050C000005DC000004CC000004AC00000FD
:1070500048C0000046C0000044C0000042C000001C
:1070600040C000003EC000003CC000003AC000002C
:1070700038C0000036C0000034C0000032C000003C
:1070800030C000002EC000002CC000002AC000004C
:1070900028C0000026C0000024C0000022C000005C
:1070A00020C000001EC000001CC0000011241FBE34
:1070B000CFEFDAE0DEBFCDBF11E0A0E0B1E0E2E467
:1070C000FFE702C005900D92A43BB107D9F711E08C
:1070D000A4EBB1E001C01D92AD3CB107E1F74FD385
:1070E0002EC78ECFF89410926F001092810081E02D
:1070F00085BF15BE47985D9A289A0C9400000895A4
:107100001F920F920FB60F9211242F938F939F937C
:10711000EF93FF9310928500109284008091B40148
:107120009091B501009741F001979093B50180933C
:10713000B401892B09F45D9A8091B6019091B70151
:10714000009741F001979093B7018093B601892B86
:1071500009F4289A8091BA019091BB01019690930D
:10716000BB018093BA01E0E0F0E0859194918F5FDC
:107170009F4F49F08091B8019091B9010196909389
:10718000B9018093B801FF91EF919F918F912F9159
:107190000F900FBE0F901F90189584E08093E90028
:1071A0000DC08091E8008B778093E80003C08EB318
:1071B000882351F08091E80082FFF9CF8091E800A8
:1071C00085FFEFCF8091F1000895982F83E08093A1
:1071D000E9008091E80085FD0DC08091E8008E7780
:1071E0008093E80003C08EB3882369F08091E800A3
:1071F00080FFF9CF9093F1005D9884E690E0909342
:10720000B5018093B40108954F925F926F927F927F
:107210008F929F92AF92BF92CF92DF92EF92FF92A6
:107220000F931F93CF93DF9384E08093E9008091C5
:10723000E80082FF57C2289884E690E09093B70157
:107240008093B601AADF182F853481F48CEA9DE083
:107250009093B9018093B80107B600FCFDCFF9996E
:10726000FECF81E180935700E89503C0843519F47F
:1072700094DF8DE00DC28C34E1F38035D1F3843797
:1072800021F484E4A2DF80E003C2813611F489E5B1
:10729000FFC18134B1F481DF182F7FDF90E0880FC8
:1072A000991FAA2797FDA095BA2F312F330F20E001
:1072B000442737FD4095542F822B932BA42BB52BBD
:1072C000B8C1803711F483E5E3C1833549F4C0E0E8
:1072D000D1E089917ADF21E0C730D207D1F7D9C157
:1072E000863521F481E371DF80E3D2C1833731F445
:1072F00087E86BDF85E969DF8EE1CAC18536B9F4BD
:10730000E0E0F0E093E085E090935700E89507B661
:1073100000FCFDCF80935700E89507B600FCFDCF39
:10732000E058FF4FA0E7E030FA0771F7A2CF8237AD
:1073300039F4E1E0F0E089E0809357008491A8C13E
:10734000863439F4E0E0F0E089E0809357008491DE
:107350009FC18E3439F4E3E0F0E089E08093570078
:10736000849196C1813539F4E2E0F0E089E08093C0
:10737000570084918DC1823631F489E526DF80E0A3
:1073800024DF80E885C1823419F0873609F0E5C032
:107390001092B9011092B80100DF082FFEDEF82E1E
:1073A000FCDE682E8554823008F071C1902F80E099
:1073B000CF2DD0E0C82BD92B10926F00173609F0D3
:1073C0004BC081E180935700E895DD24CC24C39421
:1073D0003FC0E090BD01F090BE010091BF0110914F
:1073E000C001B6E46B16D9F4ED2DF0E0EE29FF29CB
:1073F000E4918E2FEADEDD2081F082E090E0A0E0D3
:10740000B0E0E80EF91E0A1F1B1FE092BD01F092CA
:10741000BE010093BF011093C001DC2418C0D80145
:10742000C701B695A7959795879573D5CEDE82E06F
:1074300090E0A0E0B0E0E80EF91E0A1F1B1FE092EA
:10744000BD01F092BE010093BF011093C0012197CE
:10745000209709F0BECF7DC08090BD019090BE0105
:10746000A090BF01B090C00196E4691609F05DC01C
:1074700083E0F40180935700E89507B600FCFDCF48
:1074800054C0F6E46F1661F5772031F1E090BD014C
:10749000F090BE010091BF011091C0017EDED82E98
:1074A000CC24852D90E08C299D29F7010C01409278
:1074B0005700E895112482E090E0A0E0B0E0E80EEB
:1074C000F91E0A1F1B1FE092BD01F092BE0100933E
:1074D000BF011093C00102C060DE582E742423C087
:1074E000E090BD01F090BE010091BF011091C0017C
:1074F00016950795F794E79450DE682FC70111D5CC
:107500008091BD019091BE01A091BF01B091C001D9
:107510000296A11DB11D8093BD019093BE01A09361
:10752000BF01B093C001219704C05524772444249F
:107530004394209709F0A5CF96E4691641F485E0BD
:10754000F40180935700E89507B600FCFDCF8DE06D
:107550003CDE82E080936F009CC0833471F4009124
:10756000BD011091BE0119DE90E021E0F8010C018F
:1075700020935700E89511247CCE833619F5E090CE
:10758000BD01F090BE010091BF011091C00105DE68
:10759000F701E16090E021E00C0120935700E895AD
:1075A000112482E090E0A0E0B0E0E80EF91E0A1F8E
:1075B0001B1FE092BD01F092BE010093BF0110932A
:1075C000C00157CE8D3661F4E091BD01F091BE014E
:1075D00085E080935700E89507B600FCFDCF49CEC3
:1075E000823551F4E091BD01F091BE0105911491F5
:1075F000812FEBDD802F4CC0843421F5E090BD015C
:10760000F090BE010091BF011091C0011695079541
:10761000F794E794C2DD682FC70183D48091BD0140
:107620009091BE01A091BF01B091C0010296A11D31
:10763000B11D8093BD019093BE01A093BF01B09393
:10764000C00117CE843609F5E090BD01F090BE016F
:107650000091BF011091C001D801C701B695A7954F
:107660009795879556D4B1DD82E090E0A0E0B0E038
:10767000E80EF91E0A1F1B1FE092BD01F092BE0129
:107680000093BF011093C00104C08B3111F08FE350
:107690009CDD83E08093E9009091E8008091E80010
:1076A0008E778093E80095FF04C010C08EB38823C6
:1076B000C9F08091E80080FFF9CF8091E8008E77D3
:1076C0008093E80003C08EB3882361F08091E800C6
:1076D00080FFF9CF84E08093E9008091E8008B7708
:1076E0008093E800DF91CF911F910F91FF90EF9071
:1076F000DF90CF90BF90AF909F908F907F906F90D2
:107700005F904F9008959091C501892F8F778132B6
:1077100049F58091C6018032A1F0813219F5913A84
:1077200009F58091E800877F8093E8008CE091E084
:1077300067E070E025D28091E8008B778093E800C5
:107740000895913279F48091E800877F8093E80072
:107750008CE091E067E070E077D28091E8008E776E
:107760008093E800089582E061EC42E0D1D083E0AC
:1077700061E842E1CDD084E060E842E1C9C01F93F6
:10778000209100081092000844B714BE88E10FB69B
:10779000F89480936000109260000FBE80E8E0E0F3
:1077A000F0E00FB6F89480936100E09361000FBEA3
:1077B00031E035BF92E095BF3F9A209A559A809369
:1077C00061001092610047985D9A289A1092890092
:1077D0008AEF8093880090936F0083E0809381000C
:1077E000859194918F5F9F4F11F03093BC01942F3E
:1077F00041FF19C0809109012817A9F08093000862
:10780000789480911301882339F08091BA01909186
:10781000BB0188579140C8F3F8941092000881E0AA
:10782000809313010CC090FF04C08091BC01882399
:1078300051F493FF09C080910901281729F0809124
:10784000BC01882309F04EDCD4D078941092B901A1
:107850001092B8011EEF20C0D7DC49D38091B80147
:107860009091B901815A9F4010F0109213018091BC
:10787000C1019091C20101969093C2018093C10110
:10788000292F97FF03C0512F591B252F220F28178F
:1078900010F4479801C0479A809113018823E1F6BC
:1078A0008091E00081608093E0001CDC80E090E04B
:1078B0001F910895FA01923049F0933061F09130B0
:1078C000F9F484E191E022E130E01EC086E291E02B
:1078D0002EE330E019C0882329F484E691E024E007
:1078E00030E012C0813029F488E691E02EE130E0EA
:1078F0000BC0823029F488E891E02AE230E004C02D
:1079000080E090E020E030E091838083C901089519
:107910008093E9008091EB0081608093EB001092EE
:10792000ED006093EC004093ED008091EE00881F25
:107930008827881F08958091C50188238CF403C08F
:107940008EB38823B1F08091E80082FFF9CF809157
:10795000E8008B778093E80008958EB3882349F080
:107960008091E80080FFF9CF8091E8008E778093C6
:10797000E8000895EF92FF920F931F9345D04CD0EB
:1079800008ED10E0F80180818F7780838081806826
:10799000808380818F7D808319BC1EBA1092C301C1
:1079A00080EEE82EF12CF70180818B7F8083F80137
:1079B00080818160808380E060E042E0A9DFE1EEC9
:1079C000F0E080818E7F8083E2EEF0E08081816054
:1079D0008083808188608083F70180818E7F8083AF
:1079E000F8018081806180831F910F91FF90EF905B
:1079F0000895E7EDF0E08081816080838AE482BFB2
:107A000081E08093C401B6CFE8EDF0E080818E7F05
:107A100080831092E20008951092DA001092E10043
:107A200008951F920F920FB60F9211242F933F9338
:107A30004F935F936F937F938F939F93AF93BF9376
:107A4000EF93FF938091DA0080FF1AC08091D800F5
:107A500080FF16C08091DA008E7F8093DA008091DB
:107A6000D90080FF0AC019BC82E089BD09B400FEBC
:107A7000FDCF81E08EBB3AD203C019BC1EBA36D20C
:107A80008091E10080FF17C08091E20080FF13C069
:107A90008091E2008E7F8093E2008091E20080611D
:107AA0008093E2008091D80080628093D80019BC56
:107AB00085E08EBB1BD28091E10084FF2BC08091BA
:107AC000E20084FF27C019BC82E089BD09B400FE32
:107AD000FDCF8091D8008F7D8093D8008091E10008
:107AE0008F7E8093E1008091E2008F7E8093E200A0
:107AF0008091E20081608093E2008091C30188233D
:107B000031F48091E30087FD02C081E001C084E090
:107B10008EBBECD18091E10083FF21C08091E20017
:107B200083FF1DC08091E100877F8093E10082E0A8
:107B30008EBB1092C3018091E1008E7F8093E100A3
:107B40008091E2008E7F8093E2008091E20080616C
:107B50008093E20080E060E042E0DADEC7D1FF918E
:107B6000EF91BF91AF919F918F917F916F915F91B5
:107B70004F913F912F910F900FBE0F901F9018952E
:107B80009C014091CB015091CC014617570718F446
:107B9000F90190E044C06115710511F0AB01F8CF17
:107BA0008091E8008E778093E80040E050E0F0CFCD
:107BB0008EB3882309F444C0853009F443C0809112
:107BC000E80083FF02C081E008958091E80082FD13
:107BD00031C08091E80080FF22C08091F300909135
:107BE000F200782F60E0292F30E0262B372B07C0DA
:107BF00081918093F100415050402F5F3F4F4115DC
:107C0000510519F02830310598F390E028303105FE
:107C100009F491E08091E8008E778093E8004115A7
:107C2000510531F6992321F605C08EB3882341F022
:107C3000853041F08091E80082FFF7CF80E0089521
:107C400082E0089583E008959C016115710529F48F
:107C50008091E8008B778093E800F90126C08EB30D
:107C6000882391F1853091F18091E80083FF02C073
:107C700081E008958091E80082FFF1CF06C08091F5
:107C8000F10081936150704059F02091F300809190
:107C9000F200322F20E090E0822B932B892B79F792
:107CA0008091E8008B778093E80061157105B9F643
:107CB00005C08EB3882341F0853041F08091E80003
:107CC00080FFF7CF80E0089582E0089583E0089573
:107CD0000F931F93DF93CF9300D0CDB7DEB7E5ECC2
:107CE000F1E08091F100819381E0ED3CF807C9F764
:107CF0000ADD8091E80083FFE4C08091C501909186
:107D0000C601953009F46DC0963040F4913081F190
:107D1000913070F0933009F0D4C02AC0983009F443
:107D2000A3C0993009F4B2C0963009F0CAC07CC033
:107D3000803809F4C6C0823809F0C3C08091C901F7
:107D400087708093E9008091EB001092E900209108
:107D5000E800277F2093E80090E025E0969587953E
:107D60002A95E1F781708093F1001092F10087C0AD
:107D7000882319F0823009F0A4C08F71823009F095
:107D8000A0C08091C701882331F52091C9012770D7
:107D900009F497C02093E9008091EB0080FF1BC09D
:107DA000933021F48091EB00806213C08091EB004E
:107DB00080618093EB0081E090E002C0880F991F02
:107DC0002A95E2F78093EA001092EA008091EB0096
:107DD00088608093EB001092E9008091E800877F33
:107DE00051C0882309F06DC01091C7011F770FB7EC
:107DF000F8948091E800877F8093E8009CDD809173
:107E0000E80080FFFCCF8091E3008078812B809395
:107E1000E30080688093E300112311F482E001C045
:107E200083E08EBB0FBF4DC08058823008F049C040
:107E30008091C7019091C8016091C901AE014F5F67
:107E40005F4F38DDBC01009709F43BC08091E8002A
:107E5000877F8093E80089819A8192DE8091E80093
:107E60008B778093E8002DC0803859F58091E80029
:107E7000877F8093E8008091C3018093F100809117
:107E8000E8008E778093E80056DD1BC08823C9F494
:107E90009091C7019230A8F48091E800877F809389
:107EA000E8009093C30147DD8091C301882331F43A
:107EB0008091E30087FD02C081E001C084E08EBBB9
:107EC00052DC8091E80083FF0AC08091EB00806261
:107ED0008093EB008091E800877F8093E8000F900B
:107EE0000F90CF91DF911F910F91089508951F93E7
:107EF0008EB3882361F01091E9001092E90080911F
:107F0000E80083FF01C0E4DE17701093E9001F91C1
:107F10000895F999FECF92BD81BDF89A992780B551
:107F20000895262FF999FECF1FBA92BD81BD20BDBD
:107F30000FB6F894FA9AF99A0FBE01960895F8943C
:027F4000FFCF71
:107F42004341544552494E41007700080000000069
:107F52000000080112011001020000084F1B0392E9
:107F620001000201000109023E0002010080320903
:107F72000400000102020100052400100104240291
:107F8200040524060001070582030800FF09040115
:107F920000020A0000000705040210000107058321
:107FA20002100001040309041E03500072006F0056
:107FB20020004D006900630072006F002000330052
:107FC2002E003300560000002A03530070006100A7
:107FD20072006B00460075006E00200045006C00C8
:107FE20065006300740072006F006E006900630038
:047FF2007300000018
:040000030000700089
:00000001FF