:1070000055C000006EC000006CC000006AC00000E7
:1070100068C0000066C0000064C0000062C00000DC
:1070200060C000005EC00000CCC400005AC0000078
:1070300058C0000056C0000054C0000052C00000FC
:1070400050C0000078C000004CC000004AC00000E2
:1070500048C0000046C0000044C0000042C000001C
:1070600040C000003EC000003CC000003AC000002C
:1070700038C0000036C0000034C0000032C000003C
:1070800030C000002EC000002CC000002AC000004C
:1070900028C0000026C0000024C0000022C000005C
:1070A00020C000001EC000001CC0000011241FBE34
:1070B000CFEFDAE0DEBFCDBF11E0A0E0B1E0E2EE5D
:1070C000FEE702C005900D92A83AB107D9F711E08A
:1070D000A8EAB1E001C01D92AE3BB107E1F78FD342
:1070E000FEC68ECFF89410926F001092810010921D
:1070F00085001092840081E085BF15BE47985D9899
:1071000028980C94000008952091B2013091B301A9
:107110002F5F3F4F3093B3012093B201932F37FF7E
:1071200003C08EEF831B982F990F921710F4479886
:107130000895479A08951F920F920FB60F92112447
:107140002F938F939F93EF93FF931092850010924C
:1071500084008091A8019091A901009741F00197C6
:107160009093A9018093A801892B09F45D988091DF
:10717000AA019091AB01009741F001979093AB0168
:107180008093AA01892B09F42898E0E0F0E085912A
:1071900094918F5F9F4F49F08091AC019091AD0128
:1071A00001969093AD018093AC01FF91EF919F9177
:1071B0008F912F910F900FBE0F901F90189584E024
:1071C0008093E9000DC08091E8008B778093E80000
:1071D00003C08EB3882351F08091E80082FFF9CF7D
:1071E0008091E80085FFEFCF8091F1000895982FFE
:1071F00083E08093E9008091E80085FD0DC08091D7
:10720000E8008E778093E80003C08EB3882369F08E
:107210008091E80080FFF9CF9093F1005D9A84E6B9
:1072200090E09093A9018093A80108954F925F92F6
:107230006F927F928F929F92AF92BF92CF92DF9286
:10724000EF92FF920F931F93CF93DF9384E080938D
:10725000E9008091E80082FF57C2289A84E690E016
:107260009093AB018093AA01AADF182F853481F493
:107270008CE49DE19093AD018093AC0107B600FCD6
:10728000FDCFF999FECF81E180935700E89503C0C7
:10729000843519F494DF8DE00DC28C34E1F3803530
:1072A000D1F3843721F484E4A2DF80E003C2813685
:1072B00011F489E5FFC18134B1F481DF182F7FDF3C
:1072C00090E0880F991FAA2797FDA095BA2F312F1C
:1072D000330F20E0442737FD4095542F822B932B0A
:1072E000A42BB52BB8C1803711F483E5E3C18335F6
:1072F00049F4C0E0D1E089917ADF21E0C730D207BC
:10730000D1F7D9C1863521F481E371DF80E3D2C1A1
:10731000833731F487E86BDF85E969DF8EE1CAC125
:107320008536B9F4E0E0F0E093E085E09093570013
:10733000E89507B600FCFDCF80935700E89507B6A7
:1073400000FCFDCFE058FF4FA0E7E030FA0771F7EF
:10735000A2CF823739F4E1E0F0E089E08093570072
:107360008491A8C1863439F4E0E0F0E089E08093AC
:10737000570084919FC18E3439F4E3E0F0E089E056
:1073800080935700849196C1813539F4E2E0F0E0B2
:1073900089E08093570084918DC1823631F489E56C
:1073A00026DF80E024DF80E885C1823419F087364B
:1073B00009F0E5C01092AD011092AC0100DF082F7A
:1073C000FEDEF82EFCDE682E8554823008F071C196
:1073D000902F80E0CF2DD0E0C82BD92B10926F00DA
:1073E000173609F04BC081E180935700E895DD2402
:1073F000CC24C3943FC0E090AE01F090AF01009167
:10740000B0011091B101B6E46B16D9F4ED2DF0E0A6
:10741000EE29FF29E4918E2FEADEDD2081F082E063
:1074200090E0A0E0B0E0E80EF91E0A1F1B1FE092FA
:10743000AE01F092AF010093B0011093B101DC24D2
:1074400018C0D801C701B695A7959795879531D5EE
:10745000CEDE82E090E0A0E0B0E0E80EF91E0A1F68
:107460001B1FE092AE01F092AF010093B0011093A8
:10747000B1012197209709F0BECF7DC08090AE0169
:107480009090AF01A090B001B090B10196E4691660
:1074900009F05DC083E0F40180935700E89507B6DA
:1074A00000FCFDCF54C0F6E46F1661F5772031F192
:1074B000E090AE01F090AF010091B0011091B101E8
:1074C0007EDED82ECC24852D90E08C299D29F701D5
:1074D0000C0140925700E895112482E090E0A0E072
:1074E000B0E0E80EF91E0A1F1B1FE092AE01F092F9
:1074F000AF010093B0011093B10102C060DE582EBD
:10750000742423C0E090AE01F090AF010091B0016F
:107510001091B10116950795F794E79450DE682F06
:10752000C701CFD48091AE019091AF01A091B0017D
:10753000B091B1010296A11DB11D8093AE0190934F
:10754000AF01A093B001B093B101219704C05524BD
:10755000772444244394209709F0A5CF96E4691634
:1075600041F485E0F40180935700E89507B600FCEC
:10757000FDCF8DE03CDE82E080936F009CC08334C1
:1075800071F40091AE011091AF0119DE90E021E09D
:10759000F8010C0120935700E89511247CCE833626
:1075A00019F5E090AE01F090AF010091B00110919B
:1075B000B10105DEF701E16090E021E00C012093CC
:1075C0005700E895112482E090E0A0E0B0E0E80EDA
:1075D000F91E0A1F1B1FE092AE01F092AF0100934B
:1075E000B0011093B10157CE8D3661F4E091AE0138
:1075F000F091AF0185E080935700E89507B600FC55
:10760000FDCF49CE823551F4E091AE01F091AF014A
:1076100005911491812FEBDD802F4CC0843421F52E
:10762000E090AE01F090AF010091B0011091B10176
:1076300016950795F794E794C2DD682FC70141D4EA
:107640008091AE019091AF01A091B001B091B101D4
:107650000296A11DB11D8093AE019093AF01A0933E
:10766000B001B093B10117CE843609F5E090AE01B8
:10767000F090AF010091B0011091B101D801C701A4
:10768000B695A7959795879514D4B1DD82E090E0E3
:10769000A0E0B0E0E80EF91E0A1F1B1FE092AE0149
:1076A000F092AF010093B0011093B10104C08B318F
:1076B00011F08FE39CDD83E08093E9009091E80076
:1076C0008091E8008E778093E80095FF04C010C099
:1076D0008EB38823C9F08091E80080FFF9CF8091B4
:1076E000E8008E778093E80003C08EB3882361F0B2
:1076F0008091E80080FFF9CF84E08093E9008091D9
:10770000E8008B778093E800DF91CF911F910F9174
:10771000FF90EF90DF90CF90BF90AF909F908F90B1
:107720007F906F905F904F9008959091B601892F50
:107730008F77813249F58091B7018032A1F0813293
:1077400019F5913A09F58091E800877F8093E80068
:107750008DE091E067E070E0E3D18091E8008B7705
:107760008093E8000895913279F48091E800877F52
:107770008093E8008DE091E067E070E035D2809181
:10778000E8008E778093E800089582E061EC42E0A3
:107790008FD083E061E842E18BD084E060E842E191
:1077A00087C084B7877F84BF88E10FB6F894809341
:1077B0006000109260000FBE20E880E090E00FB6FD
:1077C000F89420936100809361000FBE81E085BF33
:1077D00092E095BF3F9A209A559AE1E6F0E0208327
:1077E000108247985D982898109289008AEF8093BC
:1077F000880090936F0083E080938100CAC08091DD
:10780000000890910108109201081092000884B7B6
:1078100014BE88E10FB6F894809360001092600067
:107820000FBE80E184B985B91C9B01C05BDCB9DF68
:1078300078941092AD011092AC01F8DC28D38091BD
:10784000AC019091AD0181549F4110F01092140150
:107850005BDCF3CFFA01923049F0933061F0913064
:10786000F9F485E191E022E130E01EC087E291E089
:107870002EE330E019C0882329F485E691E024E066
:1078800030E012C0813029F489E691E022E230E054
:107890000BC0823029F48DE891E028E130E004C08B
:1078A00080E090E020E030E091838083C90108957A
:1078B0008093E9008091EB0081608093EB0010924F
:1078C000ED006093EC004093ED008091EE00881F86
:1078D0008827881F08958091B60188238CF403C0FF
:1078E0008EB38823B1F08091E80082FFF9CF8091B8
:1078F000E8008B778093E80008958EB3882349F0E1
:107900008091E80080FFF9CF8091E8008E77809326
:10791000E8000895EF92FF920F931F9345D04CD04B
:1079200008ED10E0F80180818F7780838081806886
:10793000808380818F7D808319BC1EBA1092B40130
:1079400080EEE82EF12CF70180818B7F8083F80197
:1079500080818160808380E060E042E0A9DFE1EE29
:10796000F0E080818E7F8083E2EEF0E080818160B4
:107970008083808188608083F70180818E7F80830F
:10798000F8018081806180831F910F91FF90EF90BB
:107990000895E7EDF0E08081816080838AE482BF12
:1079A00081E08093B501B6CFE8EDF0E080818E7F75
:1079B00080831092E20008951092DA001092E100A4
:1079C00008951F920F920FB60F9211242F933F9399
:1079D0004F935F936F937F938F939F93AF93BF93D7
:1079E000EF93FF938091DA0080FF1AC08091D80056
:1079F00080FF16C08091DA008E7F8093DA0080913C
:107A0000D90080FF0AC019BC82E089BD09B400FE1C
:107A1000FDCF81E08EBB3AD203C019BC1EBA36D26C
:107A20008091E10080FF17C08091E20080FF13C0C9
:107A30008091E2008E7F8093E2008091E20080617D
:107A40008093E2008091D80080628093D80019BCB6
:107A500085E08EBB1BD28091E10084FF2BC080911A
:107A6000E20084FF27C019BC82E089BD09B400FE92
:107A7000FDCF8091D8008F7D8093D8008091E10068
:107A80008F7E8093E1008091E2008F7E8093E20000
:107A90008091E20081608093E2008091B4018823AC
:107AA00031F48091E30087FD02C081E001C084E0F1
:107AB0008EBBECD18091E10083FF21C08091E20078
:107AC00083FF1DC08091E100877F8093E10082E009
:107AD0008EBB1092B4018091E1008E7F8093E10013
:107AE0008091E2008E7F8093E2008091E2008061CD
:107AF0008093E20080E060E042E0DADEC7D1FF91EF
:107B0000EF91BF91AF919F918F917F916F915F9115
:107B10004F913F912F910F900FBE0F901F9018958E
:107B20009C014091BC015091BD014617570718F4C4
:107B3000F90190E044C06115710511F0AB01F8CF77
:107B40008091E8008E778093E80040E050E0F0CF2D
:107B50008EB3882309F444C0853009F443C0809172
:107B6000E80083FF02C081E008958091E80082FD73
:107B700031C08091E80080FF22C08091F300909195
:107B8000F200782F60E0292F30E0262B372B07C03A
:107B900081918093F100415050402F5F3F4F41153C
:107BA000510519F02830310598F390E0283031055F
:107BB00009F491E08091E8008E778093E800411508
:107BC000510531F6992321F605C08EB3882341F083
:107BD000853041F08091E80082FFF7CF80E0089582
:107BE00082E0089583E008959C016115710529F4F0
:107BF0008091E8008B778093E800F90126C08EB36E
:107C0000882391F1853091F18091E80083FF02C0D3
:107C100081E008958091E80082FFF1CF06C0809155
:107C2000F10081936150704059F02091F3008091F0
:107C3000F200322F20E090E0822B932B892B79F7F2
:107C40008091E8008B778093E80061157105B9F6A3
:107C500005C08EB3882341F0853041F08091E80063
:107C600080FFF7CF80E0089582E0089583E00895D3
:107C70000F931F93DF93CF9300D0CDB7DEB7E6EB22
:107C8000F1E08091F100819381E0EE3BF807C9F7C4
:107C90004CDD8091E80083FFE4C08091B6019091B3
:107CA000B701953009F46DC0963040F4913081F100
:107CB000913070F0933009F0D4C02AC0983009F4A4
:107CC000A3C0993009F4B2C0963009F0CAC07CC094
:107CD000803809F4C6C0823809F0C3C08091BA0167
:107CE00087708093E9008091EB001092E900209169
:107CF000E800277F2093E80090E025E0969587959F
:107D00002A95E1F781708093F1001092F10087C00D
:107D1000882319F0823009F0A4C08F71823009F0F5
:107D2000A0C08091B801882331F52091BA01277055
:107D300009F497C02093E9008091EB0080FF1BC0FD
:107D4000933021F48091EB00806213C08091EB00AE
:107D500080618093EB0081E090E002C0880F991F62
:107D60002A95E2F78093EA001092EA008091EB00F6
:107D700088608093EB001092E9008091E800877F93
:107D800051C0882309F06DC01091B8011F770FB75B
:107D9000F8948091E800877F8093E8009CDD8091D3
:107DA000E80080FFFCCF8091E3008078812B8093F6
:107DB000E30080688093E300112311F482E001C0A6
:107DC00083E08EBB0FBF4DC08058823008F049C0A1
:107DD0008091B8019091B9016091BA01AE014F5FF5
:107DE0005F4F38DDBC01009709F43BC08091E8008B
:107DF000877F8093E80089819A8192DE8091E800F4
:107E00008B778093E8002DC0803859F58091E80089
:107E1000877F8093E8008091B4018093F100809186
:107E2000E8008E778093E80056DD1BC08823C9F4F4
:107E30009091B8019230A8F48091E800877F8093F8
:107E4000E8009093B40147DD8091B401882331F4B8
:107E50008091E30087FD02C081E001C084E08EBB19
:107E600094DC8091E80083FF0AC08091EB0080627F
:107E70008093EB008091E800877F8093E8000F906B
:107E80000F90CF91DF911F910F91089508951F9347
:107E90008EB3882361F01091E9001092E90080917F
:107EA000E80083FF01C0E4DE17701093E9001F9122
:107EB0000895F999FECF92BD81BDF89A992780B5B2
:107EC0000895262FF999FECF1FBA92BD81BD20BD1E
:107ED0000FB6F894FA9AF99A0FBE01960895F8949D
:027EE000FFCFD2
:107EE2004341544552494E41007777000800000053
:107EF20000000008011201100102000008412337AE
:107F02000001000201000109023E0002010080326C
:107F120009040000010202010005240010010424EA
:107F220002040524060001070582030800FF090474
:107F32000100020A00000007050402100001070503
:107F42008302100001040309042203440075006344
:107F5200006B00750069006E006F00200020002099
:107F62000020002000200020002000000018034113
:107F72000072006400750069006E006F0020004C02
:087F8200004C00430000000068
:040000030000700089
:00000001FF
